{
	"contracts/MaintenanceLog.sol": {
		"MaintenanceLog": {
			"abi": [
				{
					"anonymous": false,
					"inputs": [
						{
							"indexed": true,
							"internalType": "uint256",
							"name": "assetId",
							"type": "uint256"
						},
						{
							"indexed": false,
							"internalType": "uint256",
							"name": "date",
							"type": "uint256"
						},
						{
							"indexed": false,
							"internalType": "string",
							"name": "serviceType",
							"type": "string"
						}
					],
					"name": "ServiceLogged",
					"type": "event"
				},
				{
					"inputs": [
						{
							"internalType": "uint256",
							"name": "assetId",
							"type": "uint256"
						}
					],
					"name": "getServiceHistory",
					"outputs": [
						{
							"components": [
								{
									"internalType": "uint256",
									"name": "date",
									"type": "uint256"
								},
								{
									"internalType": "string",
									"name": "serviceType",
									"type": "string"
								},
								{
									"internalType": "string",
									"name": "serviceProvider",
									"type": "string"
								},
								{
									"internalType": "string",
									"name": "partsReplaced",
									"type": "string"
								}
							],
							"internalType": "struct MaintenanceLog.ServiceRecord[]",
							"name": "",
							"type": "tuple[]"
						}
					],
					"stateMutability": "view",
					"type": "function"
				},
				{
					"inputs": [
						{
							"internalType": "uint256",
							"name": "assetId",
							"type": "uint256"
						},
						{
							"internalType": "string",
							"name": "serviceType",
							"type": "string"
						},
						{
							"internalType": "string",
							"name": "serviceProvider",
							"type": "string"
						},
						{
							"internalType": "string",
							"name": "partsReplaced",
							"type": "string"
						}
					],
					"name": "logService",
					"outputs": [],
					"stateMutability": "nonpayable",
					"type": "function"
				},
				{
					"inputs": [
						{
							"internalType": "uint256",
							"name": "",
							"type": "uint256"
						},
						{
							"internalType": "uint256",
							"name": "",
							"type": "uint256"
						}
					],
					"name": "serviceHistory",
					"outputs": [
						{
							"internalType": "uint256",
							"name": "date",
							"type": "uint256"
						},
						{
							"internalType": "string",
							"name": "serviceType",
							"type": "string"
						},
						{
							"internalType": "string",
							"name": "serviceProvider",
							"type": "string"
						},
						{
							"internalType": "string",
							"name": "partsReplaced",
							"type": "string"
						}
					],
					"stateMutability": "view",
					"type": "function"
				}
			],
			"devdoc": {
				"kind": "dev",
				"methods": {},
				"version": 1
			},
			"evm": {
				"assembly": "    /* \"contracts/MaintenanceLog.sol\":61:870  contract MaintenanceLog {... */\n  mstore(0x40, 0x80)\n  callvalue\n  dup1\n  iszero\n  tag_1\n  jumpi\n  0x00\n  dup1\n  revert\ntag_1:\n  pop\n  dataSize(sub_0)\n  dup1\n  dataOffset(sub_0)\n  0x00\n  codecopy\n  0x00\n  return\nstop\n\nsub_0: assembly {\n        /* \"contracts/MaintenanceLog.sol\":61:870  contract MaintenanceLog {... */\n      mstore(0x40, 0x80)\n      callvalue\n      dup1\n      iszero\n      tag_1\n      jumpi\n      0x00\n      dup1\n      revert\n    tag_1:\n      pop\n      jumpi(tag_2, lt(calldatasize, 0x04))\n      shr(0xe0, calldataload(0x00))\n      dup1\n      0x1e7046b5\n      eq\n      tag_3\n      jumpi\n      dup1\n      0x55cd9c50\n      eq\n      tag_4\n      jumpi\n      dup1\n      0xf3cd2742\n      eq\n      tag_5\n      jumpi\n    tag_2:\n      0x00\n      dup1\n      revert\n        /* \"contracts/MaintenanceLog.sol\":729:867  function getServiceHistory(uint256 assetId) public view returns (ServiceRecord[] memory) {... */\n    tag_3:\n      tag_6\n      0x04\n      dup1\n      calldatasize\n      sub\n      dup2\n      add\n      swap1\n      tag_7\n      swap2\n      swap1\n      tag_8\n      jump\t// in\n    tag_7:\n      tag_9\n      jump\t// in\n    tag_6:\n      mload(0x40)\n      tag_10\n      swap2\n      swap1\n      tag_11\n      jump\t// in\n    tag_10:\n      mload(0x40)\n      dup1\n      swap2\n      sub\n      swap1\n      return\n        /* \"contracts/MaintenanceLog.sol\":398:721  function logService(uint256 assetId, string memory serviceType, string memory serviceProvider, string memory partsReplaced) public {... */\n    tag_4:\n      tag_12\n      0x04\n      dup1\n      calldatasize\n      sub\n      dup2\n      add\n      swap1\n      tag_13\n      swap2\n      swap1\n      tag_14\n      jump\t// in\n    tag_13:\n      tag_15\n      jump\t// in\n    tag_12:\n      stop\n        /* \"contracts/MaintenanceLog.sol\":245:302  mapping(uint256 => ServiceRecord[]) public serviceHistory */\n    tag_5:\n      tag_16\n      0x04\n      dup1\n      calldatasize\n      sub\n      dup2\n      add\n      swap1\n      tag_17\n      swap2\n      swap1\n      tag_18\n      jump\t// in\n    tag_17:\n      tag_19\n      jump\t// in\n    tag_16:\n      mload(0x40)\n      tag_20\n      swap5\n      swap4\n      swap3\n      swap2\n      swap1\n      tag_21\n      jump\t// in\n    tag_20:\n      mload(0x40)\n      dup1\n      swap2\n      sub\n      swap1\n      return\n        /* \"contracts/MaintenanceLog.sol\":729:867  function getServiceHistory(uint256 assetId) public view returns (ServiceRecord[] memory) {... */\n    tag_9:\n        /* \"contracts/MaintenanceLog.sol\":794:816  ServiceRecord[] memory */\n      0x60\n        /* \"contracts/MaintenanceLog.sol\":836:850  serviceHistory */\n      0x00\n        /* \"contracts/MaintenanceLog.sol\":836:859  serviceHistory[assetId] */\n      dup1\n        /* \"contracts/MaintenanceLog.sol\":851:858  assetId */\n      dup4\n        /* \"contracts/MaintenanceLog.sol\":836:859  serviceHistory[assetId] */\n      dup2\n      mstore\n      0x20\n      add\n      swap1\n      dup2\n      mstore\n      0x20\n      add\n      0x00\n      keccak256\n        /* \"contracts/MaintenanceLog.sol\":829:859  return serviceHistory[assetId] */\n      dup1\n      sload\n      dup1\n      0x20\n      mul\n      0x20\n      add\n      mload(0x40)\n      swap1\n      dup2\n      add\n      0x40\n      mstore\n      dup1\n      swap3\n      swap2\n      swap1\n      dup2\n      dup2\n      mstore\n      0x20\n      add\n      0x00\n      swap1\n    tag_23:\n      dup3\n      dup3\n      lt\n      iszero\n      tag_24\n      jumpi\n      dup4\n      dup3\n      swap1\n      0x00\n      mstore\n      keccak256(0x00, 0x20)\n      swap1\n      0x04\n      mul\n      add\n      mload(0x40)\n      dup1\n      0x80\n      add\n      0x40\n      mstore\n      swap1\n      dup2\n      0x00\n      dup3\n      add\n      sload\n      dup2\n      mstore\n      0x20\n      add\n      0x01\n      dup3\n      add\n      dup1\n      sload\n      tag_26\n      swap1\n      tag_27\n      jump\t// in\n    tag_26:\n      dup1\n      0x1f\n      add\n      0x20\n      dup1\n      swap2\n      div\n      mul\n      0x20\n      add\n      mload(0x40)\n      swap1\n      dup2\n      add\n      0x40\n      mstore\n      dup1\n      swap3\n      swap2\n      swap1\n      dup2\n      dup2\n      mstore\n      0x20\n      add\n      dup3\n      dup1\n      sload\n      tag_28\n      swap1\n      tag_27\n      jump\t// in\n    tag_28:\n      dup1\n      iszero\n      tag_29\n      jumpi\n      dup1\n      0x1f\n      lt\n      tag_30\n      jumpi\n      0x0100\n      dup1\n      dup4\n      sload\n      div\n      mul\n      dup4\n      mstore\n      swap2\n      0x20\n      add\n      swap2\n      jump(tag_29)\n    tag_30:\n      dup3\n      add\n      swap2\n      swap1\n      0x00\n      mstore\n      keccak256(0x00, 0x20)\n      swap1\n    tag_31:\n      dup2\n      sload\n      dup2\n      mstore\n      swap1\n      0x01\n      add\n      swap1\n      0x20\n      add\n      dup1\n      dup4\n      gt\n      tag_31\n      jumpi\n      dup3\n      swap1\n      sub\n      0x1f\n      and\n      dup3\n      add\n      swap2\n    tag_29:\n      pop\n      pop\n      pop\n      pop\n      pop\n      dup2\n      mstore\n      0x20\n      add\n      0x02\n      dup3\n      add\n      dup1\n      sload\n      tag_32\n      swap1\n      tag_27\n      jump\t// in\n    tag_32:\n      dup1\n      0x1f\n      add\n      0x20\n      dup1\n      swap2\n      div\n      mul\n      0x20\n      add\n      mload(0x40)\n      swap1\n      dup2\n      add\n      0x40\n      mstore\n      dup1\n      swap3\n      swap2\n      swap1\n      dup2\n      dup2\n      mstore\n      0x20\n      add\n      dup3\n      dup1\n      sload\n      tag_33\n      swap1\n      tag_27\n      jump\t// in\n    tag_33:\n      dup1\n      iszero\n      tag_34\n      jumpi\n      dup1\n      0x1f\n      lt\n      tag_35\n      jumpi\n      0x0100\n      dup1\n      dup4\n      sload\n      div\n      mul\n      dup4\n      mstore\n      swap2\n      0x20\n      add\n      swap2\n      jump(tag_34)\n    tag_35:\n      dup3\n      add\n      swap2\n      swap1\n      0x00\n      mstore\n      keccak256(0x00, 0x20)\n      swap1\n    tag_36:\n      dup2\n      sload\n      dup2\n      mstore\n      swap1\n      0x01\n      add\n      swap1\n      0x20\n      add\n      dup1\n      dup4\n      gt\n      tag_36\n      jumpi\n      dup3\n      swap1\n      sub\n      0x1f\n      and\n      dup3\n      add\n      swap2\n    tag_34:\n      pop\n      pop\n      pop\n      pop\n      pop\n      dup2\n      mstore\n      0x20\n      add\n      0x03\n      dup3\n      add\n      dup1\n      sload\n      tag_37\n      swap1\n      tag_27\n      jump\t// in\n    tag_37:\n      dup1\n      0x1f\n      add\n      0x20\n      dup1\n      swap2\n      div\n      mul\n      0x20\n      add\n      mload(0x40)\n      swap1\n      dup2\n      add\n      0x40\n      mstore\n      dup1\n      swap3\n      swap2\n      swap1\n      dup2\n      dup2\n      mstore\n      0x20\n      add\n      dup3\n      dup1\n      sload\n      tag_38\n      swap1\n      tag_27\n      jump\t// in\n    tag_38:\n      dup1\n      iszero\n      tag_39\n      jumpi\n      dup1\n      0x1f\n      lt\n      tag_40\n      jumpi\n      0x0100\n      dup1\n      dup4\n      sload\n      div\n      mul\n      dup4\n      mstore\n      swap2\n      0x20\n      add\n      swap2\n      jump(tag_39)\n    tag_40:\n      dup3\n      add\n      swap2\n      swap1\n      0x00\n      mstore\n      keccak256(0x00, 0x20)\n      swap1\n    tag_41:\n      dup2\n      sload\n      dup2\n      mstore\n      swap1\n      0x01\n      add\n      swap1\n      0x20\n      add\n      dup1\n      dup4\n      gt\n      tag_41\n      jumpi\n      dup3\n      swap1\n      sub\n      0x1f\n      and\n      dup3\n      add\n      swap2\n    tag_39:\n      pop\n      pop\n      pop\n      pop\n      pop\n      dup2\n      mstore\n      pop\n      pop\n      dup2\n      mstore\n      0x20\n      add\n      swap1\n      0x01\n      add\n      swap1\n      jump(tag_23)\n    tag_24:\n      pop\n      pop\n      pop\n      pop\n      swap1\n      pop\n        /* \"contracts/MaintenanceLog.sol\":729:867  function getServiceHistory(uint256 assetId) public view returns (ServiceRecord[] memory) {... */\n      swap2\n      swap1\n      pop\n      jump\t// out\n        /* \"contracts/MaintenanceLog.sol\":398:721  function logService(uint256 assetId, string memory serviceType, string memory serviceProvider, string memory partsReplaced) public {... */\n    tag_15:\n        /* \"contracts/MaintenanceLog.sol\":540:554  serviceHistory */\n      0x00\n        /* \"contracts/MaintenanceLog.sol\":540:563  serviceHistory[assetId] */\n      dup1\n        /* \"contracts/MaintenanceLog.sol\":555:562  assetId */\n      dup6\n        /* \"contracts/MaintenanceLog.sol\":540:563  serviceHistory[assetId] */\n      dup2\n      mstore\n      0x20\n      add\n      swap1\n      dup2\n      mstore\n      0x20\n      add\n      0x00\n      keccak256\n        /* \"contracts/MaintenanceLog.sol\":569:644  ServiceRecord(block.timestamp, serviceType, serviceProvider, partsReplaced) */\n      mload(0x40)\n      dup1\n      0x80\n      add\n      0x40\n      mstore\n      dup1\n        /* \"contracts/MaintenanceLog.sol\":583:598  block.timestamp */\n      timestamp\n        /* \"contracts/MaintenanceLog.sol\":569:644  ServiceRecord(block.timestamp, serviceType, serviceProvider, partsReplaced) */\n      dup2\n      mstore\n      0x20\n      add\n        /* \"contracts/MaintenanceLog.sol\":600:611  serviceType */\n      dup6\n        /* \"contracts/MaintenanceLog.sol\":569:644  ServiceRecord(block.timestamp, serviceType, serviceProvider, partsReplaced) */\n      dup2\n      mstore\n      0x20\n      add\n        /* \"contracts/MaintenanceLog.sol\":613:628  serviceProvider */\n      dup5\n        /* \"contracts/MaintenanceLog.sol\":569:644  ServiceRecord(block.timestamp, serviceType, serviceProvider, partsReplaced) */\n      dup2\n      mstore\n      0x20\n      add\n        /* \"contracts/MaintenanceLog.sol\":630:643  partsReplaced */\n      dup4\n        /* \"contracts/MaintenanceLog.sol\":569:644  ServiceRecord(block.timestamp, serviceType, serviceProvider, partsReplaced) */\n      dup2\n      mstore\n      pop\n        /* \"contracts/MaintenanceLog.sol\":540:645  serviceHistory[assetId].push(ServiceRecord(block.timestamp, serviceType, serviceProvider, partsReplaced)) */\n      swap1\n      dup1\n      0x01\n      dup2\n      sload\n      add\n      dup1\n      dup3\n      sstore\n      dup1\n      swap2\n      pop\n      pop\n      0x01\n      swap1\n      sub\n      swap1\n      0x00\n      mstore\n      keccak256(0x00, 0x20)\n      swap1\n      0x04\n      mul\n      add\n      0x00\n      swap1\n      swap2\n      swap1\n      swap2\n      swap1\n      swap2\n      pop\n      0x00\n      dup3\n      add\n      mload\n      dup2\n      0x00\n      add\n      sstore\n      0x20\n      dup3\n      add\n      mload\n      dup2\n      0x01\n      add\n      swap1\n      dup2\n      tag_44\n      swap2\n      swap1\n      tag_45\n      jump\t// in\n    tag_44:\n      pop\n      0x40\n      dup3\n      add\n      mload\n      dup2\n      0x02\n      add\n      swap1\n      dup2\n      tag_46\n      swap2\n      swap1\n      tag_45\n      jump\t// in\n    tag_46:\n      pop\n      0x60\n      dup3\n      add\n      mload\n      dup2\n      0x03\n      add\n      swap1\n      dup2\n      tag_47\n      swap2\n      swap1\n      tag_45\n      jump\t// in\n    tag_47:\n      pop\n      pop\n      pop\n        /* \"contracts/MaintenanceLog.sol\":675:682  assetId */\n      dup4\n        /* \"contracts/MaintenanceLog.sol\":661:713  ServiceLogged(assetId, block.timestamp, serviceType) */\n      0x51004981618abb1a16d1882550db0770d527c6e42f9b04700a604d6ef2bd774c\n        /* \"contracts/MaintenanceLog.sol\":684:699  block.timestamp */\n      timestamp\n        /* \"contracts/MaintenanceLog.sol\":701:712  serviceType */\n      dup6\n        /* \"contracts/MaintenanceLog.sol\":661:713  ServiceLogged(assetId, block.timestamp, serviceType) */\n      mload(0x40)\n      tag_48\n      swap3\n      swap2\n      swap1\n      tag_49\n      jump\t// in\n    tag_48:\n      mload(0x40)\n      dup1\n      swap2\n      sub\n      swap1\n      log2\n        /* \"contracts/MaintenanceLog.sol\":398:721  function logService(uint256 assetId, string memory serviceType, string memory serviceProvider, string memory partsReplaced) public {... */\n      pop\n      pop\n      pop\n      pop\n      jump\t// out\n        /* \"contracts/MaintenanceLog.sol\":245:302  mapping(uint256 => ServiceRecord[]) public serviceHistory */\n    tag_19:\n      mstore(0x20, 0x00)\n      dup2\n      0x00\n      mstore\n      keccak256(0x00, 0x40)\n      dup2\n      dup2\n      sload\n      dup2\n      lt\n      tag_50\n      jumpi\n      0x00\n      dup1\n      revert\n    tag_50:\n      swap1\n      0x00\n      mstore\n      keccak256(0x00, 0x20)\n      swap1\n      0x04\n      mul\n      add\n      0x00\n      swap2\n      pop\n      swap2\n      pop\n      pop\n      dup1\n      0x00\n      add\n      sload\n      swap1\n      dup1\n      0x01\n      add\n      dup1\n      sload\n      tag_52\n      swap1\n      tag_27\n      jump\t// in\n    tag_52:\n      dup1\n      0x1f\n      add\n      0x20\n      dup1\n      swap2\n      div\n      mul\n      0x20\n      add\n      mload(0x40)\n      swap1\n      dup2\n      add\n      0x40\n      mstore\n      dup1\n      swap3\n      swap2\n      swap1\n      dup2\n      dup2\n      mstore\n      0x20\n      add\n      dup3\n      dup1\n      sload\n      tag_53\n      swap1\n      tag_27\n      jump\t// in\n    tag_53:\n      dup1\n      iszero\n      tag_54\n      jumpi\n      dup1\n      0x1f\n      lt\n      tag_55\n      jumpi\n      0x0100\n      dup1\n      dup4\n      sload\n      div\n      mul\n      dup4\n      mstore\n      swap2\n      0x20\n      add\n      swap2\n      jump(tag_54)\n    tag_55:\n      dup3\n      add\n      swap2\n      swap1\n      0x00\n      mstore\n      keccak256(0x00, 0x20)\n      swap1\n    tag_56:\n      dup2\n      sload\n      dup2\n      mstore\n      swap1\n      0x01\n      add\n      swap1\n      0x20\n      add\n      dup1\n      dup4\n      gt\n      tag_56\n      jumpi\n      dup3\n      swap1\n      sub\n      0x1f\n      and\n      dup3\n      add\n      swap2\n    tag_54:\n      pop\n      pop\n      pop\n      pop\n      pop\n      swap1\n      dup1\n      0x02\n      add\n      dup1\n      sload\n      tag_57\n      swap1\n      tag_27\n      jump\t// in\n    tag_57:\n      dup1\n      0x1f\n      add\n      0x20\n      dup1\n      swap2\n      div\n      mul\n      0x20\n      add\n      mload(0x40)\n      swap1\n      dup2\n      add\n      0x40\n      mstore\n      dup1\n      swap3\n      swap2\n      swap1\n      dup2\n      dup2\n      mstore\n      0x20\n      add\n      dup3\n      dup1\n      sload\n      tag_58\n      swap1\n      tag_27\n      jump\t// in\n    tag_58:\n      dup1\n      iszero\n      tag_59\n      jumpi\n      dup1\n      0x1f\n      lt\n      tag_60\n      jumpi\n      0x0100\n      dup1\n      dup4\n      sload\n      div\n      mul\n      dup4\n      mstore\n      swap2\n      0x20\n      add\n      swap2\n      jump(tag_59)\n    tag_60:\n      dup3\n      add\n      swap2\n      swap1\n      0x00\n      mstore\n      keccak256(0x00, 0x20)\n      swap1\n    tag_61:\n      dup2\n      sload\n      dup2\n      mstore\n      swap1\n      0x01\n      add\n      swap1\n      0x20\n      add\n      dup1\n      dup4\n      gt\n      tag_61\n      jumpi\n      dup3\n      swap1\n      sub\n      0x1f\n      and\n      dup3\n      add\n      swap2\n    tag_59:\n      pop\n      pop\n      pop\n      pop\n      pop\n      swap1\n      dup1\n      0x03\n      add\n      dup1\n      sload\n      tag_62\n      swap1\n      tag_27\n      jump\t// in\n    tag_62:\n      dup1\n      0x1f\n      add\n      0x20\n      dup1\n      swap2\n      div\n      mul\n      0x20\n      add\n      mload(0x40)\n      swap1\n      dup2\n      add\n      0x40\n      mstore\n      dup1\n      swap3\n      swap2\n      swap1\n      dup2\n      dup2\n      mstore\n      0x20\n      add\n      dup3\n      dup1\n      sload\n      tag_63\n      swap1\n      tag_27\n      jump\t// in\n    tag_63:\n      dup1\n      iszero\n      tag_64\n      jumpi\n      dup1\n      0x1f\n      lt\n      tag_65\n      jumpi\n      0x0100\n      dup1\n      dup4\n      sload\n      div\n      mul\n      dup4\n      mstore\n      swap2\n      0x20\n      add\n      swap2\n      jump(tag_64)\n    tag_65:\n      dup3\n      add\n      swap2\n      swap1\n      0x00\n      mstore\n      keccak256(0x00, 0x20)\n      swap1\n    tag_66:\n      dup2\n      sload\n      dup2\n      mstore\n      swap1\n      0x01\n      add\n      swap1\n      0x20\n      add\n      dup1\n      dup4\n      gt\n      tag_66\n      jumpi\n      dup3\n      swap1\n      sub\n      0x1f\n      and\n      dup3\n      add\n      swap2\n    tag_64:\n      pop\n      pop\n      pop\n      pop\n      pop\n      swap1\n      pop\n      dup5\n      jump\t// out\n        /* \"#utility.yul\":7:82   */\n    tag_67:\n        /* \"#utility.yul\":40:46   */\n      0x00\n        /* \"#utility.yul\":73:75   */\n      0x40\n        /* \"#utility.yul\":67:76   */\n      mload\n        /* \"#utility.yul\":57:76   */\n      swap1\n      pop\n        /* \"#utility.yul\":7:82   */\n      swap1\n      jump\t// out\n        /* \"#utility.yul\":88:205   */\n    tag_68:\n        /* \"#utility.yul\":197:198   */\n      0x00\n        /* \"#utility.yul\":194:195   */\n      dup1\n        /* \"#utility.yul\":187:199   */\n      revert\n        /* \"#utility.yul\":211:328   */\n    tag_69:\n        /* \"#utility.yul\":320:321   */\n      0x00\n        /* \"#utility.yul\":317:318   */\n      dup1\n        /* \"#utility.yul\":310:322   */\n      revert\n        /* \"#utility.yul\":334:411   */\n    tag_70:\n        /* \"#utility.yul\":371:378   */\n      0x00\n        /* \"#utility.yul\":400:405   */\n      dup2\n        /* \"#utility.yul\":389:405   */\n      swap1\n      pop\n        /* \"#utility.yul\":334:411   */\n      swap2\n      swap1\n      pop\n      jump\t// out\n        /* \"#utility.yul\":417:539   */\n    tag_71:\n        /* \"#utility.yul\":490:514   */\n      tag_120\n        /* \"#utility.yul\":508:513   */\n      dup2\n        /* \"#utility.yul\":490:514   */\n      tag_70\n      jump\t// in\n    tag_120:\n        /* \"#utility.yul\":483:488   */\n      dup2\n        /* \"#utility.yul\":480:515   */\n      eq\n        /* \"#utility.yul\":470:533   */\n      tag_121\n      jumpi\n        /* \"#utility.yul\":529:530   */\n      0x00\n        /* \"#utility.yul\":526:527   */\n      dup1\n        /* \"#utility.yul\":519:531   */\n      revert\n        /* \"#utility.yul\":470:533   */\n    tag_121:\n        /* \"#utility.yul\":417:539   */\n      pop\n      jump\t// out\n        /* \"#utility.yul\":545:684   */\n    tag_72:\n        /* \"#utility.yul\":591:596   */\n      0x00\n        /* \"#utility.yul\":629:635   */\n      dup2\n        /* \"#utility.yul\":616:636   */\n      calldataload\n        /* \"#utility.yul\":607:636   */\n      swap1\n      pop\n        /* \"#utility.yul\":645:678   */\n      tag_123\n        /* \"#utility.yul\":672:677   */\n      dup2\n        /* \"#utility.yul\":645:678   */\n      tag_71\n      jump\t// in\n    tag_123:\n        /* \"#utility.yul\":545:684   */\n      swap3\n      swap2\n      pop\n      pop\n      jump\t// out\n        /* \"#utility.yul\":690:1019   */\n    tag_8:\n        /* \"#utility.yul\":749:755   */\n      0x00\n        /* \"#utility.yul\":798:800   */\n      0x20\n        /* \"#utility.yul\":786:795   */\n      dup3\n        /* \"#utility.yul\":777:784   */\n      dup5\n        /* \"#utility.yul\":773:796   */\n      sub\n        /* \"#utility.yul\":769:801   */\n      slt\n        /* \"#utility.yul\":766:885   */\n      iszero\n      tag_125\n      jumpi\n        /* \"#utility.yul\":804:883   */\n      tag_126\n      tag_68\n      jump\t// in\n    tag_126:\n        /* \"#utility.yul\":766:885   */\n    tag_125:\n        /* \"#utility.yul\":924:925   */\n      0x00\n        /* \"#utility.yul\":949:1002   */\n      tag_127\n        /* \"#utility.yul\":994:1001   */\n      dup5\n        /* \"#utility.yul\":985:991   */\n      dup3\n        /* \"#utility.yul\":974:983   */\n      dup6\n        /* \"#utility.yul\":970:992   */\n      add\n        /* \"#utility.yul\":949:1002   */\n      tag_72\n      jump\t// in\n    tag_127:\n        /* \"#utility.yul\":939:1002   */\n      swap2\n      pop\n        /* \"#utility.yul\":895:1012   */\n      pop\n        /* \"#utility.yul\":690:1019   */\n      swap3\n      swap2\n      pop\n      pop\n      jump\t// out\n        /* \"#utility.yul\":1025:1168   */\n    tag_73:\n        /* \"#utility.yul\":1121:1127   */\n      0x00\n        /* \"#utility.yul\":1155:1160   */\n      dup2\n        /* \"#utility.yul\":1149:1161   */\n      mload\n        /* \"#utility.yul\":1139:1161   */\n      swap1\n      pop\n        /* \"#utility.yul\":1025:1168   */\n      swap2\n      swap1\n      pop\n      jump\t// out\n        /* \"#utility.yul\":1174:1387   */\n    tag_74:\n        /* \"#utility.yul\":1302:1313   */\n      0x00\n        /* \"#utility.yul\":1336:1342   */\n      dup3\n        /* \"#utility.yul\":1331:1334   */\n      dup3\n        /* \"#utility.yul\":1324:1343   */\n      mstore\n        /* \"#utility.yul\":1376:1380   */\n      0x20\n        /* \"#utility.yul\":1371:1374   */\n      dup3\n        /* \"#utility.yul\":1367:1381   */\n      add\n        /* \"#utility.yul\":1352:1381   */\n      swap1\n      pop\n        /* \"#utility.yul\":1174:1387   */\n      swap3\n      swap2\n      pop\n      pop\n      jump\t// out\n        /* \"#utility.yul\":1393:1554   */\n    tag_75:\n        /* \"#utility.yul\":1489:1493   */\n      0x00\n        /* \"#utility.yul\":1512:1515   */\n      dup2\n        /* \"#utility.yul\":1504:1515   */\n      swap1\n      pop\n        /* \"#utility.yul\":1542:1546   */\n      0x20\n        /* \"#utility.yul\":1537:1540   */\n      dup3\n        /* \"#utility.yul\":1533:1547   */\n      add\n        /* \"#utility.yul\":1525:1547   */\n      swap1\n      pop\n        /* \"#utility.yul\":1393:1554   */\n      swap2\n      swap1\n      pop\n      jump\t// out\n        /* \"#utility.yul\":1560:1668   */\n    tag_76:\n        /* \"#utility.yul\":1637:1661   */\n      tag_132\n        /* \"#utility.yul\":1655:1660   */\n      dup2\n        /* \"#utility.yul\":1637:1661   */\n      tag_70\n      jump\t// in\n    tag_132:\n        /* \"#utility.yul\":1632:1635   */\n      dup3\n        /* \"#utility.yul\":1625:1662   */\n      mstore\n        /* \"#utility.yul\":1560:1668   */\n      pop\n      pop\n      jump\t// out\n        /* \"#utility.yul\":1674:1773   */\n    tag_77:\n        /* \"#utility.yul\":1726:1732   */\n      0x00\n        /* \"#utility.yul\":1760:1765   */\n      dup2\n        /* \"#utility.yul\":1754:1766   */\n      mload\n        /* \"#utility.yul\":1744:1766   */\n      swap1\n      pop\n        /* \"#utility.yul\":1674:1773   */\n      swap2\n      swap1\n      pop\n      jump\t// out\n        /* \"#utility.yul\":1779:1938   */\n    tag_78:\n        /* \"#utility.yul\":1853:1864   */\n      0x00\n        /* \"#utility.yul\":1887:1893   */\n      dup3\n        /* \"#utility.yul\":1882:1885   */\n      dup3\n        /* \"#utility.yul\":1875:1894   */\n      mstore\n        /* \"#utility.yul\":1927:1931   */\n      0x20\n        /* \"#utility.yul\":1922:1925   */\n      dup3\n        /* \"#utility.yul\":1918:1932   */\n      add\n        /* \"#utility.yul\":1903:1932   */\n      swap1\n      pop\n        /* \"#utility.yul\":1779:1938   */\n      swap3\n      swap2\n      pop\n      pop\n      jump\t// out\n        /* \"#utility.yul\":1944:2083   */\n    tag_79:\n        /* \"#utility.yul\":2033:2039   */\n      dup3\n        /* \"#utility.yul\":2028:2031   */\n      dup2\n        /* \"#utility.yul\":2023:2026   */\n      dup4\n        /* \"#utility.yul\":2017:2040   */\n      mcopy\n        /* \"#utility.yul\":2074:2075   */\n      0x00\n        /* \"#utility.yul\":2065:2071   */\n      dup4\n        /* \"#utility.yul\":2060:2063   */\n      dup4\n        /* \"#utility.yul\":2056:2072   */\n      add\n        /* \"#utility.yul\":2049:2076   */\n      mstore\n        /* \"#utility.yul\":1944:2083   */\n      pop\n      pop\n      pop\n      jump\t// out\n        /* \"#utility.yul\":2089:2191   */\n    tag_80:\n        /* \"#utility.yul\":2130:2136   */\n      0x00\n        /* \"#utility.yul\":2181:2183   */\n      0x1f\n        /* \"#utility.yul\":2177:2184   */\n      not\n        /* \"#utility.yul\":2172:2174   */\n      0x1f\n        /* \"#utility.yul\":2165:2170   */\n      dup4\n        /* \"#utility.yul\":2161:2175   */\n      add\n        /* \"#utility.yul\":2157:2185   */\n      and\n        /* \"#utility.yul\":2147:2185   */\n      swap1\n      pop\n        /* \"#utility.yul\":2089:2191   */\n      swap2\n      swap1\n      pop\n      jump\t// out\n        /* \"#utility.yul\":2197:2554   */\n    tag_81:\n        /* \"#utility.yul\":2275:2278   */\n      0x00\n        /* \"#utility.yul\":2303:2342   */\n      tag_138\n        /* \"#utility.yul\":2336:2341   */\n      dup3\n        /* \"#utility.yul\":2303:2342   */\n      tag_77\n      jump\t// in\n    tag_138:\n        /* \"#utility.yul\":2358:2419   */\n      tag_139\n        /* \"#utility.yul\":2412:2418   */\n      dup2\n        /* \"#utility.yul\":2407:2410   */\n      dup6\n        /* \"#utility.yul\":2358:2419   */\n      tag_78\n      jump\t// in\n    tag_139:\n        /* \"#utility.yul\":2351:2419   */\n      swap4\n      pop\n        /* \"#utility.yul\":2428:2493   */\n      tag_140\n        /* \"#utility.yul\":2486:2492   */\n      dup2\n        /* \"#utility.yul\":2481:2484   */\n      dup6\n        /* \"#utility.yul\":2474:2478   */\n      0x20\n        /* \"#utility.yul\":2467:2472   */\n      dup7\n        /* \"#utility.yul\":2463:2479   */\n      add\n        /* \"#utility.yul\":2428:2493   */\n      tag_79\n      jump\t// in\n    tag_140:\n        /* \"#utility.yul\":2518:2547   */\n      tag_141\n        /* \"#utility.yul\":2540:2546   */\n      dup2\n        /* \"#utility.yul\":2518:2547   */\n      tag_80\n      jump\t// in\n    tag_141:\n        /* \"#utility.yul\":2513:2516   */\n      dup5\n        /* \"#utility.yul\":2509:2548   */\n      add\n        /* \"#utility.yul\":2502:2548   */\n      swap2\n      pop\n        /* \"#utility.yul\":2279:2554   */\n      pop\n        /* \"#utility.yul\":2197:2554   */\n      swap3\n      swap2\n      pop\n      pop\n      jump\t// out\n        /* \"#utility.yul\":2642:3763   */\n    tag_82:\n        /* \"#utility.yul\":2759:2762   */\n      0x00\n        /* \"#utility.yul\":2795:2799   */\n      0x80\n        /* \"#utility.yul\":2790:2793   */\n      dup4\n        /* \"#utility.yul\":2786:2800   */\n      add\n        /* \"#utility.yul\":2882:2886   */\n      0x00\n        /* \"#utility.yul\":2875:2880   */\n      dup4\n        /* \"#utility.yul\":2871:2887   */\n      add\n        /* \"#utility.yul\":2865:2888   */\n      mload\n        /* \"#utility.yul\":2901:2964   */\n      tag_143\n        /* \"#utility.yul\":2958:2962   */\n      0x00\n        /* \"#utility.yul\":2953:2956   */\n      dup7\n        /* \"#utility.yul\":2949:2963   */\n      add\n        /* \"#utility.yul\":2935:2947   */\n      dup3\n        /* \"#utility.yul\":2901:2964   */\n      tag_76\n      jump\t// in\n    tag_143:\n        /* \"#utility.yul\":2810:2974   */\n      pop\n        /* \"#utility.yul\":3063:3067   */\n      0x20\n        /* \"#utility.yul\":3056:3061   */\n      dup4\n        /* \"#utility.yul\":3052:3068   */\n      add\n        /* \"#utility.yul\":3046:3069   */\n      mload\n        /* \"#utility.yul\":3116:3119   */\n      dup5\n        /* \"#utility.yul\":3110:3114   */\n      dup3\n        /* \"#utility.yul\":3106:3120   */\n      sub\n        /* \"#utility.yul\":3099:3103   */\n      0x20\n        /* \"#utility.yul\":3094:3097   */\n      dup7\n        /* \"#utility.yul\":3090:3104   */\n      add\n        /* \"#utility.yul\":3083:3121   */\n      mstore\n        /* \"#utility.yul\":3142:3215   */\n      tag_144\n        /* \"#utility.yul\":3210:3214   */\n      dup3\n        /* \"#utility.yul\":3196:3208   */\n      dup3\n        /* \"#utility.yul\":3142:3215   */\n      tag_81\n      jump\t// in\n    tag_144:\n        /* \"#utility.yul\":3134:3215   */\n      swap2\n      pop\n        /* \"#utility.yul\":2984:3226   */\n      pop\n        /* \"#utility.yul\":3319:3323   */\n      0x40\n        /* \"#utility.yul\":3312:3317   */\n      dup4\n        /* \"#utility.yul\":3308:3324   */\n      add\n        /* \"#utility.yul\":3302:3325   */\n      mload\n        /* \"#utility.yul\":3372:3375   */\n      dup5\n        /* \"#utility.yul\":3366:3370   */\n      dup3\n        /* \"#utility.yul\":3362:3376   */\n      sub\n        /* \"#utility.yul\":3355:3359   */\n      0x40\n        /* \"#utility.yul\":3350:3353   */\n      dup7\n        /* \"#utility.yul\":3346:3360   */\n      add\n        /* \"#utility.yul\":3339:3377   */\n      mstore\n        /* \"#utility.yul\":3398:3471   */\n      tag_145\n        /* \"#utility.yul\":3466:3470   */\n      dup3\n        /* \"#utility.yul\":3452:3464   */\n      dup3\n        /* \"#utility.yul\":3398:3471   */\n      tag_81\n      jump\t// in\n    tag_145:\n        /* \"#utility.yul\":3390:3471   */\n      swap2\n      pop\n        /* \"#utility.yul\":3236:3482   */\n      pop\n        /* \"#utility.yul\":3573:3577   */\n      0x60\n        /* \"#utility.yul\":3566:3571   */\n      dup4\n        /* \"#utility.yul\":3562:3578   */\n      add\n        /* \"#utility.yul\":3556:3579   */\n      mload\n        /* \"#utility.yul\":3626:3629   */\n      dup5\n        /* \"#utility.yul\":3620:3624   */\n      dup3\n        /* \"#utility.yul\":3616:3630   */\n      sub\n        /* \"#utility.yul\":3609:3613   */\n      0x60\n        /* \"#utility.yul\":3604:3607   */\n      dup7\n        /* \"#utility.yul\":3600:3614   */\n      add\n        /* \"#utility.yul\":3593:3631   */\n      mstore\n        /* \"#utility.yul\":3652:3725   */\n      tag_146\n        /* \"#utility.yul\":3720:3724   */\n      dup3\n        /* \"#utility.yul\":3706:3718   */\n      dup3\n        /* \"#utility.yul\":3652:3725   */\n      tag_81\n      jump\t// in\n    tag_146:\n        /* \"#utility.yul\":3644:3725   */\n      swap2\n      pop\n        /* \"#utility.yul\":3492:3736   */\n      pop\n        /* \"#utility.yul\":3753:3757   */\n      dup1\n        /* \"#utility.yul\":3746:3757   */\n      swap2\n      pop\n        /* \"#utility.yul\":2764:3763   */\n      pop\n        /* \"#utility.yul\":2642:3763   */\n      swap3\n      swap2\n      pop\n      pop\n      jump\t// out\n        /* \"#utility.yul\":3769:4041   */\n    tag_83:\n        /* \"#utility.yul\":3896:3906   */\n      0x00\n        /* \"#utility.yul\":3931:4035   */\n      tag_148\n        /* \"#utility.yul\":4031:4034   */\n      dup4\n        /* \"#utility.yul\":4023:4029   */\n      dup4\n        /* \"#utility.yul\":3931:4035   */\n      tag_82\n      jump\t// in\n    tag_148:\n        /* \"#utility.yul\":3917:4035   */\n      swap1\n      pop\n        /* \"#utility.yul\":3769:4041   */\n      swap3\n      swap2\n      pop\n      pop\n      jump\t// out\n        /* \"#utility.yul\":4047:4189   */\n    tag_84:\n        /* \"#utility.yul\":4146:4150   */\n      0x00\n        /* \"#utility.yul\":4178:4182   */\n      0x20\n        /* \"#utility.yul\":4173:4176   */\n      dup3\n        /* \"#utility.yul\":4169:4183   */\n      add\n        /* \"#utility.yul\":4161:4183   */\n      swap1\n      pop\n        /* \"#utility.yul\":4047:4189   */\n      swap2\n      swap1\n      pop\n      jump\t// out\n        /* \"#utility.yul\":4281:5424   */\n    tag_85:\n        /* \"#utility.yul\":4458:4461   */\n      0x00\n        /* \"#utility.yul\":4487:4570   */\n      tag_151\n        /* \"#utility.yul\":4564:4569   */\n      dup3\n        /* \"#utility.yul\":4487:4570   */\n      tag_73\n      jump\t// in\n    tag_151:\n        /* \"#utility.yul\":4586:4701   */\n      tag_152\n        /* \"#utility.yul\":4694:4700   */\n      dup2\n        /* \"#utility.yul\":4689:4692   */\n      dup6\n        /* \"#utility.yul\":4586:4701   */\n      tag_74\n      jump\t// in\n    tag_152:\n        /* \"#utility.yul\":4579:4701   */\n      swap4\n      pop\n        /* \"#utility.yul\":4727:4730   */\n      dup4\n        /* \"#utility.yul\":4772:4776   */\n      0x20\n        /* \"#utility.yul\":4764:4770   */\n      dup3\n        /* \"#utility.yul\":4760:4777   */\n      mul\n        /* \"#utility.yul\":4755:4758   */\n      dup6\n        /* \"#utility.yul\":4751:4778   */\n      add\n        /* \"#utility.yul\":4802:4887   */\n      tag_153\n        /* \"#utility.yul\":4881:4886   */\n      dup6\n        /* \"#utility.yul\":4802:4887   */\n      tag_75\n      jump\t// in\n    tag_153:\n        /* \"#utility.yul\":4910:4917   */\n      dup1\n        /* \"#utility.yul\":4941:4942   */\n      0x00\n        /* \"#utility.yul\":4926:5379   */\n    tag_154:\n        /* \"#utility.yul\":4951:4957   */\n      dup6\n        /* \"#utility.yul\":4948:4949   */\n      dup2\n        /* \"#utility.yul\":4945:4958   */\n      lt\n        /* \"#utility.yul\":4926:5379   */\n      iszero\n      tag_156\n      jumpi\n        /* \"#utility.yul\":5022:5031   */\n      dup5\n        /* \"#utility.yul\":5016:5020   */\n      dup5\n        /* \"#utility.yul\":5012:5032   */\n      sub\n        /* \"#utility.yul\":5007:5010   */\n      dup10\n        /* \"#utility.yul\":5000:5033   */\n      mstore\n        /* \"#utility.yul\":5073:5079   */\n      dup2\n        /* \"#utility.yul\":5067:5080   */\n      mload\n        /* \"#utility.yul\":5101:5223   */\n      tag_157\n        /* \"#utility.yul\":5218:5222   */\n      dup6\n        /* \"#utility.yul\":5203:5216   */\n      dup3\n        /* \"#utility.yul\":5101:5223   */\n      tag_83\n      jump\t// in\n    tag_157:\n        /* \"#utility.yul\":5093:5223   */\n      swap5\n      pop\n        /* \"#utility.yul\":5246:5335   */\n      tag_158\n        /* \"#utility.yul\":5328:5334   */\n      dup4\n        /* \"#utility.yul\":5246:5335   */\n      tag_84\n      jump\t// in\n    tag_158:\n        /* \"#utility.yul\":5236:5335   */\n      swap3\n      pop\n        /* \"#utility.yul\":5364:5368   */\n      0x20\n        /* \"#utility.yul\":5359:5362   */\n      dup11\n        /* \"#utility.yul\":5355:5369   */\n      add\n        /* \"#utility.yul\":5348:5369   */\n      swap10\n      pop\n        /* \"#utility.yul\":4986:5379   */\n      pop\n        /* \"#utility.yul\":4973:4974   */\n      0x01\n        /* \"#utility.yul\":4970:4971   */\n      dup2\n        /* \"#utility.yul\":4966:4975   */\n      add\n        /* \"#utility.yul\":4961:4975   */\n      swap1\n      pop\n        /* \"#utility.yul\":4926:5379   */\n      jump(tag_154)\n    tag_156:\n        /* \"#utility.yul\":4930:4944   */\n      pop\n        /* \"#utility.yul\":5395:5399   */\n      dup3\n        /* \"#utility.yul\":5388:5399   */\n      swap8\n      pop\n        /* \"#utility.yul\":5415:5418   */\n      dup8\n        /* \"#utility.yul\":5408:5418   */\n      swap6\n      pop\n        /* \"#utility.yul\":4463:5424   */\n      pop\n      pop\n      pop\n      pop\n      pop\n        /* \"#utility.yul\":4281:5424   */\n      swap3\n      swap2\n      pop\n      pop\n      jump\t// out\n        /* \"#utility.yul\":5430:5919   */\n    tag_11:\n        /* \"#utility.yul\":5631:5635   */\n      0x00\n        /* \"#utility.yul\":5669:5671   */\n      0x20\n        /* \"#utility.yul\":5658:5667   */\n      dup3\n        /* \"#utility.yul\":5654:5672   */\n      add\n        /* \"#utility.yul\":5646:5672   */\n      swap1\n      pop\n        /* \"#utility.yul\":5718:5727   */\n      dup2\n        /* \"#utility.yul\":5712:5716   */\n      dup2\n        /* \"#utility.yul\":5708:5728   */\n      sub\n        /* \"#utility.yul\":5704:5705   */\n      0x00\n        /* \"#utility.yul\":5693:5702   */\n      dup4\n        /* \"#utility.yul\":5689:5706   */\n      add\n        /* \"#utility.yul\":5682:5729   */\n      mstore\n        /* \"#utility.yul\":5746:5912   */\n      tag_160\n        /* \"#utility.yul\":5907:5911   */\n      dup2\n        /* \"#utility.yul\":5898:5904   */\n      dup5\n        /* \"#utility.yul\":5746:5912   */\n      tag_85\n      jump\t// in\n    tag_160:\n        /* \"#utility.yul\":5738:5912   */\n      swap1\n      pop\n        /* \"#utility.yul\":5430:5919   */\n      swap3\n      swap2\n      pop\n      pop\n      jump\t// out\n        /* \"#utility.yul\":5925:6042   */\n    tag_86:\n        /* \"#utility.yul\":6034:6035   */\n      0x00\n        /* \"#utility.yul\":6031:6032   */\n      dup1\n        /* \"#utility.yul\":6024:6036   */\n      revert\n        /* \"#utility.yul\":6048:6165   */\n    tag_87:\n        /* \"#utility.yul\":6157:6158   */\n      0x00\n        /* \"#utility.yul\":6154:6155   */\n      dup1\n        /* \"#utility.yul\":6147:6159   */\n      revert\n        /* \"#utility.yul\":6171:6351   */\n    tag_88:\n        /* \"#utility.yul\":6219:6296   */\n      0x4e487b7100000000000000000000000000000000000000000000000000000000\n        /* \"#utility.yul\":6216:6217   */\n      0x00\n        /* \"#utility.yul\":6209:6297   */\n      mstore\n        /* \"#utility.yul\":6316:6320   */\n      0x41\n        /* \"#utility.yul\":6313:6314   */\n      0x04\n        /* \"#utility.yul\":6306:6321   */\n      mstore\n        /* \"#utility.yul\":6340:6344   */\n      0x24\n        /* \"#utility.yul\":6337:6338   */\n      0x00\n        /* \"#utility.yul\":6330:6345   */\n      revert\n        /* \"#utility.yul\":6357:6638   */\n    tag_89:\n        /* \"#utility.yul\":6440:6467   */\n      tag_165\n        /* \"#utility.yul\":6462:6466   */\n      dup3\n        /* \"#utility.yul\":6440:6467   */\n      tag_80\n      jump\t// in\n    tag_165:\n        /* \"#utility.yul\":6432:6438   */\n      dup2\n        /* \"#utility.yul\":6428:6468   */\n      add\n        /* \"#utility.yul\":6570:6576   */\n      dup2\n        /* \"#utility.yul\":6558:6568   */\n      dup2\n        /* \"#utility.yul\":6555:6577   */\n      lt\n        /* \"#utility.yul\":6534:6552   */\n      0xffffffffffffffff\n        /* \"#utility.yul\":6522:6532   */\n      dup3\n        /* \"#utility.yul\":6519:6553   */\n      gt\n        /* \"#utility.yul\":6516:6578   */\n      or\n        /* \"#utility.yul\":6513:6601   */\n      iszero\n      tag_166\n      jumpi\n        /* \"#utility.yul\":6581:6599   */\n      tag_167\n      tag_88\n      jump\t// in\n    tag_167:\n        /* \"#utility.yul\":6513:6601   */\n    tag_166:\n        /* \"#utility.yul\":6621:6631   */\n      dup1\n        /* \"#utility.yul\":6617:6619   */\n      0x40\n        /* \"#utility.yul\":6610:6632   */\n      mstore\n        /* \"#utility.yul\":6400:6638   */\n      pop\n        /* \"#utility.yul\":6357:6638   */\n      pop\n      pop\n      jump\t// out\n        /* \"#utility.yul\":6644:6773   */\n    tag_90:\n        /* \"#utility.yul\":6678:6684   */\n      0x00\n        /* \"#utility.yul\":6705:6725   */\n      tag_169\n      tag_67\n      jump\t// in\n    tag_169:\n        /* \"#utility.yul\":6695:6725   */\n      swap1\n      pop\n        /* \"#utility.yul\":6734:6767   */\n      tag_170\n        /* \"#utility.yul\":6762:6766   */\n      dup3\n        /* \"#utility.yul\":6754:6760   */\n      dup3\n        /* \"#utility.yul\":6734:6767   */\n      tag_89\n      jump\t// in\n    tag_170:\n        /* \"#utility.yul\":6644:6773   */\n      swap2\n      swap1\n      pop\n      jump\t// out\n        /* \"#utility.yul\":6779:7087   */\n    tag_91:\n        /* \"#utility.yul\":6841:6845   */\n      0x00\n        /* \"#utility.yul\":6931:6949   */\n      0xffffffffffffffff\n        /* \"#utility.yul\":6923:6929   */\n      dup3\n        /* \"#utility.yul\":6920:6950   */\n      gt\n        /* \"#utility.yul\":6917:6973   */\n      iszero\n      tag_172\n      jumpi\n        /* \"#utility.yul\":6953:6971   */\n      tag_173\n      tag_88\n      jump\t// in\n    tag_173:\n        /* \"#utility.yul\":6917:6973   */\n    tag_172:\n        /* \"#utility.yul\":6991:7020   */\n      tag_174\n        /* \"#utility.yul\":7013:7019   */\n      dup3\n        /* \"#utility.yul\":6991:7020   */\n      tag_80\n      jump\t// in\n    tag_174:\n        /* \"#utility.yul\":6983:7020   */\n      swap1\n      pop\n        /* \"#utility.yul\":7075:7079   */\n      0x20\n        /* \"#utility.yul\":7069:7073   */\n      dup2\n        /* \"#utility.yul\":7065:7080   */\n      add\n        /* \"#utility.yul\":7057:7080   */\n      swap1\n      pop\n        /* \"#utility.yul\":6779:7087   */\n      swap2\n      swap1\n      pop\n      jump\t// out\n        /* \"#utility.yul\":7093:7241   */\n    tag_92:\n        /* \"#utility.yul\":7191:7197   */\n      dup3\n        /* \"#utility.yul\":7186:7189   */\n      dup2\n        /* \"#utility.yul\":7181:7184   */\n      dup4\n        /* \"#utility.yul\":7168:7198   */\n      calldatacopy\n        /* \"#utility.yul\":7232:7233   */\n      0x00\n        /* \"#utility.yul\":7223:7229   */\n      dup4\n        /* \"#utility.yul\":7218:7221   */\n      dup4\n        /* \"#utility.yul\":7214:7230   */\n      add\n        /* \"#utility.yul\":7207:7234   */\n      mstore\n        /* \"#utility.yul\":7093:7241   */\n      pop\n      pop\n      pop\n      jump\t// out\n        /* \"#utility.yul\":7247:7672   */\n    tag_93:\n        /* \"#utility.yul\":7325:7330   */\n      0x00\n        /* \"#utility.yul\":7350:7416   */\n      tag_177\n        /* \"#utility.yul\":7366:7415   */\n      tag_178\n        /* \"#utility.yul\":7408:7414   */\n      dup5\n        /* \"#utility.yul\":7366:7415   */\n      tag_91\n      jump\t// in\n    tag_178:\n        /* \"#utility.yul\":7350:7416   */\n      tag_90\n      jump\t// in\n    tag_177:\n        /* \"#utility.yul\":7341:7416   */\n      swap1\n      pop\n        /* \"#utility.yul\":7439:7445   */\n      dup3\n        /* \"#utility.yul\":7432:7437   */\n      dup2\n        /* \"#utility.yul\":7425:7446   */\n      mstore\n        /* \"#utility.yul\":7477:7481   */\n      0x20\n        /* \"#utility.yul\":7470:7475   */\n      dup2\n        /* \"#utility.yul\":7466:7482   */\n      add\n        /* \"#utility.yul\":7515:7518   */\n      dup5\n        /* \"#utility.yul\":7506:7512   */\n      dup5\n        /* \"#utility.yul\":7501:7504   */\n      dup5\n        /* \"#utility.yul\":7497:7513   */\n      add\n        /* \"#utility.yul\":7494:7519   */\n      gt\n        /* \"#utility.yul\":7491:7603   */\n      iszero\n      tag_179\n      jumpi\n        /* \"#utility.yul\":7522:7601   */\n      tag_180\n      tag_87\n      jump\t// in\n    tag_180:\n        /* \"#utility.yul\":7491:7603   */\n    tag_179:\n        /* \"#utility.yul\":7612:7666   */\n      tag_181\n        /* \"#utility.yul\":7659:7665   */\n      dup5\n        /* \"#utility.yul\":7654:7657   */\n      dup3\n        /* \"#utility.yul\":7649:7652   */\n      dup6\n        /* \"#utility.yul\":7612:7666   */\n      tag_92\n      jump\t// in\n    tag_181:\n        /* \"#utility.yul\":7331:7672   */\n      pop\n        /* \"#utility.yul\":7247:7672   */\n      swap4\n      swap3\n      pop\n      pop\n      pop\n      jump\t// out\n        /* \"#utility.yul\":7692:8032   */\n    tag_94:\n        /* \"#utility.yul\":7748:7753   */\n      0x00\n        /* \"#utility.yul\":7797:7800   */\n      dup3\n        /* \"#utility.yul\":7790:7794   */\n      0x1f\n        /* \"#utility.yul\":7782:7788   */\n      dup4\n        /* \"#utility.yul\":7778:7795   */\n      add\n        /* \"#utility.yul\":7774:7801   */\n      slt\n        /* \"#utility.yul\":7764:7886   */\n      tag_183\n      jumpi\n        /* \"#utility.yul\":7805:7884   */\n      tag_184\n      tag_86\n      jump\t// in\n    tag_184:\n        /* \"#utility.yul\":7764:7886   */\n    tag_183:\n        /* \"#utility.yul\":7922:7928   */\n      dup2\n        /* \"#utility.yul\":7909:7929   */\n      calldataload\n        /* \"#utility.yul\":7947:8026   */\n      tag_185\n        /* \"#utility.yul\":8022:8025   */\n      dup5\n        /* \"#utility.yul\":8014:8020   */\n      dup3\n        /* \"#utility.yul\":8007:8011   */\n      0x20\n        /* \"#utility.yul\":7999:8005   */\n      dup7\n        /* \"#utility.yul\":7995:8012   */\n      add\n        /* \"#utility.yul\":7947:8026   */\n      tag_93\n      jump\t// in\n    tag_185:\n        /* \"#utility.yul\":7938:8026   */\n      swap2\n      pop\n        /* \"#utility.yul\":7754:8032   */\n      pop\n        /* \"#utility.yul\":7692:8032   */\n      swap3\n      swap2\n      pop\n      pop\n      jump\t// out\n        /* \"#utility.yul\":8038:9343   */\n    tag_14:\n        /* \"#utility.yul\":8154:8160   */\n      0x00\n        /* \"#utility.yul\":8162:8168   */\n      dup1\n        /* \"#utility.yul\":8170:8176   */\n      0x00\n        /* \"#utility.yul\":8178:8184   */\n      dup1\n        /* \"#utility.yul\":8227:8230   */\n      0x80\n        /* \"#utility.yul\":8215:8224   */\n      dup6\n        /* \"#utility.yul\":8206:8213   */\n      dup8\n        /* \"#utility.yul\":8202:8225   */\n      sub\n        /* \"#utility.yul\":8198:8231   */\n      slt\n        /* \"#utility.yul\":8195:8315   */\n      iszero\n      tag_187\n      jumpi\n        /* \"#utility.yul\":8234:8313   */\n      tag_188\n      tag_68\n      jump\t// in\n    tag_188:\n        /* \"#utility.yul\":8195:8315   */\n    tag_187:\n        /* \"#utility.yul\":8354:8355   */\n      0x00\n        /* \"#utility.yul\":8379:8432   */\n      tag_189\n        /* \"#utility.yul\":8424:8431   */\n      dup8\n        /* \"#utility.yul\":8415:8421   */\n      dup3\n        /* \"#utility.yul\":8404:8413   */\n      dup9\n        /* \"#utility.yul\":8400:8422   */\n      add\n        /* \"#utility.yul\":8379:8432   */\n      tag_72\n      jump\t// in\n    tag_189:\n        /* \"#utility.yul\":8369:8432   */\n      swap5\n      pop\n        /* \"#utility.yul\":8325:8442   */\n      pop\n        /* \"#utility.yul\":8509:8511   */\n      0x20\n        /* \"#utility.yul\":8498:8507   */\n      dup6\n        /* \"#utility.yul\":8494:8512   */\n      add\n        /* \"#utility.yul\":8481:8513   */\n      calldataload\n        /* \"#utility.yul\":8540:8558   */\n      0xffffffffffffffff\n        /* \"#utility.yul\":8532:8538   */\n      dup2\n        /* \"#utility.yul\":8529:8559   */\n      gt\n        /* \"#utility.yul\":8526:8643   */\n      iszero\n      tag_190\n      jumpi\n        /* \"#utility.yul\":8562:8641   */\n      tag_191\n      tag_69\n      jump\t// in\n    tag_191:\n        /* \"#utility.yul\":8526:8643   */\n    tag_190:\n        /* \"#utility.yul\":8667:8730   */\n      tag_192\n        /* \"#utility.yul\":8722:8729   */\n      dup8\n        /* \"#utility.yul\":8713:8719   */\n      dup3\n        /* \"#utility.yul\":8702:8711   */\n      dup9\n        /* \"#utility.yul\":8698:8720   */\n      add\n        /* \"#utility.yul\":8667:8730   */\n      tag_94\n      jump\t// in\n    tag_192:\n        /* \"#utility.yul\":8657:8730   */\n      swap4\n      pop\n        /* \"#utility.yul\":8452:8740   */\n      pop\n        /* \"#utility.yul\":8807:8809   */\n      0x40\n        /* \"#utility.yul\":8796:8805   */\n      dup6\n        /* \"#utility.yul\":8792:8810   */\n      add\n        /* \"#utility.yul\":8779:8811   */\n      calldataload\n        /* \"#utility.yul\":8838:8856   */\n      0xffffffffffffffff\n        /* \"#utility.yul\":8830:8836   */\n      dup2\n        /* \"#utility.yul\":8827:8857   */\n      gt\n        /* \"#utility.yul\":8824:8941   */\n      iszero\n      tag_193\n      jumpi\n        /* \"#utility.yul\":8860:8939   */\n      tag_194\n      tag_69\n      jump\t// in\n    tag_194:\n        /* \"#utility.yul\":8824:8941   */\n    tag_193:\n        /* \"#utility.yul\":8965:9028   */\n      tag_195\n        /* \"#utility.yul\":9020:9027   */\n      dup8\n        /* \"#utility.yul\":9011:9017   */\n      dup3\n        /* \"#utility.yul\":9000:9009   */\n      dup9\n        /* \"#utility.yul\":8996:9018   */\n      add\n        /* \"#utility.yul\":8965:9028   */\n      tag_94\n      jump\t// in\n    tag_195:\n        /* \"#utility.yul\":8955:9028   */\n      swap3\n      pop\n        /* \"#utility.yul\":8750:9038   */\n      pop\n        /* \"#utility.yul\":9105:9107   */\n      0x60\n        /* \"#utility.yul\":9094:9103   */\n      dup6\n        /* \"#utility.yul\":9090:9108   */\n      add\n        /* \"#utility.yul\":9077:9109   */\n      calldataload\n        /* \"#utility.yul\":9136:9154   */\n      0xffffffffffffffff\n        /* \"#utility.yul\":9128:9134   */\n      dup2\n        /* \"#utility.yul\":9125:9155   */\n      gt\n        /* \"#utility.yul\":9122:9239   */\n      iszero\n      tag_196\n      jumpi\n        /* \"#utility.yul\":9158:9237   */\n      tag_197\n      tag_69\n      jump\t// in\n    tag_197:\n        /* \"#utility.yul\":9122:9239   */\n    tag_196:\n        /* \"#utility.yul\":9263:9326   */\n      tag_198\n        /* \"#utility.yul\":9318:9325   */\n      dup8\n        /* \"#utility.yul\":9309:9315   */\n      dup3\n        /* \"#utility.yul\":9298:9307   */\n      dup9\n        /* \"#utility.yul\":9294:9316   */\n      add\n        /* \"#utility.yul\":9263:9326   */\n      tag_94\n      jump\t// in\n    tag_198:\n        /* \"#utility.yul\":9253:9326   */\n      swap2\n      pop\n        /* \"#utility.yul\":9048:9336   */\n      pop\n        /* \"#utility.yul\":8038:9343   */\n      swap3\n      swap6\n      swap2\n      swap5\n      pop\n      swap3\n      pop\n      jump\t// out\n        /* \"#utility.yul\":9349:9823   */\n    tag_18:\n        /* \"#utility.yul\":9417:9423   */\n      0x00\n        /* \"#utility.yul\":9425:9431   */\n      dup1\n        /* \"#utility.yul\":9474:9476   */\n      0x40\n        /* \"#utility.yul\":9462:9471   */\n      dup4\n        /* \"#utility.yul\":9453:9460   */\n      dup6\n        /* \"#utility.yul\":9449:9472   */\n      sub\n        /* \"#utility.yul\":9445:9477   */\n      slt\n        /* \"#utility.yul\":9442:9561   */\n      iszero\n      tag_200\n      jumpi\n        /* \"#utility.yul\":9480:9559   */\n      tag_201\n      tag_68\n      jump\t// in\n    tag_201:\n        /* \"#utility.yul\":9442:9561   */\n    tag_200:\n        /* \"#utility.yul\":9600:9601   */\n      0x00\n        /* \"#utility.yul\":9625:9678   */\n      tag_202\n        /* \"#utility.yul\":9670:9677   */\n      dup6\n        /* \"#utility.yul\":9661:9667   */\n      dup3\n        /* \"#utility.yul\":9650:9659   */\n      dup7\n        /* \"#utility.yul\":9646:9668   */\n      add\n        /* \"#utility.yul\":9625:9678   */\n      tag_72\n      jump\t// in\n    tag_202:\n        /* \"#utility.yul\":9615:9678   */\n      swap3\n      pop\n        /* \"#utility.yul\":9571:9688   */\n      pop\n        /* \"#utility.yul\":9727:9729   */\n      0x20\n        /* \"#utility.yul\":9753:9806   */\n      tag_203\n        /* \"#utility.yul\":9798:9805   */\n      dup6\n        /* \"#utility.yul\":9789:9795   */\n      dup3\n        /* \"#utility.yul\":9778:9787   */\n      dup7\n        /* \"#utility.yul\":9774:9796   */\n      add\n        /* \"#utility.yul\":9753:9806   */\n      tag_72\n      jump\t// in\n    tag_203:\n        /* \"#utility.yul\":9743:9806   */\n      swap2\n      pop\n        /* \"#utility.yul\":9698:9816   */\n      pop\n        /* \"#utility.yul\":9349:9823   */\n      swap3\n      pop\n      swap3\n      swap1\n      pop\n      jump\t// out\n        /* \"#utility.yul\":9829:9947   */\n    tag_95:\n        /* \"#utility.yul\":9916:9940   */\n      tag_205\n        /* \"#utility.yul\":9934:9939   */\n      dup2\n        /* \"#utility.yul\":9916:9940   */\n      tag_70\n      jump\t// in\n    tag_205:\n        /* \"#utility.yul\":9911:9914   */\n      dup3\n        /* \"#utility.yul\":9904:9941   */\n      mstore\n        /* \"#utility.yul\":9829:9947   */\n      pop\n      pop\n      jump\t// out\n        /* \"#utility.yul\":9953:10122   */\n    tag_96:\n        /* \"#utility.yul\":10037:10048   */\n      0x00\n        /* \"#utility.yul\":10071:10077   */\n      dup3\n        /* \"#utility.yul\":10066:10069   */\n      dup3\n        /* \"#utility.yul\":10059:10078   */\n      mstore\n        /* \"#utility.yul\":10111:10115   */\n      0x20\n        /* \"#utility.yul\":10106:10109   */\n      dup3\n        /* \"#utility.yul\":10102:10116   */\n      add\n        /* \"#utility.yul\":10087:10116   */\n      swap1\n      pop\n        /* \"#utility.yul\":9953:10122   */\n      swap3\n      swap2\n      pop\n      pop\n      jump\t// out\n        /* \"#utility.yul\":10128:10505   */\n    tag_97:\n        /* \"#utility.yul\":10216:10219   */\n      0x00\n        /* \"#utility.yul\":10244:10283   */\n      tag_208\n        /* \"#utility.yul\":10277:10282   */\n      dup3\n        /* \"#utility.yul\":10244:10283   */\n      tag_77\n      jump\t// in\n    tag_208:\n        /* \"#utility.yul\":10299:10370   */\n      tag_209\n        /* \"#utility.yul\":10363:10369   */\n      dup2\n        /* \"#utility.yul\":10358:10361   */\n      dup6\n        /* \"#utility.yul\":10299:10370   */\n      tag_96\n      jump\t// in\n    tag_209:\n        /* \"#utility.yul\":10292:10370   */\n      swap4\n      pop\n        /* \"#utility.yul\":10379:10444   */\n      tag_210\n        /* \"#utility.yul\":10437:10443   */\n      dup2\n        /* \"#utility.yul\":10432:10435   */\n      dup6\n        /* \"#utility.yul\":10425:10429   */\n      0x20\n        /* \"#utility.yul\":10418:10423   */\n      dup7\n        /* \"#utility.yul\":10414:10430   */\n      add\n        /* \"#utility.yul\":10379:10444   */\n      tag_79\n      jump\t// in\n    tag_210:\n        /* \"#utility.yul\":10469:10498   */\n      tag_211\n        /* \"#utility.yul\":10491:10497   */\n      dup2\n        /* \"#utility.yul\":10469:10498   */\n      tag_80\n      jump\t// in\n    tag_211:\n        /* \"#utility.yul\":10464:10467   */\n      dup5\n        /* \"#utility.yul\":10460:10499   */\n      add\n        /* \"#utility.yul\":10453:10499   */\n      swap2\n      pop\n        /* \"#utility.yul\":10220:10505   */\n      pop\n        /* \"#utility.yul\":10128:10505   */\n      swap3\n      swap2\n      pop\n      pop\n      jump\t// out\n        /* \"#utility.yul\":10511:11337   */\n    tag_21:\n        /* \"#utility.yul\":10748:10752   */\n      0x00\n        /* \"#utility.yul\":10786:10789   */\n      0x80\n        /* \"#utility.yul\":10775:10784   */\n      dup3\n        /* \"#utility.yul\":10771:10790   */\n      add\n        /* \"#utility.yul\":10763:10790   */\n      swap1\n      pop\n        /* \"#utility.yul\":10800:10871   */\n      tag_213\n        /* \"#utility.yul\":10868:10869   */\n      0x00\n        /* \"#utility.yul\":10857:10866   */\n      dup4\n        /* \"#utility.yul\":10853:10870   */\n      add\n        /* \"#utility.yul\":10844:10850   */\n      dup8\n        /* \"#utility.yul\":10800:10871   */\n      tag_95\n      jump\t// in\n    tag_213:\n        /* \"#utility.yul\":10918:10927   */\n      dup2\n        /* \"#utility.yul\":10912:10916   */\n      dup2\n        /* \"#utility.yul\":10908:10928   */\n      sub\n        /* \"#utility.yul\":10903:10905   */\n      0x20\n        /* \"#utility.yul\":10892:10901   */\n      dup4\n        /* \"#utility.yul\":10888:10906   */\n      add\n        /* \"#utility.yul\":10881:10929   */\n      mstore\n        /* \"#utility.yul\":10946:11024   */\n      tag_214\n        /* \"#utility.yul\":11019:11023   */\n      dup2\n        /* \"#utility.yul\":11010:11016   */\n      dup7\n        /* \"#utility.yul\":10946:11024   */\n      tag_97\n      jump\t// in\n    tag_214:\n        /* \"#utility.yul\":10938:11024   */\n      swap1\n      pop\n        /* \"#utility.yul\":11071:11080   */\n      dup2\n        /* \"#utility.yul\":11065:11069   */\n      dup2\n        /* \"#utility.yul\":11061:11081   */\n      sub\n        /* \"#utility.yul\":11056:11058   */\n      0x40\n        /* \"#utility.yul\":11045:11054   */\n      dup4\n        /* \"#utility.yul\":11041:11059   */\n      add\n        /* \"#utility.yul\":11034:11082   */\n      mstore\n        /* \"#utility.yul\":11099:11177   */\n      tag_215\n        /* \"#utility.yul\":11172:11176   */\n      dup2\n        /* \"#utility.yul\":11163:11169   */\n      dup6\n        /* \"#utility.yul\":11099:11177   */\n      tag_97\n      jump\t// in\n    tag_215:\n        /* \"#utility.yul\":11091:11177   */\n      swap1\n      pop\n        /* \"#utility.yul\":11224:11233   */\n      dup2\n        /* \"#utility.yul\":11218:11222   */\n      dup2\n        /* \"#utility.yul\":11214:11234   */\n      sub\n        /* \"#utility.yul\":11209:11211   */\n      0x60\n        /* \"#utility.yul\":11198:11207   */\n      dup4\n        /* \"#utility.yul\":11194:11212   */\n      add\n        /* \"#utility.yul\":11187:11235   */\n      mstore\n        /* \"#utility.yul\":11252:11330   */\n      tag_216\n        /* \"#utility.yul\":11325:11329   */\n      dup2\n        /* \"#utility.yul\":11316:11322   */\n      dup5\n        /* \"#utility.yul\":11252:11330   */\n      tag_97\n      jump\t// in\n    tag_216:\n        /* \"#utility.yul\":11244:11330   */\n      swap1\n      pop\n        /* \"#utility.yul\":10511:11337   */\n      swap6\n      swap5\n      pop\n      pop\n      pop\n      pop\n      pop\n      jump\t// out\n        /* \"#utility.yul\":11343:11523   */\n    tag_98:\n        /* \"#utility.yul\":11391:11468   */\n      0x4e487b7100000000000000000000000000000000000000000000000000000000\n        /* \"#utility.yul\":11388:11389   */\n      0x00\n        /* \"#utility.yul\":11381:11469   */\n      mstore\n        /* \"#utility.yul\":11488:11492   */\n      0x22\n        /* \"#utility.yul\":11485:11486   */\n      0x04\n        /* \"#utility.yul\":11478:11493   */\n      mstore\n        /* \"#utility.yul\":11512:11516   */\n      0x24\n        /* \"#utility.yul\":11509:11510   */\n      0x00\n        /* \"#utility.yul\":11502:11517   */\n      revert\n        /* \"#utility.yul\":11529:11849   */\n    tag_27:\n        /* \"#utility.yul\":11573:11579   */\n      0x00\n        /* \"#utility.yul\":11610:11611   */\n      0x02\n        /* \"#utility.yul\":11604:11608   */\n      dup3\n        /* \"#utility.yul\":11600:11612   */\n      div\n        /* \"#utility.yul\":11590:11612   */\n      swap1\n      pop\n        /* \"#utility.yul\":11657:11658   */\n      0x01\n        /* \"#utility.yul\":11651:11655   */\n      dup3\n        /* \"#utility.yul\":11647:11659   */\n      and\n        /* \"#utility.yul\":11678:11696   */\n      dup1\n        /* \"#utility.yul\":11668:11749   */\n      tag_219\n      jumpi\n        /* \"#utility.yul\":11734:11738   */\n      0x7f\n        /* \"#utility.yul\":11726:11732   */\n      dup3\n        /* \"#utility.yul\":11722:11739   */\n      and\n        /* \"#utility.yul\":11712:11739   */\n      swap2\n      pop\n        /* \"#utility.yul\":11668:11749   */\n    tag_219:\n        /* \"#utility.yul\":11796:11798   */\n      0x20\n        /* \"#utility.yul\":11788:11794   */\n      dup3\n        /* \"#utility.yul\":11785:11799   */\n      lt\n        /* \"#utility.yul\":11765:11783   */\n      dup2\n        /* \"#utility.yul\":11762:11800   */\n      sub\n        /* \"#utility.yul\":11759:11843   */\n      tag_220\n      jumpi\n        /* \"#utility.yul\":11815:11833   */\n      tag_221\n      tag_98\n      jump\t// in\n    tag_221:\n        /* \"#utility.yul\":11759:11843   */\n    tag_220:\n        /* \"#utility.yul\":11580:11849   */\n      pop\n        /* \"#utility.yul\":11529:11849   */\n      swap2\n      swap1\n      pop\n      jump\t// out\n        /* \"#utility.yul\":11855:11996   */\n    tag_99:\n        /* \"#utility.yul\":11904:11908   */\n      0x00\n        /* \"#utility.yul\":11927:11930   */\n      dup2\n        /* \"#utility.yul\":11919:11930   */\n      swap1\n      pop\n        /* \"#utility.yul\":11950:11953   */\n      dup2\n        /* \"#utility.yul\":11947:11948   */\n      0x00\n        /* \"#utility.yul\":11940:11954   */\n      mstore\n        /* \"#utility.yul\":11984:11988   */\n      0x20\n        /* \"#utility.yul\":11981:11982   */\n      0x00\n        /* \"#utility.yul\":11971:11989   */\n      keccak256\n        /* \"#utility.yul\":11963:11989   */\n      swap1\n      pop\n        /* \"#utility.yul\":11855:11996   */\n      swap2\n      swap1\n      pop\n      jump\t// out\n        /* \"#utility.yul\":12002:12095   */\n    tag_100:\n        /* \"#utility.yul\":12039:12045   */\n      0x00\n        /* \"#utility.yul\":12086:12088   */\n      0x20\n        /* \"#utility.yul\":12081:12083   */\n      0x1f\n        /* \"#utility.yul\":12074:12079   */\n      dup4\n        /* \"#utility.yul\":12070:12084   */\n      add\n        /* \"#utility.yul\":12066:12089   */\n      div\n        /* \"#utility.yul\":12056:12089   */\n      swap1\n      pop\n        /* \"#utility.yul\":12002:12095   */\n      swap2\n      swap1\n      pop\n      jump\t// out\n        /* \"#utility.yul\":12101:12208   */\n    tag_101:\n        /* \"#utility.yul\":12145:12153   */\n      0x00\n        /* \"#utility.yul\":12195:12200   */\n      dup3\n        /* \"#utility.yul\":12189:12193   */\n      dup3\n        /* \"#utility.yul\":12185:12201   */\n      shl\n        /* \"#utility.yul\":12164:12201   */\n      swap1\n      pop\n        /* \"#utility.yul\":12101:12208   */\n      swap3\n      swap2\n      pop\n      pop\n      jump\t// out\n        /* \"#utility.yul\":12214:12607   */\n    tag_102:\n        /* \"#utility.yul\":12283:12289   */\n      0x00\n        /* \"#utility.yul\":12333:12334   */\n      0x08\n        /* \"#utility.yul\":12321:12331   */\n      dup4\n        /* \"#utility.yul\":12317:12335   */\n      mul\n        /* \"#utility.yul\":12356:12453   */\n      tag_226\n        /* \"#utility.yul\":12386:12452   */\n      0xffffffffffffffffffffffffffffffffffffffffffffffffffffffffffffffff\n        /* \"#utility.yul\":12375:12384   */\n      dup3\n        /* \"#utility.yul\":12356:12453   */\n      tag_101\n      jump\t// in\n    tag_226:\n        /* \"#utility.yul\":12474:12513   */\n      tag_227\n        /* \"#utility.yul\":12504:12512   */\n      dup7\n        /* \"#utility.yul\":12493:12502   */\n      dup4\n        /* \"#utility.yul\":12474:12513   */\n      tag_101\n      jump\t// in\n    tag_227:\n        /* \"#utility.yul\":12462:12513   */\n      swap6\n      pop\n        /* \"#utility.yul\":12546:12550   */\n      dup1\n        /* \"#utility.yul\":12542:12551   */\n      not\n        /* \"#utility.yul\":12535:12540   */\n      dup5\n        /* \"#utility.yul\":12531:12552   */\n      and\n        /* \"#utility.yul\":12522:12552   */\n      swap4\n      pop\n        /* \"#utility.yul\":12595:12599   */\n      dup1\n        /* \"#utility.yul\":12585:12593   */\n      dup7\n        /* \"#utility.yul\":12581:12600   */\n      and\n        /* \"#utility.yul\":12574:12579   */\n      dup5\n        /* \"#utility.yul\":12571:12601   */\n      or\n        /* \"#utility.yul\":12561:12601   */\n      swap3\n      pop\n        /* \"#utility.yul\":12290:12607   */\n      pop\n      pop\n        /* \"#utility.yul\":12214:12607   */\n      swap4\n      swap3\n      pop\n      pop\n      pop\n      jump\t// out\n        /* \"#utility.yul\":12613:12673   */\n    tag_103:\n        /* \"#utility.yul\":12641:12644   */\n      0x00\n        /* \"#utility.yul\":12662:12667   */\n      dup2\n        /* \"#utility.yul\":12655:12667   */\n      swap1\n      pop\n        /* \"#utility.yul\":12613:12673   */\n      swap2\n      swap1\n      pop\n      jump\t// out\n        /* \"#utility.yul\":12679:12821   */\n    tag_104:\n        /* \"#utility.yul\":12729:12738   */\n      0x00\n        /* \"#utility.yul\":12762:12815   */\n      tag_230\n        /* \"#utility.yul\":12780:12814   */\n      tag_231\n        /* \"#utility.yul\":12789:12813   */\n      tag_232\n        /* \"#utility.yul\":12807:12812   */\n      dup5\n        /* \"#utility.yul\":12789:12813   */\n      tag_70\n      jump\t// in\n    tag_232:\n        /* \"#utility.yul\":12780:12814   */\n      tag_103\n      jump\t// in\n    tag_231:\n        /* \"#utility.yul\":12762:12815   */\n      tag_70\n      jump\t// in\n    tag_230:\n        /* \"#utility.yul\":12749:12815   */\n      swap1\n      pop\n        /* \"#utility.yul\":12679:12821   */\n      swap2\n      swap1\n      pop\n      jump\t// out\n        /* \"#utility.yul\":12827:12902   */\n    tag_105:\n        /* \"#utility.yul\":12870:12873   */\n      0x00\n        /* \"#utility.yul\":12891:12896   */\n      dup2\n        /* \"#utility.yul\":12884:12896   */\n      swap1\n      pop\n        /* \"#utility.yul\":12827:12902   */\n      swap2\n      swap1\n      pop\n      jump\t// out\n        /* \"#utility.yul\":12908:13177   */\n    tag_106:\n        /* \"#utility.yul\":13018:13057   */\n      tag_235\n        /* \"#utility.yul\":13049:13056   */\n      dup4\n        /* \"#utility.yul\":13018:13057   */\n      tag_104\n      jump\t// in\n    tag_235:\n        /* \"#utility.yul\":13079:13170   */\n      tag_236\n        /* \"#utility.yul\":13128:13169   */\n      tag_237\n        /* \"#utility.yul\":13152:13168   */\n      dup3\n        /* \"#utility.yul\":13128:13169   */\n      tag_105\n      jump\t// in\n    tag_237:\n        /* \"#utility.yul\":13120:13126   */\n      dup5\n        /* \"#utility.yul\":13113:13117   */\n      dup5\n        /* \"#utility.yul\":13107:13118   */\n      sload\n        /* \"#utility.yul\":13079:13170   */\n      tag_102\n      jump\t// in\n    tag_236:\n        /* \"#utility.yul\":13073:13077   */\n      dup3\n        /* \"#utility.yul\":13066:13171   */\n      sstore\n        /* \"#utility.yul\":12984:13177   */\n      pop\n        /* \"#utility.yul\":12908:13177   */\n      pop\n      pop\n      pop\n      jump\t// out\n        /* \"#utility.yul\":13183:13256   */\n    tag_107:\n        /* \"#utility.yul\":13228:13231   */\n      0x00\n        /* \"#utility.yul\":13183:13256   */\n      swap1\n      jump\t// out\n        /* \"#utility.yul\":13262:13451   */\n    tag_108:\n        /* \"#utility.yul\":13339:13371   */\n      tag_240\n      tag_107\n      jump\t// in\n    tag_240:\n        /* \"#utility.yul\":13380:13445   */\n      tag_241\n        /* \"#utility.yul\":13438:13444   */\n      dup2\n        /* \"#utility.yul\":13430:13436   */\n      dup5\n        /* \"#utility.yul\":13424:13428   */\n      dup5\n        /* \"#utility.yul\":13380:13445   */\n      tag_106\n      jump\t// in\n    tag_241:\n        /* \"#utility.yul\":13315:13451   */\n      pop\n        /* \"#utility.yul\":13262:13451   */\n      pop\n      pop\n      jump\t// out\n        /* \"#utility.yul\":13457:13643   */\n    tag_109:\n        /* \"#utility.yul\":13517:13637   */\n    tag_243:\n        /* \"#utility.yul\":13534:13537   */\n      dup2\n        /* \"#utility.yul\":13527:13532   */\n      dup2\n        /* \"#utility.yul\":13524:13538   */\n      lt\n        /* \"#utility.yul\":13517:13637   */\n      iszero\n      tag_245\n      jumpi\n        /* \"#utility.yul\":13588:13627   */\n      tag_246\n        /* \"#utility.yul\":13625:13626   */\n      0x00\n        /* \"#utility.yul\":13618:13623   */\n      dup3\n        /* \"#utility.yul\":13588:13627   */\n      tag_108\n      jump\t// in\n    tag_246:\n        /* \"#utility.yul\":13561:13562   */\n      0x01\n        /* \"#utility.yul\":13554:13559   */\n      dup2\n        /* \"#utility.yul\":13550:13563   */\n      add\n        /* \"#utility.yul\":13541:13563   */\n      swap1\n      pop\n        /* \"#utility.yul\":13517:13637   */\n      jump(tag_243)\n    tag_245:\n        /* \"#utility.yul\":13457:13643   */\n      pop\n      pop\n      jump\t// out\n        /* \"#utility.yul\":13649:14192   */\n    tag_110:\n        /* \"#utility.yul\":13750:13752   */\n      0x1f\n        /* \"#utility.yul\":13745:13748   */\n      dup3\n        /* \"#utility.yul\":13742:13753   */\n      gt\n        /* \"#utility.yul\":13739:14185   */\n      iszero\n      tag_248\n      jumpi\n        /* \"#utility.yul\":13784:13822   */\n      tag_249\n        /* \"#utility.yul\":13816:13821   */\n      dup2\n        /* \"#utility.yul\":13784:13822   */\n      tag_99\n      jump\t// in\n    tag_249:\n        /* \"#utility.yul\":13868:13897   */\n      tag_250\n        /* \"#utility.yul\":13886:13896   */\n      dup5\n        /* \"#utility.yul\":13868:13897   */\n      tag_100\n      jump\t// in\n    tag_250:\n        /* \"#utility.yul\":13858:13866   */\n      dup2\n        /* \"#utility.yul\":13854:13898   */\n      add\n        /* \"#utility.yul\":14051:14053   */\n      0x20\n        /* \"#utility.yul\":14039:14049   */\n      dup6\n        /* \"#utility.yul\":14036:14054   */\n      lt\n        /* \"#utility.yul\":14033:14082   */\n      iszero\n      tag_251\n      jumpi\n        /* \"#utility.yul\":14072:14080   */\n      dup2\n        /* \"#utility.yul\":14057:14080   */\n      swap1\n      pop\n        /* \"#utility.yul\":14033:14082   */\n    tag_251:\n        /* \"#utility.yul\":14095:14175   */\n      tag_252\n        /* \"#utility.yul\":14151:14173   */\n      tag_253\n        /* \"#utility.yul\":14169:14172   */\n      dup6\n        /* \"#utility.yul\":14151:14173   */\n      tag_100\n      jump\t// in\n    tag_253:\n        /* \"#utility.yul\":14141:14149   */\n      dup4\n        /* \"#utility.yul\":14137:14174   */\n      add\n        /* \"#utility.yul\":14124:14135   */\n      dup3\n        /* \"#utility.yul\":14095:14175   */\n      tag_109\n      jump\t// in\n    tag_252:\n        /* \"#utility.yul\":13754:14185   */\n      pop\n      pop\n        /* \"#utility.yul\":13739:14185   */\n    tag_248:\n        /* \"#utility.yul\":13649:14192   */\n      pop\n      pop\n      pop\n      jump\t// out\n        /* \"#utility.yul\":14198:14315   */\n    tag_111:\n        /* \"#utility.yul\":14252:14260   */\n      0x00\n        /* \"#utility.yul\":14302:14307   */\n      dup3\n        /* \"#utility.yul\":14296:14300   */\n      dup3\n        /* \"#utility.yul\":14292:14308   */\n      shr\n        /* \"#utility.yul\":14271:14308   */\n      swap1\n      pop\n        /* \"#utility.yul\":14198:14315   */\n      swap3\n      swap2\n      pop\n      pop\n      jump\t// out\n        /* \"#utility.yul\":14321:14490   */\n    tag_112:\n        /* \"#utility.yul\":14365:14371   */\n      0x00\n        /* \"#utility.yul\":14398:14449   */\n      tag_256\n        /* \"#utility.yul\":14446:14447   */\n      0x00\n        /* \"#utility.yul\":14442:14448   */\n      not\n        /* \"#utility.yul\":14434:14439   */\n      dup5\n        /* \"#utility.yul\":14431:14432   */\n      0x08\n        /* \"#utility.yul\":14427:14440   */\n      mul\n        /* \"#utility.yul\":14398:14449   */\n      tag_111\n      jump\t// in\n    tag_256:\n        /* \"#utility.yul\":14394:14450   */\n      not\n        /* \"#utility.yul\":14479:14483   */\n      dup1\n        /* \"#utility.yul\":14473:14477   */\n      dup4\n        /* \"#utility.yul\":14469:14484   */\n      and\n        /* \"#utility.yul\":14459:14484   */\n      swap2\n      pop\n        /* \"#utility.yul\":14372:14490   */\n      pop\n        /* \"#utility.yul\":14321:14490   */\n      swap3\n      swap2\n      pop\n      pop\n      jump\t// out\n        /* \"#utility.yul\":14495:14790   */\n    tag_113:\n        /* \"#utility.yul\":14571:14575   */\n      0x00\n        /* \"#utility.yul\":14717:14746   */\n      tag_258\n        /* \"#utility.yul\":14742:14745   */\n      dup4\n        /* \"#utility.yul\":14736:14740   */\n      dup4\n        /* \"#utility.yul\":14717:14746   */\n      tag_112\n      jump\t// in\n    tag_258:\n        /* \"#utility.yul\":14709:14746   */\n      swap2\n      pop\n        /* \"#utility.yul\":14779:14782   */\n      dup3\n        /* \"#utility.yul\":14776:14777   */\n      0x02\n        /* \"#utility.yul\":14772:14783   */\n      mul\n        /* \"#utility.yul\":14766:14770   */\n      dup3\n        /* \"#utility.yul\":14763:14784   */\n      or\n        /* \"#utility.yul\":14755:14784   */\n      swap1\n      pop\n        /* \"#utility.yul\":14495:14790   */\n      swap3\n      swap2\n      pop\n      pop\n      jump\t// out\n        /* \"#utility.yul\":14795:16190   */\n    tag_45:\n        /* \"#utility.yul\":14912:14949   */\n      tag_260\n        /* \"#utility.yul\":14945:14948   */\n      dup3\n        /* \"#utility.yul\":14912:14949   */\n      tag_77\n      jump\t// in\n    tag_260:\n        /* \"#utility.yul\":15014:15032   */\n      0xffffffffffffffff\n        /* \"#utility.yul\":15006:15012   */\n      dup2\n        /* \"#utility.yul\":15003:15033   */\n      gt\n        /* \"#utility.yul\":15000:15056   */\n      iszero\n      tag_261\n      jumpi\n        /* \"#utility.yul\":15036:15054   */\n      tag_262\n      tag_88\n      jump\t// in\n    tag_262:\n        /* \"#utility.yul\":15000:15056   */\n    tag_261:\n        /* \"#utility.yul\":15080:15118   */\n      tag_263\n        /* \"#utility.yul\":15112:15116   */\n      dup3\n        /* \"#utility.yul\":15106:15117   */\n      sload\n        /* \"#utility.yul\":15080:15118   */\n      tag_27\n      jump\t// in\n    tag_263:\n        /* \"#utility.yul\":15165:15232   */\n      tag_264\n        /* \"#utility.yul\":15225:15231   */\n      dup3\n        /* \"#utility.yul\":15217:15223   */\n      dup3\n        /* \"#utility.yul\":15211:15215   */\n      dup6\n        /* \"#utility.yul\":15165:15232   */\n      tag_110\n      jump\t// in\n    tag_264:\n        /* \"#utility.yul\":15259:15260   */\n      0x00\n        /* \"#utility.yul\":15283:15287   */\n      0x20\n        /* \"#utility.yul\":15270:15287   */\n      swap1\n      pop\n        /* \"#utility.yul\":15315:15317   */\n      0x1f\n        /* \"#utility.yul\":15307:15313   */\n      dup4\n        /* \"#utility.yul\":15304:15318   */\n      gt\n        /* \"#utility.yul\":15332:15333   */\n      0x01\n        /* \"#utility.yul\":15327:15945   */\n      dup2\n      eq\n      tag_266\n      jumpi\n        /* \"#utility.yul\":15989:15990   */\n      0x00\n        /* \"#utility.yul\":16006:16012   */\n      dup5\n        /* \"#utility.yul\":16003:16080   */\n      iszero\n      tag_267\n      jumpi\n        /* \"#utility.yul\":16055:16064   */\n      dup3\n        /* \"#utility.yul\":16050:16053   */\n      dup8\n        /* \"#utility.yul\":16046:16065   */\n      add\n        /* \"#utility.yul\":16040:16066   */\n      mload\n        /* \"#utility.yul\":16031:16066   */\n      swap1\n      pop\n        /* \"#utility.yul\":16003:16080   */\n    tag_267:\n        /* \"#utility.yul\":16106:16173   */\n      tag_268\n        /* \"#utility.yul\":16166:16172   */\n      dup6\n        /* \"#utility.yul\":16159:16164   */\n      dup3\n        /* \"#utility.yul\":16106:16173   */\n      tag_113\n      jump\t// in\n    tag_268:\n        /* \"#utility.yul\":16100:16104   */\n      dup7\n        /* \"#utility.yul\":16093:16174   */\n      sstore\n        /* \"#utility.yul\":15962:16184   */\n      pop\n        /* \"#utility.yul\":15297:16184   */\n      jump(tag_265)\n        /* \"#utility.yul\":15327:15945   */\n    tag_266:\n        /* \"#utility.yul\":15379:15383   */\n      0x1f\n        /* \"#utility.yul\":15375:15384   */\n      not\n        /* \"#utility.yul\":15367:15373   */\n      dup5\n        /* \"#utility.yul\":15363:15385   */\n      and\n        /* \"#utility.yul\":15413:15450   */\n      tag_269\n        /* \"#utility.yul\":15445:15449   */\n      dup7\n        /* \"#utility.yul\":15413:15450   */\n      tag_99\n      jump\t// in\n    tag_269:\n        /* \"#utility.yul\":15472:15473   */\n      0x00\n        /* \"#utility.yul\":15486:15694   */\n    tag_270:\n        /* \"#utility.yul\":15500:15507   */\n      dup3\n        /* \"#utility.yul\":15497:15498   */\n      dup2\n        /* \"#utility.yul\":15494:15508   */\n      lt\n        /* \"#utility.yul\":15486:15694   */\n      iszero\n      tag_272\n      jumpi\n        /* \"#utility.yul\":15579:15588   */\n      dup5\n        /* \"#utility.yul\":15574:15577   */\n      dup10\n        /* \"#utility.yul\":15570:15589   */\n      add\n        /* \"#utility.yul\":15564:15590   */\n      mload\n        /* \"#utility.yul\":15556:15562   */\n      dup3\n        /* \"#utility.yul\":15549:15591   */\n      sstore\n        /* \"#utility.yul\":15630:15631   */\n      0x01\n        /* \"#utility.yul\":15622:15628   */\n      dup3\n        /* \"#utility.yul\":15618:15632   */\n      add\n        /* \"#utility.yul\":15608:15632   */\n      swap2\n      pop\n        /* \"#utility.yul\":15677:15679   */\n      0x20\n        /* \"#utility.yul\":15666:15675   */\n      dup6\n        /* \"#utility.yul\":15662:15680   */\n      add\n        /* \"#utility.yul\":15649:15680   */\n      swap5\n      pop\n        /* \"#utility.yul\":15523:15527   */\n      0x20\n        /* \"#utility.yul\":15520:15521   */\n      dup2\n        /* \"#utility.yul\":15516:15528   */\n      add\n        /* \"#utility.yul\":15511:15528   */\n      swap1\n      pop\n        /* \"#utility.yul\":15486:15694   */\n      jump(tag_270)\n    tag_272:\n        /* \"#utility.yul\":15722:15728   */\n      dup7\n        /* \"#utility.yul\":15713:15720   */\n      dup4\n        /* \"#utility.yul\":15710:15729   */\n      lt\n        /* \"#utility.yul\":15707:15886   */\n      iszero\n      tag_273\n      jumpi\n        /* \"#utility.yul\":15780:15789   */\n      dup5\n        /* \"#utility.yul\":15775:15778   */\n      dup10\n        /* \"#utility.yul\":15771:15790   */\n      add\n        /* \"#utility.yul\":15765:15791   */\n      mload\n        /* \"#utility.yul\":15823:15871   */\n      tag_274\n        /* \"#utility.yul\":15865:15869   */\n      0x1f\n        /* \"#utility.yul\":15857:15863   */\n      dup10\n        /* \"#utility.yul\":15853:15870   */\n      and\n        /* \"#utility.yul\":15842:15851   */\n      dup3\n        /* \"#utility.yul\":15823:15871   */\n      tag_112\n      jump\t// in\n    tag_274:\n        /* \"#utility.yul\":15815:15821   */\n      dup4\n        /* \"#utility.yul\":15808:15872   */\n      sstore\n        /* \"#utility.yul\":15730:15886   */\n      pop\n        /* \"#utility.yul\":15707:15886   */\n    tag_273:\n        /* \"#utility.yul\":15932:15933   */\n      0x01\n        /* \"#utility.yul\":15928:15929   */\n      0x02\n        /* \"#utility.yul\":15920:15926   */\n      dup9\n        /* \"#utility.yul\":15916:15930   */\n      mul\n        /* \"#utility.yul\":15912:15934   */\n      add\n        /* \"#utility.yul\":15906:15910   */\n      dup9\n        /* \"#utility.yul\":15899:15935   */\n      sstore\n        /* \"#utility.yul\":15334:15945   */\n      pop\n      pop\n      pop\n        /* \"#utility.yul\":15297:16184   */\n    tag_265:\n      pop\n        /* \"#utility.yul\":14887:16190   */\n      pop\n      pop\n      pop\n        /* \"#utility.yul\":14795:16190   */\n      pop\n      pop\n      jump\t// out\n        /* \"#utility.yul\":16196:16619   */\n    tag_49:\n        /* \"#utility.yul\":16337:16341   */\n      0x00\n        /* \"#utility.yul\":16375:16377   */\n      0x40\n        /* \"#utility.yul\":16364:16373   */\n      dup3\n        /* \"#utility.yul\":16360:16378   */\n      add\n        /* \"#utility.yul\":16352:16378   */\n      swap1\n      pop\n        /* \"#utility.yul\":16388:16459   */\n      tag_276\n        /* \"#utility.yul\":16456:16457   */\n      0x00\n        /* \"#utility.yul\":16445:16454   */\n      dup4\n        /* \"#utility.yul\":16441:16458   */\n      add\n        /* \"#utility.yul\":16432:16438   */\n      dup6\n        /* \"#utility.yul\":16388:16459   */\n      tag_95\n      jump\t// in\n    tag_276:\n        /* \"#utility.yul\":16506:16515   */\n      dup2\n        /* \"#utility.yul\":16500:16504   */\n      dup2\n        /* \"#utility.yul\":16496:16516   */\n      sub\n        /* \"#utility.yul\":16491:16493   */\n      0x20\n        /* \"#utility.yul\":16480:16489   */\n      dup4\n        /* \"#utility.yul\":16476:16494   */\n      add\n        /* \"#utility.yul\":16469:16517   */\n      mstore\n        /* \"#utility.yul\":16534:16612   */\n      tag_277\n        /* \"#utility.yul\":16607:16611   */\n      dup2\n        /* \"#utility.yul\":16598:16604   */\n      dup5\n        /* \"#utility.yul\":16534:16612   */\n      tag_97\n      jump\t// in\n    tag_277:\n        /* \"#utility.yul\":16526:16612   */\n      swap1\n      pop\n        /* \"#utility.yul\":16196:16619   */\n      swap4\n      swap3\n      pop\n      pop\n      pop\n      jump\t// out\n\n    auxdata: 0xa264697066735822122066cb62fbbdb05d1fbde81a3171d2c1f3aa704d93693eefc3a8efcce5fed1c7d664736f6c634300081a0033\n}\n",
				"bytecode": {
					"linkReferences": {},
					"object": "6080604052348015600e575f80fd5b50610dd68061001c5f395ff3fe608060405234801561000f575f80fd5b506004361061003f575f3560e01c80631e7046b51461004357806355cd9c5014610073578063f3cd27421461008f575b5f80fd5b61005d600480360381019061005891906105e5565b6100c2565b60405161006a91906107b8565b60405180910390f35b61008d60048036038101906100889190610904565b6102e7565b005b6100a960048036038101906100a491906109bc565b6103ca565b6040516100b99493929190610a51565b60405180910390f35b60605f808381526020019081526020015f20805480602002602001604051908101604052809291908181526020015f905b828210156102dc578382905f5260205f2090600402016040518060800160405290815f820154815260200160018201805461012d90610ad6565b80601f016020809104026020016040519081016040528092919081815260200182805461015990610ad6565b80156101a45780601f1061017b576101008083540402835291602001916101a4565b820191905f5260205f20905b81548152906001019060200180831161018757829003601f168201915b505050505081526020016002820180546101bd90610ad6565b80601f01602080910402602001604051908101604052809291908181526020018280546101e990610ad6565b80156102345780601f1061020b57610100808354040283529160200191610234565b820191905f5260205f20905b81548152906001019060200180831161021757829003601f168201915b5050505050815260200160038201805461024d90610ad6565b80601f016020809104026020016040519081016040528092919081815260200182805461027990610ad6565b80156102c45780601f1061029b576101008083540402835291602001916102c4565b820191905f5260205f20905b8154815290600101906020018083116102a757829003601f168201915b505050505081525050815260200190600101906100f3565b505050509050919050565b5f808581526020019081526020015f20604051806080016040528042815260200185815260200184815260200183815250908060018154018082558091505060019003905f5260205f2090600402015f909190919091505f820151815f0155602082015181600101908161035b9190610ca3565b5060408201518160020190816103719190610ca3565b5060608201518160030190816103879190610ca3565b505050837f51004981618abb1a16d1882550db0770d527c6e42f9b04700a604d6ef2bd774c42856040516103bc929190610d72565b60405180910390a250505050565b5f602052815f5260405f2081815481106103e2575f80fd5b905f5260205f2090600402015f9150915050805f01549080600101805461040890610ad6565b80601f016020809104026020016040519081016040528092919081815260200182805461043490610ad6565b801561047f5780601f106104565761010080835404028352916020019161047f565b820191905f5260205f20905b81548152906001019060200180831161046257829003601f168201915b50505050509080600201805461049490610ad6565b80601f01602080910402602001604051908101604052809291908181526020018280546104c090610ad6565b801561050b5780601f106104e25761010080835404028352916020019161050b565b820191905f5260205f20905b8154815290600101906020018083116104ee57829003601f168201915b50505050509080600301805461052090610ad6565b80601f016020809104026020016040519081016040528092919081815260200182805461054c90610ad6565b80156105975780601f1061056e57610100808354040283529160200191610597565b820191905f5260205f20905b81548152906001019060200180831161057a57829003601f168201915b5050505050905084565b5f604051905090565b5f80fd5b5f80fd5b5f819050919050565b6105c4816105b2565b81146105ce575f80fd5b50565b5f813590506105df816105bb565b92915050565b5f602082840312156105fa576105f96105aa565b5b5f610607848285016105d1565b91505092915050565b5f81519050919050565b5f82825260208201905092915050565b5f819050602082019050919050565b610642816105b2565b82525050565b5f81519050919050565b5f82825260208201905092915050565b8281835e5f83830152505050565b5f601f19601f8301169050919050565b5f61068a82610648565b6106948185610652565b93506106a4818560208601610662565b6106ad81610670565b840191505092915050565b5f608083015f8301516106cd5f860182610639565b50602083015184820360208601526106e58282610680565b915050604083015184820360408601526106ff8282610680565b915050606083015184820360608601526107198282610680565b9150508091505092915050565b5f61073183836106b8565b905092915050565b5f602082019050919050565b5f61074f82610610565b610759818561061a565b93508360208202850161076b8561062a565b805f5b858110156107a657848403895281516107878582610726565b945061079283610739565b925060208a0199505060018101905061076e565b50829750879550505050505092915050565b5f6020820190508181035f8301526107d08184610745565b905092915050565b5f80fd5b5f80fd5b7f4e487b71000000000000000000000000000000000000000000000000000000005f52604160045260245ffd5b61081682610670565b810181811067ffffffffffffffff82111715610835576108346107e0565b5b80604052505050565b5f6108476105a1565b9050610853828261080d565b919050565b5f67ffffffffffffffff821115610872576108716107e0565b5b61087b82610670565b9050602081019050919050565b828183375f83830152505050565b5f6108a86108a384610858565b61083e565b9050828152602081018484840111156108c4576108c36107dc565b5b6108cf848285610888565b509392505050565b5f82601f8301126108eb576108ea6107d8565b5b81356108fb848260208601610896565b91505092915050565b5f805f806080858703121561091c5761091b6105aa565b5b5f610929878288016105d1565b945050602085013567ffffffffffffffff81111561094a576109496105ae565b5b610956878288016108d7565b935050604085013567ffffffffffffffff811115610977576109766105ae565b5b610983878288016108d7565b925050606085013567ffffffffffffffff8111156109a4576109a36105ae565b5b6109b0878288016108d7565b91505092959194509250565b5f80604083850312156109d2576109d16105aa565b5b5f6109df858286016105d1565b92505060206109f0858286016105d1565b9150509250929050565b610a03816105b2565b82525050565b5f82825260208201905092915050565b5f610a2382610648565b610a2d8185610a09565b9350610a3d818560208601610662565b610a4681610670565b840191505092915050565b5f608082019050610a645f8301876109fa565b8181036020830152610a768186610a19565b90508181036040830152610a8a8185610a19565b90508181036060830152610a9e8184610a19565b905095945050505050565b7f4e487b71000000000000000000000000000000000000000000000000000000005f52602260045260245ffd5b5f6002820490506001821680610aed57607f821691505b602082108103610b0057610aff610aa9565b5b50919050565b5f819050815f5260205f209050919050565b5f6020601f8301049050919050565b5f82821b905092915050565b5f60088302610b627fffffffffffffffffffffffffffffffffffffffffffffffffffffffffffffffff82610b27565b610b6c8683610b27565b95508019841693508086168417925050509392505050565b5f819050919050565b5f610ba7610ba2610b9d846105b2565b610b84565b6105b2565b9050919050565b5f819050919050565b610bc083610b8d565b610bd4610bcc82610bae565b848454610b33565b825550505050565b5f90565b610be8610bdc565b610bf3818484610bb7565b505050565b5b81811015610c1657610c0b5f82610be0565b600181019050610bf9565b5050565b601f821115610c5b57610c2c81610b06565b610c3584610b18565b81016020851015610c44578190505b610c58610c5085610b18565b830182610bf8565b50505b505050565b5f82821c905092915050565b5f610c7b5f1984600802610c60565b1980831691505092915050565b5f610c938383610c6c565b9150826002028217905092915050565b610cac82610648565b67ffffffffffffffff811115610cc557610cc46107e0565b5b610ccf8254610ad6565b610cda828285610c1a565b5f60209050601f831160018114610d0b575f8415610cf9578287015190505b610d038582610c88565b865550610d6a565b601f198416610d1986610b06565b5f5b82811015610d4057848901518255600182019150602085019450602081019050610d1b565b86831015610d5d5784890151610d59601f891682610c6c565b8355505b6001600288020188555050505b505050505050565b5f604082019050610d855f8301856109fa565b8181036020830152610d978184610a19565b9050939250505056fea264697066735822122066cb62fbbdb05d1fbde81a3171d2c1f3aa704d93693eefc3a8efcce5fed1c7d664736f6c634300081a0033",
					"opcodes": "PUSH1 0x80 PUSH1 0x40 MSTORE CALLVALUE DUP1 ISZERO PUSH1 0xE JUMPI PUSH0 DUP1 REVERT JUMPDEST POP PUSH2 0xDD6 DUP1 PUSH2 0x1C PUSH0 CODECOPY PUSH0 RETURN INVALID PUSH1 0x80 PUSH1 0x40 MSTORE CALLVALUE DUP1 ISZERO PUSH2 0xF JUMPI PUSH0 DUP1 REVERT JUMPDEST POP PUSH1 0x4 CALLDATASIZE LT PUSH2 0x3F JUMPI PUSH0 CALLDATALOAD PUSH1 0xE0 SHR DUP1 PUSH4 0x1E7046B5 EQ PUSH2 0x43 JUMPI DUP1 PUSH4 0x55CD9C50 EQ PUSH2 0x73 JUMPI DUP1 PUSH4 0xF3CD2742 EQ PUSH2 0x8F JUMPI JUMPDEST PUSH0 DUP1 REVERT JUMPDEST PUSH2 0x5D PUSH1 0x4 DUP1 CALLDATASIZE SUB DUP2 ADD SWAP1 PUSH2 0x58 SWAP2 SWAP1 PUSH2 0x5E5 JUMP JUMPDEST PUSH2 0xC2 JUMP JUMPDEST PUSH1 0x40 MLOAD PUSH2 0x6A SWAP2 SWAP1 PUSH2 0x7B8 JUMP JUMPDEST PUSH1 0x40 MLOAD DUP1 SWAP2 SUB SWAP1 RETURN JUMPDEST PUSH2 0x8D PUSH1 0x4 DUP1 CALLDATASIZE SUB DUP2 ADD SWAP1 PUSH2 0x88 SWAP2 SWAP1 PUSH2 0x904 JUMP JUMPDEST PUSH2 0x2E7 JUMP JUMPDEST STOP JUMPDEST PUSH2 0xA9 PUSH1 0x4 DUP1 CALLDATASIZE SUB DUP2 ADD SWAP1 PUSH2 0xA4 SWAP2 SWAP1 PUSH2 0x9BC JUMP JUMPDEST PUSH2 0x3CA JUMP JUMPDEST PUSH1 0x40 MLOAD PUSH2 0xB9 SWAP5 SWAP4 SWAP3 SWAP2 SWAP1 PUSH2 0xA51 JUMP JUMPDEST PUSH1 0x40 MLOAD DUP1 SWAP2 SUB SWAP1 RETURN JUMPDEST PUSH1 0x60 PUSH0 DUP1 DUP4 DUP2 MSTORE PUSH1 0x20 ADD SWAP1 DUP2 MSTORE PUSH1 0x20 ADD PUSH0 KECCAK256 DUP1 SLOAD DUP1 PUSH1 0x20 MUL PUSH1 0x20 ADD PUSH1 0x40 MLOAD SWAP1 DUP2 ADD PUSH1 0x40 MSTORE DUP1 SWAP3 SWAP2 SWAP1 DUP2 DUP2 MSTORE PUSH1 0x20 ADD PUSH0 SWAP1 JUMPDEST DUP3 DUP3 LT ISZERO PUSH2 0x2DC JUMPI DUP4 DUP3 SWAP1 PUSH0 MSTORE PUSH1 0x20 PUSH0 KECCAK256 SWAP1 PUSH1 0x4 MUL ADD PUSH1 0x40 MLOAD DUP1 PUSH1 0x80 ADD PUSH1 0x40 MSTORE SWAP1 DUP2 PUSH0 DUP3 ADD SLOAD DUP2 MSTORE PUSH1 0x20 ADD PUSH1 0x1 DUP3 ADD DUP1 SLOAD PUSH2 0x12D SWAP1 PUSH2 0xAD6 JUMP JUMPDEST DUP1 PUSH1 0x1F ADD PUSH1 0x20 DUP1 SWAP2 DIV MUL PUSH1 0x20 ADD PUSH1 0x40 MLOAD SWAP1 DUP2 ADD PUSH1 0x40 MSTORE DUP1 SWAP3 SWAP2 SWAP1 DUP2 DUP2 MSTORE PUSH1 0x20 ADD DUP3 DUP1 SLOAD PUSH2 0x159 SWAP1 PUSH2 0xAD6 JUMP JUMPDEST DUP1 ISZERO PUSH2 0x1A4 JUMPI DUP1 PUSH1 0x1F LT PUSH2 0x17B JUMPI PUSH2 0x100 DUP1 DUP4 SLOAD DIV MUL DUP4 MSTORE SWAP2 PUSH1 0x20 ADD SWAP2 PUSH2 0x1A4 JUMP JUMPDEST DUP3 ADD SWAP2 SWAP1 PUSH0 MSTORE PUSH1 0x20 PUSH0 KECCAK256 SWAP1 JUMPDEST DUP2 SLOAD DUP2 MSTORE SWAP1 PUSH1 0x1 ADD SWAP1 PUSH1 0x20 ADD DUP1 DUP4 GT PUSH2 0x187 JUMPI DUP3 SWAP1 SUB PUSH1 0x1F AND DUP3 ADD SWAP2 JUMPDEST POP POP POP POP POP DUP2 MSTORE PUSH1 0x20 ADD PUSH1 0x2 DUP3 ADD DUP1 SLOAD PUSH2 0x1BD SWAP1 PUSH2 0xAD6 JUMP JUMPDEST DUP1 PUSH1 0x1F ADD PUSH1 0x20 DUP1 SWAP2 DIV MUL PUSH1 0x20 ADD PUSH1 0x40 MLOAD SWAP1 DUP2 ADD PUSH1 0x40 MSTORE DUP1 SWAP3 SWAP2 SWAP1 DUP2 DUP2 MSTORE PUSH1 0x20 ADD DUP3 DUP1 SLOAD PUSH2 0x1E9 SWAP1 PUSH2 0xAD6 JUMP JUMPDEST DUP1 ISZERO PUSH2 0x234 JUMPI DUP1 PUSH1 0x1F LT PUSH2 0x20B JUMPI PUSH2 0x100 DUP1 DUP4 SLOAD DIV MUL DUP4 MSTORE SWAP2 PUSH1 0x20 ADD SWAP2 PUSH2 0x234 JUMP JUMPDEST DUP3 ADD SWAP2 SWAP1 PUSH0 MSTORE PUSH1 0x20 PUSH0 KECCAK256 SWAP1 JUMPDEST DUP2 SLOAD DUP2 MSTORE SWAP1 PUSH1 0x1 ADD SWAP1 PUSH1 0x20 ADD DUP1 DUP4 GT PUSH2 0x217 JUMPI DUP3 SWAP1 SUB PUSH1 0x1F AND DUP3 ADD SWAP2 JUMPDEST POP POP POP POP POP DUP2 MSTORE PUSH1 0x20 ADD PUSH1 0x3 DUP3 ADD DUP1 SLOAD PUSH2 0x24D SWAP1 PUSH2 0xAD6 JUMP JUMPDEST DUP1 PUSH1 0x1F ADD PUSH1 0x20 DUP1 SWAP2 DIV MUL PUSH1 0x20 ADD PUSH1 0x40 MLOAD SWAP1 DUP2 ADD PUSH1 0x40 MSTORE DUP1 SWAP3 SWAP2 SWAP1 DUP2 DUP2 MSTORE PUSH1 0x20 ADD DUP3 DUP1 SLOAD PUSH2 0x279 SWAP1 PUSH2 0xAD6 JUMP JUMPDEST DUP1 ISZERO PUSH2 0x2C4 JUMPI DUP1 PUSH1 0x1F LT PUSH2 0x29B JUMPI PUSH2 0x100 DUP1 DUP4 SLOAD DIV MUL DUP4 MSTORE SWAP2 PUSH1 0x20 ADD SWAP2 PUSH2 0x2C4 JUMP JUMPDEST DUP3 ADD SWAP2 SWAP1 PUSH0 MSTORE PUSH1 0x20 PUSH0 KECCAK256 SWAP1 JUMPDEST DUP2 SLOAD DUP2 MSTORE SWAP1 PUSH1 0x1 ADD SWAP1 PUSH1 0x20 ADD DUP1 DUP4 GT PUSH2 0x2A7 JUMPI DUP3 SWAP1 SUB PUSH1 0x1F AND DUP3 ADD SWAP2 JUMPDEST POP POP POP POP POP DUP2 MSTORE POP POP DUP2 MSTORE PUSH1 0x20 ADD SWAP1 PUSH1 0x1 ADD SWAP1 PUSH2 0xF3 JUMP JUMPDEST POP POP POP POP SWAP1 POP SWAP2 SWAP1 POP JUMP JUMPDEST PUSH0 DUP1 DUP6 DUP2 MSTORE PUSH1 0x20 ADD SWAP1 DUP2 MSTORE PUSH1 0x20 ADD PUSH0 KECCAK256 PUSH1 0x40 MLOAD DUP1 PUSH1 0x80 ADD PUSH1 0x40 MSTORE DUP1 TIMESTAMP DUP2 MSTORE PUSH1 0x20 ADD DUP6 DUP2 MSTORE PUSH1 0x20 ADD DUP5 DUP2 MSTORE PUSH1 0x20 ADD DUP4 DUP2 MSTORE POP SWAP1 DUP1 PUSH1 0x1 DUP2 SLOAD ADD DUP1 DUP3 SSTORE DUP1 SWAP2 POP POP PUSH1 0x1 SWAP1 SUB SWAP1 PUSH0 MSTORE PUSH1 0x20 PUSH0 KECCAK256 SWAP1 PUSH1 0x4 MUL ADD PUSH0 SWAP1 SWAP2 SWAP1 SWAP2 SWAP1 SWAP2 POP PUSH0 DUP3 ADD MLOAD DUP2 PUSH0 ADD SSTORE PUSH1 0x20 DUP3 ADD MLOAD DUP2 PUSH1 0x1 ADD SWAP1 DUP2 PUSH2 0x35B SWAP2 SWAP1 PUSH2 0xCA3 JUMP JUMPDEST POP PUSH1 0x40 DUP3 ADD MLOAD DUP2 PUSH1 0x2 ADD SWAP1 DUP2 PUSH2 0x371 SWAP2 SWAP1 PUSH2 0xCA3 JUMP JUMPDEST POP PUSH1 0x60 DUP3 ADD MLOAD DUP2 PUSH1 0x3 ADD SWAP1 DUP2 PUSH2 0x387 SWAP2 SWAP1 PUSH2 0xCA3 JUMP JUMPDEST POP POP POP DUP4 PUSH32 0x51004981618ABB1A16D1882550DB0770D527C6E42F9B04700A604D6EF2BD774C TIMESTAMP DUP6 PUSH1 0x40 MLOAD PUSH2 0x3BC SWAP3 SWAP2 SWAP1 PUSH2 0xD72 JUMP JUMPDEST PUSH1 0x40 MLOAD DUP1 SWAP2 SUB SWAP1 LOG2 POP POP POP POP JUMP JUMPDEST PUSH0 PUSH1 0x20 MSTORE DUP2 PUSH0 MSTORE PUSH1 0x40 PUSH0 KECCAK256 DUP2 DUP2 SLOAD DUP2 LT PUSH2 0x3E2 JUMPI PUSH0 DUP1 REVERT JUMPDEST SWAP1 PUSH0 MSTORE PUSH1 0x20 PUSH0 KECCAK256 SWAP1 PUSH1 0x4 MUL ADD PUSH0 SWAP2 POP SWAP2 POP POP DUP1 PUSH0 ADD SLOAD SWAP1 DUP1 PUSH1 0x1 ADD DUP1 SLOAD PUSH2 0x408 SWAP1 PUSH2 0xAD6 JUMP JUMPDEST DUP1 PUSH1 0x1F ADD PUSH1 0x20 DUP1 SWAP2 DIV MUL PUSH1 0x20 ADD PUSH1 0x40 MLOAD SWAP1 DUP2 ADD PUSH1 0x40 MSTORE DUP1 SWAP3 SWAP2 SWAP1 DUP2 DUP2 MSTORE PUSH1 0x20 ADD DUP3 DUP1 SLOAD PUSH2 0x434 SWAP1 PUSH2 0xAD6 JUMP JUMPDEST DUP1 ISZERO PUSH2 0x47F JUMPI DUP1 PUSH1 0x1F LT PUSH2 0x456 JUMPI PUSH2 0x100 DUP1 DUP4 SLOAD DIV MUL DUP4 MSTORE SWAP2 PUSH1 0x20 ADD SWAP2 PUSH2 0x47F JUMP JUMPDEST DUP3 ADD SWAP2 SWAP1 PUSH0 MSTORE PUSH1 0x20 PUSH0 KECCAK256 SWAP1 JUMPDEST DUP2 SLOAD DUP2 MSTORE SWAP1 PUSH1 0x1 ADD SWAP1 PUSH1 0x20 ADD DUP1 DUP4 GT PUSH2 0x462 JUMPI DUP3 SWAP1 SUB PUSH1 0x1F AND DUP3 ADD SWAP2 JUMPDEST POP POP POP POP POP SWAP1 DUP1 PUSH1 0x2 ADD DUP1 SLOAD PUSH2 0x494 SWAP1 PUSH2 0xAD6 JUMP JUMPDEST DUP1 PUSH1 0x1F ADD PUSH1 0x20 DUP1 SWAP2 DIV MUL PUSH1 0x20 ADD PUSH1 0x40 MLOAD SWAP1 DUP2 ADD PUSH1 0x40 MSTORE DUP1 SWAP3 SWAP2 SWAP1 DUP2 DUP2 MSTORE PUSH1 0x20 ADD DUP3 DUP1 SLOAD PUSH2 0x4C0 SWAP1 PUSH2 0xAD6 JUMP JUMPDEST DUP1 ISZERO PUSH2 0x50B JUMPI DUP1 PUSH1 0x1F LT PUSH2 0x4E2 JUMPI PUSH2 0x100 DUP1 DUP4 SLOAD DIV MUL DUP4 MSTORE SWAP2 PUSH1 0x20 ADD SWAP2 PUSH2 0x50B JUMP JUMPDEST DUP3 ADD SWAP2 SWAP1 PUSH0 MSTORE PUSH1 0x20 PUSH0 KECCAK256 SWAP1 JUMPDEST DUP2 SLOAD DUP2 MSTORE SWAP1 PUSH1 0x1 ADD SWAP1 PUSH1 0x20 ADD DUP1 DUP4 GT PUSH2 0x4EE JUMPI DUP3 SWAP1 SUB PUSH1 0x1F AND DUP3 ADD SWAP2 JUMPDEST POP POP POP POP POP SWAP1 DUP1 PUSH1 0x3 ADD DUP1 SLOAD PUSH2 0x520 SWAP1 PUSH2 0xAD6 JUMP JUMPDEST DUP1 PUSH1 0x1F ADD PUSH1 0x20 DUP1 SWAP2 DIV MUL PUSH1 0x20 ADD PUSH1 0x40 MLOAD SWAP1 DUP2 ADD PUSH1 0x40 MSTORE DUP1 SWAP3 SWAP2 SWAP1 DUP2 DUP2 MSTORE PUSH1 0x20 ADD DUP3 DUP1 SLOAD PUSH2 0x54C SWAP1 PUSH2 0xAD6 JUMP JUMPDEST DUP1 ISZERO PUSH2 0x597 JUMPI DUP1 PUSH1 0x1F LT PUSH2 0x56E JUMPI PUSH2 0x100 DUP1 DUP4 SLOAD DIV MUL DUP4 MSTORE SWAP2 PUSH1 0x20 ADD SWAP2 PUSH2 0x597 JUMP JUMPDEST DUP3 ADD SWAP2 SWAP1 PUSH0 MSTORE PUSH1 0x20 PUSH0 KECCAK256 SWAP1 JUMPDEST DUP2 SLOAD DUP2 MSTORE SWAP1 PUSH1 0x1 ADD SWAP1 PUSH1 0x20 ADD DUP1 DUP4 GT PUSH2 0x57A JUMPI DUP3 SWAP1 SUB PUSH1 0x1F AND DUP3 ADD SWAP2 JUMPDEST POP POP POP POP POP SWAP1 POP DUP5 JUMP JUMPDEST PUSH0 PUSH1 0x40 MLOAD SWAP1 POP SWAP1 JUMP JUMPDEST PUSH0 DUP1 REVERT JUMPDEST PUSH0 DUP1 REVERT JUMPDEST PUSH0 DUP2 SWAP1 POP SWAP2 SWAP1 POP JUMP JUMPDEST PUSH2 0x5C4 DUP2 PUSH2 0x5B2 JUMP JUMPDEST DUP2 EQ PUSH2 0x5CE JUMPI PUSH0 DUP1 REVERT JUMPDEST POP JUMP JUMPDEST PUSH0 DUP2 CALLDATALOAD SWAP1 POP PUSH2 0x5DF DUP2 PUSH2 0x5BB JUMP JUMPDEST SWAP3 SWAP2 POP POP JUMP JUMPDEST PUSH0 PUSH1 0x20 DUP3 DUP5 SUB SLT ISZERO PUSH2 0x5FA JUMPI PUSH2 0x5F9 PUSH2 0x5AA JUMP JUMPDEST JUMPDEST PUSH0 PUSH2 0x607 DUP5 DUP3 DUP6 ADD PUSH2 0x5D1 JUMP JUMPDEST SWAP2 POP POP SWAP3 SWAP2 POP POP JUMP JUMPDEST PUSH0 DUP2 MLOAD SWAP1 POP SWAP2 SWAP1 POP JUMP JUMPDEST PUSH0 DUP3 DUP3 MSTORE PUSH1 0x20 DUP3 ADD SWAP1 POP SWAP3 SWAP2 POP POP JUMP JUMPDEST PUSH0 DUP2 SWAP1 POP PUSH1 0x20 DUP3 ADD SWAP1 POP SWAP2 SWAP1 POP JUMP JUMPDEST PUSH2 0x642 DUP2 PUSH2 0x5B2 JUMP JUMPDEST DUP3 MSTORE POP POP JUMP JUMPDEST PUSH0 DUP2 MLOAD SWAP1 POP SWAP2 SWAP1 POP JUMP JUMPDEST PUSH0 DUP3 DUP3 MSTORE PUSH1 0x20 DUP3 ADD SWAP1 POP SWAP3 SWAP2 POP POP JUMP JUMPDEST DUP3 DUP2 DUP4 MCOPY PUSH0 DUP4 DUP4 ADD MSTORE POP POP POP JUMP JUMPDEST PUSH0 PUSH1 0x1F NOT PUSH1 0x1F DUP4 ADD AND SWAP1 POP SWAP2 SWAP1 POP JUMP JUMPDEST PUSH0 PUSH2 0x68A DUP3 PUSH2 0x648 JUMP JUMPDEST PUSH2 0x694 DUP2 DUP6 PUSH2 0x652 JUMP JUMPDEST SWAP4 POP PUSH2 0x6A4 DUP2 DUP6 PUSH1 0x20 DUP7 ADD PUSH2 0x662 JUMP JUMPDEST PUSH2 0x6AD DUP2 PUSH2 0x670 JUMP JUMPDEST DUP5 ADD SWAP2 POP POP SWAP3 SWAP2 POP POP JUMP JUMPDEST PUSH0 PUSH1 0x80 DUP4 ADD PUSH0 DUP4 ADD MLOAD PUSH2 0x6CD PUSH0 DUP7 ADD DUP3 PUSH2 0x639 JUMP JUMPDEST POP PUSH1 0x20 DUP4 ADD MLOAD DUP5 DUP3 SUB PUSH1 0x20 DUP7 ADD MSTORE PUSH2 0x6E5 DUP3 DUP3 PUSH2 0x680 JUMP JUMPDEST SWAP2 POP POP PUSH1 0x40 DUP4 ADD MLOAD DUP5 DUP3 SUB PUSH1 0x40 DUP7 ADD MSTORE PUSH2 0x6FF DUP3 DUP3 PUSH2 0x680 JUMP JUMPDEST SWAP2 POP POP PUSH1 0x60 DUP4 ADD MLOAD DUP5 DUP3 SUB PUSH1 0x60 DUP7 ADD MSTORE PUSH2 0x719 DUP3 DUP3 PUSH2 0x680 JUMP JUMPDEST SWAP2 POP POP DUP1 SWAP2 POP POP SWAP3 SWAP2 POP POP JUMP JUMPDEST PUSH0 PUSH2 0x731 DUP4 DUP4 PUSH2 0x6B8 JUMP JUMPDEST SWAP1 POP SWAP3 SWAP2 POP POP JUMP JUMPDEST PUSH0 PUSH1 0x20 DUP3 ADD SWAP1 POP SWAP2 SWAP1 POP JUMP JUMPDEST PUSH0 PUSH2 0x74F DUP3 PUSH2 0x610 JUMP JUMPDEST PUSH2 0x759 DUP2 DUP6 PUSH2 0x61A JUMP JUMPDEST SWAP4 POP DUP4 PUSH1 0x20 DUP3 MUL DUP6 ADD PUSH2 0x76B DUP6 PUSH2 0x62A JUMP JUMPDEST DUP1 PUSH0 JUMPDEST DUP6 DUP2 LT ISZERO PUSH2 0x7A6 JUMPI DUP5 DUP5 SUB DUP10 MSTORE DUP2 MLOAD PUSH2 0x787 DUP6 DUP3 PUSH2 0x726 JUMP JUMPDEST SWAP5 POP PUSH2 0x792 DUP4 PUSH2 0x739 JUMP JUMPDEST SWAP3 POP PUSH1 0x20 DUP11 ADD SWAP10 POP POP PUSH1 0x1 DUP2 ADD SWAP1 POP PUSH2 0x76E JUMP JUMPDEST POP DUP3 SWAP8 POP DUP8 SWAP6 POP POP POP POP POP POP SWAP3 SWAP2 POP POP JUMP JUMPDEST PUSH0 PUSH1 0x20 DUP3 ADD SWAP1 POP DUP2 DUP2 SUB PUSH0 DUP4 ADD MSTORE PUSH2 0x7D0 DUP2 DUP5 PUSH2 0x745 JUMP JUMPDEST SWAP1 POP SWAP3 SWAP2 POP POP JUMP JUMPDEST PUSH0 DUP1 REVERT JUMPDEST PUSH0 DUP1 REVERT JUMPDEST PUSH32 0x4E487B7100000000000000000000000000000000000000000000000000000000 PUSH0 MSTORE PUSH1 0x41 PUSH1 0x4 MSTORE PUSH1 0x24 PUSH0 REVERT JUMPDEST PUSH2 0x816 DUP3 PUSH2 0x670 JUMP JUMPDEST DUP2 ADD DUP2 DUP2 LT PUSH8 0xFFFFFFFFFFFFFFFF DUP3 GT OR ISZERO PUSH2 0x835 JUMPI PUSH2 0x834 PUSH2 0x7E0 JUMP JUMPDEST JUMPDEST DUP1 PUSH1 0x40 MSTORE POP POP POP JUMP JUMPDEST PUSH0 PUSH2 0x847 PUSH2 0x5A1 JUMP JUMPDEST SWAP1 POP PUSH2 0x853 DUP3 DUP3 PUSH2 0x80D JUMP JUMPDEST SWAP2 SWAP1 POP JUMP JUMPDEST PUSH0 PUSH8 0xFFFFFFFFFFFFFFFF DUP3 GT ISZERO PUSH2 0x872 JUMPI PUSH2 0x871 PUSH2 0x7E0 JUMP JUMPDEST JUMPDEST PUSH2 0x87B DUP3 PUSH2 0x670 JUMP JUMPDEST SWAP1 POP PUSH1 0x20 DUP2 ADD SWAP1 POP SWAP2 SWAP1 POP JUMP JUMPDEST DUP3 DUP2 DUP4 CALLDATACOPY PUSH0 DUP4 DUP4 ADD MSTORE POP POP POP JUMP JUMPDEST PUSH0 PUSH2 0x8A8 PUSH2 0x8A3 DUP5 PUSH2 0x858 JUMP JUMPDEST PUSH2 0x83E JUMP JUMPDEST SWAP1 POP DUP3 DUP2 MSTORE PUSH1 0x20 DUP2 ADD DUP5 DUP5 DUP5 ADD GT ISZERO PUSH2 0x8C4 JUMPI PUSH2 0x8C3 PUSH2 0x7DC JUMP JUMPDEST JUMPDEST PUSH2 0x8CF DUP5 DUP3 DUP6 PUSH2 0x888 JUMP JUMPDEST POP SWAP4 SWAP3 POP POP POP JUMP JUMPDEST PUSH0 DUP3 PUSH1 0x1F DUP4 ADD SLT PUSH2 0x8EB JUMPI PUSH2 0x8EA PUSH2 0x7D8 JUMP JUMPDEST JUMPDEST DUP2 CALLDATALOAD PUSH2 0x8FB DUP5 DUP3 PUSH1 0x20 DUP7 ADD PUSH2 0x896 JUMP JUMPDEST SWAP2 POP POP SWAP3 SWAP2 POP POP JUMP JUMPDEST PUSH0 DUP1 PUSH0 DUP1 PUSH1 0x80 DUP6 DUP8 SUB SLT ISZERO PUSH2 0x91C JUMPI PUSH2 0x91B PUSH2 0x5AA JUMP JUMPDEST JUMPDEST PUSH0 PUSH2 0x929 DUP8 DUP3 DUP9 ADD PUSH2 0x5D1 JUMP JUMPDEST SWAP5 POP POP PUSH1 0x20 DUP6 ADD CALLDATALOAD PUSH8 0xFFFFFFFFFFFFFFFF DUP2 GT ISZERO PUSH2 0x94A JUMPI PUSH2 0x949 PUSH2 0x5AE JUMP JUMPDEST JUMPDEST PUSH2 0x956 DUP8 DUP3 DUP9 ADD PUSH2 0x8D7 JUMP JUMPDEST SWAP4 POP POP PUSH1 0x40 DUP6 ADD CALLDATALOAD PUSH8 0xFFFFFFFFFFFFFFFF DUP2 GT ISZERO PUSH2 0x977 JUMPI PUSH2 0x976 PUSH2 0x5AE JUMP JUMPDEST JUMPDEST PUSH2 0x983 DUP8 DUP3 DUP9 ADD PUSH2 0x8D7 JUMP JUMPDEST SWAP3 POP POP PUSH1 0x60 DUP6 ADD CALLDATALOAD PUSH8 0xFFFFFFFFFFFFFFFF DUP2 GT ISZERO PUSH2 0x9A4 JUMPI PUSH2 0x9A3 PUSH2 0x5AE JUMP JUMPDEST JUMPDEST PUSH2 0x9B0 DUP8 DUP3 DUP9 ADD PUSH2 0x8D7 JUMP JUMPDEST SWAP2 POP POP SWAP3 SWAP6 SWAP2 SWAP5 POP SWAP3 POP JUMP JUMPDEST PUSH0 DUP1 PUSH1 0x40 DUP4 DUP6 SUB SLT ISZERO PUSH2 0x9D2 JUMPI PUSH2 0x9D1 PUSH2 0x5AA JUMP JUMPDEST JUMPDEST PUSH0 PUSH2 0x9DF DUP6 DUP3 DUP7 ADD PUSH2 0x5D1 JUMP JUMPDEST SWAP3 POP POP PUSH1 0x20 PUSH2 0x9F0 DUP6 DUP3 DUP7 ADD PUSH2 0x5D1 JUMP JUMPDEST SWAP2 POP POP SWAP3 POP SWAP3 SWAP1 POP JUMP JUMPDEST PUSH2 0xA03 DUP2 PUSH2 0x5B2 JUMP JUMPDEST DUP3 MSTORE POP POP JUMP JUMPDEST PUSH0 DUP3 DUP3 MSTORE PUSH1 0x20 DUP3 ADD SWAP1 POP SWAP3 SWAP2 POP POP JUMP JUMPDEST PUSH0 PUSH2 0xA23 DUP3 PUSH2 0x648 JUMP JUMPDEST PUSH2 0xA2D DUP2 DUP6 PUSH2 0xA09 JUMP JUMPDEST SWAP4 POP PUSH2 0xA3D DUP2 DUP6 PUSH1 0x20 DUP7 ADD PUSH2 0x662 JUMP JUMPDEST PUSH2 0xA46 DUP2 PUSH2 0x670 JUMP JUMPDEST DUP5 ADD SWAP2 POP POP SWAP3 SWAP2 POP POP JUMP JUMPDEST PUSH0 PUSH1 0x80 DUP3 ADD SWAP1 POP PUSH2 0xA64 PUSH0 DUP4 ADD DUP8 PUSH2 0x9FA JUMP JUMPDEST DUP2 DUP2 SUB PUSH1 0x20 DUP4 ADD MSTORE PUSH2 0xA76 DUP2 DUP7 PUSH2 0xA19 JUMP JUMPDEST SWAP1 POP DUP2 DUP2 SUB PUSH1 0x40 DUP4 ADD MSTORE PUSH2 0xA8A DUP2 DUP6 PUSH2 0xA19 JUMP JUMPDEST SWAP1 POP DUP2 DUP2 SUB PUSH1 0x60 DUP4 ADD MSTORE PUSH2 0xA9E DUP2 DUP5 PUSH2 0xA19 JUMP JUMPDEST SWAP1 POP SWAP6 SWAP5 POP POP POP POP POP JUMP JUMPDEST PUSH32 0x4E487B7100000000000000000000000000000000000000000000000000000000 PUSH0 MSTORE PUSH1 0x22 PUSH1 0x4 MSTORE PUSH1 0x24 PUSH0 REVERT JUMPDEST PUSH0 PUSH1 0x2 DUP3 DIV SWAP1 POP PUSH1 0x1 DUP3 AND DUP1 PUSH2 0xAED JUMPI PUSH1 0x7F DUP3 AND SWAP2 POP JUMPDEST PUSH1 0x20 DUP3 LT DUP2 SUB PUSH2 0xB00 JUMPI PUSH2 0xAFF PUSH2 0xAA9 JUMP JUMPDEST JUMPDEST POP SWAP2 SWAP1 POP JUMP JUMPDEST PUSH0 DUP2 SWAP1 POP DUP2 PUSH0 MSTORE PUSH1 0x20 PUSH0 KECCAK256 SWAP1 POP SWAP2 SWAP1 POP JUMP JUMPDEST PUSH0 PUSH1 0x20 PUSH1 0x1F DUP4 ADD DIV SWAP1 POP SWAP2 SWAP1 POP JUMP JUMPDEST PUSH0 DUP3 DUP3 SHL SWAP1 POP SWAP3 SWAP2 POP POP JUMP JUMPDEST PUSH0 PUSH1 0x8 DUP4 MUL PUSH2 0xB62 PUSH32 0xFFFFFFFFFFFFFFFFFFFFFFFFFFFFFFFFFFFFFFFFFFFFFFFFFFFFFFFFFFFFFFFF DUP3 PUSH2 0xB27 JUMP JUMPDEST PUSH2 0xB6C DUP7 DUP4 PUSH2 0xB27 JUMP JUMPDEST SWAP6 POP DUP1 NOT DUP5 AND SWAP4 POP DUP1 DUP7 AND DUP5 OR SWAP3 POP POP POP SWAP4 SWAP3 POP POP POP JUMP JUMPDEST PUSH0 DUP2 SWAP1 POP SWAP2 SWAP1 POP JUMP JUMPDEST PUSH0 PUSH2 0xBA7 PUSH2 0xBA2 PUSH2 0xB9D DUP5 PUSH2 0x5B2 JUMP JUMPDEST PUSH2 0xB84 JUMP JUMPDEST PUSH2 0x5B2 JUMP JUMPDEST SWAP1 POP SWAP2 SWAP1 POP JUMP JUMPDEST PUSH0 DUP2 SWAP1 POP SWAP2 SWAP1 POP JUMP JUMPDEST PUSH2 0xBC0 DUP4 PUSH2 0xB8D JUMP JUMPDEST PUSH2 0xBD4 PUSH2 0xBCC DUP3 PUSH2 0xBAE JUMP JUMPDEST DUP5 DUP5 SLOAD PUSH2 0xB33 JUMP JUMPDEST DUP3 SSTORE POP POP POP POP JUMP JUMPDEST PUSH0 SWAP1 JUMP JUMPDEST PUSH2 0xBE8 PUSH2 0xBDC JUMP JUMPDEST PUSH2 0xBF3 DUP2 DUP5 DUP5 PUSH2 0xBB7 JUMP JUMPDEST POP POP POP JUMP JUMPDEST JUMPDEST DUP2 DUP2 LT ISZERO PUSH2 0xC16 JUMPI PUSH2 0xC0B PUSH0 DUP3 PUSH2 0xBE0 JUMP JUMPDEST PUSH1 0x1 DUP2 ADD SWAP1 POP PUSH2 0xBF9 JUMP JUMPDEST POP POP JUMP JUMPDEST PUSH1 0x1F DUP3 GT ISZERO PUSH2 0xC5B JUMPI PUSH2 0xC2C DUP2 PUSH2 0xB06 JUMP JUMPDEST PUSH2 0xC35 DUP5 PUSH2 0xB18 JUMP JUMPDEST DUP2 ADD PUSH1 0x20 DUP6 LT ISZERO PUSH2 0xC44 JUMPI DUP2 SWAP1 POP JUMPDEST PUSH2 0xC58 PUSH2 0xC50 DUP6 PUSH2 0xB18 JUMP JUMPDEST DUP4 ADD DUP3 PUSH2 0xBF8 JUMP JUMPDEST POP POP JUMPDEST POP POP POP JUMP JUMPDEST PUSH0 DUP3 DUP3 SHR SWAP1 POP SWAP3 SWAP2 POP POP JUMP JUMPDEST PUSH0 PUSH2 0xC7B PUSH0 NOT DUP5 PUSH1 0x8 MUL PUSH2 0xC60 JUMP JUMPDEST NOT DUP1 DUP4 AND SWAP2 POP POP SWAP3 SWAP2 POP POP JUMP JUMPDEST PUSH0 PUSH2 0xC93 DUP4 DUP4 PUSH2 0xC6C JUMP JUMPDEST SWAP2 POP DUP3 PUSH1 0x2 MUL DUP3 OR SWAP1 POP SWAP3 SWAP2 POP POP JUMP JUMPDEST PUSH2 0xCAC DUP3 PUSH2 0x648 JUMP JUMPDEST PUSH8 0xFFFFFFFFFFFFFFFF DUP2 GT ISZERO PUSH2 0xCC5 JUMPI PUSH2 0xCC4 PUSH2 0x7E0 JUMP JUMPDEST JUMPDEST PUSH2 0xCCF DUP3 SLOAD PUSH2 0xAD6 JUMP JUMPDEST PUSH2 0xCDA DUP3 DUP3 DUP6 PUSH2 0xC1A JUMP JUMPDEST PUSH0 PUSH1 0x20 SWAP1 POP PUSH1 0x1F DUP4 GT PUSH1 0x1 DUP2 EQ PUSH2 0xD0B JUMPI PUSH0 DUP5 ISZERO PUSH2 0xCF9 JUMPI DUP3 DUP8 ADD MLOAD SWAP1 POP JUMPDEST PUSH2 0xD03 DUP6 DUP3 PUSH2 0xC88 JUMP JUMPDEST DUP7 SSTORE POP PUSH2 0xD6A JUMP JUMPDEST PUSH1 0x1F NOT DUP5 AND PUSH2 0xD19 DUP7 PUSH2 0xB06 JUMP JUMPDEST PUSH0 JUMPDEST DUP3 DUP2 LT ISZERO PUSH2 0xD40 JUMPI DUP5 DUP10 ADD MLOAD DUP3 SSTORE PUSH1 0x1 DUP3 ADD SWAP2 POP PUSH1 0x20 DUP6 ADD SWAP5 POP PUSH1 0x20 DUP2 ADD SWAP1 POP PUSH2 0xD1B JUMP JUMPDEST DUP7 DUP4 LT ISZERO PUSH2 0xD5D JUMPI DUP5 DUP10 ADD MLOAD PUSH2 0xD59 PUSH1 0x1F DUP10 AND DUP3 PUSH2 0xC6C JUMP JUMPDEST DUP4 SSTORE POP JUMPDEST PUSH1 0x1 PUSH1 0x2 DUP9 MUL ADD DUP9 SSTORE POP POP POP JUMPDEST POP POP POP POP POP POP JUMP JUMPDEST PUSH0 PUSH1 0x40 DUP3 ADD SWAP1 POP PUSH2 0xD85 PUSH0 DUP4 ADD DUP6 PUSH2 0x9FA JUMP JUMPDEST DUP2 DUP2 SUB PUSH1 0x20 DUP4 ADD MSTORE PUSH2 0xD97 DUP2 DUP5 PUSH2 0xA19 JUMP JUMPDEST SWAP1 POP SWAP4 SWAP3 POP POP POP JUMP INVALID LOG2 PUSH5 0x6970667358 0x22 SLT KECCAK256 PUSH7 0xCB62FBBDB05D1F 0xBD 0xE8 BYTE BALANCE PUSH18 0xD2C1F3AA704D93693EEFC3A8EFCCE5FED1C7 0xD6 PUSH5 0x736F6C6343 STOP ADDMOD BYTE STOP CALLER "
				},
				"gasEstimates": {
					"creation": {
						"codeDepositCost": "708400",
						"executionCost": "739",
						"totalCost": "709139"
					},
					"external": {
						"getServiceHistory(uint256)": "infinite",
						"logService(uint256,string,string,string)": "infinite",
						"serviceHistory(uint256,uint256)": "infinite"
					}
				},
				"methodIdentifiers": {
					"getServiceHistory(uint256)": "1e7046b5",
					"logService(uint256,string,string,string)": "55cd9c50",
					"serviceHistory(uint256,uint256)": "f3cd2742"
				}
			},
			"storageLayout": {
				"storage": [
					{
						"astId": 16,
						"contract": "contracts/MaintenanceLog.sol:MaintenanceLog",
						"label": "serviceHistory",
						"offset": 0,
						"slot": "0",
						"type": "t_mapping(t_uint256,t_array(t_struct(ServiceRecord)10_storage)dyn_storage)"
					}
				],
				"types": {
					"t_array(t_struct(ServiceRecord)10_storage)dyn_storage": {
						"base": "t_struct(ServiceRecord)10_storage",
						"encoding": "dynamic_array",
						"label": "struct MaintenanceLog.ServiceRecord[]",
						"numberOfBytes": "32"
					},
					"t_mapping(t_uint256,t_array(t_struct(ServiceRecord)10_storage)dyn_storage)": {
						"encoding": "mapping",
						"key": "t_uint256",
						"label": "mapping(uint256 => struct MaintenanceLog.ServiceRecord[])",
						"numberOfBytes": "32",
						"value": "t_array(t_struct(ServiceRecord)10_storage)dyn_storage"
					},
					"t_string_storage": {
						"encoding": "bytes",
						"label": "string",
						"numberOfBytes": "32"
					},
					"t_struct(ServiceRecord)10_storage": {
						"encoding": "inplace",
						"label": "struct MaintenanceLog.ServiceRecord",
						"members": [
							{
								"astId": 3,
								"contract": "contracts/MaintenanceLog.sol:MaintenanceLog",
								"label": "date",
								"offset": 0,
								"slot": "0",
								"type": "t_uint256"
							},
							{
								"astId": 5,
								"contract": "contracts/MaintenanceLog.sol:MaintenanceLog",
								"label": "serviceType",
								"offset": 0,
								"slot": "1",
								"type": "t_string_storage"
							},
							{
								"astId": 7,
								"contract": "contracts/MaintenanceLog.sol:MaintenanceLog",
								"label": "serviceProvider",
								"offset": 0,
								"slot": "2",
								"type": "t_string_storage"
							},
							{
								"astId": 9,
								"contract": "contracts/MaintenanceLog.sol:MaintenanceLog",
								"label": "partsReplaced",
								"offset": 0,
								"slot": "3",
								"type": "t_string_storage"
							}
						],
						"numberOfBytes": "128"
					},
					"t_uint256": {
						"encoding": "inplace",
						"label": "uint256",
						"numberOfBytes": "32"
					}
				}
			},
			"userdoc": {
				"kind": "user",
				"methods": {},
				"version": 1
			}
		}
	}
}