{
	"contracts/GasFeeCoverage.sol": {
		"GasFeeCoverage": {
			"abi": [
				{
					"anonymous": false,
					"inputs": [
						{
							"indexed": true,
							"internalType": "address",
							"name": "user",
							"type": "address"
						},
						{
							"indexed": false,
							"internalType": "uint256",
							"name": "coverageTier",
							"type": "uint256"
						}
					],
					"name": "TierUpdated",
					"type": "event"
				},
				{
					"inputs": [
						{
							"internalType": "uint256",
							"name": "transactionCost",
							"type": "uint256"
						},
						{
							"internalType": "address",
							"name": "user",
							"type": "address"
						}
					],
					"name": "applyCoverage",
					"outputs": [
						{
							"internalType": "uint256",
							"name": "",
							"type": "uint256"
						}
					],
					"stateMutability": "view",
					"type": "function"
				},
				{
					"inputs": [
						{
							"internalType": "address",
							"name": "user",
							"type": "address"
						}
					],
					"name": "checkTier",
					"outputs": [
						{
							"internalType": "uint256",
							"name": "",
							"type": "uint256"
						}
					],
					"stateMutability": "view",
					"type": "function"
				},
				{
					"inputs": [
						{
							"internalType": "address",
							"name": "",
							"type": "address"
						}
					],
					"name": "coverageTiers",
					"outputs": [
						{
							"internalType": "uint256",
							"name": "",
							"type": "uint256"
						}
					],
					"stateMutability": "view",
					"type": "function"
				},
				{
					"inputs": [
						{
							"internalType": "address",
							"name": "",
							"type": "address"
						}
					],
					"name": "holdings",
					"outputs": [
						{
							"internalType": "uint256",
							"name": "",
							"type": "uint256"
						}
					],
					"stateMutability": "view",
					"type": "function"
				},
				{
					"inputs": [
						{
							"internalType": "address",
							"name": "user",
							"type": "address"
						},
						{
							"internalType": "uint256",
							"name": "newHoldings",
							"type": "uint256"
						}
					],
					"name": "updateHoldings",
					"outputs": [],
					"stateMutability": "nonpayable",
					"type": "function"
				}
			],
			"devdoc": {
				"kind": "dev",
				"methods": {},
				"version": 1
			},
			"evm": {
				"assembly": "    /* \"contracts/GasFeeCoverage.sol\":61:1288  contract GasFeeCoverage {... */\n  mstore(0x40, 0x80)\n  callvalue\n  dup1\n  iszero\n  tag_1\n  jumpi\n  0x00\n  dup1\n  revert\ntag_1:\n  pop\n  dataSize(sub_0)\n  dup1\n  dataOffset(sub_0)\n  0x00\n  codecopy\n  0x00\n  return\nstop\n\nsub_0: assembly {\n        /* \"contracts/GasFeeCoverage.sol\":61:1288  contract GasFeeCoverage {... */\n      mstore(0x40, 0x80)\n      callvalue\n      dup1\n      iszero\n      tag_1\n      jumpi\n      0x00\n      dup1\n      revert\n    tag_1:\n      pop\n      jumpi(tag_2, lt(calldatasize, 0x04))\n      shr(0xe0, calldataload(0x00))\n      dup1\n      0x1cf029f2\n      eq\n      tag_3\n      jumpi\n      dup1\n      0x8407c4f7\n      eq\n      tag_4\n      jumpi\n      dup1\n      0xa720b8af\n      eq\n      tag_5\n      jumpi\n      dup1\n      0xdd3ced63\n      eq\n      tag_6\n      jumpi\n      dup1\n      0xf389de71\n      eq\n      tag_7\n      jumpi\n    tag_2:\n      0x00\n      dup1\n      revert\n        /* \"contracts/GasFeeCoverage.sol\":542:791  function applyCoverage(uint256 transactionCost, address user) public view returns (uint256) {... */\n    tag_3:\n      tag_8\n      0x04\n      dup1\n      calldatasize\n      sub\n      dup2\n      add\n      swap1\n      tag_9\n      swap2\n      swap1\n      tag_10\n      jump\t// in\n    tag_9:\n      tag_11\n      jump\t// in\n    tag_8:\n      mload(0x40)\n      tag_12\n      swap2\n      swap1\n      tag_13\n      jump\t// in\n    tag_12:\n      mload(0x40)\n      dup1\n      swap2\n      sub\n      swap1\n      return\n        /* \"contracts/GasFeeCoverage.sol\":142:190  mapping(address => uint256) public coverageTiers */\n    tag_4:\n      tag_14\n      0x04\n      dup1\n      calldatasize\n      sub\n      dup2\n      add\n      swap1\n      tag_15\n      swap2\n      swap1\n      tag_16\n      jump\t// in\n    tag_15:\n      tag_17\n      jump\t// in\n    tag_14:\n      mload(0x40)\n      tag_18\n      swap2\n      swap1\n      tag_13\n      jump\t// in\n    tag_18:\n      mload(0x40)\n      dup1\n      swap2\n      sub\n      swap1\n      return\n        /* \"contracts/GasFeeCoverage.sol\":269:418  function updateHoldings(address user, uint256 newHoldings) public {... */\n    tag_5:\n      tag_19\n      0x04\n      dup1\n      calldatasize\n      sub\n      dup2\n      add\n      swap1\n      tag_20\n      swap2\n      swap1\n      tag_21\n      jump\t// in\n    tag_20:\n      tag_22\n      jump\t// in\n    tag_19:\n      stop\n        /* \"contracts/GasFeeCoverage.sol\":92:135  mapping(address => uint256) public holdings */\n    tag_6:\n      tag_23\n      0x04\n      dup1\n      calldatasize\n      sub\n      dup2\n      add\n      swap1\n      tag_24\n      swap2\n      swap1\n      tag_16\n      jump\t// in\n    tag_24:\n      tag_25\n      jump\t// in\n    tag_23:\n      mload(0x40)\n      tag_26\n      swap2\n      swap1\n      tag_13\n      jump\t// in\n    tag_26:\n      mload(0x40)\n      dup1\n      swap2\n      sub\n      swap1\n      return\n        /* \"contracts/GasFeeCoverage.sol\":426:534  function checkTier(address user) public view returns (uint256) {... */\n    tag_7:\n      tag_27\n      0x04\n      dup1\n      calldatasize\n      sub\n      dup2\n      add\n      swap1\n      tag_28\n      swap2\n      swap1\n      tag_16\n      jump\t// in\n    tag_28:\n      tag_29\n      jump\t// in\n    tag_27:\n      mload(0x40)\n      tag_30\n      swap2\n      swap1\n      tag_13\n      jump\t// in\n    tag_30:\n      mload(0x40)\n      dup1\n      swap2\n      sub\n      swap1\n      return\n        /* \"contracts/GasFeeCoverage.sol\":542:791  function applyCoverage(uint256 transactionCost, address user) public view returns (uint256) {... */\n    tag_11:\n        /* \"contracts/GasFeeCoverage.sol\":625:632  uint256 */\n      0x00\n        /* \"contracts/GasFeeCoverage.sol\":645:657  uint256 tier */\n      dup1\n        /* \"contracts/GasFeeCoverage.sol\":660:673  coverageTiers */\n      0x01\n        /* \"contracts/GasFeeCoverage.sol\":660:679  coverageTiers[user] */\n      0x00\n        /* \"contracts/GasFeeCoverage.sol\":674:678  user */\n      dup5\n        /* \"contracts/GasFeeCoverage.sol\":660:679  coverageTiers[user] */\n      0xffffffffffffffffffffffffffffffffffffffff\n      and\n      0xffffffffffffffffffffffffffffffffffffffff\n      and\n      dup2\n      mstore\n      0x20\n      add\n      swap1\n      dup2\n      mstore\n      0x20\n      add\n      0x00\n      keccak256\n      sload\n        /* \"contracts/GasFeeCoverage.sol\":645:679  uint256 tier = coverageTiers[user] */\n      swap1\n      pop\n        /* \"contracts/GasFeeCoverage.sol\":690:706  uint256 discount */\n      0x00\n        /* \"contracts/GasFeeCoverage.sol\":736:739  100 */\n      0x64\n        /* \"contracts/GasFeeCoverage.sol\":728:732  tier */\n      dup3\n        /* \"contracts/GasFeeCoverage.sol\":710:725  transactionCost */\n      dup7\n        /* \"contracts/GasFeeCoverage.sol\":710:732  transactionCost * tier */\n      tag_32\n      swap2\n      swap1\n      tag_33\n      jump\t// in\n    tag_32:\n        /* \"contracts/GasFeeCoverage.sol\":709:739  (transactionCost * tier) / 100 */\n      tag_34\n      swap2\n      swap1\n      tag_35\n      jump\t// in\n    tag_34:\n        /* \"contracts/GasFeeCoverage.sol\":690:739  uint256 discount = (transactionCost * tier) / 100 */\n      swap1\n      pop\n        /* \"contracts/GasFeeCoverage.sol\":775:783  discount */\n      dup1\n        /* \"contracts/GasFeeCoverage.sol\":757:772  transactionCost */\n      dup6\n        /* \"contracts/GasFeeCoverage.sol\":757:783  transactionCost - discount */\n      tag_36\n      swap2\n      swap1\n      tag_37\n      jump\t// in\n    tag_36:\n        /* \"contracts/GasFeeCoverage.sol\":750:783  return transactionCost - discount */\n      swap3\n      pop\n      pop\n      pop\n        /* \"contracts/GasFeeCoverage.sol\":542:791  function applyCoverage(uint256 transactionCost, address user) public view returns (uint256) {... */\n      swap3\n      swap2\n      pop\n      pop\n      jump\t// out\n        /* \"contracts/GasFeeCoverage.sol\":142:190  mapping(address => uint256) public coverageTiers */\n    tag_17:\n      mstore(0x20, 0x01)\n      dup1\n      0x00\n      mstore\n      keccak256(0x00, 0x40)\n      0x00\n      swap2\n      pop\n      swap1\n      pop\n      sload\n      dup2\n      jump\t// out\n        /* \"contracts/GasFeeCoverage.sol\":269:418  function updateHoldings(address user, uint256 newHoldings) public {... */\n    tag_22:\n        /* \"contracts/GasFeeCoverage.sol\":363:374  newHoldings */\n      dup1\n        /* \"contracts/GasFeeCoverage.sol\":346:354  holdings */\n      0x00\n        /* \"contracts/GasFeeCoverage.sol\":346:360  holdings[user] */\n      dup1\n        /* \"contracts/GasFeeCoverage.sol\":355:359  user */\n      dup5\n        /* \"contracts/GasFeeCoverage.sol\":346:360  holdings[user] */\n      0xffffffffffffffffffffffffffffffffffffffff\n      and\n      0xffffffffffffffffffffffffffffffffffffffff\n      and\n      dup2\n      mstore\n      0x20\n      add\n      swap1\n      dup2\n      mstore\n      0x20\n      add\n      0x00\n      keccak256\n        /* \"contracts/GasFeeCoverage.sol\":346:374  holdings[user] = newHoldings */\n      dup2\n      swap1\n      sstore\n      pop\n        /* \"contracts/GasFeeCoverage.sol\":385:410  _updateCoverageTier(user) */\n      tag_39\n        /* \"contracts/GasFeeCoverage.sol\":405:409  user */\n      dup3\n        /* \"contracts/GasFeeCoverage.sol\":385:404  _updateCoverageTier */\n      tag_40\n        /* \"contracts/GasFeeCoverage.sol\":385:410  _updateCoverageTier(user) */\n      jump\t// in\n    tag_39:\n        /* \"contracts/GasFeeCoverage.sol\":269:418  function updateHoldings(address user, uint256 newHoldings) public {... */\n      pop\n      pop\n      jump\t// out\n        /* \"contracts/GasFeeCoverage.sol\":92:135  mapping(address => uint256) public holdings */\n    tag_25:\n      mstore(0x20, 0x00)\n      dup1\n      0x00\n      mstore\n      keccak256(0x00, 0x40)\n      0x00\n      swap2\n      pop\n      swap1\n      pop\n      sload\n      dup2\n      jump\t// out\n        /* \"contracts/GasFeeCoverage.sol\":426:534  function checkTier(address user) public view returns (uint256) {... */\n    tag_29:\n        /* \"contracts/GasFeeCoverage.sol\":480:487  uint256 */\n      0x00\n        /* \"contracts/GasFeeCoverage.sol\":507:520  coverageTiers */\n      0x01\n        /* \"contracts/GasFeeCoverage.sol\":507:526  coverageTiers[user] */\n      0x00\n        /* \"contracts/GasFeeCoverage.sol\":521:525  user */\n      dup4\n        /* \"contracts/GasFeeCoverage.sol\":507:526  coverageTiers[user] */\n      0xffffffffffffffffffffffffffffffffffffffff\n      and\n      0xffffffffffffffffffffffffffffffffffffffff\n      and\n      dup2\n      mstore\n      0x20\n      add\n      swap1\n      dup2\n      mstore\n      0x20\n      add\n      0x00\n      keccak256\n      sload\n        /* \"contracts/GasFeeCoverage.sol\":500:526  return coverageTiers[user] */\n      swap1\n      pop\n        /* \"contracts/GasFeeCoverage.sol\":426:534  function checkTier(address user) public view returns (uint256) {... */\n      swap2\n      swap1\n      pop\n      jump\t// out\n        /* \"contracts/GasFeeCoverage.sol\":799:1285  function _updateCoverageTier(address user) internal {... */\n    tag_40:\n        /* \"contracts/GasFeeCoverage.sol\":862:882  uint256 userHoldings */\n      0x00\n        /* \"contracts/GasFeeCoverage.sol\":885:893  holdings */\n      dup1\n        /* \"contracts/GasFeeCoverage.sol\":885:899  holdings[user] */\n      0x00\n        /* \"contracts/GasFeeCoverage.sol\":894:898  user */\n      dup4\n        /* \"contracts/GasFeeCoverage.sol\":885:899  holdings[user] */\n      0xffffffffffffffffffffffffffffffffffffffff\n      and\n      0xffffffffffffffffffffffffffffffffffffffff\n      and\n      dup2\n      mstore\n      0x20\n      add\n      swap1\n      dup2\n      mstore\n      0x20\n      add\n      0x00\n      keccak256\n      sload\n        /* \"contracts/GasFeeCoverage.sol\":862:899  uint256 userHoldings = holdings[user] */\n      swap1\n      pop\n        /* \"contracts/GasFeeCoverage.sol\":910:922  uint256 tier */\n      0x00\n        /* \"contracts/GasFeeCoverage.sol\":955:968  1000 * 10**18 */\n      0x3635c9adc5dea00000\n        /* \"contracts/GasFeeCoverage.sol\":939:951  userHoldings */\n      dup3\n        /* \"contracts/GasFeeCoverage.sol\":939:968  userHoldings >= 1000 * 10**18 */\n      lt\n        /* \"contracts/GasFeeCoverage.sol\":935:1200  if (userHoldings >= 1000 * 10**18) {... */\n      tag_43\n      jumpi\n        /* \"contracts/GasFeeCoverage.sol\":992:995  100 */\n      0x64\n        /* \"contracts/GasFeeCoverage.sol\":985:995  tier = 100 */\n      swap1\n      pop\n        /* \"contracts/GasFeeCoverage.sol\":935:1200  if (userHoldings >= 1000 * 10**18) {... */\n      jump(tag_44)\n    tag_43:\n        /* \"contracts/GasFeeCoverage.sol\":1033:1045  500 * 10**18 */\n      0x1b1ae4d6e2ef500000\n        /* \"contracts/GasFeeCoverage.sol\":1017:1029  userHoldings */\n      dup3\n        /* \"contracts/GasFeeCoverage.sol\":1017:1045  userHoldings >= 500 * 10**18 */\n      lt\n        /* \"contracts/GasFeeCoverage.sol\":1013:1200  if (userHoldings >= 500 * 10**18) {... */\n      tag_45\n      jumpi\n        /* \"contracts/GasFeeCoverage.sol\":1069:1071  75 */\n      0x4b\n        /* \"contracts/GasFeeCoverage.sol\":1062:1071  tier = 75 */\n      swap1\n      pop\n        /* \"contracts/GasFeeCoverage.sol\":1013:1200  if (userHoldings >= 500 * 10**18) {... */\n      jump(tag_46)\n    tag_45:\n        /* \"contracts/GasFeeCoverage.sol\":1109:1121  100 * 10**18 */\n      0x056bc75e2d63100000\n        /* \"contracts/GasFeeCoverage.sol\":1093:1105  userHoldings */\n      dup3\n        /* \"contracts/GasFeeCoverage.sol\":1093:1121  userHoldings >= 100 * 10**18 */\n      lt\n        /* \"contracts/GasFeeCoverage.sol\":1089:1200  if (userHoldings >= 100 * 10**18) {... */\n      tag_47\n      jumpi\n        /* \"contracts/GasFeeCoverage.sol\":1145:1147  50 */\n      0x32\n        /* \"contracts/GasFeeCoverage.sol\":1138:1147  tier = 50 */\n      swap1\n      pop\n        /* \"contracts/GasFeeCoverage.sol\":1089:1200  if (userHoldings >= 100 * 10**18) {... */\n      jump(tag_48)\n    tag_47:\n        /* \"contracts/GasFeeCoverage.sol\":1187:1188  0 */\n      0x00\n        /* \"contracts/GasFeeCoverage.sol\":1180:1188  tier = 0 */\n      swap1\n      pop\n        /* \"contracts/GasFeeCoverage.sol\":1089:1200  if (userHoldings >= 100 * 10**18) {... */\n    tag_48:\n        /* \"contracts/GasFeeCoverage.sol\":1013:1200  if (userHoldings >= 500 * 10**18) {... */\n    tag_46:\n        /* \"contracts/GasFeeCoverage.sol\":935:1200  if (userHoldings >= 1000 * 10**18) {... */\n    tag_44:\n        /* \"contracts/GasFeeCoverage.sol\":1234:1238  tier */\n      dup1\n        /* \"contracts/GasFeeCoverage.sol\":1212:1225  coverageTiers */\n      0x01\n        /* \"contracts/GasFeeCoverage.sol\":1212:1231  coverageTiers[user] */\n      0x00\n        /* \"contracts/GasFeeCoverage.sol\":1226:1230  user */\n      dup6\n        /* \"contracts/GasFeeCoverage.sol\":1212:1231  coverageTiers[user] */\n      0xffffffffffffffffffffffffffffffffffffffff\n      and\n      0xffffffffffffffffffffffffffffffffffffffff\n      and\n      dup2\n      mstore\n      0x20\n      add\n      swap1\n      dup2\n      mstore\n      0x20\n      add\n      0x00\n      keccak256\n        /* \"contracts/GasFeeCoverage.sol\":1212:1238  coverageTiers[user] = tier */\n      dup2\n      swap1\n      sstore\n      pop\n        /* \"contracts/GasFeeCoverage.sol\":1266:1270  user */\n      dup3\n        /* \"contracts/GasFeeCoverage.sol\":1254:1277  TierUpdated(user, tier) */\n      0xffffffffffffffffffffffffffffffffffffffff\n      and\n      0x46346e18059a3eb3183c964bb447e4b1b12249aef71bccbddb4c78b47fd13638\n        /* \"contracts/GasFeeCoverage.sol\":1272:1276  tier */\n      dup3\n        /* \"contracts/GasFeeCoverage.sol\":1254:1277  TierUpdated(user, tier) */\n      mload(0x40)\n      tag_49\n      swap2\n      swap1\n      tag_13\n      jump\t// in\n    tag_49:\n      mload(0x40)\n      dup1\n      swap2\n      sub\n      swap1\n      log2\n        /* \"contracts/GasFeeCoverage.sol\":851:1285  {... */\n      pop\n      pop\n        /* \"contracts/GasFeeCoverage.sol\":799:1285  function _updateCoverageTier(address user) internal {... */\n      pop\n      jump\t// out\n        /* \"#utility.yul\":88:205   */\n    tag_51:\n        /* \"#utility.yul\":197:198   */\n      0x00\n        /* \"#utility.yul\":194:195   */\n      dup1\n        /* \"#utility.yul\":187:199   */\n      revert\n        /* \"#utility.yul\":334:411   */\n    tag_53:\n        /* \"#utility.yul\":371:378   */\n      0x00\n        /* \"#utility.yul\":400:405   */\n      dup2\n        /* \"#utility.yul\":389:405   */\n      swap1\n      pop\n        /* \"#utility.yul\":334:411   */\n      swap2\n      swap1\n      pop\n      jump\t// out\n        /* \"#utility.yul\":417:539   */\n    tag_54:\n        /* \"#utility.yul\":490:514   */\n      tag_69\n        /* \"#utility.yul\":508:513   */\n      dup2\n        /* \"#utility.yul\":490:514   */\n      tag_53\n      jump\t// in\n    tag_69:\n        /* \"#utility.yul\":483:488   */\n      dup2\n        /* \"#utility.yul\":480:515   */\n      eq\n        /* \"#utility.yul\":470:533   */\n      tag_70\n      jumpi\n        /* \"#utility.yul\":529:530   */\n      0x00\n        /* \"#utility.yul\":526:527   */\n      dup1\n        /* \"#utility.yul\":519:531   */\n      revert\n        /* \"#utility.yul\":470:533   */\n    tag_70:\n        /* \"#utility.yul\":417:539   */\n      pop\n      jump\t// out\n        /* \"#utility.yul\":545:684   */\n    tag_55:\n        /* \"#utility.yul\":591:596   */\n      0x00\n        /* \"#utility.yul\":629:635   */\n      dup2\n        /* \"#utility.yul\":616:636   */\n      calldataload\n        /* \"#utility.yul\":607:636   */\n      swap1\n      pop\n        /* \"#utility.yul\":645:678   */\n      tag_72\n        /* \"#utility.yul\":672:677   */\n      dup2\n        /* \"#utility.yul\":645:678   */\n      tag_54\n      jump\t// in\n    tag_72:\n        /* \"#utility.yul\":545:684   */\n      swap3\n      swap2\n      pop\n      pop\n      jump\t// out\n        /* \"#utility.yul\":690:816   */\n    tag_56:\n        /* \"#utility.yul\":727:734   */\n      0x00\n        /* \"#utility.yul\":767:809   */\n      0xffffffffffffffffffffffffffffffffffffffff\n        /* \"#utility.yul\":760:765   */\n      dup3\n        /* \"#utility.yul\":756:810   */\n      and\n        /* \"#utility.yul\":745:810   */\n      swap1\n      pop\n        /* \"#utility.yul\":690:816   */\n      swap2\n      swap1\n      pop\n      jump\t// out\n        /* \"#utility.yul\":822:918   */\n    tag_57:\n        /* \"#utility.yul\":859:866   */\n      0x00\n        /* \"#utility.yul\":888:912   */\n      tag_75\n        /* \"#utility.yul\":906:911   */\n      dup3\n        /* \"#utility.yul\":888:912   */\n      tag_56\n      jump\t// in\n    tag_75:\n        /* \"#utility.yul\":877:912   */\n      swap1\n      pop\n        /* \"#utility.yul\":822:918   */\n      swap2\n      swap1\n      pop\n      jump\t// out\n        /* \"#utility.yul\":924:1046   */\n    tag_58:\n        /* \"#utility.yul\":997:1021   */\n      tag_77\n        /* \"#utility.yul\":1015:1020   */\n      dup2\n        /* \"#utility.yul\":997:1021   */\n      tag_57\n      jump\t// in\n    tag_77:\n        /* \"#utility.yul\":990:995   */\n      dup2\n        /* \"#utility.yul\":987:1022   */\n      eq\n        /* \"#utility.yul\":977:1040   */\n      tag_78\n      jumpi\n        /* \"#utility.yul\":1036:1037   */\n      0x00\n        /* \"#utility.yul\":1033:1034   */\n      dup1\n        /* \"#utility.yul\":1026:1038   */\n      revert\n        /* \"#utility.yul\":977:1040   */\n    tag_78:\n        /* \"#utility.yul\":924:1046   */\n      pop\n      jump\t// out\n        /* \"#utility.yul\":1052:1191   */\n    tag_59:\n        /* \"#utility.yul\":1098:1103   */\n      0x00\n        /* \"#utility.yul\":1136:1142   */\n      dup2\n        /* \"#utility.yul\":1123:1143   */\n      calldataload\n        /* \"#utility.yul\":1114:1143   */\n      swap1\n      pop\n        /* \"#utility.yul\":1152:1185   */\n      tag_80\n        /* \"#utility.yul\":1179:1184   */\n      dup2\n        /* \"#utility.yul\":1152:1185   */\n      tag_58\n      jump\t// in\n    tag_80:\n        /* \"#utility.yul\":1052:1191   */\n      swap3\n      swap2\n      pop\n      pop\n      jump\t// out\n        /* \"#utility.yul\":1197:1671   */\n    tag_10:\n        /* \"#utility.yul\":1265:1271   */\n      0x00\n        /* \"#utility.yul\":1273:1279   */\n      dup1\n        /* \"#utility.yul\":1322:1324   */\n      0x40\n        /* \"#utility.yul\":1310:1319   */\n      dup4\n        /* \"#utility.yul\":1301:1308   */\n      dup6\n        /* \"#utility.yul\":1297:1320   */\n      sub\n        /* \"#utility.yul\":1293:1325   */\n      slt\n        /* \"#utility.yul\":1290:1409   */\n      iszero\n      tag_82\n      jumpi\n        /* \"#utility.yul\":1328:1407   */\n      tag_83\n      tag_51\n      jump\t// in\n    tag_83:\n        /* \"#utility.yul\":1290:1409   */\n    tag_82:\n        /* \"#utility.yul\":1448:1449   */\n      0x00\n        /* \"#utility.yul\":1473:1526   */\n      tag_84\n        /* \"#utility.yul\":1518:1525   */\n      dup6\n        /* \"#utility.yul\":1509:1515   */\n      dup3\n        /* \"#utility.yul\":1498:1507   */\n      dup7\n        /* \"#utility.yul\":1494:1516   */\n      add\n        /* \"#utility.yul\":1473:1526   */\n      tag_55\n      jump\t// in\n    tag_84:\n        /* \"#utility.yul\":1463:1526   */\n      swap3\n      pop\n        /* \"#utility.yul\":1419:1536   */\n      pop\n        /* \"#utility.yul\":1575:1577   */\n      0x20\n        /* \"#utility.yul\":1601:1654   */\n      tag_85\n        /* \"#utility.yul\":1646:1653   */\n      dup6\n        /* \"#utility.yul\":1637:1643   */\n      dup3\n        /* \"#utility.yul\":1626:1635   */\n      dup7\n        /* \"#utility.yul\":1622:1644   */\n      add\n        /* \"#utility.yul\":1601:1654   */\n      tag_59\n      jump\t// in\n    tag_85:\n        /* \"#utility.yul\":1591:1654   */\n      swap2\n      pop\n        /* \"#utility.yul\":1546:1664   */\n      pop\n        /* \"#utility.yul\":1197:1671   */\n      swap3\n      pop\n      swap3\n      swap1\n      pop\n      jump\t// out\n        /* \"#utility.yul\":1677:1795   */\n    tag_60:\n        /* \"#utility.yul\":1764:1788   */\n      tag_87\n        /* \"#utility.yul\":1782:1787   */\n      dup2\n        /* \"#utility.yul\":1764:1788   */\n      tag_53\n      jump\t// in\n    tag_87:\n        /* \"#utility.yul\":1759:1762   */\n      dup3\n        /* \"#utility.yul\":1752:1789   */\n      mstore\n        /* \"#utility.yul\":1677:1795   */\n      pop\n      pop\n      jump\t// out\n        /* \"#utility.yul\":1801:2023   */\n    tag_13:\n        /* \"#utility.yul\":1894:1898   */\n      0x00\n        /* \"#utility.yul\":1932:1934   */\n      0x20\n        /* \"#utility.yul\":1921:1930   */\n      dup3\n        /* \"#utility.yul\":1917:1935   */\n      add\n        /* \"#utility.yul\":1909:1935   */\n      swap1\n      pop\n        /* \"#utility.yul\":1945:2016   */\n      tag_89\n        /* \"#utility.yul\":2013:2014   */\n      0x00\n        /* \"#utility.yul\":2002:2011   */\n      dup4\n        /* \"#utility.yul\":1998:2015   */\n      add\n        /* \"#utility.yul\":1989:1995   */\n      dup5\n        /* \"#utility.yul\":1945:2016   */\n      tag_60\n      jump\t// in\n    tag_89:\n        /* \"#utility.yul\":1801:2023   */\n      swap3\n      swap2\n      pop\n      pop\n      jump\t// out\n        /* \"#utility.yul\":2029:2358   */\n    tag_16:\n        /* \"#utility.yul\":2088:2094   */\n      0x00\n        /* \"#utility.yul\":2137:2139   */\n      0x20\n        /* \"#utility.yul\":2125:2134   */\n      dup3\n        /* \"#utility.yul\":2116:2123   */\n      dup5\n        /* \"#utility.yul\":2112:2135   */\n      sub\n        /* \"#utility.yul\":2108:2140   */\n      slt\n        /* \"#utility.yul\":2105:2224   */\n      iszero\n      tag_91\n      jumpi\n        /* \"#utility.yul\":2143:2222   */\n      tag_92\n      tag_51\n      jump\t// in\n    tag_92:\n        /* \"#utility.yul\":2105:2224   */\n    tag_91:\n        /* \"#utility.yul\":2263:2264   */\n      0x00\n        /* \"#utility.yul\":2288:2341   */\n      tag_93\n        /* \"#utility.yul\":2333:2340   */\n      dup5\n        /* \"#utility.yul\":2324:2330   */\n      dup3\n        /* \"#utility.yul\":2313:2322   */\n      dup6\n        /* \"#utility.yul\":2309:2331   */\n      add\n        /* \"#utility.yul\":2288:2341   */\n      tag_59\n      jump\t// in\n    tag_93:\n        /* \"#utility.yul\":2278:2341   */\n      swap2\n      pop\n        /* \"#utility.yul\":2234:2351   */\n      pop\n        /* \"#utility.yul\":2029:2358   */\n      swap3\n      swap2\n      pop\n      pop\n      jump\t// out\n        /* \"#utility.yul\":2364:2838   */\n    tag_21:\n        /* \"#utility.yul\":2432:2438   */\n      0x00\n        /* \"#utility.yul\":2440:2446   */\n      dup1\n        /* \"#utility.yul\":2489:2491   */\n      0x40\n        /* \"#utility.yul\":2477:2486   */\n      dup4\n        /* \"#utility.yul\":2468:2475   */\n      dup6\n        /* \"#utility.yul\":2464:2487   */\n      sub\n        /* \"#utility.yul\":2460:2492   */\n      slt\n        /* \"#utility.yul\":2457:2576   */\n      iszero\n      tag_95\n      jumpi\n        /* \"#utility.yul\":2495:2574   */\n      tag_96\n      tag_51\n      jump\t// in\n    tag_96:\n        /* \"#utility.yul\":2457:2576   */\n    tag_95:\n        /* \"#utility.yul\":2615:2616   */\n      0x00\n        /* \"#utility.yul\":2640:2693   */\n      tag_97\n        /* \"#utility.yul\":2685:2692   */\n      dup6\n        /* \"#utility.yul\":2676:2682   */\n      dup3\n        /* \"#utility.yul\":2665:2674   */\n      dup7\n        /* \"#utility.yul\":2661:2683   */\n      add\n        /* \"#utility.yul\":2640:2693   */\n      tag_59\n      jump\t// in\n    tag_97:\n        /* \"#utility.yul\":2630:2693   */\n      swap3\n      pop\n        /* \"#utility.yul\":2586:2703   */\n      pop\n        /* \"#utility.yul\":2742:2744   */\n      0x20\n        /* \"#utility.yul\":2768:2821   */\n      tag_98\n        /* \"#utility.yul\":2813:2820   */\n      dup6\n        /* \"#utility.yul\":2804:2810   */\n      dup3\n        /* \"#utility.yul\":2793:2802   */\n      dup7\n        /* \"#utility.yul\":2789:2811   */\n      add\n        /* \"#utility.yul\":2768:2821   */\n      tag_55\n      jump\t// in\n    tag_98:\n        /* \"#utility.yul\":2758:2821   */\n      swap2\n      pop\n        /* \"#utility.yul\":2713:2831   */\n      pop\n        /* \"#utility.yul\":2364:2838   */\n      swap3\n      pop\n      swap3\n      swap1\n      pop\n      jump\t// out\n        /* \"#utility.yul\":2844:3024   */\n    tag_61:\n        /* \"#utility.yul\":2892:2969   */\n      0x4e487b7100000000000000000000000000000000000000000000000000000000\n        /* \"#utility.yul\":2889:2890   */\n      0x00\n        /* \"#utility.yul\":2882:2970   */\n      mstore\n        /* \"#utility.yul\":2989:2993   */\n      0x11\n        /* \"#utility.yul\":2986:2987   */\n      0x04\n        /* \"#utility.yul\":2979:2994   */\n      mstore\n        /* \"#utility.yul\":3013:3017   */\n      0x24\n        /* \"#utility.yul\":3010:3011   */\n      0x00\n        /* \"#utility.yul\":3003:3018   */\n      revert\n        /* \"#utility.yul\":3030:3440   */\n    tag_33:\n        /* \"#utility.yul\":3070:3077   */\n      0x00\n        /* \"#utility.yul\":3093:3113   */\n      tag_101\n        /* \"#utility.yul\":3111:3112   */\n      dup3\n        /* \"#utility.yul\":3093:3113   */\n      tag_53\n      jump\t// in\n    tag_101:\n        /* \"#utility.yul\":3088:3113   */\n      swap2\n      pop\n        /* \"#utility.yul\":3127:3147   */\n      tag_102\n        /* \"#utility.yul\":3145:3146   */\n      dup4\n        /* \"#utility.yul\":3127:3147   */\n      tag_53\n      jump\t// in\n    tag_102:\n        /* \"#utility.yul\":3122:3147   */\n      swap3\n      pop\n        /* \"#utility.yul\":3182:3183   */\n      dup3\n        /* \"#utility.yul\":3179:3180   */\n      dup3\n        /* \"#utility.yul\":3175:3184   */\n      mul\n        /* \"#utility.yul\":3204:3234   */\n      tag_103\n        /* \"#utility.yul\":3222:3233   */\n      dup2\n        /* \"#utility.yul\":3204:3234   */\n      tag_53\n      jump\t// in\n    tag_103:\n        /* \"#utility.yul\":3193:3234   */\n      swap2\n      pop\n        /* \"#utility.yul\":3383:3384   */\n      dup3\n        /* \"#utility.yul\":3374:3381   */\n      dup3\n        /* \"#utility.yul\":3370:3385   */\n      div\n        /* \"#utility.yul\":3367:3368   */\n      dup5\n        /* \"#utility.yul\":3364:3386   */\n      eq\n        /* \"#utility.yul\":3344:3345   */\n      dup4\n        /* \"#utility.yul\":3337:3346   */\n      iszero\n        /* \"#utility.yul\":3317:3400   */\n      or\n        /* \"#utility.yul\":3294:3433   */\n      tag_104\n      jumpi\n        /* \"#utility.yul\":3413:3431   */\n      tag_105\n      tag_61\n      jump\t// in\n    tag_105:\n        /* \"#utility.yul\":3294:3433   */\n    tag_104:\n        /* \"#utility.yul\":3078:3440   */\n      pop\n        /* \"#utility.yul\":3030:3440   */\n      swap3\n      swap2\n      pop\n      pop\n      jump\t// out\n        /* \"#utility.yul\":3446:3626   */\n    tag_62:\n        /* \"#utility.yul\":3494:3571   */\n      0x4e487b7100000000000000000000000000000000000000000000000000000000\n        /* \"#utility.yul\":3491:3492   */\n      0x00\n        /* \"#utility.yul\":3484:3572   */\n      mstore\n        /* \"#utility.yul\":3591:3595   */\n      0x12\n        /* \"#utility.yul\":3588:3589   */\n      0x04\n        /* \"#utility.yul\":3581:3596   */\n      mstore\n        /* \"#utility.yul\":3615:3619   */\n      0x24\n        /* \"#utility.yul\":3612:3613   */\n      0x00\n        /* \"#utility.yul\":3605:3620   */\n      revert\n        /* \"#utility.yul\":3632:3817   */\n    tag_35:\n        /* \"#utility.yul\":3672:3673   */\n      0x00\n        /* \"#utility.yul\":3689:3709   */\n      tag_108\n        /* \"#utility.yul\":3707:3708   */\n      dup3\n        /* \"#utility.yul\":3689:3709   */\n      tag_53\n      jump\t// in\n    tag_108:\n        /* \"#utility.yul\":3684:3709   */\n      swap2\n      pop\n        /* \"#utility.yul\":3723:3743   */\n      tag_109\n        /* \"#utility.yul\":3741:3742   */\n      dup4\n        /* \"#utility.yul\":3723:3743   */\n      tag_53\n      jump\t// in\n    tag_109:\n        /* \"#utility.yul\":3718:3743   */\n      swap3\n      pop\n        /* \"#utility.yul\":3762:3763   */\n      dup3\n        /* \"#utility.yul\":3752:3787   */\n      tag_110\n      jumpi\n        /* \"#utility.yul\":3767:3785   */\n      tag_111\n      tag_62\n      jump\t// in\n    tag_111:\n        /* \"#utility.yul\":3752:3787   */\n    tag_110:\n        /* \"#utility.yul\":3809:3810   */\n      dup3\n        /* \"#utility.yul\":3806:3807   */\n      dup3\n        /* \"#utility.yul\":3802:3811   */\n      div\n        /* \"#utility.yul\":3797:3811   */\n      swap1\n      pop\n        /* \"#utility.yul\":3632:3817   */\n      swap3\n      swap2\n      pop\n      pop\n      jump\t// out\n        /* \"#utility.yul\":3823:4017   */\n    tag_37:\n        /* \"#utility.yul\":3863:3867   */\n      0x00\n        /* \"#utility.yul\":3883:3903   */\n      tag_113\n        /* \"#utility.yul\":3901:3902   */\n      dup3\n        /* \"#utility.yul\":3883:3903   */\n      tag_53\n      jump\t// in\n    tag_113:\n        /* \"#utility.yul\":3878:3903   */\n      swap2\n      pop\n        /* \"#utility.yul\":3917:3937   */\n      tag_114\n        /* \"#utility.yul\":3935:3936   */\n      dup4\n        /* \"#utility.yul\":3917:3937   */\n      tag_53\n      jump\t// in\n    tag_114:\n        /* \"#utility.yul\":3912:3937   */\n      swap3\n      pop\n        /* \"#utility.yul\":3961:3962   */\n      dup3\n        /* \"#utility.yul\":3958:3959   */\n      dup3\n        /* \"#utility.yul\":3954:3963   */\n      sub\n        /* \"#utility.yul\":3946:3963   */\n      swap1\n      pop\n        /* \"#utility.yul\":3985:3986   */\n      dup2\n        /* \"#utility.yul\":3979:3983   */\n      dup2\n        /* \"#utility.yul\":3976:3987   */\n      gt\n        /* \"#utility.yul\":3973:4010   */\n      iszero\n      tag_115\n      jumpi\n        /* \"#utility.yul\":3990:4008   */\n      tag_116\n      tag_61\n      jump\t// in\n    tag_116:\n        /* \"#utility.yul\":3973:4010   */\n    tag_115:\n        /* \"#utility.yul\":3823:4017   */\n      swap3\n      swap2\n      pop\n      pop\n      jump\t// out\n\n    auxdata: 0xa2646970667358221220114836842c70b555ccec14feefa65f5cfc745bdf8e8400f146cb96e54bec5caa64736f6c634300081a0033\n}\n",
				"bytecode": {
					"linkReferences": {},
					"object": "6080604052348015600e575f80fd5b506106208061001c5f395ff3fe608060405234801561000f575f80fd5b5060043610610055575f3560e01c80631cf029f2146100595780638407c4f714610089578063a720b8af146100b9578063dd3ced63146100d5578063f389de7114610105575b5f80fd5b610073600480360381019061006e919061041d565b610135565b604051610080919061046a565b60405180910390f35b6100a3600480360381019061009e9190610483565b6101a8565b6040516100b0919061046a565b60405180910390f35b6100d360048036038101906100ce91906104ae565b6101bd565b005b6100ef60048036038101906100ea9190610483565b61020b565b6040516100fc919061046a565b60405180910390f35b61011f600480360381019061011a9190610483565b61021f565b60405161012c919061046a565b60405180910390f35b5f8060015f8473ffffffffffffffffffffffffffffffffffffffff1673ffffffffffffffffffffffffffffffffffffffff1681526020019081526020015f205490505f606482866101869190610519565b6101909190610587565b9050808561019e91906105b7565b9250505092915050565b6001602052805f5260405f205f915090505481565b805f808473ffffffffffffffffffffffffffffffffffffffff1673ffffffffffffffffffffffffffffffffffffffff1681526020019081526020015f208190555061020782610265565b5050565b5f602052805f5260405f205f915090505481565b5f60015f8373ffffffffffffffffffffffffffffffffffffffff1673ffffffffffffffffffffffffffffffffffffffff1681526020019081526020015f20549050919050565b5f805f8373ffffffffffffffffffffffffffffffffffffffff1673ffffffffffffffffffffffffffffffffffffffff1681526020019081526020015f205490505f683635c9adc5dea0000082106102bf57606490506102f7565b681b1ae4d6e2ef50000082106102d857604b90506102f6565b68056bc75e2d6310000082106102f157603290506102f5565b5f90505b5b5b8060015f8573ffffffffffffffffffffffffffffffffffffffff1673ffffffffffffffffffffffffffffffffffffffff1681526020019081526020015f20819055508273ffffffffffffffffffffffffffffffffffffffff167f46346e18059a3eb3183c964bb447e4b1b12249aef71bccbddb4c78b47fd136388260405161037f919061046a565b60405180910390a2505050565b5f80fd5b5f819050919050565b6103a281610390565b81146103ac575f80fd5b50565b5f813590506103bd81610399565b92915050565b5f73ffffffffffffffffffffffffffffffffffffffff82169050919050565b5f6103ec826103c3565b9050919050565b6103fc816103e2565b8114610406575f80fd5b50565b5f81359050610417816103f3565b92915050565b5f80604083850312156104335761043261038c565b5b5f610440858286016103af565b925050602061045185828601610409565b9150509250929050565b61046481610390565b82525050565b5f60208201905061047d5f83018461045b565b92915050565b5f602082840312156104985761049761038c565b5b5f6104a584828501610409565b91505092915050565b5f80604083850312156104c4576104c361038c565b5b5f6104d185828601610409565b92505060206104e2858286016103af565b9150509250929050565b7f4e487b71000000000000000000000000000000000000000000000000000000005f52601160045260245ffd5b5f61052382610390565b915061052e83610390565b925082820261053c81610390565b91508282048414831517610553576105526104ec565b5b5092915050565b7f4e487b71000000000000000000000000000000000000000000000000000000005f52601260045260245ffd5b5f61059182610390565b915061059c83610390565b9250826105ac576105ab61055a565b5b828204905092915050565b5f6105c182610390565b91506105cc83610390565b92508282039050818111156105e4576105e36104ec565b5b9291505056fea2646970667358221220114836842c70b555ccec14feefa65f5cfc745bdf8e8400f146cb96e54bec5caa64736f6c634300081a0033",
					"opcodes": "PUSH1 0x80 PUSH1 0x40 MSTORE CALLVALUE DUP1 ISZERO PUSH1 0xE JUMPI PUSH0 DUP1 REVERT JUMPDEST POP PUSH2 0x620 DUP1 PUSH2 0x1C PUSH0 CODECOPY PUSH0 RETURN INVALID PUSH1 0x80 PUSH1 0x40 MSTORE CALLVALUE DUP1 ISZERO PUSH2 0xF JUMPI PUSH0 DUP1 REVERT JUMPDEST POP PUSH1 0x4 CALLDATASIZE LT PUSH2 0x55 JUMPI PUSH0 CALLDATALOAD PUSH1 0xE0 SHR DUP1 PUSH4 0x1CF029F2 EQ PUSH2 0x59 JUMPI DUP1 PUSH4 0x8407C4F7 EQ PUSH2 0x89 JUMPI DUP1 PUSH4 0xA720B8AF EQ PUSH2 0xB9 JUMPI DUP1 PUSH4 0xDD3CED63 EQ PUSH2 0xD5 JUMPI DUP1 PUSH4 0xF389DE71 EQ PUSH2 0x105 JUMPI JUMPDEST PUSH0 DUP1 REVERT JUMPDEST PUSH2 0x73 PUSH1 0x4 DUP1 CALLDATASIZE SUB DUP2 ADD SWAP1 PUSH2 0x6E SWAP2 SWAP1 PUSH2 0x41D JUMP JUMPDEST PUSH2 0x135 JUMP JUMPDEST PUSH1 0x40 MLOAD PUSH2 0x80 SWAP2 SWAP1 PUSH2 0x46A JUMP JUMPDEST PUSH1 0x40 MLOAD DUP1 SWAP2 SUB SWAP1 RETURN JUMPDEST PUSH2 0xA3 PUSH1 0x4 DUP1 CALLDATASIZE SUB DUP2 ADD SWAP1 PUSH2 0x9E SWAP2 SWAP1 PUSH2 0x483 JUMP JUMPDEST PUSH2 0x1A8 JUMP JUMPDEST PUSH1 0x40 MLOAD PUSH2 0xB0 SWAP2 SWAP1 PUSH2 0x46A JUMP JUMPDEST PUSH1 0x40 MLOAD DUP1 SWAP2 SUB SWAP1 RETURN JUMPDEST PUSH2 0xD3 PUSH1 0x4 DUP1 CALLDATASIZE SUB DUP2 ADD SWAP1 PUSH2 0xCE SWAP2 SWAP1 PUSH2 0x4AE JUMP JUMPDEST PUSH2 0x1BD JUMP JUMPDEST STOP JUMPDEST PUSH2 0xEF PUSH1 0x4 DUP1 CALLDATASIZE SUB DUP2 ADD SWAP1 PUSH2 0xEA SWAP2 SWAP1 PUSH2 0x483 JUMP JUMPDEST PUSH2 0x20B JUMP JUMPDEST PUSH1 0x40 MLOAD PUSH2 0xFC SWAP2 SWAP1 PUSH2 0x46A JUMP JUMPDEST PUSH1 0x40 MLOAD DUP1 SWAP2 SUB SWAP1 RETURN JUMPDEST PUSH2 0x11F PUSH1 0x4 DUP1 CALLDATASIZE SUB DUP2 ADD SWAP1 PUSH2 0x11A SWAP2 SWAP1 PUSH2 0x483 JUMP JUMPDEST PUSH2 0x21F JUMP JUMPDEST PUSH1 0x40 MLOAD PUSH2 0x12C SWAP2 SWAP1 PUSH2 0x46A JUMP JUMPDEST PUSH1 0x40 MLOAD DUP1 SWAP2 SUB SWAP1 RETURN JUMPDEST PUSH0 DUP1 PUSH1 0x1 PUSH0 DUP5 PUSH20 0xFFFFFFFFFFFFFFFFFFFFFFFFFFFFFFFFFFFFFFFF AND PUSH20 0xFFFFFFFFFFFFFFFFFFFFFFFFFFFFFFFFFFFFFFFF AND DUP2 MSTORE PUSH1 0x20 ADD SWAP1 DUP2 MSTORE PUSH1 0x20 ADD PUSH0 KECCAK256 SLOAD SWAP1 POP PUSH0 PUSH1 0x64 DUP3 DUP7 PUSH2 0x186 SWAP2 SWAP1 PUSH2 0x519 JUMP JUMPDEST PUSH2 0x190 SWAP2 SWAP1 PUSH2 0x587 JUMP JUMPDEST SWAP1 POP DUP1 DUP6 PUSH2 0x19E SWAP2 SWAP1 PUSH2 0x5B7 JUMP JUMPDEST SWAP3 POP POP POP SWAP3 SWAP2 POP POP JUMP JUMPDEST PUSH1 0x1 PUSH1 0x20 MSTORE DUP1 PUSH0 MSTORE PUSH1 0x40 PUSH0 KECCAK256 PUSH0 SWAP2 POP SWAP1 POP SLOAD DUP2 JUMP JUMPDEST DUP1 PUSH0 DUP1 DUP5 PUSH20 0xFFFFFFFFFFFFFFFFFFFFFFFFFFFFFFFFFFFFFFFF AND PUSH20 0xFFFFFFFFFFFFFFFFFFFFFFFFFFFFFFFFFFFFFFFF AND DUP2 MSTORE PUSH1 0x20 ADD SWAP1 DUP2 MSTORE PUSH1 0x20 ADD PUSH0 KECCAK256 DUP2 SWAP1 SSTORE POP PUSH2 0x207 DUP3 PUSH2 0x265 JUMP JUMPDEST POP POP JUMP JUMPDEST PUSH0 PUSH1 0x20 MSTORE DUP1 PUSH0 MSTORE PUSH1 0x40 PUSH0 KECCAK256 PUSH0 SWAP2 POP SWAP1 POP SLOAD DUP2 JUMP JUMPDEST PUSH0 PUSH1 0x1 PUSH0 DUP4 PUSH20 0xFFFFFFFFFFFFFFFFFFFFFFFFFFFFFFFFFFFFFFFF AND PUSH20 0xFFFFFFFFFFFFFFFFFFFFFFFFFFFFFFFFFFFFFFFF AND DUP2 MSTORE PUSH1 0x20 ADD SWAP1 DUP2 MSTORE PUSH1 0x20 ADD PUSH0 KECCAK256 SLOAD SWAP1 POP SWAP2 SWAP1 POP JUMP JUMPDEST PUSH0 DUP1 PUSH0 DUP4 PUSH20 0xFFFFFFFFFFFFFFFFFFFFFFFFFFFFFFFFFFFFFFFF AND PUSH20 0xFFFFFFFFFFFFFFFFFFFFFFFFFFFFFFFFFFFFFFFF AND DUP2 MSTORE PUSH1 0x20 ADD SWAP1 DUP2 MSTORE PUSH1 0x20 ADD PUSH0 KECCAK256 SLOAD SWAP1 POP PUSH0 PUSH9 0x3635C9ADC5DEA00000 DUP3 LT PUSH2 0x2BF JUMPI PUSH1 0x64 SWAP1 POP PUSH2 0x2F7 JUMP JUMPDEST PUSH9 0x1B1AE4D6E2EF500000 DUP3 LT PUSH2 0x2D8 JUMPI PUSH1 0x4B SWAP1 POP PUSH2 0x2F6 JUMP JUMPDEST PUSH9 0x56BC75E2D63100000 DUP3 LT PUSH2 0x2F1 JUMPI PUSH1 0x32 SWAP1 POP PUSH2 0x2F5 JUMP JUMPDEST PUSH0 SWAP1 POP JUMPDEST JUMPDEST JUMPDEST DUP1 PUSH1 0x1 PUSH0 DUP6 PUSH20 0xFFFFFFFFFFFFFFFFFFFFFFFFFFFFFFFFFFFFFFFF AND PUSH20 0xFFFFFFFFFFFFFFFFFFFFFFFFFFFFFFFFFFFFFFFF AND DUP2 MSTORE PUSH1 0x20 ADD SWAP1 DUP2 MSTORE PUSH1 0x20 ADD PUSH0 KECCAK256 DUP2 SWAP1 SSTORE POP DUP3 PUSH20 0xFFFFFFFFFFFFFFFFFFFFFFFFFFFFFFFFFFFFFFFF AND PUSH32 0x46346E18059A3EB3183C964BB447E4B1B12249AEF71BCCBDDB4C78B47FD13638 DUP3 PUSH1 0x40 MLOAD PUSH2 0x37F SWAP2 SWAP1 PUSH2 0x46A JUMP JUMPDEST PUSH1 0x40 MLOAD DUP1 SWAP2 SUB SWAP1 LOG2 POP POP POP JUMP JUMPDEST PUSH0 DUP1 REVERT JUMPDEST PUSH0 DUP2 SWAP1 POP SWAP2 SWAP1 POP JUMP JUMPDEST PUSH2 0x3A2 DUP2 PUSH2 0x390 JUMP JUMPDEST DUP2 EQ PUSH2 0x3AC JUMPI PUSH0 DUP1 REVERT JUMPDEST POP JUMP JUMPDEST PUSH0 DUP2 CALLDATALOAD SWAP1 POP PUSH2 0x3BD DUP2 PUSH2 0x399 JUMP JUMPDEST SWAP3 SWAP2 POP POP JUMP JUMPDEST PUSH0 PUSH20 0xFFFFFFFFFFFFFFFFFFFFFFFFFFFFFFFFFFFFFFFF DUP3 AND SWAP1 POP SWAP2 SWAP1 POP JUMP JUMPDEST PUSH0 PUSH2 0x3EC DUP3 PUSH2 0x3C3 JUMP JUMPDEST SWAP1 POP SWAP2 SWAP1 POP JUMP JUMPDEST PUSH2 0x3FC DUP2 PUSH2 0x3E2 JUMP JUMPDEST DUP2 EQ PUSH2 0x406 JUMPI PUSH0 DUP1 REVERT JUMPDEST POP JUMP JUMPDEST PUSH0 DUP2 CALLDATALOAD SWAP1 POP PUSH2 0x417 DUP2 PUSH2 0x3F3 JUMP JUMPDEST SWAP3 SWAP2 POP POP JUMP JUMPDEST PUSH0 DUP1 PUSH1 0x40 DUP4 DUP6 SUB SLT ISZERO PUSH2 0x433 JUMPI PUSH2 0x432 PUSH2 0x38C JUMP JUMPDEST JUMPDEST PUSH0 PUSH2 0x440 DUP6 DUP3 DUP7 ADD PUSH2 0x3AF JUMP JUMPDEST SWAP3 POP POP PUSH1 0x20 PUSH2 0x451 DUP6 DUP3 DUP7 ADD PUSH2 0x409 JUMP JUMPDEST SWAP2 POP POP SWAP3 POP SWAP3 SWAP1 POP JUMP JUMPDEST PUSH2 0x464 DUP2 PUSH2 0x390 JUMP JUMPDEST DUP3 MSTORE POP POP JUMP JUMPDEST PUSH0 PUSH1 0x20 DUP3 ADD SWAP1 POP PUSH2 0x47D PUSH0 DUP4 ADD DUP5 PUSH2 0x45B JUMP JUMPDEST SWAP3 SWAP2 POP POP JUMP JUMPDEST PUSH0 PUSH1 0x20 DUP3 DUP5 SUB SLT ISZERO PUSH2 0x498 JUMPI PUSH2 0x497 PUSH2 0x38C JUMP JUMPDEST JUMPDEST PUSH0 PUSH2 0x4A5 DUP5 DUP3 DUP6 ADD PUSH2 0x409 JUMP JUMPDEST SWAP2 POP POP SWAP3 SWAP2 POP POP JUMP JUMPDEST PUSH0 DUP1 PUSH1 0x40 DUP4 DUP6 SUB SLT ISZERO PUSH2 0x4C4 JUMPI PUSH2 0x4C3 PUSH2 0x38C JUMP JUMPDEST JUMPDEST PUSH0 PUSH2 0x4D1 DUP6 DUP3 DUP7 ADD PUSH2 0x409 JUMP JUMPDEST SWAP3 POP POP PUSH1 0x20 PUSH2 0x4E2 DUP6 DUP3 DUP7 ADD PUSH2 0x3AF JUMP JUMPDEST SWAP2 POP POP SWAP3 POP SWAP3 SWAP1 POP JUMP JUMPDEST PUSH32 0x4E487B7100000000000000000000000000000000000000000000000000000000 PUSH0 MSTORE PUSH1 0x11 PUSH1 0x4 MSTORE PUSH1 0x24 PUSH0 REVERT JUMPDEST PUSH0 PUSH2 0x523 DUP3 PUSH2 0x390 JUMP JUMPDEST SWAP2 POP PUSH2 0x52E DUP4 PUSH2 0x390 JUMP JUMPDEST SWAP3 POP DUP3 DUP3 MUL PUSH2 0x53C DUP2 PUSH2 0x390 JUMP JUMPDEST SWAP2 POP DUP3 DUP3 DIV DUP5 EQ DUP4 ISZERO OR PUSH2 0x553 JUMPI PUSH2 0x552 PUSH2 0x4EC JUMP JUMPDEST JUMPDEST POP SWAP3 SWAP2 POP POP JUMP JUMPDEST PUSH32 0x4E487B7100000000000000000000000000000000000000000000000000000000 PUSH0 MSTORE PUSH1 0x12 PUSH1 0x4 MSTORE PUSH1 0x24 PUSH0 REVERT JUMPDEST PUSH0 PUSH2 0x591 DUP3 PUSH2 0x390 JUMP JUMPDEST SWAP2 POP PUSH2 0x59C DUP4 PUSH2 0x390 JUMP JUMPDEST SWAP3 POP DUP3 PUSH2 0x5AC JUMPI PUSH2 0x5AB PUSH2 0x55A JUMP JUMPDEST JUMPDEST DUP3 DUP3 DIV SWAP1 POP SWAP3 SWAP2 POP POP JUMP JUMPDEST PUSH0 PUSH2 0x5C1 DUP3 PUSH2 0x390 JUMP JUMPDEST SWAP2 POP PUSH2 0x5CC DUP4 PUSH2 0x390 JUMP JUMPDEST SWAP3 POP DUP3 DUP3 SUB SWAP1 POP DUP2 DUP2 GT ISZERO PUSH2 0x5E4 JUMPI PUSH2 0x5E3 PUSH2 0x4EC JUMP JUMPDEST JUMPDEST SWAP3 SWAP2 POP POP JUMP INVALID LOG2 PUSH5 0x6970667358 0x22 SLT KECCAK256 GT BASEFEE CALLDATASIZE DUP5 0x2C PUSH17 0xB555CCEC14FEEFA65F5CFC745BDF8E8400 CALL CHAINID 0xCB SWAP7 0xE5 0x4B 0xEC TLOAD 0xAA PUSH5 0x736F6C6343 STOP ADDMOD BYTE STOP CALLER "
				},
				"gasEstimates": {
					"creation": {
						"codeDepositCost": "313600",
						"executionCost": "347",
						"totalCost": "313947"
					},
					"external": {
						"applyCoverage(uint256,address)": "infinite",
						"checkTier(address)": "2895",
						"coverageTiers(address)": "2802",
						"holdings(address)": "2845",
						"updateHoldings(address,uint256)": "infinite"
					},
					"internal": {
						"_updateCoverageTier(address)": "infinite"
					}
				},
				"methodIdentifiers": {
					"applyCoverage(uint256,address)": "1cf029f2",
					"checkTier(address)": "f389de71",
					"coverageTiers(address)": "8407c4f7",
					"holdings(address)": "dd3ced63",
					"updateHoldings(address,uint256)": "a720b8af"
				}
			},
			"storageLayout": {
				"storage": [
					{
						"astId": 5,
						"contract": "contracts/GasFeeCoverage.sol:GasFeeCoverage",
						"label": "holdings",
						"offset": 0,
						"slot": "0",
						"type": "t_mapping(t_address,t_uint256)"
					},
					{
						"astId": 9,
						"contract": "contracts/GasFeeCoverage.sol:GasFeeCoverage",
						"label": "coverageTiers",
						"offset": 0,
						"slot": "1",
						"type": "t_mapping(t_address,t_uint256)"
					}
				],
				"types": {
					"t_address": {
						"encoding": "inplace",
						"label": "address",
						"numberOfBytes": "20"
					},
					"t_mapping(t_address,t_uint256)": {
						"encoding": "mapping",
						"key": "t_address",
						"label": "mapping(address => uint256)",
						"numberOfBytes": "32",
						"value": "t_uint256"
					},
					"t_uint256": {
						"encoding": "inplace",
						"label": "uint256",
						"numberOfBytes": "32"
					}
				}
			},
			"userdoc": {
				"kind": "user",
				"methods": {},
				"version": 1
			}
		}
	}
}