{
	"contracts/Staking.sol": {
		"Staking": {
			"abi": [
				{
					"anonymous": false,
					"inputs": [
						{
							"indexed": true,
							"internalType": "address",
							"name": "staker",
							"type": "address"
						},
						{
							"indexed": false,
							"internalType": "uint256",
							"name": "amount",
							"type": "uint256"
						}
					],
					"name": "TokensStaked",
					"type": "event"
				},
				{
					"anonymous": false,
					"inputs": [
						{
							"indexed": true,
							"internalType": "address",
							"name": "staker",
							"type": "address"
						},
						{
							"indexed": false,
							"internalType": "uint256",
							"name": "amount",
							"type": "uint256"
						}
					],
					"name": "TokensUnstaked",
					"type": "event"
				},
				{
					"inputs": [
						{
							"internalType": "address",
							"name": "staker",
							"type": "address"
						}
					],
					"name": "calculateRewards",
					"outputs": [
						{
							"internalType": "uint256",
							"name": "",
							"type": "uint256"
						}
					],
					"stateMutability": "view",
					"type": "function"
				},
				{
					"inputs": [
						{
							"internalType": "address",
							"name": "",
							"type": "address"
						}
					],
					"name": "rewards",
					"outputs": [
						{
							"internalType": "uint256",
							"name": "",
							"type": "uint256"
						}
					],
					"stateMutability": "view",
					"type": "function"
				},
				{
					"inputs": [
						{
							"internalType": "uint256",
							"name": "amount",
							"type": "uint256"
						}
					],
					"name": "stakeTokens",
					"outputs": [],
					"stateMutability": "nonpayable",
					"type": "function"
				},
				{
					"inputs": [
						{
							"internalType": "address",
							"name": "",
							"type": "address"
						}
					],
					"name": "stakedTokens",
					"outputs": [
						{
							"internalType": "uint256",
							"name": "",
							"type": "uint256"
						}
					],
					"stateMutability": "view",
					"type": "function"
				},
				{
					"inputs": [
						{
							"internalType": "uint256",
							"name": "amount",
							"type": "uint256"
						}
					],
					"name": "unstakeTokens",
					"outputs": [],
					"stateMutability": "nonpayable",
					"type": "function"
				}
			],
			"devdoc": {
				"kind": "dev",
				"methods": {},
				"version": 1
			},
			"evm": {
				"assembly": "    /* \"contracts/Staking.sol\":61:1271  contract Staking {... */\n  mstore(0x40, 0x80)\n  callvalue\n  dup1\n  iszero\n  tag_1\n  jumpi\n  0x00\n  dup1\n  revert\ntag_1:\n  pop\n  dataSize(sub_0)\n  dup1\n  dataOffset(sub_0)\n  0x00\n  codecopy\n  0x00\n  return\nstop\n\nsub_0: assembly {\n        /* \"contracts/Staking.sol\":61:1271  contract Staking {... */\n      mstore(0x40, 0x80)\n      callvalue\n      dup1\n      iszero\n      tag_1\n      jumpi\n      0x00\n      dup1\n      revert\n    tag_1:\n      pop\n      jumpi(tag_2, lt(calldatasize, 0x04))\n      shr(0xe0, calldataload(0x00))\n      dup1\n      0x0700037d\n      eq\n      tag_3\n      jumpi\n      dup1\n      0x608e4dd0\n      eq\n      tag_4\n      jumpi\n      dup1\n      0x64ab8675\n      eq\n      tag_5\n      jumpi\n      dup1\n      0x7547c7a3\n      eq\n      tag_6\n      jumpi\n      dup1\n      0xa5b39cfb\n      eq\n      tag_7\n      jumpi\n    tag_2:\n      0x00\n      dup1\n      revert\n        /* \"contracts/Staking.sol\":139:181  mapping(address => uint256) public rewards */\n    tag_3:\n      tag_8\n      0x04\n      dup1\n      calldatasize\n      sub\n      dup2\n      add\n      swap1\n      tag_9\n      swap2\n      swap1\n      tag_10\n      jump\t// in\n    tag_9:\n      tag_11\n      jump\t// in\n    tag_8:\n      mload(0x40)\n      tag_12\n      swap2\n      swap1\n      tag_13\n      jump\t// in\n    tag_12:\n      mload(0x40)\n      dup1\n      swap2\n      sub\n      swap1\n      return\n        /* \"contracts/Staking.sol\":603:910  function unstakeTokens(uint256 amount) public {... */\n    tag_4:\n      tag_14\n      0x04\n      dup1\n      calldatasize\n      sub\n      dup2\n      add\n      swap1\n      tag_15\n      swap2\n      swap1\n      tag_16\n      jump\t// in\n    tag_15:\n      tag_17\n      jump\t// in\n    tag_14:\n      stop\n        /* \"contracts/Staking.sol\":918:1072  function calculateRewards(address staker) public view returns (uint256) {... */\n    tag_5:\n      tag_18\n      0x04\n      dup1\n      calldatasize\n      sub\n      dup2\n      add\n      swap1\n      tag_19\n      swap2\n      swap1\n      tag_10\n      jump\t// in\n    tag_19:\n      tag_20\n      jump\t// in\n    tag_18:\n      mload(0x40)\n      tag_21\n      swap2\n      swap1\n      tag_13\n      jump\t// in\n    tag_21:\n      mload(0x40)\n      dup1\n      swap2\n      sub\n      swap1\n      return\n        /* \"contracts/Staking.sol\":324:595  function stakeTokens(uint256 amount) public {... */\n    tag_6:\n      tag_22\n      0x04\n      dup1\n      calldatasize\n      sub\n      dup2\n      add\n      swap1\n      tag_23\n      swap2\n      swap1\n      tag_16\n      jump\t// in\n    tag_23:\n      tag_24\n      jump\t// in\n    tag_22:\n      stop\n        /* \"contracts/Staking.sol\":85:132  mapping(address => uint256) public stakedTokens */\n    tag_7:\n      tag_25\n      0x04\n      dup1\n      calldatasize\n      sub\n      dup2\n      add\n      swap1\n      tag_26\n      swap2\n      swap1\n      tag_10\n      jump\t// in\n    tag_26:\n      tag_27\n      jump\t// in\n    tag_25:\n      mload(0x40)\n      tag_28\n      swap2\n      swap1\n      tag_13\n      jump\t// in\n    tag_28:\n      mload(0x40)\n      dup1\n      swap2\n      sub\n      swap1\n      return\n        /* \"contracts/Staking.sol\":139:181  mapping(address => uint256) public rewards */\n    tag_11:\n      mstore(0x20, 0x01)\n      dup1\n      0x00\n      mstore\n      keccak256(0x00, 0x40)\n      0x00\n      swap2\n      pop\n      swap1\n      pop\n      sload\n      dup2\n      jump\t// out\n        /* \"contracts/Staking.sol\":603:910  function unstakeTokens(uint256 amount) public {... */\n    tag_17:\n        /* \"contracts/Staking.sol\":696:702  amount */\n      dup1\n        /* \"contracts/Staking.sol\":668:680  stakedTokens */\n      0x00\n        /* \"contracts/Staking.sol\":668:692  stakedTokens[msg.sender] */\n      dup1\n        /* \"contracts/Staking.sol\":681:691  msg.sender */\n      caller\n        /* \"contracts/Staking.sol\":668:692  stakedTokens[msg.sender] */\n      0xffffffffffffffffffffffffffffffffffffffff\n      and\n      0xffffffffffffffffffffffffffffffffffffffff\n      and\n      dup2\n      mstore\n      0x20\n      add\n      swap1\n      dup2\n      mstore\n      0x20\n      add\n      0x00\n      keccak256\n      sload\n        /* \"contracts/Staking.sol\":668:702  stakedTokens[msg.sender] >= amount */\n      lt\n      iszero\n        /* \"contracts/Staking.sol\":660:733  require(stakedTokens[msg.sender] >= amount, \"Insufficient staked tokens\") */\n      tag_30\n      jumpi\n      mload(0x40)\n      0x08c379a000000000000000000000000000000000000000000000000000000000\n      dup2\n      mstore\n      0x04\n      add\n      tag_31\n      swap1\n      tag_32\n      jump\t// in\n    tag_31:\n      mload(0x40)\n      dup1\n      swap2\n      sub\n      swap1\n      revert\n    tag_30:\n        /* \"contracts/Staking.sol\":774:780  amount */\n      dup1\n        /* \"contracts/Staking.sol\":746:758  stakedTokens */\n      0x00\n        /* \"contracts/Staking.sol\":746:770  stakedTokens[msg.sender] */\n      dup1\n        /* \"contracts/Staking.sol\":759:769  msg.sender */\n      caller\n        /* \"contracts/Staking.sol\":746:770  stakedTokens[msg.sender] */\n      0xffffffffffffffffffffffffffffffffffffffff\n      and\n      0xffffffffffffffffffffffffffffffffffffffff\n      and\n      dup2\n      mstore\n      0x20\n      add\n      swap1\n      dup2\n      mstore\n      0x20\n      add\n      0x00\n      keccak256\n      0x00\n        /* \"contracts/Staking.sol\":746:780  stakedTokens[msg.sender] -= amount */\n      dup3\n      dup3\n      sload\n      tag_33\n      swap2\n      swap1\n      tag_34\n      jump\t// in\n    tag_33:\n      swap3\n      pop\n      pop\n      dup2\n      swap1\n      sstore\n      pop\n        /* \"contracts/Staking.sol\":791:820  _calculateRewards(msg.sender) */\n      tag_35\n        /* \"contracts/Staking.sol\":809:819  msg.sender */\n      caller\n        /* \"contracts/Staking.sol\":791:808  _calculateRewards */\n      tag_36\n        /* \"contracts/Staking.sol\":791:820  _calculateRewards(msg.sender) */\n      jump\t// in\n    tag_35:\n        /* \"contracts/Staking.sol\":883:893  msg.sender */\n      caller\n        /* \"contracts/Staking.sol\":868:902  TokensUnstaked(msg.sender, amount) */\n      0xffffffffffffffffffffffffffffffffffffffff\n      and\n      0x9845e367b683334e5c0b12d7b81721ac518e649376fa65e3d68324e8f34f2679\n        /* \"contracts/Staking.sol\":895:901  amount */\n      dup3\n        /* \"contracts/Staking.sol\":868:902  TokensUnstaked(msg.sender, amount) */\n      mload(0x40)\n      tag_37\n      swap2\n      swap1\n      tag_13\n      jump\t// in\n    tag_37:\n      mload(0x40)\n      dup1\n      swap2\n      sub\n      swap1\n      log2\n        /* \"contracts/Staking.sol\":603:910  function unstakeTokens(uint256 amount) public {... */\n      pop\n      jump\t// out\n        /* \"contracts/Staking.sol\":918:1072  function calculateRewards(address staker) public view returns (uint256) {... */\n    tag_20:\n        /* \"contracts/Staking.sol\":981:988  uint256 */\n      0x00\n        /* \"contracts/Staking.sol\":1049:1056  rewards */\n      0x01\n        /* \"contracts/Staking.sol\":1049:1064  rewards[staker] */\n      0x00\n        /* \"contracts/Staking.sol\":1057:1063  staker */\n      dup4\n        /* \"contracts/Staking.sol\":1049:1064  rewards[staker] */\n      0xffffffffffffffffffffffffffffffffffffffff\n      and\n      0xffffffffffffffffffffffffffffffffffffffff\n      and\n      dup2\n      mstore\n      0x20\n      add\n      swap1\n      dup2\n      mstore\n      0x20\n      add\n      0x00\n      keccak256\n      sload\n        /* \"contracts/Staking.sol\":1042:1064  return rewards[staker] */\n      swap1\n      pop\n        /* \"contracts/Staking.sol\":918:1072  function calculateRewards(address staker) public view returns (uint256) {... */\n      swap2\n      swap1\n      pop\n      jump\t// out\n        /* \"contracts/Staking.sol\":324:595  function stakeTokens(uint256 amount) public {... */\n    tag_24:\n        /* \"contracts/Staking.sol\":444:450  amount */\n      dup1\n        /* \"contracts/Staking.sol\":416:428  stakedTokens */\n      0x00\n        /* \"contracts/Staking.sol\":416:440  stakedTokens[msg.sender] */\n      dup1\n        /* \"contracts/Staking.sol\":429:439  msg.sender */\n      caller\n        /* \"contracts/Staking.sol\":416:440  stakedTokens[msg.sender] */\n      0xffffffffffffffffffffffffffffffffffffffff\n      and\n      0xffffffffffffffffffffffffffffffffffffffff\n      and\n      dup2\n      mstore\n      0x20\n      add\n      swap1\n      dup2\n      mstore\n      0x20\n      add\n      0x00\n      keccak256\n      0x00\n        /* \"contracts/Staking.sol\":416:450  stakedTokens[msg.sender] += amount */\n      dup3\n      dup3\n      sload\n      tag_40\n      swap2\n      swap1\n      tag_41\n      jump\t// in\n    tag_40:\n      swap3\n      pop\n      pop\n      dup2\n      swap1\n      sstore\n      pop\n        /* \"contracts/Staking.sol\":508:537  _calculateRewards(msg.sender) */\n      tag_42\n        /* \"contracts/Staking.sol\":526:536  msg.sender */\n      caller\n        /* \"contracts/Staking.sol\":508:525  _calculateRewards */\n      tag_36\n        /* \"contracts/Staking.sol\":508:537  _calculateRewards(msg.sender) */\n      jump\t// in\n    tag_42:\n        /* \"contracts/Staking.sol\":568:578  msg.sender */\n      caller\n        /* \"contracts/Staking.sol\":555:587  TokensStaked(msg.sender, amount) */\n      0xffffffffffffffffffffffffffffffffffffffff\n      and\n      0xb539ca1e5c8d398ddf1c41c30166f33404941683be4683319b57669a93dad4ef\n        /* \"contracts/Staking.sol\":580:586  amount */\n      dup3\n        /* \"contracts/Staking.sol\":555:587  TokensStaked(msg.sender, amount) */\n      mload(0x40)\n      tag_43\n      swap2\n      swap1\n      tag_13\n      jump\t// in\n    tag_43:\n      mload(0x40)\n      dup1\n      swap2\n      sub\n      swap1\n      log2\n        /* \"contracts/Staking.sol\":324:595  function stakeTokens(uint256 amount) public {... */\n      pop\n      jump\t// out\n        /* \"contracts/Staking.sol\":85:132  mapping(address => uint256) public stakedTokens */\n    tag_27:\n      mstore(0x20, 0x00)\n      dup1\n      0x00\n      mstore\n      keccak256(0x00, 0x40)\n      0x00\n      swap2\n      pop\n      swap1\n      pop\n      sload\n      dup2\n      jump\t// out\n        /* \"contracts/Staking.sol\":1080:1268  function _calculateRewards(address staker) internal {... */\n    tag_36:\n        /* \"contracts/Staking.sol\":1257:1260  100 */\n      0x64\n        /* \"contracts/Staking.sol\":1234:1246  stakedTokens */\n      0x00\n        /* \"contracts/Staking.sol\":1234:1254  stakedTokens[staker] */\n      dup1\n        /* \"contracts/Staking.sol\":1247:1253  staker */\n      dup4\n        /* \"contracts/Staking.sol\":1234:1254  stakedTokens[staker] */\n      0xffffffffffffffffffffffffffffffffffffffff\n      and\n      0xffffffffffffffffffffffffffffffffffffffff\n      and\n      dup2\n      mstore\n      0x20\n      add\n      swap1\n      dup2\n      mstore\n      0x20\n      add\n      0x00\n      keccak256\n      sload\n        /* \"contracts/Staking.sol\":1234:1260  stakedTokens[staker] / 100 */\n      tag_45\n      swap2\n      swap1\n      tag_46\n      jump\t// in\n    tag_45:\n        /* \"contracts/Staking.sol\":1216:1223  rewards */\n      0x01\n        /* \"contracts/Staking.sol\":1216:1231  rewards[staker] */\n      0x00\n        /* \"contracts/Staking.sol\":1224:1230  staker */\n      dup4\n        /* \"contracts/Staking.sol\":1216:1231  rewards[staker] */\n      0xffffffffffffffffffffffffffffffffffffffff\n      and\n      0xffffffffffffffffffffffffffffffffffffffff\n      and\n      dup2\n      mstore\n      0x20\n      add\n      swap1\n      dup2\n      mstore\n      0x20\n      add\n      0x00\n      keccak256\n        /* \"contracts/Staking.sol\":1216:1260  rewards[staker] = stakedTokens[staker] / 100 */\n      dup2\n      swap1\n      sstore\n      pop\n        /* \"contracts/Staking.sol\":1080:1268  function _calculateRewards(address staker) internal {... */\n      pop\n      jump\t// out\n        /* \"#utility.yul\":88:205   */\n    tag_48:\n        /* \"#utility.yul\":197:198   */\n      0x00\n        /* \"#utility.yul\":194:195   */\n      dup1\n        /* \"#utility.yul\":187:199   */\n      revert\n        /* \"#utility.yul\":334:460   */\n    tag_50:\n        /* \"#utility.yul\":371:378   */\n      0x00\n        /* \"#utility.yul\":411:453   */\n      0xffffffffffffffffffffffffffffffffffffffff\n        /* \"#utility.yul\":404:409   */\n      dup3\n        /* \"#utility.yul\":400:454   */\n      and\n        /* \"#utility.yul\":389:454   */\n      swap1\n      pop\n        /* \"#utility.yul\":334:460   */\n      swap2\n      swap1\n      pop\n      jump\t// out\n        /* \"#utility.yul\":466:562   */\n    tag_51:\n        /* \"#utility.yul\":503:510   */\n      0x00\n        /* \"#utility.yul\":532:556   */\n      tag_69\n        /* \"#utility.yul\":550:555   */\n      dup3\n        /* \"#utility.yul\":532:556   */\n      tag_50\n      jump\t// in\n    tag_69:\n        /* \"#utility.yul\":521:556   */\n      swap1\n      pop\n        /* \"#utility.yul\":466:562   */\n      swap2\n      swap1\n      pop\n      jump\t// out\n        /* \"#utility.yul\":568:690   */\n    tag_52:\n        /* \"#utility.yul\":641:665   */\n      tag_71\n        /* \"#utility.yul\":659:664   */\n      dup2\n        /* \"#utility.yul\":641:665   */\n      tag_51\n      jump\t// in\n    tag_71:\n        /* \"#utility.yul\":634:639   */\n      dup2\n        /* \"#utility.yul\":631:666   */\n      eq\n        /* \"#utility.yul\":621:684   */\n      tag_72\n      jumpi\n        /* \"#utility.yul\":680:681   */\n      0x00\n        /* \"#utility.yul\":677:678   */\n      dup1\n        /* \"#utility.yul\":670:682   */\n      revert\n        /* \"#utility.yul\":621:684   */\n    tag_72:\n        /* \"#utility.yul\":568:690   */\n      pop\n      jump\t// out\n        /* \"#utility.yul\":696:835   */\n    tag_53:\n        /* \"#utility.yul\":742:747   */\n      0x00\n        /* \"#utility.yul\":780:786   */\n      dup2\n        /* \"#utility.yul\":767:787   */\n      calldataload\n        /* \"#utility.yul\":758:787   */\n      swap1\n      pop\n        /* \"#utility.yul\":796:829   */\n      tag_74\n        /* \"#utility.yul\":823:828   */\n      dup2\n        /* \"#utility.yul\":796:829   */\n      tag_52\n      jump\t// in\n    tag_74:\n        /* \"#utility.yul\":696:835   */\n      swap3\n      swap2\n      pop\n      pop\n      jump\t// out\n        /* \"#utility.yul\":841:1170   */\n    tag_10:\n        /* \"#utility.yul\":900:906   */\n      0x00\n        /* \"#utility.yul\":949:951   */\n      0x20\n        /* \"#utility.yul\":937:946   */\n      dup3\n        /* \"#utility.yul\":928:935   */\n      dup5\n        /* \"#utility.yul\":924:947   */\n      sub\n        /* \"#utility.yul\":920:952   */\n      slt\n        /* \"#utility.yul\":917:1036   */\n      iszero\n      tag_76\n      jumpi\n        /* \"#utility.yul\":955:1034   */\n      tag_77\n      tag_48\n      jump\t// in\n    tag_77:\n        /* \"#utility.yul\":917:1036   */\n    tag_76:\n        /* \"#utility.yul\":1075:1076   */\n      0x00\n        /* \"#utility.yul\":1100:1153   */\n      tag_78\n        /* \"#utility.yul\":1145:1152   */\n      dup5\n        /* \"#utility.yul\":1136:1142   */\n      dup3\n        /* \"#utility.yul\":1125:1134   */\n      dup6\n        /* \"#utility.yul\":1121:1143   */\n      add\n        /* \"#utility.yul\":1100:1153   */\n      tag_53\n      jump\t// in\n    tag_78:\n        /* \"#utility.yul\":1090:1153   */\n      swap2\n      pop\n        /* \"#utility.yul\":1046:1163   */\n      pop\n        /* \"#utility.yul\":841:1170   */\n      swap3\n      swap2\n      pop\n      pop\n      jump\t// out\n        /* \"#utility.yul\":1176:1253   */\n    tag_54:\n        /* \"#utility.yul\":1213:1220   */\n      0x00\n        /* \"#utility.yul\":1242:1247   */\n      dup2\n        /* \"#utility.yul\":1231:1247   */\n      swap1\n      pop\n        /* \"#utility.yul\":1176:1253   */\n      swap2\n      swap1\n      pop\n      jump\t// out\n        /* \"#utility.yul\":1259:1377   */\n    tag_55:\n        /* \"#utility.yul\":1346:1370   */\n      tag_81\n        /* \"#utility.yul\":1364:1369   */\n      dup2\n        /* \"#utility.yul\":1346:1370   */\n      tag_54\n      jump\t// in\n    tag_81:\n        /* \"#utility.yul\":1341:1344   */\n      dup3\n        /* \"#utility.yul\":1334:1371   */\n      mstore\n        /* \"#utility.yul\":1259:1377   */\n      pop\n      pop\n      jump\t// out\n        /* \"#utility.yul\":1383:1605   */\n    tag_13:\n        /* \"#utility.yul\":1476:1480   */\n      0x00\n        /* \"#utility.yul\":1514:1516   */\n      0x20\n        /* \"#utility.yul\":1503:1512   */\n      dup3\n        /* \"#utility.yul\":1499:1517   */\n      add\n        /* \"#utility.yul\":1491:1517   */\n      swap1\n      pop\n        /* \"#utility.yul\":1527:1598   */\n      tag_83\n        /* \"#utility.yul\":1595:1596   */\n      0x00\n        /* \"#utility.yul\":1584:1593   */\n      dup4\n        /* \"#utility.yul\":1580:1597   */\n      add\n        /* \"#utility.yul\":1571:1577   */\n      dup5\n        /* \"#utility.yul\":1527:1598   */\n      tag_55\n      jump\t// in\n    tag_83:\n        /* \"#utility.yul\":1383:1605   */\n      swap3\n      swap2\n      pop\n      pop\n      jump\t// out\n        /* \"#utility.yul\":1611:1733   */\n    tag_56:\n        /* \"#utility.yul\":1684:1708   */\n      tag_85\n        /* \"#utility.yul\":1702:1707   */\n      dup2\n        /* \"#utility.yul\":1684:1708   */\n      tag_54\n      jump\t// in\n    tag_85:\n        /* \"#utility.yul\":1677:1682   */\n      dup2\n        /* \"#utility.yul\":1674:1709   */\n      eq\n        /* \"#utility.yul\":1664:1727   */\n      tag_86\n      jumpi\n        /* \"#utility.yul\":1723:1724   */\n      0x00\n        /* \"#utility.yul\":1720:1721   */\n      dup1\n        /* \"#utility.yul\":1713:1725   */\n      revert\n        /* \"#utility.yul\":1664:1727   */\n    tag_86:\n        /* \"#utility.yul\":1611:1733   */\n      pop\n      jump\t// out\n        /* \"#utility.yul\":1739:1878   */\n    tag_57:\n        /* \"#utility.yul\":1785:1790   */\n      0x00\n        /* \"#utility.yul\":1823:1829   */\n      dup2\n        /* \"#utility.yul\":1810:1830   */\n      calldataload\n        /* \"#utility.yul\":1801:1830   */\n      swap1\n      pop\n        /* \"#utility.yul\":1839:1872   */\n      tag_88\n        /* \"#utility.yul\":1866:1871   */\n      dup2\n        /* \"#utility.yul\":1839:1872   */\n      tag_56\n      jump\t// in\n    tag_88:\n        /* \"#utility.yul\":1739:1878   */\n      swap3\n      swap2\n      pop\n      pop\n      jump\t// out\n        /* \"#utility.yul\":1884:2213   */\n    tag_16:\n        /* \"#utility.yul\":1943:1949   */\n      0x00\n        /* \"#utility.yul\":1992:1994   */\n      0x20\n        /* \"#utility.yul\":1980:1989   */\n      dup3\n        /* \"#utility.yul\":1971:1978   */\n      dup5\n        /* \"#utility.yul\":1967:1990   */\n      sub\n        /* \"#utility.yul\":1963:1995   */\n      slt\n        /* \"#utility.yul\":1960:2079   */\n      iszero\n      tag_90\n      jumpi\n        /* \"#utility.yul\":1998:2077   */\n      tag_91\n      tag_48\n      jump\t// in\n    tag_91:\n        /* \"#utility.yul\":1960:2079   */\n    tag_90:\n        /* \"#utility.yul\":2118:2119   */\n      0x00\n        /* \"#utility.yul\":2143:2196   */\n      tag_92\n        /* \"#utility.yul\":2188:2195   */\n      dup5\n        /* \"#utility.yul\":2179:2185   */\n      dup3\n        /* \"#utility.yul\":2168:2177   */\n      dup6\n        /* \"#utility.yul\":2164:2186   */\n      add\n        /* \"#utility.yul\":2143:2196   */\n      tag_57\n      jump\t// in\n    tag_92:\n        /* \"#utility.yul\":2133:2196   */\n      swap2\n      pop\n        /* \"#utility.yul\":2089:2206   */\n      pop\n        /* \"#utility.yul\":1884:2213   */\n      swap3\n      swap2\n      pop\n      pop\n      jump\t// out\n        /* \"#utility.yul\":2219:2388   */\n    tag_58:\n        /* \"#utility.yul\":2303:2314   */\n      0x00\n        /* \"#utility.yul\":2337:2343   */\n      dup3\n        /* \"#utility.yul\":2332:2335   */\n      dup3\n        /* \"#utility.yul\":2325:2344   */\n      mstore\n        /* \"#utility.yul\":2377:2381   */\n      0x20\n        /* \"#utility.yul\":2372:2375   */\n      dup3\n        /* \"#utility.yul\":2368:2382   */\n      add\n        /* \"#utility.yul\":2353:2382   */\n      swap1\n      pop\n        /* \"#utility.yul\":2219:2388   */\n      swap3\n      swap2\n      pop\n      pop\n      jump\t// out\n        /* \"#utility.yul\":2394:2570   */\n    tag_59:\n        /* \"#utility.yul\":2534:2562   */\n      0x496e73756666696369656e74207374616b656420746f6b656e73000000000000\n        /* \"#utility.yul\":2530:2531   */\n      0x00\n        /* \"#utility.yul\":2522:2528   */\n      dup3\n        /* \"#utility.yul\":2518:2532   */\n      add\n        /* \"#utility.yul\":2511:2563   */\n      mstore\n        /* \"#utility.yul\":2394:2570   */\n      pop\n      jump\t// out\n        /* \"#utility.yul\":2576:2942   */\n    tag_60:\n        /* \"#utility.yul\":2718:2721   */\n      0x00\n        /* \"#utility.yul\":2739:2806   */\n      tag_96\n        /* \"#utility.yul\":2803:2805   */\n      0x1a\n        /* \"#utility.yul\":2798:2801   */\n      dup4\n        /* \"#utility.yul\":2739:2806   */\n      tag_58\n      jump\t// in\n    tag_96:\n        /* \"#utility.yul\":2732:2806   */\n      swap2\n      pop\n        /* \"#utility.yul\":2815:2908   */\n      tag_97\n        /* \"#utility.yul\":2904:2907   */\n      dup3\n        /* \"#utility.yul\":2815:2908   */\n      tag_59\n      jump\t// in\n    tag_97:\n        /* \"#utility.yul\":2933:2935   */\n      0x20\n        /* \"#utility.yul\":2928:2931   */\n      dup3\n        /* \"#utility.yul\":2924:2936   */\n      add\n        /* \"#utility.yul\":2917:2936   */\n      swap1\n      pop\n        /* \"#utility.yul\":2576:2942   */\n      swap2\n      swap1\n      pop\n      jump\t// out\n        /* \"#utility.yul\":2948:3367   */\n    tag_32:\n        /* \"#utility.yul\":3114:3118   */\n      0x00\n        /* \"#utility.yul\":3152:3154   */\n      0x20\n        /* \"#utility.yul\":3141:3150   */\n      dup3\n        /* \"#utility.yul\":3137:3155   */\n      add\n        /* \"#utility.yul\":3129:3155   */\n      swap1\n      pop\n        /* \"#utility.yul\":3201:3210   */\n      dup2\n        /* \"#utility.yul\":3195:3199   */\n      dup2\n        /* \"#utility.yul\":3191:3211   */\n      sub\n        /* \"#utility.yul\":3187:3188   */\n      0x00\n        /* \"#utility.yul\":3176:3185   */\n      dup4\n        /* \"#utility.yul\":3172:3189   */\n      add\n        /* \"#utility.yul\":3165:3212   */\n      mstore\n        /* \"#utility.yul\":3229:3360   */\n      tag_99\n        /* \"#utility.yul\":3355:3359   */\n      dup2\n        /* \"#utility.yul\":3229:3360   */\n      tag_60\n      jump\t// in\n    tag_99:\n        /* \"#utility.yul\":3221:3360   */\n      swap1\n      pop\n        /* \"#utility.yul\":2948:3367   */\n      swap2\n      swap1\n      pop\n      jump\t// out\n        /* \"#utility.yul\":3373:3553   */\n    tag_61:\n        /* \"#utility.yul\":3421:3498   */\n      0x4e487b7100000000000000000000000000000000000000000000000000000000\n        /* \"#utility.yul\":3418:3419   */\n      0x00\n        /* \"#utility.yul\":3411:3499   */\n      mstore\n        /* \"#utility.yul\":3518:3522   */\n      0x11\n        /* \"#utility.yul\":3515:3516   */\n      0x04\n        /* \"#utility.yul\":3508:3523   */\n      mstore\n        /* \"#utility.yul\":3542:3546   */\n      0x24\n        /* \"#utility.yul\":3539:3540   */\n      0x00\n        /* \"#utility.yul\":3532:3547   */\n      revert\n        /* \"#utility.yul\":3559:3753   */\n    tag_34:\n        /* \"#utility.yul\":3599:3603   */\n      0x00\n        /* \"#utility.yul\":3619:3639   */\n      tag_102\n        /* \"#utility.yul\":3637:3638   */\n      dup3\n        /* \"#utility.yul\":3619:3639   */\n      tag_54\n      jump\t// in\n    tag_102:\n        /* \"#utility.yul\":3614:3639   */\n      swap2\n      pop\n        /* \"#utility.yul\":3653:3673   */\n      tag_103\n        /* \"#utility.yul\":3671:3672   */\n      dup4\n        /* \"#utility.yul\":3653:3673   */\n      tag_54\n      jump\t// in\n    tag_103:\n        /* \"#utility.yul\":3648:3673   */\n      swap3\n      pop\n        /* \"#utility.yul\":3697:3698   */\n      dup3\n        /* \"#utility.yul\":3694:3695   */\n      dup3\n        /* \"#utility.yul\":3690:3699   */\n      sub\n        /* \"#utility.yul\":3682:3699   */\n      swap1\n      pop\n        /* \"#utility.yul\":3721:3722   */\n      dup2\n        /* \"#utility.yul\":3715:3719   */\n      dup2\n        /* \"#utility.yul\":3712:3723   */\n      gt\n        /* \"#utility.yul\":3709:3746   */\n      iszero\n      tag_104\n      jumpi\n        /* \"#utility.yul\":3726:3744   */\n      tag_105\n      tag_61\n      jump\t// in\n    tag_105:\n        /* \"#utility.yul\":3709:3746   */\n    tag_104:\n        /* \"#utility.yul\":3559:3753   */\n      swap3\n      swap2\n      pop\n      pop\n      jump\t// out\n        /* \"#utility.yul\":3759:3950   */\n    tag_41:\n        /* \"#utility.yul\":3799:3802   */\n      0x00\n        /* \"#utility.yul\":3818:3838   */\n      tag_107\n        /* \"#utility.yul\":3836:3837   */\n      dup3\n        /* \"#utility.yul\":3818:3838   */\n      tag_54\n      jump\t// in\n    tag_107:\n        /* \"#utility.yul\":3813:3838   */\n      swap2\n      pop\n        /* \"#utility.yul\":3852:3872   */\n      tag_108\n        /* \"#utility.yul\":3870:3871   */\n      dup4\n        /* \"#utility.yul\":3852:3872   */\n      tag_54\n      jump\t// in\n    tag_108:\n        /* \"#utility.yul\":3847:3872   */\n      swap3\n      pop\n        /* \"#utility.yul\":3895:3896   */\n      dup3\n        /* \"#utility.yul\":3892:3893   */\n      dup3\n        /* \"#utility.yul\":3888:3897   */\n      add\n        /* \"#utility.yul\":3881:3897   */\n      swap1\n      pop\n        /* \"#utility.yul\":3916:3919   */\n      dup1\n        /* \"#utility.yul\":3913:3914   */\n      dup3\n        /* \"#utility.yul\":3910:3920   */\n      gt\n        /* \"#utility.yul\":3907:3943   */\n      iszero\n      tag_109\n      jumpi\n        /* \"#utility.yul\":3923:3941   */\n      tag_110\n      tag_61\n      jump\t// in\n    tag_110:\n        /* \"#utility.yul\":3907:3943   */\n    tag_109:\n        /* \"#utility.yul\":3759:3950   */\n      swap3\n      swap2\n      pop\n      pop\n      jump\t// out\n        /* \"#utility.yul\":3956:4136   */\n    tag_62:\n        /* \"#utility.yul\":4004:4081   */\n      0x4e487b7100000000000000000000000000000000000000000000000000000000\n        /* \"#utility.yul\":4001:4002   */\n      0x00\n        /* \"#utility.yul\":3994:4082   */\n      mstore\n        /* \"#utility.yul\":4101:4105   */\n      0x12\n        /* \"#utility.yul\":4098:4099   */\n      0x04\n        /* \"#utility.yul\":4091:4106   */\n      mstore\n        /* \"#utility.yul\":4125:4129   */\n      0x24\n        /* \"#utility.yul\":4122:4123   */\n      0x00\n        /* \"#utility.yul\":4115:4130   */\n      revert\n        /* \"#utility.yul\":4142:4327   */\n    tag_46:\n        /* \"#utility.yul\":4182:4183   */\n      0x00\n        /* \"#utility.yul\":4199:4219   */\n      tag_113\n        /* \"#utility.yul\":4217:4218   */\n      dup3\n        /* \"#utility.yul\":4199:4219   */\n      tag_54\n      jump\t// in\n    tag_113:\n        /* \"#utility.yul\":4194:4219   */\n      swap2\n      pop\n        /* \"#utility.yul\":4233:4253   */\n      tag_114\n        /* \"#utility.yul\":4251:4252   */\n      dup4\n        /* \"#utility.yul\":4233:4253   */\n      tag_54\n      jump\t// in\n    tag_114:\n        /* \"#utility.yul\":4228:4253   */\n      swap3\n      pop\n        /* \"#utility.yul\":4272:4273   */\n      dup3\n        /* \"#utility.yul\":4262:4297   */\n      tag_115\n      jumpi\n        /* \"#utility.yul\":4277:4295   */\n      tag_116\n      tag_62\n      jump\t// in\n    tag_116:\n        /* \"#utility.yul\":4262:4297   */\n    tag_115:\n        /* \"#utility.yul\":4319:4320   */\n      dup3\n        /* \"#utility.yul\":4316:4317   */\n      dup3\n        /* \"#utility.yul\":4312:4321   */\n      div\n        /* \"#utility.yul\":4307:4321   */\n      swap1\n      pop\n        /* \"#utility.yul\":4142:4327   */\n      swap3\n      swap2\n      pop\n      pop\n      jump\t// out\n\n    auxdata: 0xa2646970667358221220c6924b4e62a6dfada62928fcb1864c68b76788705362ce9c5fc5ed8238d16ed764736f6c634300081a0033\n}\n",
				"bytecode": {
					"linkReferences": {},
					"object": "6080604052348015600e575f80fd5b506106a18061001c5f395ff3fe608060405234801561000f575f80fd5b5060043610610055575f3560e01c80630700037d14610059578063608e4dd01461008957806364ab8675146100a55780637547c7a3146100d5578063a5b39cfb146100f1575b5f80fd5b610073600480360381019061006e9190610452565b610121565b6040516100809190610495565b60405180910390f35b6100a3600480360381019061009e91906104d8565b610136565b005b6100bf60048036038101906100ba9190610452565b610261565b6040516100cc9190610495565b60405180910390f35b6100ef60048036038101906100ea91906104d8565b6102a7565b005b61010b60048036038101906101069190610452565b610353565b6040516101189190610495565b60405180910390f35b6001602052805f5260405f205f915090505481565b805f803373ffffffffffffffffffffffffffffffffffffffff1673ffffffffffffffffffffffffffffffffffffffff1681526020019081526020015f205410156101b5576040517f08c379a00000000000000000000000000000000000000000000000000000000081526004016101ac9061055d565b60405180910390fd5b805f803373ffffffffffffffffffffffffffffffffffffffff1673ffffffffffffffffffffffffffffffffffffffff1681526020019081526020015f205f82825461020091906105a8565b9250508190555061021033610367565b3373ffffffffffffffffffffffffffffffffffffffff167f9845e367b683334e5c0b12d7b81721ac518e649376fa65e3d68324e8f34f2679826040516102569190610495565b60405180910390a250565b5f60015f8373ffffffffffffffffffffffffffffffffffffffff1673ffffffffffffffffffffffffffffffffffffffff1681526020019081526020015f20549050919050565b805f803373ffffffffffffffffffffffffffffffffffffffff1673ffffffffffffffffffffffffffffffffffffffff1681526020019081526020015f205f8282546102f291906105db565b9250508190555061030233610367565b3373ffffffffffffffffffffffffffffffffffffffff167fb539ca1e5c8d398ddf1c41c30166f33404941683be4683319b57669a93dad4ef826040516103489190610495565b60405180910390a250565b5f602052805f5260405f205f915090505481565b60645f808373ffffffffffffffffffffffffffffffffffffffff1673ffffffffffffffffffffffffffffffffffffffff1681526020019081526020015f20546103b0919061063b565b60015f8373ffffffffffffffffffffffffffffffffffffffff1673ffffffffffffffffffffffffffffffffffffffff1681526020019081526020015f208190555050565b5f80fd5b5f73ffffffffffffffffffffffffffffffffffffffff82169050919050565b5f610421826103f8565b9050919050565b61043181610417565b811461043b575f80fd5b50565b5f8135905061044c81610428565b92915050565b5f60208284031215610467576104666103f4565b5b5f6104748482850161043e565b91505092915050565b5f819050919050565b61048f8161047d565b82525050565b5f6020820190506104a85f830184610486565b92915050565b6104b78161047d565b81146104c1575f80fd5b50565b5f813590506104d2816104ae565b92915050565b5f602082840312156104ed576104ec6103f4565b5b5f6104fa848285016104c4565b91505092915050565b5f82825260208201905092915050565b7f496e73756666696369656e74207374616b656420746f6b656e730000000000005f82015250565b5f610547601a83610503565b915061055282610513565b602082019050919050565b5f6020820190508181035f8301526105748161053b565b9050919050565b7f4e487b71000000000000000000000000000000000000000000000000000000005f52601160045260245ffd5b5f6105b28261047d565b91506105bd8361047d565b92508282039050818111156105d5576105d461057b565b5b92915050565b5f6105e58261047d565b91506105f08361047d565b92508282019050808211156106085761060761057b565b5b92915050565b7f4e487b71000000000000000000000000000000000000000000000000000000005f52601260045260245ffd5b5f6106458261047d565b91506106508361047d565b9250826106605761065f61060e565b5b82820490509291505056fea2646970667358221220c6924b4e62a6dfada62928fcb1864c68b76788705362ce9c5fc5ed8238d16ed764736f6c634300081a0033",
					"opcodes": "PUSH1 0x80 PUSH1 0x40 MSTORE CALLVALUE DUP1 ISZERO PUSH1 0xE JUMPI PUSH0 DUP1 REVERT JUMPDEST POP PUSH2 0x6A1 DUP1 PUSH2 0x1C PUSH0 CODECOPY PUSH0 RETURN INVALID PUSH1 0x80 PUSH1 0x40 MSTORE CALLVALUE DUP1 ISZERO PUSH2 0xF JUMPI PUSH0 DUP1 REVERT JUMPDEST POP PUSH1 0x4 CALLDATASIZE LT PUSH2 0x55 JUMPI PUSH0 CALLDATALOAD PUSH1 0xE0 SHR DUP1 PUSH4 0x700037D EQ PUSH2 0x59 JUMPI DUP1 PUSH4 0x608E4DD0 EQ PUSH2 0x89 JUMPI DUP1 PUSH4 0x64AB8675 EQ PUSH2 0xA5 JUMPI DUP1 PUSH4 0x7547C7A3 EQ PUSH2 0xD5 JUMPI DUP1 PUSH4 0xA5B39CFB EQ PUSH2 0xF1 JUMPI JUMPDEST PUSH0 DUP1 REVERT JUMPDEST PUSH2 0x73 PUSH1 0x4 DUP1 CALLDATASIZE SUB DUP2 ADD SWAP1 PUSH2 0x6E SWAP2 SWAP1 PUSH2 0x452 JUMP JUMPDEST PUSH2 0x121 JUMP JUMPDEST PUSH1 0x40 MLOAD PUSH2 0x80 SWAP2 SWAP1 PUSH2 0x495 JUMP JUMPDEST PUSH1 0x40 MLOAD DUP1 SWAP2 SUB SWAP1 RETURN JUMPDEST PUSH2 0xA3 PUSH1 0x4 DUP1 CALLDATASIZE SUB DUP2 ADD SWAP1 PUSH2 0x9E SWAP2 SWAP1 PUSH2 0x4D8 JUMP JUMPDEST PUSH2 0x136 JUMP JUMPDEST STOP JUMPDEST PUSH2 0xBF PUSH1 0x4 DUP1 CALLDATASIZE SUB DUP2 ADD SWAP1 PUSH2 0xBA SWAP2 SWAP1 PUSH2 0x452 JUMP JUMPDEST PUSH2 0x261 JUMP JUMPDEST PUSH1 0x40 MLOAD PUSH2 0xCC SWAP2 SWAP1 PUSH2 0x495 JUMP JUMPDEST PUSH1 0x40 MLOAD DUP1 SWAP2 SUB SWAP1 RETURN JUMPDEST PUSH2 0xEF PUSH1 0x4 DUP1 CALLDATASIZE SUB DUP2 ADD SWAP1 PUSH2 0xEA SWAP2 SWAP1 PUSH2 0x4D8 JUMP JUMPDEST PUSH2 0x2A7 JUMP JUMPDEST STOP JUMPDEST PUSH2 0x10B PUSH1 0x4 DUP1 CALLDATASIZE SUB DUP2 ADD SWAP1 PUSH2 0x106 SWAP2 SWAP1 PUSH2 0x452 JUMP JUMPDEST PUSH2 0x353 JUMP JUMPDEST PUSH1 0x40 MLOAD PUSH2 0x118 SWAP2 SWAP1 PUSH2 0x495 JUMP JUMPDEST PUSH1 0x40 MLOAD DUP1 SWAP2 SUB SWAP1 RETURN JUMPDEST PUSH1 0x1 PUSH1 0x20 MSTORE DUP1 PUSH0 MSTORE PUSH1 0x40 PUSH0 KECCAK256 PUSH0 SWAP2 POP SWAP1 POP SLOAD DUP2 JUMP JUMPDEST DUP1 PUSH0 DUP1 CALLER PUSH20 0xFFFFFFFFFFFFFFFFFFFFFFFFFFFFFFFFFFFFFFFF AND PUSH20 0xFFFFFFFFFFFFFFFFFFFFFFFFFFFFFFFFFFFFFFFF AND DUP2 MSTORE PUSH1 0x20 ADD SWAP1 DUP2 MSTORE PUSH1 0x20 ADD PUSH0 KECCAK256 SLOAD LT ISZERO PUSH2 0x1B5 JUMPI PUSH1 0x40 MLOAD PUSH32 0x8C379A000000000000000000000000000000000000000000000000000000000 DUP2 MSTORE PUSH1 0x4 ADD PUSH2 0x1AC SWAP1 PUSH2 0x55D JUMP JUMPDEST PUSH1 0x40 MLOAD DUP1 SWAP2 SUB SWAP1 REVERT JUMPDEST DUP1 PUSH0 DUP1 CALLER PUSH20 0xFFFFFFFFFFFFFFFFFFFFFFFFFFFFFFFFFFFFFFFF AND PUSH20 0xFFFFFFFFFFFFFFFFFFFFFFFFFFFFFFFFFFFFFFFF AND DUP2 MSTORE PUSH1 0x20 ADD SWAP1 DUP2 MSTORE PUSH1 0x20 ADD PUSH0 KECCAK256 PUSH0 DUP3 DUP3 SLOAD PUSH2 0x200 SWAP2 SWAP1 PUSH2 0x5A8 JUMP JUMPDEST SWAP3 POP POP DUP2 SWAP1 SSTORE POP PUSH2 0x210 CALLER PUSH2 0x367 JUMP JUMPDEST CALLER PUSH20 0xFFFFFFFFFFFFFFFFFFFFFFFFFFFFFFFFFFFFFFFF AND PUSH32 0x9845E367B683334E5C0B12D7B81721AC518E649376FA65E3D68324E8F34F2679 DUP3 PUSH1 0x40 MLOAD PUSH2 0x256 SWAP2 SWAP1 PUSH2 0x495 JUMP JUMPDEST PUSH1 0x40 MLOAD DUP1 SWAP2 SUB SWAP1 LOG2 POP JUMP JUMPDEST PUSH0 PUSH1 0x1 PUSH0 DUP4 PUSH20 0xFFFFFFFFFFFFFFFFFFFFFFFFFFFFFFFFFFFFFFFF AND PUSH20 0xFFFFFFFFFFFFFFFFFFFFFFFFFFFFFFFFFFFFFFFF AND DUP2 MSTORE PUSH1 0x20 ADD SWAP1 DUP2 MSTORE PUSH1 0x20 ADD PUSH0 KECCAK256 SLOAD SWAP1 POP SWAP2 SWAP1 POP JUMP JUMPDEST DUP1 PUSH0 DUP1 CALLER PUSH20 0xFFFFFFFFFFFFFFFFFFFFFFFFFFFFFFFFFFFFFFFF AND PUSH20 0xFFFFFFFFFFFFFFFFFFFFFFFFFFFFFFFFFFFFFFFF AND DUP2 MSTORE PUSH1 0x20 ADD SWAP1 DUP2 MSTORE PUSH1 0x20 ADD PUSH0 KECCAK256 PUSH0 DUP3 DUP3 SLOAD PUSH2 0x2F2 SWAP2 SWAP1 PUSH2 0x5DB JUMP JUMPDEST SWAP3 POP POP DUP2 SWAP1 SSTORE POP PUSH2 0x302 CALLER PUSH2 0x367 JUMP JUMPDEST CALLER PUSH20 0xFFFFFFFFFFFFFFFFFFFFFFFFFFFFFFFFFFFFFFFF AND PUSH32 0xB539CA1E5C8D398DDF1C41C30166F33404941683BE4683319B57669A93DAD4EF DUP3 PUSH1 0x40 MLOAD PUSH2 0x348 SWAP2 SWAP1 PUSH2 0x495 JUMP JUMPDEST PUSH1 0x40 MLOAD DUP1 SWAP2 SUB SWAP1 LOG2 POP JUMP JUMPDEST PUSH0 PUSH1 0x20 MSTORE DUP1 PUSH0 MSTORE PUSH1 0x40 PUSH0 KECCAK256 PUSH0 SWAP2 POP SWAP1 POP SLOAD DUP2 JUMP JUMPDEST PUSH1 0x64 PUSH0 DUP1 DUP4 PUSH20 0xFFFFFFFFFFFFFFFFFFFFFFFFFFFFFFFFFFFFFFFF AND PUSH20 0xFFFFFFFFFFFFFFFFFFFFFFFFFFFFFFFFFFFFFFFF AND DUP2 MSTORE PUSH1 0x20 ADD SWAP1 DUP2 MSTORE PUSH1 0x20 ADD PUSH0 KECCAK256 SLOAD PUSH2 0x3B0 SWAP2 SWAP1 PUSH2 0x63B JUMP JUMPDEST PUSH1 0x1 PUSH0 DUP4 PUSH20 0xFFFFFFFFFFFFFFFFFFFFFFFFFFFFFFFFFFFFFFFF AND PUSH20 0xFFFFFFFFFFFFFFFFFFFFFFFFFFFFFFFFFFFFFFFF AND DUP2 MSTORE PUSH1 0x20 ADD SWAP1 DUP2 MSTORE PUSH1 0x20 ADD PUSH0 KECCAK256 DUP2 SWAP1 SSTORE POP POP JUMP JUMPDEST PUSH0 DUP1 REVERT JUMPDEST PUSH0 PUSH20 0xFFFFFFFFFFFFFFFFFFFFFFFFFFFFFFFFFFFFFFFF DUP3 AND SWAP1 POP SWAP2 SWAP1 POP JUMP JUMPDEST PUSH0 PUSH2 0x421 DUP3 PUSH2 0x3F8 JUMP JUMPDEST SWAP1 POP SWAP2 SWAP1 POP JUMP JUMPDEST PUSH2 0x431 DUP2 PUSH2 0x417 JUMP JUMPDEST DUP2 EQ PUSH2 0x43B JUMPI PUSH0 DUP1 REVERT JUMPDEST POP JUMP JUMPDEST PUSH0 DUP2 CALLDATALOAD SWAP1 POP PUSH2 0x44C DUP2 PUSH2 0x428 JUMP JUMPDEST SWAP3 SWAP2 POP POP JUMP JUMPDEST PUSH0 PUSH1 0x20 DUP3 DUP5 SUB SLT ISZERO PUSH2 0x467 JUMPI PUSH2 0x466 PUSH2 0x3F4 JUMP JUMPDEST JUMPDEST PUSH0 PUSH2 0x474 DUP5 DUP3 DUP6 ADD PUSH2 0x43E JUMP JUMPDEST SWAP2 POP POP SWAP3 SWAP2 POP POP JUMP JUMPDEST PUSH0 DUP2 SWAP1 POP SWAP2 SWAP1 POP JUMP JUMPDEST PUSH2 0x48F DUP2 PUSH2 0x47D JUMP JUMPDEST DUP3 MSTORE POP POP JUMP JUMPDEST PUSH0 PUSH1 0x20 DUP3 ADD SWAP1 POP PUSH2 0x4A8 PUSH0 DUP4 ADD DUP5 PUSH2 0x486 JUMP JUMPDEST SWAP3 SWAP2 POP POP JUMP JUMPDEST PUSH2 0x4B7 DUP2 PUSH2 0x47D JUMP JUMPDEST DUP2 EQ PUSH2 0x4C1 JUMPI PUSH0 DUP1 REVERT JUMPDEST POP JUMP JUMPDEST PUSH0 DUP2 CALLDATALOAD SWAP1 POP PUSH2 0x4D2 DUP2 PUSH2 0x4AE JUMP JUMPDEST SWAP3 SWAP2 POP POP JUMP JUMPDEST PUSH0 PUSH1 0x20 DUP3 DUP5 SUB SLT ISZERO PUSH2 0x4ED JUMPI PUSH2 0x4EC PUSH2 0x3F4 JUMP JUMPDEST JUMPDEST PUSH0 PUSH2 0x4FA DUP5 DUP3 DUP6 ADD PUSH2 0x4C4 JUMP JUMPDEST SWAP2 POP POP SWAP3 SWAP2 POP POP JUMP JUMPDEST PUSH0 DUP3 DUP3 MSTORE PUSH1 0x20 DUP3 ADD SWAP1 POP SWAP3 SWAP2 POP POP JUMP JUMPDEST PUSH32 0x496E73756666696369656E74207374616B656420746F6B656E73000000000000 PUSH0 DUP3 ADD MSTORE POP JUMP JUMPDEST PUSH0 PUSH2 0x547 PUSH1 0x1A DUP4 PUSH2 0x503 JUMP JUMPDEST SWAP2 POP PUSH2 0x552 DUP3 PUSH2 0x513 JUMP JUMPDEST PUSH1 0x20 DUP3 ADD SWAP1 POP SWAP2 SWAP1 POP JUMP JUMPDEST PUSH0 PUSH1 0x20 DUP3 ADD SWAP1 POP DUP2 DUP2 SUB PUSH0 DUP4 ADD MSTORE PUSH2 0x574 DUP2 PUSH2 0x53B JUMP JUMPDEST SWAP1 POP SWAP2 SWAP1 POP JUMP JUMPDEST PUSH32 0x4E487B7100000000000000000000000000000000000000000000000000000000 PUSH0 MSTORE PUSH1 0x11 PUSH1 0x4 MSTORE PUSH1 0x24 PUSH0 REVERT JUMPDEST PUSH0 PUSH2 0x5B2 DUP3 PUSH2 0x47D JUMP JUMPDEST SWAP2 POP PUSH2 0x5BD DUP4 PUSH2 0x47D JUMP JUMPDEST SWAP3 POP DUP3 DUP3 SUB SWAP1 POP DUP2 DUP2 GT ISZERO PUSH2 0x5D5 JUMPI PUSH2 0x5D4 PUSH2 0x57B JUMP JUMPDEST JUMPDEST SWAP3 SWAP2 POP POP JUMP JUMPDEST PUSH0 PUSH2 0x5E5 DUP3 PUSH2 0x47D JUMP JUMPDEST SWAP2 POP PUSH2 0x5F0 DUP4 PUSH2 0x47D JUMP JUMPDEST SWAP3 POP DUP3 DUP3 ADD SWAP1 POP DUP1 DUP3 GT ISZERO PUSH2 0x608 JUMPI PUSH2 0x607 PUSH2 0x57B JUMP JUMPDEST JUMPDEST SWAP3 SWAP2 POP POP JUMP JUMPDEST PUSH32 0x4E487B7100000000000000000000000000000000000000000000000000000000 PUSH0 MSTORE PUSH1 0x12 PUSH1 0x4 MSTORE PUSH1 0x24 PUSH0 REVERT JUMPDEST PUSH0 PUSH2 0x645 DUP3 PUSH2 0x47D JUMP JUMPDEST SWAP2 POP PUSH2 0x650 DUP4 PUSH2 0x47D JUMP JUMPDEST SWAP3 POP DUP3 PUSH2 0x660 JUMPI PUSH2 0x65F PUSH2 0x60E JUMP JUMPDEST JUMPDEST DUP3 DUP3 DIV SWAP1 POP SWAP3 SWAP2 POP POP JUMP INVALID LOG2 PUSH5 0x6970667358 0x22 SLT KECCAK256 0xC6 SWAP3 0x4B 0x4E PUSH3 0xA6DFAD 0xA6 0x29 0x28 0xFC 0xB1 DUP7 0x4C PUSH9 0xB76788705362CE9C5F 0xC5 0xED DUP3 CODESIZE 0xD1 PUSH15 0xD764736F6C634300081A0033000000 "
				},
				"gasEstimates": {
					"creation": {
						"codeDepositCost": "339400",
						"executionCost": "378",
						"totalCost": "339778"
					},
					"external": {
						"calculateRewards(address)": "2851",
						"rewards(address)": "2780",
						"stakeTokens(uint256)": "infinite",
						"stakedTokens(address)": "2867",
						"unstakeTokens(uint256)": "infinite"
					},
					"internal": {
						"_calculateRewards(address)": "infinite"
					}
				},
				"methodIdentifiers": {
					"calculateRewards(address)": "64ab8675",
					"rewards(address)": "0700037d",
					"stakeTokens(uint256)": "7547c7a3",
					"stakedTokens(address)": "a5b39cfb",
					"unstakeTokens(uint256)": "608e4dd0"
				}
			},
			"storageLayout": {
				"storage": [
					{
						"astId": 5,
						"contract": "contracts/Staking.sol:Staking",
						"label": "stakedTokens",
						"offset": 0,
						"slot": "0",
						"type": "t_mapping(t_address,t_uint256)"
					},
					{
						"astId": 9,
						"contract": "contracts/Staking.sol:Staking",
						"label": "rewards",
						"offset": 0,
						"slot": "1",
						"type": "t_mapping(t_address,t_uint256)"
					}
				],
				"types": {
					"t_address": {
						"encoding": "inplace",
						"label": "address",
						"numberOfBytes": "20"
					},
					"t_mapping(t_address,t_uint256)": {
						"encoding": "mapping",
						"key": "t_address",
						"label": "mapping(address => uint256)",
						"numberOfBytes": "32",
						"value": "t_uint256"
					},
					"t_uint256": {
						"encoding": "inplace",
						"label": "uint256",
						"numberOfBytes": "32"
					}
				}
			},
			"userdoc": {
				"kind": "user",
				"methods": {},
				"version": 1
			}
		}
	}
}