{
	"contracts/Governance.sol": {
		"Governance": {
			"abi": [
				{
					"anonymous": false,
					"inputs": [
						{
							"indexed": true,
							"internalType": "uint256",
							"name": "proposalId",
							"type": "uint256"
						},
						{
							"indexed": false,
							"internalType": "string",
							"name": "description",
							"type": "string"
						}
					],
					"name": "ProposalCreated",
					"type": "event"
				},
				{
					"anonymous": false,
					"inputs": [
						{
							"indexed": true,
							"internalType": "uint256",
							"name": "proposalId",
							"type": "uint256"
						}
					],
					"name": "ProposalExecuted",
					"type": "event"
				},
				{
					"anonymous": false,
					"inputs": [
						{
							"indexed": true,
							"internalType": "uint256",
							"name": "proposalId",
							"type": "uint256"
						},
						{
							"indexed": true,
							"internalType": "address",
							"name": "voter",
							"type": "address"
						},
						{
							"indexed": false,
							"internalType": "uint256",
							"name": "weight",
							"type": "uint256"
						}
					],
					"name": "Voted",
					"type": "event"
				},
				{
					"inputs": [
						{
							"internalType": "string",
							"name": "description",
							"type": "string"
						}
					],
					"name": "createProposal",
					"outputs": [],
					"stateMutability": "nonpayable",
					"type": "function"
				},
				{
					"inputs": [
						{
							"internalType": "uint256",
							"name": "proposalId",
							"type": "uint256"
						}
					],
					"name": "executeProposal",
					"outputs": [],
					"stateMutability": "nonpayable",
					"type": "function"
				},
				{
					"inputs": [
						{
							"internalType": "uint256",
							"name": "",
							"type": "uint256"
						}
					],
					"name": "proposals",
					"outputs": [
						{
							"internalType": "string",
							"name": "description",
							"type": "string"
						},
						{
							"internalType": "uint256",
							"name": "voteCount",
							"type": "uint256"
						},
						{
							"internalType": "bool",
							"name": "executed",
							"type": "bool"
						}
					],
					"stateMutability": "view",
					"type": "function"
				},
				{
					"inputs": [
						{
							"internalType": "uint256",
							"name": "proposalId",
							"type": "uint256"
						}
					],
					"name": "vote",
					"outputs": [],
					"stateMutability": "nonpayable",
					"type": "function"
				},
				{
					"inputs": [
						{
							"internalType": "address",
							"name": "",
							"type": "address"
						}
					],
					"name": "voters",
					"outputs": [
						{
							"internalType": "bool",
							"name": "voted",
							"type": "bool"
						},
						{
							"internalType": "uint256",
							"name": "weight",
							"type": "uint256"
						}
					],
					"stateMutability": "view",
					"type": "function"
				}
			],
			"devdoc": {
				"kind": "dev",
				"methods": {},
				"version": 1
			},
			"evm": {
				"assembly": "    /* \"contracts/Governance.sol\":61:1692  contract Governance {... */\n  mstore(0x40, 0x80)\n  callvalue\n  dup1\n  iszero\n  tag_1\n  jumpi\n  0x00\n  dup1\n  revert\ntag_1:\n  pop\n  dataSize(sub_0)\n  dup1\n  dataOffset(sub_0)\n  0x00\n  codecopy\n  0x00\n  return\nstop\n\nsub_0: assembly {\n        /* \"contracts/Governance.sol\":61:1692  contract Governance {... */\n      mstore(0x40, 0x80)\n      callvalue\n      dup1\n      iszero\n      tag_1\n      jumpi\n      0x00\n      dup1\n      revert\n    tag_1:\n      pop\n      jumpi(tag_2, lt(calldatasize, 0x04))\n      shr(0xe0, calldataload(0x00))\n      dup1\n      0x0121b93f\n      eq\n      tag_3\n      jumpi\n      dup1\n      0x013cf08b\n      eq\n      tag_4\n      jumpi\n      dup1\n      0x0d61b519\n      eq\n      tag_5\n      jumpi\n      dup1\n      0x49c2a1a6\n      eq\n      tag_6\n      jumpi\n      dup1\n      0xa3ec138d\n      eq\n      tag_7\n      jumpi\n    tag_2:\n      0x00\n      dup1\n      revert\n        /* \"contracts/Governance.sol\":862:1300  function vote(uint256 proposalId) public {... */\n    tag_3:\n      tag_8\n      0x04\n      dup1\n      calldatasize\n      sub\n      dup2\n      add\n      swap1\n      tag_9\n      swap2\n      swap1\n      tag_10\n      jump\t// in\n    tag_9:\n      tag_11\n      jump\t// in\n    tag_8:\n      stop\n        /* \"contracts/Governance.sol\":276:303  Proposal[] public proposals */\n    tag_4:\n      tag_12\n      0x04\n      dup1\n      calldatasize\n      sub\n      dup2\n      add\n      swap1\n      tag_13\n      swap2\n      swap1\n      tag_10\n      jump\t// in\n    tag_13:\n      tag_14\n      jump\t// in\n    tag_12:\n      mload(0x40)\n      tag_15\n      swap4\n      swap3\n      swap2\n      swap1\n      tag_16\n      jump\t// in\n    tag_15:\n      mload(0x40)\n      dup1\n      swap2\n      sub\n      swap1\n      return\n        /* \"contracts/Governance.sol\":1308:1689  function executeProposal(uint256 proposalId) public {... */\n    tag_5:\n      tag_17\n      0x04\n      dup1\n      calldatasize\n      sub\n      dup2\n      add\n      swap1\n      tag_18\n      swap2\n      swap1\n      tag_10\n      jump\t// in\n    tag_18:\n      tag_19\n      jump\t// in\n    tag_17:\n      stop\n        /* \"contracts/Governance.sol\":578:854  function createProposal(string memory description) public {... */\n    tag_6:\n      tag_20\n      0x04\n      dup1\n      calldatasize\n      sub\n      dup2\n      add\n      swap1\n      tag_21\n      swap2\n      swap1\n      tag_22\n      jump\t// in\n    tag_21:\n      tag_23\n      jump\t// in\n    tag_20:\n      stop\n        /* \"contracts/Governance.sol\":310:349  mapping(address => Voter) public voters */\n    tag_7:\n      tag_24\n      0x04\n      dup1\n      calldatasize\n      sub\n      dup2\n      add\n      swap1\n      tag_25\n      swap2\n      swap1\n      tag_26\n      jump\t// in\n    tag_25:\n      tag_27\n      jump\t// in\n    tag_24:\n      mload(0x40)\n      tag_28\n      swap3\n      swap2\n      swap1\n      tag_29\n      jump\t// in\n    tag_28:\n      mload(0x40)\n      dup1\n      swap2\n      sub\n      swap1\n      return\n        /* \"contracts/Governance.sol\":862:1300  function vote(uint256 proposalId) public {... */\n    tag_11:\n        /* \"contracts/Governance.sol\":914:934  Voter storage sender */\n      0x00\n        /* \"contracts/Governance.sol\":937:943  voters */\n      0x01\n        /* \"contracts/Governance.sol\":937:955  voters[msg.sender] */\n      0x00\n        /* \"contracts/Governance.sol\":944:954  msg.sender */\n      caller\n        /* \"contracts/Governance.sol\":937:955  voters[msg.sender] */\n      0xffffffffffffffffffffffffffffffffffffffff\n      and\n      0xffffffffffffffffffffffffffffffffffffffff\n      and\n      dup2\n      mstore\n      0x20\n      add\n      swap1\n      dup2\n      mstore\n      0x20\n      add\n      0x00\n      keccak256\n        /* \"contracts/Governance.sol\":914:955  Voter storage sender = voters[msg.sender] */\n      swap1\n      pop\n        /* \"contracts/Governance.sol\":975:981  sender */\n      dup1\n        /* \"contracts/Governance.sol\":975:987  sender.voted */\n      0x00\n      add\n      0x00\n      swap1\n      sload\n      swap1\n      0x0100\n      exp\n      swap1\n      div\n      0xff\n      and\n        /* \"contracts/Governance.sol\":974:987  !sender.voted */\n      iszero\n        /* \"contracts/Governance.sol\":966:1005  require(!sender.voted, \"Already voted\") */\n      tag_31\n      jumpi\n      mload(0x40)\n      0x08c379a000000000000000000000000000000000000000000000000000000000\n      dup2\n      mstore\n      0x04\n      add\n      tag_32\n      swap1\n      tag_33\n      jump\t// in\n    tag_32:\n      mload(0x40)\n      dup1\n      swap2\n      sub\n      swap1\n      revert\n    tag_31:\n        /* \"contracts/Governance.sol\":1037:1046  proposals */\n      0x00\n        /* \"contracts/Governance.sol\":1037:1053  proposals.length */\n      dup1\n      sload\n      swap1\n      pop\n        /* \"contracts/Governance.sol\":1024:1034  proposalId */\n      dup3\n        /* \"contracts/Governance.sol\":1024:1053  proposalId < proposals.length */\n      lt\n        /* \"contracts/Governance.sol\":1016:1074  require(proposalId < proposals.length, \"Invalid proposal\") */\n      tag_34\n      jumpi\n      mload(0x40)\n      0x08c379a000000000000000000000000000000000000000000000000000000000\n      dup2\n      mstore\n      0x04\n      add\n      tag_35\n      swap1\n      tag_36\n      jump\t// in\n    tag_35:\n      mload(0x40)\n      dup1\n      swap2\n      sub\n      swap1\n      revert\n    tag_34:\n        /* \"contracts/Governance.sol\":1102:1106  true */\n      0x01\n        /* \"contracts/Governance.sol\":1087:1093  sender */\n      dup2\n        /* \"contracts/Governance.sol\":1087:1099  sender.voted */\n      0x00\n      add\n      0x00\n        /* \"contracts/Governance.sol\":1087:1106  sender.voted = true */\n      0x0100\n      exp\n      dup2\n      sload\n      dup2\n      0xff\n      mul\n      not\n      and\n      swap1\n      dup4\n      iszero\n      iszero\n      mul\n      or\n      swap1\n      sstore\n      pop\n        /* \"contracts/Governance.sol\":1133:1134  1 */\n      0x01\n        /* \"contracts/Governance.sol\":1117:1123  sender */\n      dup2\n        /* \"contracts/Governance.sol\":1117:1130  sender.weight */\n      0x01\n      add\n        /* \"contracts/Governance.sol\":1117:1134  sender.weight = 1 */\n      dup2\n      swap1\n      sstore\n      pop\n        /* \"contracts/Governance.sol\":1217:1223  sender */\n      dup1\n        /* \"contracts/Governance.sol\":1217:1230  sender.weight */\n      0x01\n      add\n      sload\n        /* \"contracts/Governance.sol\":1182:1191  proposals */\n      0x00\n        /* \"contracts/Governance.sol\":1192:1202  proposalId */\n      dup4\n        /* \"contracts/Governance.sol\":1182:1203  proposals[proposalId] */\n      dup2\n      sload\n      dup2\n      lt\n      tag_37\n      jumpi\n      tag_38\n      tag_39\n      jump\t// in\n    tag_38:\n    tag_37:\n      swap1\n      0x00\n      mstore\n      keccak256(0x00, 0x20)\n      swap1\n      0x03\n      mul\n      add\n        /* \"contracts/Governance.sol\":1182:1213  proposals[proposalId].voteCount */\n      0x01\n      add\n      0x00\n        /* \"contracts/Governance.sol\":1182:1230  proposals[proposalId].voteCount += sender.weight */\n      dup3\n      dup3\n      sload\n      tag_41\n      swap2\n      swap1\n      tag_42\n      jump\t// in\n    tag_41:\n      swap3\n      pop\n      pop\n      dup2\n      swap1\n      sstore\n      pop\n        /* \"contracts/Governance.sol\":1266:1276  msg.sender */\n      caller\n        /* \"contracts/Governance.sol\":1248:1292  Voted(proposalId, msg.sender, sender.weight) */\n      0xffffffffffffffffffffffffffffffffffffffff\n      and\n        /* \"contracts/Governance.sol\":1254:1264  proposalId */\n      dup3\n        /* \"contracts/Governance.sol\":1248:1292  Voted(proposalId, msg.sender, sender.weight) */\n      0x1abe610cf2bf87e57dcc1181fcf5ac0934e843d8344ab9eed6e86c799f62585e\n        /* \"contracts/Governance.sol\":1278:1284  sender */\n      dup4\n        /* \"contracts/Governance.sol\":1278:1291  sender.weight */\n      0x01\n      add\n      sload\n        /* \"contracts/Governance.sol\":1248:1292  Voted(proposalId, msg.sender, sender.weight) */\n      mload(0x40)\n      tag_43\n      swap2\n      swap1\n      tag_44\n      jump\t// in\n    tag_43:\n      mload(0x40)\n      dup1\n      swap2\n      sub\n      swap1\n      log3\n        /* \"contracts/Governance.sol\":903:1300  {... */\n      pop\n        /* \"contracts/Governance.sol\":862:1300  function vote(uint256 proposalId) public {... */\n      pop\n      jump\t// out\n        /* \"contracts/Governance.sol\":276:303  Proposal[] public proposals */\n    tag_14:\n      0x00\n      dup2\n      dup2\n      sload\n      dup2\n      lt\n      tag_45\n      jumpi\n      0x00\n      dup1\n      revert\n    tag_45:\n      swap1\n      0x00\n      mstore\n      keccak256(0x00, 0x20)\n      swap1\n      0x03\n      mul\n      add\n      0x00\n      swap2\n      pop\n      swap1\n      pop\n      dup1\n      0x00\n      add\n      dup1\n      sload\n      tag_47\n      swap1\n      tag_48\n      jump\t// in\n    tag_47:\n      dup1\n      0x1f\n      add\n      0x20\n      dup1\n      swap2\n      div\n      mul\n      0x20\n      add\n      mload(0x40)\n      swap1\n      dup2\n      add\n      0x40\n      mstore\n      dup1\n      swap3\n      swap2\n      swap1\n      dup2\n      dup2\n      mstore\n      0x20\n      add\n      dup3\n      dup1\n      sload\n      tag_49\n      swap1\n      tag_48\n      jump\t// in\n    tag_49:\n      dup1\n      iszero\n      tag_50\n      jumpi\n      dup1\n      0x1f\n      lt\n      tag_51\n      jumpi\n      0x0100\n      dup1\n      dup4\n      sload\n      div\n      mul\n      dup4\n      mstore\n      swap2\n      0x20\n      add\n      swap2\n      jump(tag_50)\n    tag_51:\n      dup3\n      add\n      swap2\n      swap1\n      0x00\n      mstore\n      keccak256(0x00, 0x20)\n      swap1\n    tag_52:\n      dup2\n      sload\n      dup2\n      mstore\n      swap1\n      0x01\n      add\n      swap1\n      0x20\n      add\n      dup1\n      dup4\n      gt\n      tag_52\n      jumpi\n      dup3\n      swap1\n      sub\n      0x1f\n      and\n      dup3\n      add\n      swap2\n    tag_50:\n      pop\n      pop\n      pop\n      pop\n      pop\n      swap1\n      dup1\n      0x01\n      add\n      sload\n      swap1\n      dup1\n      0x02\n      add\n      0x00\n      swap1\n      sload\n      swap1\n      0x0100\n      exp\n      swap1\n      div\n      0xff\n      and\n      swap1\n      pop\n      dup4\n      jump\t// out\n        /* \"contracts/Governance.sol\":1308:1689  function executeProposal(uint256 proposalId) public {... */\n    tag_19:\n        /* \"contracts/Governance.sol\":1371:1396  Proposal storage proposal */\n      0x00\n        /* \"contracts/Governance.sol\":1399:1408  proposals */\n      dup1\n        /* \"contracts/Governance.sol\":1409:1419  proposalId */\n      dup3\n        /* \"contracts/Governance.sol\":1399:1420  proposals[proposalId] */\n      dup2\n      sload\n      dup2\n      lt\n      tag_54\n      jumpi\n      tag_55\n      tag_39\n      jump\t// in\n    tag_55:\n    tag_54:\n      swap1\n      0x00\n      mstore\n      keccak256(0x00, 0x20)\n      swap1\n      0x03\n      mul\n      add\n        /* \"contracts/Governance.sol\":1371:1420  Proposal storage proposal = proposals[proposalId] */\n      swap1\n      pop\n        /* \"contracts/Governance.sol\":1440:1448  proposal */\n      dup1\n        /* \"contracts/Governance.sol\":1440:1457  proposal.executed */\n      0x02\n      add\n      0x00\n      swap1\n      sload\n      swap1\n      0x0100\n      exp\n      swap1\n      div\n      0xff\n      and\n        /* \"contracts/Governance.sol\":1439:1457  !proposal.executed */\n      iszero\n        /* \"contracts/Governance.sol\":1431:1478  require(!proposal.executed, \"Already executed\") */\n      tag_57\n      jumpi\n      mload(0x40)\n      0x08c379a000000000000000000000000000000000000000000000000000000000\n      dup2\n      mstore\n      0x04\n      add\n      tag_58\n      swap1\n      tag_59\n      jump\t// in\n    tag_58:\n      mload(0x40)\n      dup1\n      swap2\n      sub\n      swap1\n      revert\n    tag_57:\n        /* \"contracts/Governance.sol\":1518:1519  0 */\n      0x00\n        /* \"contracts/Governance.sol\":1497:1505  proposal */\n      dup2\n        /* \"contracts/Governance.sol\":1497:1515  proposal.voteCount */\n      0x01\n      add\n      sload\n        /* \"contracts/Governance.sol\":1497:1519  proposal.voteCount > 0 */\n      gt\n        /* \"contracts/Governance.sol\":1489:1540  require(proposal.voteCount > 0, \"Not enough votes\") */\n      tag_60\n      jumpi\n      mload(0x40)\n      0x08c379a000000000000000000000000000000000000000000000000000000000\n      dup2\n      mstore\n      0x04\n      add\n      tag_61\n      swap1\n      tag_62\n      jump\t// in\n    tag_61:\n      mload(0x40)\n      dup1\n      swap2\n      sub\n      swap1\n      revert\n    tag_60:\n        /* \"contracts/Governance.sol\":1573:1577  true */\n      0x01\n        /* \"contracts/Governance.sol\":1553:1561  proposal */\n      dup2\n        /* \"contracts/Governance.sol\":1553:1570  proposal.executed */\n      0x02\n      add\n      0x00\n        /* \"contracts/Governance.sol\":1553:1577  proposal.executed = true */\n      0x0100\n      exp\n      dup2\n      sload\n      dup2\n      0xff\n      mul\n      not\n      and\n      swap1\n      dup4\n      iszero\n      iszero\n      mul\n      or\n      swap1\n      sstore\n      pop\n        /* \"contracts/Governance.sol\":1610:1620  proposalId */\n      dup2\n        /* \"contracts/Governance.sol\":1593:1621  ProposalExecuted(proposalId) */\n      0x712ae1383f79ac853f8d882153778e0260ef8f03b504e2866e0593e04d2b291f\n      mload(0x40)\n      mload(0x40)\n      dup1\n      swap2\n      sub\n      swap1\n      log2\n        /* \"contracts/Governance.sol\":1360:1689  {... */\n      pop\n        /* \"contracts/Governance.sol\":1308:1689  function executeProposal(uint256 proposalId) public {... */\n      pop\n      jump\t// out\n        /* \"contracts/Governance.sol\":578:854  function createProposal(string memory description) public {... */\n    tag_23:\n        /* \"contracts/Governance.sol\":647:656  proposals */\n      0x00\n        /* \"contracts/Governance.sol\":662:779  Proposal({... */\n      mload(0x40)\n      dup1\n      0x60\n      add\n      0x40\n      mstore\n      dup1\n        /* \"contracts/Governance.sol\":699:710  description */\n      dup4\n        /* \"contracts/Governance.sol\":662:779  Proposal({... */\n      dup2\n      mstore\n      0x20\n      add\n        /* \"contracts/Governance.sol\":736:737  0 */\n      0x00\n        /* \"contracts/Governance.sol\":662:779  Proposal({... */\n      dup2\n      mstore\n      0x20\n      add\n        /* \"contracts/Governance.sol\":762:767  false */\n      0x00\n        /* \"contracts/Governance.sol\":662:779  Proposal({... */\n      iszero\n      iszero\n      dup2\n      mstore\n      pop\n        /* \"contracts/Governance.sol\":647:780  proposals.push(Proposal({... */\n      swap1\n      dup1\n      0x01\n      dup2\n      sload\n      add\n      dup1\n      dup3\n      sstore\n      dup1\n      swap2\n      pop\n      pop\n      0x01\n      swap1\n      sub\n      swap1\n      0x00\n      mstore\n      keccak256(0x00, 0x20)\n      swap1\n      0x03\n      mul\n      add\n      0x00\n      swap1\n      swap2\n      swap1\n      swap2\n      swap1\n      swap2\n      pop\n      0x00\n      dup3\n      add\n      mload\n      dup2\n      0x00\n      add\n      swap1\n      dup2\n      tag_65\n      swap2\n      swap1\n      tag_66\n      jump\t// in\n    tag_65:\n      pop\n      0x20\n      dup3\n      add\n      mload\n      dup2\n      0x01\n      add\n      sstore\n      0x40\n      dup3\n      add\n      mload\n      dup2\n      0x02\n      add\n      exp(0x0100, 0x00)\n      dup2\n      sload\n      dup2\n      0xff\n      mul\n      not\n      and\n      swap1\n      dup4\n      iszero\n      iszero\n      mul\n      or\n      swap1\n      sstore\n      pop\n      pop\n      pop\n        /* \"contracts/Governance.sol\":831:832  1 */\n      0x01\n        /* \"contracts/Governance.sol\":812:821  proposals */\n      0x00\n        /* \"contracts/Governance.sol\":812:828  proposals.length */\n      dup1\n      sload\n      swap1\n      pop\n        /* \"contracts/Governance.sol\":812:832  proposals.length - 1 */\n      tag_67\n      swap2\n      swap1\n      tag_68\n      jump\t// in\n    tag_67:\n        /* \"contracts/Governance.sol\":796:846  ProposalCreated(proposals.length - 1, description) */\n      0x9c770c289ab5bf7e57cb1d23c8ceae993aea46eb64847072fd3d78ca60d3e432\n        /* \"contracts/Governance.sol\":834:845  description */\n      dup3\n        /* \"contracts/Governance.sol\":796:846  ProposalCreated(proposals.length - 1, description) */\n      mload(0x40)\n      tag_69\n      swap2\n      swap1\n      tag_70\n      jump\t// in\n    tag_69:\n      mload(0x40)\n      dup1\n      swap2\n      sub\n      swap1\n      log2\n        /* \"contracts/Governance.sol\":578:854  function createProposal(string memory description) public {... */\n      pop\n      jump\t// out\n        /* \"contracts/Governance.sol\":310:349  mapping(address => Voter) public voters */\n    tag_27:\n      mstore(0x20, 0x01)\n      dup1\n      0x00\n      mstore\n      keccak256(0x00, 0x40)\n      0x00\n      swap2\n      pop\n      swap1\n      pop\n      dup1\n      0x00\n      add\n      0x00\n      swap1\n      sload\n      swap1\n      0x0100\n      exp\n      swap1\n      div\n      0xff\n      and\n      swap1\n      dup1\n      0x01\n      add\n      sload\n      swap1\n      pop\n      dup3\n      jump\t// out\n        /* \"#utility.yul\":7:82   */\n    tag_71:\n        /* \"#utility.yul\":40:46   */\n      0x00\n        /* \"#utility.yul\":73:75   */\n      0x40\n        /* \"#utility.yul\":67:76   */\n      mload\n        /* \"#utility.yul\":57:76   */\n      swap1\n      pop\n        /* \"#utility.yul\":7:82   */\n      swap1\n      jump\t// out\n        /* \"#utility.yul\":88:205   */\n    tag_72:\n        /* \"#utility.yul\":197:198   */\n      0x00\n        /* \"#utility.yul\":194:195   */\n      dup1\n        /* \"#utility.yul\":187:199   */\n      revert\n        /* \"#utility.yul\":211:328   */\n    tag_73:\n        /* \"#utility.yul\":320:321   */\n      0x00\n        /* \"#utility.yul\":317:318   */\n      dup1\n        /* \"#utility.yul\":310:322   */\n      revert\n        /* \"#utility.yul\":334:411   */\n    tag_74:\n        /* \"#utility.yul\":371:378   */\n      0x00\n        /* \"#utility.yul\":400:405   */\n      dup2\n        /* \"#utility.yul\":389:405   */\n      swap1\n      pop\n        /* \"#utility.yul\":334:411   */\n      swap2\n      swap1\n      pop\n      jump\t// out\n        /* \"#utility.yul\":417:539   */\n    tag_75:\n        /* \"#utility.yul\":490:514   */\n      tag_129\n        /* \"#utility.yul\":508:513   */\n      dup2\n        /* \"#utility.yul\":490:514   */\n      tag_74\n      jump\t// in\n    tag_129:\n        /* \"#utility.yul\":483:488   */\n      dup2\n        /* \"#utility.yul\":480:515   */\n      eq\n        /* \"#utility.yul\":470:533   */\n      tag_130\n      jumpi\n        /* \"#utility.yul\":529:530   */\n      0x00\n        /* \"#utility.yul\":526:527   */\n      dup1\n        /* \"#utility.yul\":519:531   */\n      revert\n        /* \"#utility.yul\":470:533   */\n    tag_130:\n        /* \"#utility.yul\":417:539   */\n      pop\n      jump\t// out\n        /* \"#utility.yul\":545:684   */\n    tag_76:\n        /* \"#utility.yul\":591:596   */\n      0x00\n        /* \"#utility.yul\":629:635   */\n      dup2\n        /* \"#utility.yul\":616:636   */\n      calldataload\n        /* \"#utility.yul\":607:636   */\n      swap1\n      pop\n        /* \"#utility.yul\":645:678   */\n      tag_132\n        /* \"#utility.yul\":672:677   */\n      dup2\n        /* \"#utility.yul\":645:678   */\n      tag_75\n      jump\t// in\n    tag_132:\n        /* \"#utility.yul\":545:684   */\n      swap3\n      swap2\n      pop\n      pop\n      jump\t// out\n        /* \"#utility.yul\":690:1019   */\n    tag_10:\n        /* \"#utility.yul\":749:755   */\n      0x00\n        /* \"#utility.yul\":798:800   */\n      0x20\n        /* \"#utility.yul\":786:795   */\n      dup3\n        /* \"#utility.yul\":777:784   */\n      dup5\n        /* \"#utility.yul\":773:796   */\n      sub\n        /* \"#utility.yul\":769:801   */\n      slt\n        /* \"#utility.yul\":766:885   */\n      iszero\n      tag_134\n      jumpi\n        /* \"#utility.yul\":804:883   */\n      tag_135\n      tag_72\n      jump\t// in\n    tag_135:\n        /* \"#utility.yul\":766:885   */\n    tag_134:\n        /* \"#utility.yul\":924:925   */\n      0x00\n        /* \"#utility.yul\":949:1002   */\n      tag_136\n        /* \"#utility.yul\":994:1001   */\n      dup5\n        /* \"#utility.yul\":985:991   */\n      dup3\n        /* \"#utility.yul\":974:983   */\n      dup6\n        /* \"#utility.yul\":970:992   */\n      add\n        /* \"#utility.yul\":949:1002   */\n      tag_76\n      jump\t// in\n    tag_136:\n        /* \"#utility.yul\":939:1002   */\n      swap2\n      pop\n        /* \"#utility.yul\":895:1012   */\n      pop\n        /* \"#utility.yul\":690:1019   */\n      swap3\n      swap2\n      pop\n      pop\n      jump\t// out\n        /* \"#utility.yul\":1025:1124   */\n    tag_77:\n        /* \"#utility.yul\":1077:1083   */\n      0x00\n        /* \"#utility.yul\":1111:1116   */\n      dup2\n        /* \"#utility.yul\":1105:1117   */\n      mload\n        /* \"#utility.yul\":1095:1117   */\n      swap1\n      pop\n        /* \"#utility.yul\":1025:1124   */\n      swap2\n      swap1\n      pop\n      jump\t// out\n        /* \"#utility.yul\":1130:1299   */\n    tag_78:\n        /* \"#utility.yul\":1214:1225   */\n      0x00\n        /* \"#utility.yul\":1248:1254   */\n      dup3\n        /* \"#utility.yul\":1243:1246   */\n      dup3\n        /* \"#utility.yul\":1236:1255   */\n      mstore\n        /* \"#utility.yul\":1288:1292   */\n      0x20\n        /* \"#utility.yul\":1283:1286   */\n      dup3\n        /* \"#utility.yul\":1279:1293   */\n      add\n        /* \"#utility.yul\":1264:1293   */\n      swap1\n      pop\n        /* \"#utility.yul\":1130:1299   */\n      swap3\n      swap2\n      pop\n      pop\n      jump\t// out\n        /* \"#utility.yul\":1305:1444   */\n    tag_79:\n        /* \"#utility.yul\":1394:1400   */\n      dup3\n        /* \"#utility.yul\":1389:1392   */\n      dup2\n        /* \"#utility.yul\":1384:1387   */\n      dup4\n        /* \"#utility.yul\":1378:1401   */\n      mcopy\n        /* \"#utility.yul\":1435:1436   */\n      0x00\n        /* \"#utility.yul\":1426:1432   */\n      dup4\n        /* \"#utility.yul\":1421:1424   */\n      dup4\n        /* \"#utility.yul\":1417:1433   */\n      add\n        /* \"#utility.yul\":1410:1437   */\n      mstore\n        /* \"#utility.yul\":1305:1444   */\n      pop\n      pop\n      pop\n      jump\t// out\n        /* \"#utility.yul\":1450:1552   */\n    tag_80:\n        /* \"#utility.yul\":1491:1497   */\n      0x00\n        /* \"#utility.yul\":1542:1544   */\n      0x1f\n        /* \"#utility.yul\":1538:1545   */\n      not\n        /* \"#utility.yul\":1533:1535   */\n      0x1f\n        /* \"#utility.yul\":1526:1531   */\n      dup4\n        /* \"#utility.yul\":1522:1536   */\n      add\n        /* \"#utility.yul\":1518:1546   */\n      and\n        /* \"#utility.yul\":1508:1546   */\n      swap1\n      pop\n        /* \"#utility.yul\":1450:1552   */\n      swap2\n      swap1\n      pop\n      jump\t// out\n        /* \"#utility.yul\":1558:1935   */\n    tag_81:\n        /* \"#utility.yul\":1646:1649   */\n      0x00\n        /* \"#utility.yul\":1674:1713   */\n      tag_142\n        /* \"#utility.yul\":1707:1712   */\n      dup3\n        /* \"#utility.yul\":1674:1713   */\n      tag_77\n      jump\t// in\n    tag_142:\n        /* \"#utility.yul\":1729:1800   */\n      tag_143\n        /* \"#utility.yul\":1793:1799   */\n      dup2\n        /* \"#utility.yul\":1788:1791   */\n      dup6\n        /* \"#utility.yul\":1729:1800   */\n      tag_78\n      jump\t// in\n    tag_143:\n        /* \"#utility.yul\":1722:1800   */\n      swap4\n      pop\n        /* \"#utility.yul\":1809:1874   */\n      tag_144\n        /* \"#utility.yul\":1867:1873   */\n      dup2\n        /* \"#utility.yul\":1862:1865   */\n      dup6\n        /* \"#utility.yul\":1855:1859   */\n      0x20\n        /* \"#utility.yul\":1848:1853   */\n      dup7\n        /* \"#utility.yul\":1844:1860   */\n      add\n        /* \"#utility.yul\":1809:1874   */\n      tag_79\n      jump\t// in\n    tag_144:\n        /* \"#utility.yul\":1899:1928   */\n      tag_145\n        /* \"#utility.yul\":1921:1927   */\n      dup2\n        /* \"#utility.yul\":1899:1928   */\n      tag_80\n      jump\t// in\n    tag_145:\n        /* \"#utility.yul\":1894:1897   */\n      dup5\n        /* \"#utility.yul\":1890:1929   */\n      add\n        /* \"#utility.yul\":1883:1929   */\n      swap2\n      pop\n        /* \"#utility.yul\":1650:1935   */\n      pop\n        /* \"#utility.yul\":1558:1935   */\n      swap3\n      swap2\n      pop\n      pop\n      jump\t// out\n        /* \"#utility.yul\":1941:2059   */\n    tag_82:\n        /* \"#utility.yul\":2028:2052   */\n      tag_147\n        /* \"#utility.yul\":2046:2051   */\n      dup2\n        /* \"#utility.yul\":2028:2052   */\n      tag_74\n      jump\t// in\n    tag_147:\n        /* \"#utility.yul\":2023:2026   */\n      dup3\n        /* \"#utility.yul\":2016:2053   */\n      mstore\n        /* \"#utility.yul\":1941:2059   */\n      pop\n      pop\n      jump\t// out\n        /* \"#utility.yul\":2065:2155   */\n    tag_83:\n        /* \"#utility.yul\":2099:2106   */\n      0x00\n        /* \"#utility.yul\":2142:2147   */\n      dup2\n        /* \"#utility.yul\":2135:2148   */\n      iszero\n        /* \"#utility.yul\":2128:2149   */\n      iszero\n        /* \"#utility.yul\":2117:2149   */\n      swap1\n      pop\n        /* \"#utility.yul\":2065:2155   */\n      swap2\n      swap1\n      pop\n      jump\t// out\n        /* \"#utility.yul\":2161:2270   */\n    tag_84:\n        /* \"#utility.yul\":2242:2263   */\n      tag_150\n        /* \"#utility.yul\":2257:2262   */\n      dup2\n        /* \"#utility.yul\":2242:2263   */\n      tag_83\n      jump\t// in\n    tag_150:\n        /* \"#utility.yul\":2237:2240   */\n      dup3\n        /* \"#utility.yul\":2230:2264   */\n      mstore\n        /* \"#utility.yul\":2161:2270   */\n      pop\n      pop\n      jump\t// out\n        /* \"#utility.yul\":2276:2797   */\n    tag_16:\n        /* \"#utility.yul\":2439:2443   */\n      0x00\n        /* \"#utility.yul\":2477:2479   */\n      0x60\n        /* \"#utility.yul\":2466:2475   */\n      dup3\n        /* \"#utility.yul\":2462:2480   */\n      add\n        /* \"#utility.yul\":2454:2480   */\n      swap1\n      pop\n        /* \"#utility.yul\":2526:2535   */\n      dup2\n        /* \"#utility.yul\":2520:2524   */\n      dup2\n        /* \"#utility.yul\":2516:2536   */\n      sub\n        /* \"#utility.yul\":2512:2513   */\n      0x00\n        /* \"#utility.yul\":2501:2510   */\n      dup4\n        /* \"#utility.yul\":2497:2514   */\n      add\n        /* \"#utility.yul\":2490:2537   */\n      mstore\n        /* \"#utility.yul\":2554:2632   */\n      tag_152\n        /* \"#utility.yul\":2627:2631   */\n      dup2\n        /* \"#utility.yul\":2618:2624   */\n      dup7\n        /* \"#utility.yul\":2554:2632   */\n      tag_81\n      jump\t// in\n    tag_152:\n        /* \"#utility.yul\":2546:2632   */\n      swap1\n      pop\n        /* \"#utility.yul\":2642:2714   */\n      tag_153\n        /* \"#utility.yul\":2710:2712   */\n      0x20\n        /* \"#utility.yul\":2699:2708   */\n      dup4\n        /* \"#utility.yul\":2695:2713   */\n      add\n        /* \"#utility.yul\":2686:2692   */\n      dup6\n        /* \"#utility.yul\":2642:2714   */\n      tag_82\n      jump\t// in\n    tag_153:\n        /* \"#utility.yul\":2724:2790   */\n      tag_154\n        /* \"#utility.yul\":2786:2788   */\n      0x40\n        /* \"#utility.yul\":2775:2784   */\n      dup4\n        /* \"#utility.yul\":2771:2789   */\n      add\n        /* \"#utility.yul\":2762:2768   */\n      dup5\n        /* \"#utility.yul\":2724:2790   */\n      tag_84\n      jump\t// in\n    tag_154:\n        /* \"#utility.yul\":2276:2797   */\n      swap5\n      swap4\n      pop\n      pop\n      pop\n      pop\n      jump\t// out\n        /* \"#utility.yul\":2803:2920   */\n    tag_85:\n        /* \"#utility.yul\":2912:2913   */\n      0x00\n        /* \"#utility.yul\":2909:2910   */\n      dup1\n        /* \"#utility.yul\":2902:2914   */\n      revert\n        /* \"#utility.yul\":2926:3043   */\n    tag_86:\n        /* \"#utility.yul\":3035:3036   */\n      0x00\n        /* \"#utility.yul\":3032:3033   */\n      dup1\n        /* \"#utility.yul\":3025:3037   */\n      revert\n        /* \"#utility.yul\":3049:3229   */\n    tag_87:\n        /* \"#utility.yul\":3097:3174   */\n      0x4e487b7100000000000000000000000000000000000000000000000000000000\n        /* \"#utility.yul\":3094:3095   */\n      0x00\n        /* \"#utility.yul\":3087:3175   */\n      mstore\n        /* \"#utility.yul\":3194:3198   */\n      0x41\n        /* \"#utility.yul\":3191:3192   */\n      0x04\n        /* \"#utility.yul\":3184:3199   */\n      mstore\n        /* \"#utility.yul\":3218:3222   */\n      0x24\n        /* \"#utility.yul\":3215:3216   */\n      0x00\n        /* \"#utility.yul\":3208:3223   */\n      revert\n        /* \"#utility.yul\":3235:3516   */\n    tag_88:\n        /* \"#utility.yul\":3318:3345   */\n      tag_159\n        /* \"#utility.yul\":3340:3344   */\n      dup3\n        /* \"#utility.yul\":3318:3345   */\n      tag_80\n      jump\t// in\n    tag_159:\n        /* \"#utility.yul\":3310:3316   */\n      dup2\n        /* \"#utility.yul\":3306:3346   */\n      add\n        /* \"#utility.yul\":3448:3454   */\n      dup2\n        /* \"#utility.yul\":3436:3446   */\n      dup2\n        /* \"#utility.yul\":3433:3455   */\n      lt\n        /* \"#utility.yul\":3412:3430   */\n      0xffffffffffffffff\n        /* \"#utility.yul\":3400:3410   */\n      dup3\n        /* \"#utility.yul\":3397:3431   */\n      gt\n        /* \"#utility.yul\":3394:3456   */\n      or\n        /* \"#utility.yul\":3391:3479   */\n      iszero\n      tag_160\n      jumpi\n        /* \"#utility.yul\":3459:3477   */\n      tag_161\n      tag_87\n      jump\t// in\n    tag_161:\n        /* \"#utility.yul\":3391:3479   */\n    tag_160:\n        /* \"#utility.yul\":3499:3509   */\n      dup1\n        /* \"#utility.yul\":3495:3497   */\n      0x40\n        /* \"#utility.yul\":3488:3510   */\n      mstore\n        /* \"#utility.yul\":3278:3516   */\n      pop\n        /* \"#utility.yul\":3235:3516   */\n      pop\n      pop\n      jump\t// out\n        /* \"#utility.yul\":3522:3651   */\n    tag_89:\n        /* \"#utility.yul\":3556:3562   */\n      0x00\n        /* \"#utility.yul\":3583:3603   */\n      tag_163\n      tag_71\n      jump\t// in\n    tag_163:\n        /* \"#utility.yul\":3573:3603   */\n      swap1\n      pop\n        /* \"#utility.yul\":3612:3645   */\n      tag_164\n        /* \"#utility.yul\":3640:3644   */\n      dup3\n        /* \"#utility.yul\":3632:3638   */\n      dup3\n        /* \"#utility.yul\":3612:3645   */\n      tag_88\n      jump\t// in\n    tag_164:\n        /* \"#utility.yul\":3522:3651   */\n      swap2\n      swap1\n      pop\n      jump\t// out\n        /* \"#utility.yul\":3657:3965   */\n    tag_90:\n        /* \"#utility.yul\":3719:3723   */\n      0x00\n        /* \"#utility.yul\":3809:3827   */\n      0xffffffffffffffff\n        /* \"#utility.yul\":3801:3807   */\n      dup3\n        /* \"#utility.yul\":3798:3828   */\n      gt\n        /* \"#utility.yul\":3795:3851   */\n      iszero\n      tag_166\n      jumpi\n        /* \"#utility.yul\":3831:3849   */\n      tag_167\n      tag_87\n      jump\t// in\n    tag_167:\n        /* \"#utility.yul\":3795:3851   */\n    tag_166:\n        /* \"#utility.yul\":3869:3898   */\n      tag_168\n        /* \"#utility.yul\":3891:3897   */\n      dup3\n        /* \"#utility.yul\":3869:3898   */\n      tag_80\n      jump\t// in\n    tag_168:\n        /* \"#utility.yul\":3861:3898   */\n      swap1\n      pop\n        /* \"#utility.yul\":3953:3957   */\n      0x20\n        /* \"#utility.yul\":3947:3951   */\n      dup2\n        /* \"#utility.yul\":3943:3958   */\n      add\n        /* \"#utility.yul\":3935:3958   */\n      swap1\n      pop\n        /* \"#utility.yul\":3657:3965   */\n      swap2\n      swap1\n      pop\n      jump\t// out\n        /* \"#utility.yul\":3971:4119   */\n    tag_91:\n        /* \"#utility.yul\":4069:4075   */\n      dup3\n        /* \"#utility.yul\":4064:4067   */\n      dup2\n        /* \"#utility.yul\":4059:4062   */\n      dup4\n        /* \"#utility.yul\":4046:4076   */\n      calldatacopy\n        /* \"#utility.yul\":4110:4111   */\n      0x00\n        /* \"#utility.yul\":4101:4107   */\n      dup4\n        /* \"#utility.yul\":4096:4099   */\n      dup4\n        /* \"#utility.yul\":4092:4108   */\n      add\n        /* \"#utility.yul\":4085:4112   */\n      mstore\n        /* \"#utility.yul\":3971:4119   */\n      pop\n      pop\n      pop\n      jump\t// out\n        /* \"#utility.yul\":4125:4550   */\n    tag_92:\n        /* \"#utility.yul\":4203:4208   */\n      0x00\n        /* \"#utility.yul\":4228:4294   */\n      tag_171\n        /* \"#utility.yul\":4244:4293   */\n      tag_172\n        /* \"#utility.yul\":4286:4292   */\n      dup5\n        /* \"#utility.yul\":4244:4293   */\n      tag_90\n      jump\t// in\n    tag_172:\n        /* \"#utility.yul\":4228:4294   */\n      tag_89\n      jump\t// in\n    tag_171:\n        /* \"#utility.yul\":4219:4294   */\n      swap1\n      pop\n        /* \"#utility.yul\":4317:4323   */\n      dup3\n        /* \"#utility.yul\":4310:4315   */\n      dup2\n        /* \"#utility.yul\":4303:4324   */\n      mstore\n        /* \"#utility.yul\":4355:4359   */\n      0x20\n        /* \"#utility.yul\":4348:4353   */\n      dup2\n        /* \"#utility.yul\":4344:4360   */\n      add\n        /* \"#utility.yul\":4393:4396   */\n      dup5\n        /* \"#utility.yul\":4384:4390   */\n      dup5\n        /* \"#utility.yul\":4379:4382   */\n      dup5\n        /* \"#utility.yul\":4375:4391   */\n      add\n        /* \"#utility.yul\":4372:4397   */\n      gt\n        /* \"#utility.yul\":4369:4481   */\n      iszero\n      tag_173\n      jumpi\n        /* \"#utility.yul\":4400:4479   */\n      tag_174\n      tag_86\n      jump\t// in\n    tag_174:\n        /* \"#utility.yul\":4369:4481   */\n    tag_173:\n        /* \"#utility.yul\":4490:4544   */\n      tag_175\n        /* \"#utility.yul\":4537:4543   */\n      dup5\n        /* \"#utility.yul\":4532:4535   */\n      dup3\n        /* \"#utility.yul\":4527:4530   */\n      dup6\n        /* \"#utility.yul\":4490:4544   */\n      tag_91\n      jump\t// in\n    tag_175:\n        /* \"#utility.yul\":4209:4550   */\n      pop\n        /* \"#utility.yul\":4125:4550   */\n      swap4\n      swap3\n      pop\n      pop\n      pop\n      jump\t// out\n        /* \"#utility.yul\":4570:4910   */\n    tag_93:\n        /* \"#utility.yul\":4626:4631   */\n      0x00\n        /* \"#utility.yul\":4675:4678   */\n      dup3\n        /* \"#utility.yul\":4668:4672   */\n      0x1f\n        /* \"#utility.yul\":4660:4666   */\n      dup4\n        /* \"#utility.yul\":4656:4673   */\n      add\n        /* \"#utility.yul\":4652:4679   */\n      slt\n        /* \"#utility.yul\":4642:4764   */\n      tag_177\n      jumpi\n        /* \"#utility.yul\":4683:4762   */\n      tag_178\n      tag_85\n      jump\t// in\n    tag_178:\n        /* \"#utility.yul\":4642:4764   */\n    tag_177:\n        /* \"#utility.yul\":4800:4806   */\n      dup2\n        /* \"#utility.yul\":4787:4807   */\n      calldataload\n        /* \"#utility.yul\":4825:4904   */\n      tag_179\n        /* \"#utility.yul\":4900:4903   */\n      dup5\n        /* \"#utility.yul\":4892:4898   */\n      dup3\n        /* \"#utility.yul\":4885:4889   */\n      0x20\n        /* \"#utility.yul\":4877:4883   */\n      dup7\n        /* \"#utility.yul\":4873:4890   */\n      add\n        /* \"#utility.yul\":4825:4904   */\n      tag_92\n      jump\t// in\n    tag_179:\n        /* \"#utility.yul\":4816:4904   */\n      swap2\n      pop\n        /* \"#utility.yul\":4632:4910   */\n      pop\n        /* \"#utility.yul\":4570:4910   */\n      swap3\n      swap2\n      pop\n      pop\n      jump\t// out\n        /* \"#utility.yul\":4916:5425   */\n    tag_22:\n        /* \"#utility.yul\":4985:4991   */\n      0x00\n        /* \"#utility.yul\":5034:5036   */\n      0x20\n        /* \"#utility.yul\":5022:5031   */\n      dup3\n        /* \"#utility.yul\":5013:5020   */\n      dup5\n        /* \"#utility.yul\":5009:5032   */\n      sub\n        /* \"#utility.yul\":5005:5037   */\n      slt\n        /* \"#utility.yul\":5002:5121   */\n      iszero\n      tag_181\n      jumpi\n        /* \"#utility.yul\":5040:5119   */\n      tag_182\n      tag_72\n      jump\t// in\n    tag_182:\n        /* \"#utility.yul\":5002:5121   */\n    tag_181:\n        /* \"#utility.yul\":5188:5189   */\n      0x00\n        /* \"#utility.yul\":5177:5186   */\n      dup3\n        /* \"#utility.yul\":5173:5190   */\n      add\n        /* \"#utility.yul\":5160:5191   */\n      calldataload\n        /* \"#utility.yul\":5218:5236   */\n      0xffffffffffffffff\n        /* \"#utility.yul\":5210:5216   */\n      dup2\n        /* \"#utility.yul\":5207:5237   */\n      gt\n        /* \"#utility.yul\":5204:5321   */\n      iszero\n      tag_183\n      jumpi\n        /* \"#utility.yul\":5240:5319   */\n      tag_184\n      tag_73\n      jump\t// in\n    tag_184:\n        /* \"#utility.yul\":5204:5321   */\n    tag_183:\n        /* \"#utility.yul\":5345:5408   */\n      tag_185\n        /* \"#utility.yul\":5400:5407   */\n      dup5\n        /* \"#utility.yul\":5391:5397   */\n      dup3\n        /* \"#utility.yul\":5380:5389   */\n      dup6\n        /* \"#utility.yul\":5376:5398   */\n      add\n        /* \"#utility.yul\":5345:5408   */\n      tag_93\n      jump\t// in\n    tag_185:\n        /* \"#utility.yul\":5335:5408   */\n      swap2\n      pop\n        /* \"#utility.yul\":5131:5418   */\n      pop\n        /* \"#utility.yul\":4916:5425   */\n      swap3\n      swap2\n      pop\n      pop\n      jump\t// out\n        /* \"#utility.yul\":5431:5557   */\n    tag_94:\n        /* \"#utility.yul\":5468:5475   */\n      0x00\n        /* \"#utility.yul\":5508:5550   */\n      0xffffffffffffffffffffffffffffffffffffffff\n        /* \"#utility.yul\":5501:5506   */\n      dup3\n        /* \"#utility.yul\":5497:5551   */\n      and\n        /* \"#utility.yul\":5486:5551   */\n      swap1\n      pop\n        /* \"#utility.yul\":5431:5557   */\n      swap2\n      swap1\n      pop\n      jump\t// out\n        /* \"#utility.yul\":5563:5659   */\n    tag_95:\n        /* \"#utility.yul\":5600:5607   */\n      0x00\n        /* \"#utility.yul\":5629:5653   */\n      tag_188\n        /* \"#utility.yul\":5647:5652   */\n      dup3\n        /* \"#utility.yul\":5629:5653   */\n      tag_94\n      jump\t// in\n    tag_188:\n        /* \"#utility.yul\":5618:5653   */\n      swap1\n      pop\n        /* \"#utility.yul\":5563:5659   */\n      swap2\n      swap1\n      pop\n      jump\t// out\n        /* \"#utility.yul\":5665:5787   */\n    tag_96:\n        /* \"#utility.yul\":5738:5762   */\n      tag_190\n        /* \"#utility.yul\":5756:5761   */\n      dup2\n        /* \"#utility.yul\":5738:5762   */\n      tag_95\n      jump\t// in\n    tag_190:\n        /* \"#utility.yul\":5731:5736   */\n      dup2\n        /* \"#utility.yul\":5728:5763   */\n      eq\n        /* \"#utility.yul\":5718:5781   */\n      tag_191\n      jumpi\n        /* \"#utility.yul\":5777:5778   */\n      0x00\n        /* \"#utility.yul\":5774:5775   */\n      dup1\n        /* \"#utility.yul\":5767:5779   */\n      revert\n        /* \"#utility.yul\":5718:5781   */\n    tag_191:\n        /* \"#utility.yul\":5665:5787   */\n      pop\n      jump\t// out\n        /* \"#utility.yul\":5793:5932   */\n    tag_97:\n        /* \"#utility.yul\":5839:5844   */\n      0x00\n        /* \"#utility.yul\":5877:5883   */\n      dup2\n        /* \"#utility.yul\":5864:5884   */\n      calldataload\n        /* \"#utility.yul\":5855:5884   */\n      swap1\n      pop\n        /* \"#utility.yul\":5893:5926   */\n      tag_193\n        /* \"#utility.yul\":5920:5925   */\n      dup2\n        /* \"#utility.yul\":5893:5926   */\n      tag_96\n      jump\t// in\n    tag_193:\n        /* \"#utility.yul\":5793:5932   */\n      swap3\n      swap2\n      pop\n      pop\n      jump\t// out\n        /* \"#utility.yul\":5938:6267   */\n    tag_26:\n        /* \"#utility.yul\":5997:6003   */\n      0x00\n        /* \"#utility.yul\":6046:6048   */\n      0x20\n        /* \"#utility.yul\":6034:6043   */\n      dup3\n        /* \"#utility.yul\":6025:6032   */\n      dup5\n        /* \"#utility.yul\":6021:6044   */\n      sub\n        /* \"#utility.yul\":6017:6049   */\n      slt\n        /* \"#utility.yul\":6014:6133   */\n      iszero\n      tag_195\n      jumpi\n        /* \"#utility.yul\":6052:6131   */\n      tag_196\n      tag_72\n      jump\t// in\n    tag_196:\n        /* \"#utility.yul\":6014:6133   */\n    tag_195:\n        /* \"#utility.yul\":6172:6173   */\n      0x00\n        /* \"#utility.yul\":6197:6250   */\n      tag_197\n        /* \"#utility.yul\":6242:6249   */\n      dup5\n        /* \"#utility.yul\":6233:6239   */\n      dup3\n        /* \"#utility.yul\":6222:6231   */\n      dup6\n        /* \"#utility.yul\":6218:6240   */\n      add\n        /* \"#utility.yul\":6197:6250   */\n      tag_97\n      jump\t// in\n    tag_197:\n        /* \"#utility.yul\":6187:6250   */\n      swap2\n      pop\n        /* \"#utility.yul\":6143:6260   */\n      pop\n        /* \"#utility.yul\":5938:6267   */\n      swap3\n      swap2\n      pop\n      pop\n      jump\t// out\n        /* \"#utility.yul\":6273:6593   */\n    tag_29:\n        /* \"#utility.yul\":6388:6392   */\n      0x00\n        /* \"#utility.yul\":6426:6428   */\n      0x40\n        /* \"#utility.yul\":6415:6424   */\n      dup3\n        /* \"#utility.yul\":6411:6429   */\n      add\n        /* \"#utility.yul\":6403:6429   */\n      swap1\n      pop\n        /* \"#utility.yul\":6439:6504   */\n      tag_199\n        /* \"#utility.yul\":6501:6502   */\n      0x00\n        /* \"#utility.yul\":6490:6499   */\n      dup4\n        /* \"#utility.yul\":6486:6503   */\n      add\n        /* \"#utility.yul\":6477:6483   */\n      dup6\n        /* \"#utility.yul\":6439:6504   */\n      tag_84\n      jump\t// in\n    tag_199:\n        /* \"#utility.yul\":6514:6586   */\n      tag_200\n        /* \"#utility.yul\":6582:6584   */\n      0x20\n        /* \"#utility.yul\":6571:6580   */\n      dup4\n        /* \"#utility.yul\":6567:6585   */\n      add\n        /* \"#utility.yul\":6558:6564   */\n      dup5\n        /* \"#utility.yul\":6514:6586   */\n      tag_82\n      jump\t// in\n    tag_200:\n        /* \"#utility.yul\":6273:6593   */\n      swap4\n      swap3\n      pop\n      pop\n      pop\n      jump\t// out\n        /* \"#utility.yul\":6599:6762   */\n    tag_98:\n        /* \"#utility.yul\":6739:6754   */\n      0x416c726561647920766f74656400000000000000000000000000000000000000\n        /* \"#utility.yul\":6735:6736   */\n      0x00\n        /* \"#utility.yul\":6727:6733   */\n      dup3\n        /* \"#utility.yul\":6723:6737   */\n      add\n        /* \"#utility.yul\":6716:6755   */\n      mstore\n        /* \"#utility.yul\":6599:6762   */\n      pop\n      jump\t// out\n        /* \"#utility.yul\":6768:7134   */\n    tag_99:\n        /* \"#utility.yul\":6910:6913   */\n      0x00\n        /* \"#utility.yul\":6931:6998   */\n      tag_203\n        /* \"#utility.yul\":6995:6997   */\n      0x0d\n        /* \"#utility.yul\":6990:6993   */\n      dup4\n        /* \"#utility.yul\":6931:6998   */\n      tag_78\n      jump\t// in\n    tag_203:\n        /* \"#utility.yul\":6924:6998   */\n      swap2\n      pop\n        /* \"#utility.yul\":7007:7100   */\n      tag_204\n        /* \"#utility.yul\":7096:7099   */\n      dup3\n        /* \"#utility.yul\":7007:7100   */\n      tag_98\n      jump\t// in\n    tag_204:\n        /* \"#utility.yul\":7125:7127   */\n      0x20\n        /* \"#utility.yul\":7120:7123   */\n      dup3\n        /* \"#utility.yul\":7116:7128   */\n      add\n        /* \"#utility.yul\":7109:7128   */\n      swap1\n      pop\n        /* \"#utility.yul\":6768:7134   */\n      swap2\n      swap1\n      pop\n      jump\t// out\n        /* \"#utility.yul\":7140:7559   */\n    tag_33:\n        /* \"#utility.yul\":7306:7310   */\n      0x00\n        /* \"#utility.yul\":7344:7346   */\n      0x20\n        /* \"#utility.yul\":7333:7342   */\n      dup3\n        /* \"#utility.yul\":7329:7347   */\n      add\n        /* \"#utility.yul\":7321:7347   */\n      swap1\n      pop\n        /* \"#utility.yul\":7393:7402   */\n      dup2\n        /* \"#utility.yul\":7387:7391   */\n      dup2\n        /* \"#utility.yul\":7383:7403   */\n      sub\n        /* \"#utility.yul\":7379:7380   */\n      0x00\n        /* \"#utility.yul\":7368:7377   */\n      dup4\n        /* \"#utility.yul\":7364:7381   */\n      add\n        /* \"#utility.yul\":7357:7404   */\n      mstore\n        /* \"#utility.yul\":7421:7552   */\n      tag_206\n        /* \"#utility.yul\":7547:7551   */\n      dup2\n        /* \"#utility.yul\":7421:7552   */\n      tag_99\n      jump\t// in\n    tag_206:\n        /* \"#utility.yul\":7413:7552   */\n      swap1\n      pop\n        /* \"#utility.yul\":7140:7559   */\n      swap2\n      swap1\n      pop\n      jump\t// out\n        /* \"#utility.yul\":7565:7731   */\n    tag_100:\n        /* \"#utility.yul\":7705:7723   */\n      0x496e76616c69642070726f706f73616c00000000000000000000000000000000\n        /* \"#utility.yul\":7701:7702   */\n      0x00\n        /* \"#utility.yul\":7693:7699   */\n      dup3\n        /* \"#utility.yul\":7689:7703   */\n      add\n        /* \"#utility.yul\":7682:7724   */\n      mstore\n        /* \"#utility.yul\":7565:7731   */\n      pop\n      jump\t// out\n        /* \"#utility.yul\":7737:8103   */\n    tag_101:\n        /* \"#utility.yul\":7879:7882   */\n      0x00\n        /* \"#utility.yul\":7900:7967   */\n      tag_209\n        /* \"#utility.yul\":7964:7966   */\n      0x10\n        /* \"#utility.yul\":7959:7962   */\n      dup4\n        /* \"#utility.yul\":7900:7967   */\n      tag_78\n      jump\t// in\n    tag_209:\n        /* \"#utility.yul\":7893:7967   */\n      swap2\n      pop\n        /* \"#utility.yul\":7976:8069   */\n      tag_210\n        /* \"#utility.yul\":8065:8068   */\n      dup3\n        /* \"#utility.yul\":7976:8069   */\n      tag_100\n      jump\t// in\n    tag_210:\n        /* \"#utility.yul\":8094:8096   */\n      0x20\n        /* \"#utility.yul\":8089:8092   */\n      dup3\n        /* \"#utility.yul\":8085:8097   */\n      add\n        /* \"#utility.yul\":8078:8097   */\n      swap1\n      pop\n        /* \"#utility.yul\":7737:8103   */\n      swap2\n      swap1\n      pop\n      jump\t// out\n        /* \"#utility.yul\":8109:8528   */\n    tag_36:\n        /* \"#utility.yul\":8275:8279   */\n      0x00\n        /* \"#utility.yul\":8313:8315   */\n      0x20\n        /* \"#utility.yul\":8302:8311   */\n      dup3\n        /* \"#utility.yul\":8298:8316   */\n      add\n        /* \"#utility.yul\":8290:8316   */\n      swap1\n      pop\n        /* \"#utility.yul\":8362:8371   */\n      dup2\n        /* \"#utility.yul\":8356:8360   */\n      dup2\n        /* \"#utility.yul\":8352:8372   */\n      sub\n        /* \"#utility.yul\":8348:8349   */\n      0x00\n        /* \"#utility.yul\":8337:8346   */\n      dup4\n        /* \"#utility.yul\":8333:8350   */\n      add\n        /* \"#utility.yul\":8326:8373   */\n      mstore\n        /* \"#utility.yul\":8390:8521   */\n      tag_212\n        /* \"#utility.yul\":8516:8520   */\n      dup2\n        /* \"#utility.yul\":8390:8521   */\n      tag_101\n      jump\t// in\n    tag_212:\n        /* \"#utility.yul\":8382:8521   */\n      swap1\n      pop\n        /* \"#utility.yul\":8109:8528   */\n      swap2\n      swap1\n      pop\n      jump\t// out\n        /* \"#utility.yul\":8534:8714   */\n    tag_39:\n        /* \"#utility.yul\":8582:8659   */\n      0x4e487b7100000000000000000000000000000000000000000000000000000000\n        /* \"#utility.yul\":8579:8580   */\n      0x00\n        /* \"#utility.yul\":8572:8660   */\n      mstore\n        /* \"#utility.yul\":8679:8683   */\n      0x32\n        /* \"#utility.yul\":8676:8677   */\n      0x04\n        /* \"#utility.yul\":8669:8684   */\n      mstore\n        /* \"#utility.yul\":8703:8707   */\n      0x24\n        /* \"#utility.yul\":8700:8701   */\n      0x00\n        /* \"#utility.yul\":8693:8708   */\n      revert\n        /* \"#utility.yul\":8720:8900   */\n    tag_102:\n        /* \"#utility.yul\":8768:8845   */\n      0x4e487b7100000000000000000000000000000000000000000000000000000000\n        /* \"#utility.yul\":8765:8766   */\n      0x00\n        /* \"#utility.yul\":8758:8846   */\n      mstore\n        /* \"#utility.yul\":8865:8869   */\n      0x11\n        /* \"#utility.yul\":8862:8863   */\n      0x04\n        /* \"#utility.yul\":8855:8870   */\n      mstore\n        /* \"#utility.yul\":8889:8893   */\n      0x24\n        /* \"#utility.yul\":8886:8887   */\n      0x00\n        /* \"#utility.yul\":8879:8894   */\n      revert\n        /* \"#utility.yul\":8906:9097   */\n    tag_42:\n        /* \"#utility.yul\":8946:8949   */\n      0x00\n        /* \"#utility.yul\":8965:8985   */\n      tag_216\n        /* \"#utility.yul\":8983:8984   */\n      dup3\n        /* \"#utility.yul\":8965:8985   */\n      tag_74\n      jump\t// in\n    tag_216:\n        /* \"#utility.yul\":8960:8985   */\n      swap2\n      pop\n        /* \"#utility.yul\":8999:9019   */\n      tag_217\n        /* \"#utility.yul\":9017:9018   */\n      dup4\n        /* \"#utility.yul\":8999:9019   */\n      tag_74\n      jump\t// in\n    tag_217:\n        /* \"#utility.yul\":8994:9019   */\n      swap3\n      pop\n        /* \"#utility.yul\":9042:9043   */\n      dup3\n        /* \"#utility.yul\":9039:9040   */\n      dup3\n        /* \"#utility.yul\":9035:9044   */\n      add\n        /* \"#utility.yul\":9028:9044   */\n      swap1\n      pop\n        /* \"#utility.yul\":9063:9066   */\n      dup1\n        /* \"#utility.yul\":9060:9061   */\n      dup3\n        /* \"#utility.yul\":9057:9067   */\n      gt\n        /* \"#utility.yul\":9054:9090   */\n      iszero\n      tag_218\n      jumpi\n        /* \"#utility.yul\":9070:9088   */\n      tag_219\n      tag_102\n      jump\t// in\n    tag_219:\n        /* \"#utility.yul\":9054:9090   */\n    tag_218:\n        /* \"#utility.yul\":8906:9097   */\n      swap3\n      swap2\n      pop\n      pop\n      jump\t// out\n        /* \"#utility.yul\":9103:9325   */\n    tag_44:\n        /* \"#utility.yul\":9196:9200   */\n      0x00\n        /* \"#utility.yul\":9234:9236   */\n      0x20\n        /* \"#utility.yul\":9223:9232   */\n      dup3\n        /* \"#utility.yul\":9219:9237   */\n      add\n        /* \"#utility.yul\":9211:9237   */\n      swap1\n      pop\n        /* \"#utility.yul\":9247:9318   */\n      tag_221\n        /* \"#utility.yul\":9315:9316   */\n      0x00\n        /* \"#utility.yul\":9304:9313   */\n      dup4\n        /* \"#utility.yul\":9300:9317   */\n      add\n        /* \"#utility.yul\":9291:9297   */\n      dup5\n        /* \"#utility.yul\":9247:9318   */\n      tag_82\n      jump\t// in\n    tag_221:\n        /* \"#utility.yul\":9103:9325   */\n      swap3\n      swap2\n      pop\n      pop\n      jump\t// out\n        /* \"#utility.yul\":9331:9511   */\n    tag_103:\n        /* \"#utility.yul\":9379:9456   */\n      0x4e487b7100000000000000000000000000000000000000000000000000000000\n        /* \"#utility.yul\":9376:9377   */\n      0x00\n        /* \"#utility.yul\":9369:9457   */\n      mstore\n        /* \"#utility.yul\":9476:9480   */\n      0x22\n        /* \"#utility.yul\":9473:9474   */\n      0x04\n        /* \"#utility.yul\":9466:9481   */\n      mstore\n        /* \"#utility.yul\":9500:9504   */\n      0x24\n        /* \"#utility.yul\":9497:9498   */\n      0x00\n        /* \"#utility.yul\":9490:9505   */\n      revert\n        /* \"#utility.yul\":9517:9837   */\n    tag_48:\n        /* \"#utility.yul\":9561:9567   */\n      0x00\n        /* \"#utility.yul\":9598:9599   */\n      0x02\n        /* \"#utility.yul\":9592:9596   */\n      dup3\n        /* \"#utility.yul\":9588:9600   */\n      div\n        /* \"#utility.yul\":9578:9600   */\n      swap1\n      pop\n        /* \"#utility.yul\":9645:9646   */\n      0x01\n        /* \"#utility.yul\":9639:9643   */\n      dup3\n        /* \"#utility.yul\":9635:9647   */\n      and\n        /* \"#utility.yul\":9666:9684   */\n      dup1\n        /* \"#utility.yul\":9656:9737   */\n      tag_224\n      jumpi\n        /* \"#utility.yul\":9722:9726   */\n      0x7f\n        /* \"#utility.yul\":9714:9720   */\n      dup3\n        /* \"#utility.yul\":9710:9727   */\n      and\n        /* \"#utility.yul\":9700:9727   */\n      swap2\n      pop\n        /* \"#utility.yul\":9656:9737   */\n    tag_224:\n        /* \"#utility.yul\":9784:9786   */\n      0x20\n        /* \"#utility.yul\":9776:9782   */\n      dup3\n        /* \"#utility.yul\":9773:9787   */\n      lt\n        /* \"#utility.yul\":9753:9771   */\n      dup2\n        /* \"#utility.yul\":9750:9788   */\n      sub\n        /* \"#utility.yul\":9747:9831   */\n      tag_225\n      jumpi\n        /* \"#utility.yul\":9803:9821   */\n      tag_226\n      tag_103\n      jump\t// in\n    tag_226:\n        /* \"#utility.yul\":9747:9831   */\n    tag_225:\n        /* \"#utility.yul\":9568:9837   */\n      pop\n        /* \"#utility.yul\":9517:9837   */\n      swap2\n      swap1\n      pop\n      jump\t// out\n        /* \"#utility.yul\":9843:10009   */\n    tag_104:\n        /* \"#utility.yul\":9983:10001   */\n      0x416c726561647920657865637574656400000000000000000000000000000000\n        /* \"#utility.yul\":9979:9980   */\n      0x00\n        /* \"#utility.yul\":9971:9977   */\n      dup3\n        /* \"#utility.yul\":9967:9981   */\n      add\n        /* \"#utility.yul\":9960:10002   */\n      mstore\n        /* \"#utility.yul\":9843:10009   */\n      pop\n      jump\t// out\n        /* \"#utility.yul\":10015:10381   */\n    tag_105:\n        /* \"#utility.yul\":10157:10160   */\n      0x00\n        /* \"#utility.yul\":10178:10245   */\n      tag_229\n        /* \"#utility.yul\":10242:10244   */\n      0x10\n        /* \"#utility.yul\":10237:10240   */\n      dup4\n        /* \"#utility.yul\":10178:10245   */\n      tag_78\n      jump\t// in\n    tag_229:\n        /* \"#utility.yul\":10171:10245   */\n      swap2\n      pop\n        /* \"#utility.yul\":10254:10347   */\n      tag_230\n        /* \"#utility.yul\":10343:10346   */\n      dup3\n        /* \"#utility.yul\":10254:10347   */\n      tag_104\n      jump\t// in\n    tag_230:\n        /* \"#utility.yul\":10372:10374   */\n      0x20\n        /* \"#utility.yul\":10367:10370   */\n      dup3\n        /* \"#utility.yul\":10363:10375   */\n      add\n        /* \"#utility.yul\":10356:10375   */\n      swap1\n      pop\n        /* \"#utility.yul\":10015:10381   */\n      swap2\n      swap1\n      pop\n      jump\t// out\n        /* \"#utility.yul\":10387:10806   */\n    tag_59:\n        /* \"#utility.yul\":10553:10557   */\n      0x00\n        /* \"#utility.yul\":10591:10593   */\n      0x20\n        /* \"#utility.yul\":10580:10589   */\n      dup3\n        /* \"#utility.yul\":10576:10594   */\n      add\n        /* \"#utility.yul\":10568:10594   */\n      swap1\n      pop\n        /* \"#utility.yul\":10640:10649   */\n      dup2\n        /* \"#utility.yul\":10634:10638   */\n      dup2\n        /* \"#utility.yul\":10630:10650   */\n      sub\n        /* \"#utility.yul\":10626:10627   */\n      0x00\n        /* \"#utility.yul\":10615:10624   */\n      dup4\n        /* \"#utility.yul\":10611:10628   */\n      add\n        /* \"#utility.yul\":10604:10651   */\n      mstore\n        /* \"#utility.yul\":10668:10799   */\n      tag_232\n        /* \"#utility.yul\":10794:10798   */\n      dup2\n        /* \"#utility.yul\":10668:10799   */\n      tag_105\n      jump\t// in\n    tag_232:\n        /* \"#utility.yul\":10660:10799   */\n      swap1\n      pop\n        /* \"#utility.yul\":10387:10806   */\n      swap2\n      swap1\n      pop\n      jump\t// out\n        /* \"#utility.yul\":10812:10978   */\n    tag_106:\n        /* \"#utility.yul\":10952:10970   */\n      0x4e6f7420656e6f75676820766f74657300000000000000000000000000000000\n        /* \"#utility.yul\":10948:10949   */\n      0x00\n        /* \"#utility.yul\":10940:10946   */\n      dup3\n        /* \"#utility.yul\":10936:10950   */\n      add\n        /* \"#utility.yul\":10929:10971   */\n      mstore\n        /* \"#utility.yul\":10812:10978   */\n      pop\n      jump\t// out\n        /* \"#utility.yul\":10984:11350   */\n    tag_107:\n        /* \"#utility.yul\":11126:11129   */\n      0x00\n        /* \"#utility.yul\":11147:11214   */\n      tag_235\n        /* \"#utility.yul\":11211:11213   */\n      0x10\n        /* \"#utility.yul\":11206:11209   */\n      dup4\n        /* \"#utility.yul\":11147:11214   */\n      tag_78\n      jump\t// in\n    tag_235:\n        /* \"#utility.yul\":11140:11214   */\n      swap2\n      pop\n        /* \"#utility.yul\":11223:11316   */\n      tag_236\n        /* \"#utility.yul\":11312:11315   */\n      dup3\n        /* \"#utility.yul\":11223:11316   */\n      tag_106\n      jump\t// in\n    tag_236:\n        /* \"#utility.yul\":11341:11343   */\n      0x20\n        /* \"#utility.yul\":11336:11339   */\n      dup3\n        /* \"#utility.yul\":11332:11344   */\n      add\n        /* \"#utility.yul\":11325:11344   */\n      swap1\n      pop\n        /* \"#utility.yul\":10984:11350   */\n      swap2\n      swap1\n      pop\n      jump\t// out\n        /* \"#utility.yul\":11356:11775   */\n    tag_62:\n        /* \"#utility.yul\":11522:11526   */\n      0x00\n        /* \"#utility.yul\":11560:11562   */\n      0x20\n        /* \"#utility.yul\":11549:11558   */\n      dup3\n        /* \"#utility.yul\":11545:11563   */\n      add\n        /* \"#utility.yul\":11537:11563   */\n      swap1\n      pop\n        /* \"#utility.yul\":11609:11618   */\n      dup2\n        /* \"#utility.yul\":11603:11607   */\n      dup2\n        /* \"#utility.yul\":11599:11619   */\n      sub\n        /* \"#utility.yul\":11595:11596   */\n      0x00\n        /* \"#utility.yul\":11584:11593   */\n      dup4\n        /* \"#utility.yul\":11580:11597   */\n      add\n        /* \"#utility.yul\":11573:11620   */\n      mstore\n        /* \"#utility.yul\":11637:11768   */\n      tag_238\n        /* \"#utility.yul\":11763:11767   */\n      dup2\n        /* \"#utility.yul\":11637:11768   */\n      tag_107\n      jump\t// in\n    tag_238:\n        /* \"#utility.yul\":11629:11768   */\n      swap1\n      pop\n        /* \"#utility.yul\":11356:11775   */\n      swap2\n      swap1\n      pop\n      jump\t// out\n        /* \"#utility.yul\":11781:11922   */\n    tag_108:\n        /* \"#utility.yul\":11830:11834   */\n      0x00\n        /* \"#utility.yul\":11853:11856   */\n      dup2\n        /* \"#utility.yul\":11845:11856   */\n      swap1\n      pop\n        /* \"#utility.yul\":11876:11879   */\n      dup2\n        /* \"#utility.yul\":11873:11874   */\n      0x00\n        /* \"#utility.yul\":11866:11880   */\n      mstore\n        /* \"#utility.yul\":11910:11914   */\n      0x20\n        /* \"#utility.yul\":11907:11908   */\n      0x00\n        /* \"#utility.yul\":11897:11915   */\n      keccak256\n        /* \"#utility.yul\":11889:11915   */\n      swap1\n      pop\n        /* \"#utility.yul\":11781:11922   */\n      swap2\n      swap1\n      pop\n      jump\t// out\n        /* \"#utility.yul\":11928:12021   */\n    tag_109:\n        /* \"#utility.yul\":11965:11971   */\n      0x00\n        /* \"#utility.yul\":12012:12014   */\n      0x20\n        /* \"#utility.yul\":12007:12009   */\n      0x1f\n        /* \"#utility.yul\":12000:12005   */\n      dup4\n        /* \"#utility.yul\":11996:12010   */\n      add\n        /* \"#utility.yul\":11992:12015   */\n      div\n        /* \"#utility.yul\":11982:12015   */\n      swap1\n      pop\n        /* \"#utility.yul\":11928:12021   */\n      swap2\n      swap1\n      pop\n      jump\t// out\n        /* \"#utility.yul\":12027:12134   */\n    tag_110:\n        /* \"#utility.yul\":12071:12079   */\n      0x00\n        /* \"#utility.yul\":12121:12126   */\n      dup3\n        /* \"#utility.yul\":12115:12119   */\n      dup3\n        /* \"#utility.yul\":12111:12127   */\n      shl\n        /* \"#utility.yul\":12090:12127   */\n      swap1\n      pop\n        /* \"#utility.yul\":12027:12134   */\n      swap3\n      swap2\n      pop\n      pop\n      jump\t// out\n        /* \"#utility.yul\":12140:12533   */\n    tag_111:\n        /* \"#utility.yul\":12209:12215   */\n      0x00\n        /* \"#utility.yul\":12259:12260   */\n      0x08\n        /* \"#utility.yul\":12247:12257   */\n      dup4\n        /* \"#utility.yul\":12243:12261   */\n      mul\n        /* \"#utility.yul\":12282:12379   */\n      tag_243\n        /* \"#utility.yul\":12312:12378   */\n      0xffffffffffffffffffffffffffffffffffffffffffffffffffffffffffffffff\n        /* \"#utility.yul\":12301:12310   */\n      dup3\n        /* \"#utility.yul\":12282:12379   */\n      tag_110\n      jump\t// in\n    tag_243:\n        /* \"#utility.yul\":12400:12439   */\n      tag_244\n        /* \"#utility.yul\":12430:12438   */\n      dup7\n        /* \"#utility.yul\":12419:12428   */\n      dup4\n        /* \"#utility.yul\":12400:12439   */\n      tag_110\n      jump\t// in\n    tag_244:\n        /* \"#utility.yul\":12388:12439   */\n      swap6\n      pop\n        /* \"#utility.yul\":12472:12476   */\n      dup1\n        /* \"#utility.yul\":12468:12477   */\n      not\n        /* \"#utility.yul\":12461:12466   */\n      dup5\n        /* \"#utility.yul\":12457:12478   */\n      and\n        /* \"#utility.yul\":12448:12478   */\n      swap4\n      pop\n        /* \"#utility.yul\":12521:12525   */\n      dup1\n        /* \"#utility.yul\":12511:12519   */\n      dup7\n        /* \"#utility.yul\":12507:12526   */\n      and\n        /* \"#utility.yul\":12500:12505   */\n      dup5\n        /* \"#utility.yul\":12497:12527   */\n      or\n        /* \"#utility.yul\":12487:12527   */\n      swap3\n      pop\n        /* \"#utility.yul\":12216:12533   */\n      pop\n      pop\n        /* \"#utility.yul\":12140:12533   */\n      swap4\n      swap3\n      pop\n      pop\n      pop\n      jump\t// out\n        /* \"#utility.yul\":12539:12599   */\n    tag_112:\n        /* \"#utility.yul\":12567:12570   */\n      0x00\n        /* \"#utility.yul\":12588:12593   */\n      dup2\n        /* \"#utility.yul\":12581:12593   */\n      swap1\n      pop\n        /* \"#utility.yul\":12539:12599   */\n      swap2\n      swap1\n      pop\n      jump\t// out\n        /* \"#utility.yul\":12605:12747   */\n    tag_113:\n        /* \"#utility.yul\":12655:12664   */\n      0x00\n        /* \"#utility.yul\":12688:12741   */\n      tag_247\n        /* \"#utility.yul\":12706:12740   */\n      tag_248\n        /* \"#utility.yul\":12715:12739   */\n      tag_249\n        /* \"#utility.yul\":12733:12738   */\n      dup5\n        /* \"#utility.yul\":12715:12739   */\n      tag_74\n      jump\t// in\n    tag_249:\n        /* \"#utility.yul\":12706:12740   */\n      tag_112\n      jump\t// in\n    tag_248:\n        /* \"#utility.yul\":12688:12741   */\n      tag_74\n      jump\t// in\n    tag_247:\n        /* \"#utility.yul\":12675:12741   */\n      swap1\n      pop\n        /* \"#utility.yul\":12605:12747   */\n      swap2\n      swap1\n      pop\n      jump\t// out\n        /* \"#utility.yul\":12753:12828   */\n    tag_114:\n        /* \"#utility.yul\":12796:12799   */\n      0x00\n        /* \"#utility.yul\":12817:12822   */\n      dup2\n        /* \"#utility.yul\":12810:12822   */\n      swap1\n      pop\n        /* \"#utility.yul\":12753:12828   */\n      swap2\n      swap1\n      pop\n      jump\t// out\n        /* \"#utility.yul\":12834:13103   */\n    tag_115:\n        /* \"#utility.yul\":12944:12983   */\n      tag_252\n        /* \"#utility.yul\":12975:12982   */\n      dup4\n        /* \"#utility.yul\":12944:12983   */\n      tag_113\n      jump\t// in\n    tag_252:\n        /* \"#utility.yul\":13005:13096   */\n      tag_253\n        /* \"#utility.yul\":13054:13095   */\n      tag_254\n        /* \"#utility.yul\":13078:13094   */\n      dup3\n        /* \"#utility.yul\":13054:13095   */\n      tag_114\n      jump\t// in\n    tag_254:\n        /* \"#utility.yul\":13046:13052   */\n      dup5\n        /* \"#utility.yul\":13039:13043   */\n      dup5\n        /* \"#utility.yul\":13033:13044   */\n      sload\n        /* \"#utility.yul\":13005:13096   */\n      tag_111\n      jump\t// in\n    tag_253:\n        /* \"#utility.yul\":12999:13003   */\n      dup3\n        /* \"#utility.yul\":12992:13097   */\n      sstore\n        /* \"#utility.yul\":12910:13103   */\n      pop\n        /* \"#utility.yul\":12834:13103   */\n      pop\n      pop\n      pop\n      jump\t// out\n        /* \"#utility.yul\":13109:13182   */\n    tag_116:\n        /* \"#utility.yul\":13154:13157   */\n      0x00\n        /* \"#utility.yul\":13109:13182   */\n      swap1\n      jump\t// out\n        /* \"#utility.yul\":13188:13377   */\n    tag_117:\n        /* \"#utility.yul\":13265:13297   */\n      tag_257\n      tag_116\n      jump\t// in\n    tag_257:\n        /* \"#utility.yul\":13306:13371   */\n      tag_258\n        /* \"#utility.yul\":13364:13370   */\n      dup2\n        /* \"#utility.yul\":13356:13362   */\n      dup5\n        /* \"#utility.yul\":13350:13354   */\n      dup5\n        /* \"#utility.yul\":13306:13371   */\n      tag_115\n      jump\t// in\n    tag_258:\n        /* \"#utility.yul\":13241:13377   */\n      pop\n        /* \"#utility.yul\":13188:13377   */\n      pop\n      pop\n      jump\t// out\n        /* \"#utility.yul\":13383:13569   */\n    tag_118:\n        /* \"#utility.yul\":13443:13563   */\n    tag_260:\n        /* \"#utility.yul\":13460:13463   */\n      dup2\n        /* \"#utility.yul\":13453:13458   */\n      dup2\n        /* \"#utility.yul\":13450:13464   */\n      lt\n        /* \"#utility.yul\":13443:13563   */\n      iszero\n      tag_262\n      jumpi\n        /* \"#utility.yul\":13514:13553   */\n      tag_263\n        /* \"#utility.yul\":13551:13552   */\n      0x00\n        /* \"#utility.yul\":13544:13549   */\n      dup3\n        /* \"#utility.yul\":13514:13553   */\n      tag_117\n      jump\t// in\n    tag_263:\n        /* \"#utility.yul\":13487:13488   */\n      0x01\n        /* \"#utility.yul\":13480:13485   */\n      dup2\n        /* \"#utility.yul\":13476:13489   */\n      add\n        /* \"#utility.yul\":13467:13489   */\n      swap1\n      pop\n        /* \"#utility.yul\":13443:13563   */\n      jump(tag_260)\n    tag_262:\n        /* \"#utility.yul\":13383:13569   */\n      pop\n      pop\n      jump\t// out\n        /* \"#utility.yul\":13575:14118   */\n    tag_119:\n        /* \"#utility.yul\":13676:13678   */\n      0x1f\n        /* \"#utility.yul\":13671:13674   */\n      dup3\n        /* \"#utility.yul\":13668:13679   */\n      gt\n        /* \"#utility.yul\":13665:14111   */\n      iszero\n      tag_265\n      jumpi\n        /* \"#utility.yul\":13710:13748   */\n      tag_266\n        /* \"#utility.yul\":13742:13747   */\n      dup2\n        /* \"#utility.yul\":13710:13748   */\n      tag_108\n      jump\t// in\n    tag_266:\n        /* \"#utility.yul\":13794:13823   */\n      tag_267\n        /* \"#utility.yul\":13812:13822   */\n      dup5\n        /* \"#utility.yul\":13794:13823   */\n      tag_109\n      jump\t// in\n    tag_267:\n        /* \"#utility.yul\":13784:13792   */\n      dup2\n        /* \"#utility.yul\":13780:13824   */\n      add\n        /* \"#utility.yul\":13977:13979   */\n      0x20\n        /* \"#utility.yul\":13965:13975   */\n      dup6\n        /* \"#utility.yul\":13962:13980   */\n      lt\n        /* \"#utility.yul\":13959:14008   */\n      iszero\n      tag_268\n      jumpi\n        /* \"#utility.yul\":13998:14006   */\n      dup2\n        /* \"#utility.yul\":13983:14006   */\n      swap1\n      pop\n        /* \"#utility.yul\":13959:14008   */\n    tag_268:\n        /* \"#utility.yul\":14021:14101   */\n      tag_269\n        /* \"#utility.yul\":14077:14099   */\n      tag_270\n        /* \"#utility.yul\":14095:14098   */\n      dup6\n        /* \"#utility.yul\":14077:14099   */\n      tag_109\n      jump\t// in\n    tag_270:\n        /* \"#utility.yul\":14067:14075   */\n      dup4\n        /* \"#utility.yul\":14063:14100   */\n      add\n        /* \"#utility.yul\":14050:14061   */\n      dup3\n        /* \"#utility.yul\":14021:14101   */\n      tag_118\n      jump\t// in\n    tag_269:\n        /* \"#utility.yul\":13680:14111   */\n      pop\n      pop\n        /* \"#utility.yul\":13665:14111   */\n    tag_265:\n        /* \"#utility.yul\":13575:14118   */\n      pop\n      pop\n      pop\n      jump\t// out\n        /* \"#utility.yul\":14124:14241   */\n    tag_120:\n        /* \"#utility.yul\":14178:14186   */\n      0x00\n        /* \"#utility.yul\":14228:14233   */\n      dup3\n        /* \"#utility.yul\":14222:14226   */\n      dup3\n        /* \"#utility.yul\":14218:14234   */\n      shr\n        /* \"#utility.yul\":14197:14234   */\n      swap1\n      pop\n        /* \"#utility.yul\":14124:14241   */\n      swap3\n      swap2\n      pop\n      pop\n      jump\t// out\n        /* \"#utility.yul\":14247:14416   */\n    tag_121:\n        /* \"#utility.yul\":14291:14297   */\n      0x00\n        /* \"#utility.yul\":14324:14375   */\n      tag_273\n        /* \"#utility.yul\":14372:14373   */\n      0x00\n        /* \"#utility.yul\":14368:14374   */\n      not\n        /* \"#utility.yul\":14360:14365   */\n      dup5\n        /* \"#utility.yul\":14357:14358   */\n      0x08\n        /* \"#utility.yul\":14353:14366   */\n      mul\n        /* \"#utility.yul\":14324:14375   */\n      tag_120\n      jump\t// in\n    tag_273:\n        /* \"#utility.yul\":14320:14376   */\n      not\n        /* \"#utility.yul\":14405:14409   */\n      dup1\n        /* \"#utility.yul\":14399:14403   */\n      dup4\n        /* \"#utility.yul\":14395:14410   */\n      and\n        /* \"#utility.yul\":14385:14410   */\n      swap2\n      pop\n        /* \"#utility.yul\":14298:14416   */\n      pop\n        /* \"#utility.yul\":14247:14416   */\n      swap3\n      swap2\n      pop\n      pop\n      jump\t// out\n        /* \"#utility.yul\":14421:14716   */\n    tag_122:\n        /* \"#utility.yul\":14497:14501   */\n      0x00\n        /* \"#utility.yul\":14643:14672   */\n      tag_275\n        /* \"#utility.yul\":14668:14671   */\n      dup4\n        /* \"#utility.yul\":14662:14666   */\n      dup4\n        /* \"#utility.yul\":14643:14672   */\n      tag_121\n      jump\t// in\n    tag_275:\n        /* \"#utility.yul\":14635:14672   */\n      swap2\n      pop\n        /* \"#utility.yul\":14705:14708   */\n      dup3\n        /* \"#utility.yul\":14702:14703   */\n      0x02\n        /* \"#utility.yul\":14698:14709   */\n      mul\n        /* \"#utility.yul\":14692:14696   */\n      dup3\n        /* \"#utility.yul\":14689:14710   */\n      or\n        /* \"#utility.yul\":14681:14710   */\n      swap1\n      pop\n        /* \"#utility.yul\":14421:14716   */\n      swap3\n      swap2\n      pop\n      pop\n      jump\t// out\n        /* \"#utility.yul\":14721:16116   */\n    tag_66:\n        /* \"#utility.yul\":14838:14875   */\n      tag_277\n        /* \"#utility.yul\":14871:14874   */\n      dup3\n        /* \"#utility.yul\":14838:14875   */\n      tag_77\n      jump\t// in\n    tag_277:\n        /* \"#utility.yul\":14940:14958   */\n      0xffffffffffffffff\n        /* \"#utility.yul\":14932:14938   */\n      dup2\n        /* \"#utility.yul\":14929:14959   */\n      gt\n        /* \"#utility.yul\":14926:14982   */\n      iszero\n      tag_278\n      jumpi\n        /* \"#utility.yul\":14962:14980   */\n      tag_279\n      tag_87\n      jump\t// in\n    tag_279:\n        /* \"#utility.yul\":14926:14982   */\n    tag_278:\n        /* \"#utility.yul\":15006:15044   */\n      tag_280\n        /* \"#utility.yul\":15038:15042   */\n      dup3\n        /* \"#utility.yul\":15032:15043   */\n      sload\n        /* \"#utility.yul\":15006:15044   */\n      tag_48\n      jump\t// in\n    tag_280:\n        /* \"#utility.yul\":15091:15158   */\n      tag_281\n        /* \"#utility.yul\":15151:15157   */\n      dup3\n        /* \"#utility.yul\":15143:15149   */\n      dup3\n        /* \"#utility.yul\":15137:15141   */\n      dup6\n        /* \"#utility.yul\":15091:15158   */\n      tag_119\n      jump\t// in\n    tag_281:\n        /* \"#utility.yul\":15185:15186   */\n      0x00\n        /* \"#utility.yul\":15209:15213   */\n      0x20\n        /* \"#utility.yul\":15196:15213   */\n      swap1\n      pop\n        /* \"#utility.yul\":15241:15243   */\n      0x1f\n        /* \"#utility.yul\":15233:15239   */\n      dup4\n        /* \"#utility.yul\":15230:15244   */\n      gt\n        /* \"#utility.yul\":15258:15259   */\n      0x01\n        /* \"#utility.yul\":15253:15871   */\n      dup2\n      eq\n      tag_283\n      jumpi\n        /* \"#utility.yul\":15915:15916   */\n      0x00\n        /* \"#utility.yul\":15932:15938   */\n      dup5\n        /* \"#utility.yul\":15929:16006   */\n      iszero\n      tag_284\n      jumpi\n        /* \"#utility.yul\":15981:15990   */\n      dup3\n        /* \"#utility.yul\":15976:15979   */\n      dup8\n        /* \"#utility.yul\":15972:15991   */\n      add\n        /* \"#utility.yul\":15966:15992   */\n      mload\n        /* \"#utility.yul\":15957:15992   */\n      swap1\n      pop\n        /* \"#utility.yul\":15929:16006   */\n    tag_284:\n        /* \"#utility.yul\":16032:16099   */\n      tag_285\n        /* \"#utility.yul\":16092:16098   */\n      dup6\n        /* \"#utility.yul\":16085:16090   */\n      dup3\n        /* \"#utility.yul\":16032:16099   */\n      tag_122\n      jump\t// in\n    tag_285:\n        /* \"#utility.yul\":16026:16030   */\n      dup7\n        /* \"#utility.yul\":16019:16100   */\n      sstore\n        /* \"#utility.yul\":15888:16110   */\n      pop\n        /* \"#utility.yul\":15223:16110   */\n      jump(tag_282)\n        /* \"#utility.yul\":15253:15871   */\n    tag_283:\n        /* \"#utility.yul\":15305:15309   */\n      0x1f\n        /* \"#utility.yul\":15301:15310   */\n      not\n        /* \"#utility.yul\":15293:15299   */\n      dup5\n        /* \"#utility.yul\":15289:15311   */\n      and\n        /* \"#utility.yul\":15339:15376   */\n      tag_286\n        /* \"#utility.yul\":15371:15375   */\n      dup7\n        /* \"#utility.yul\":15339:15376   */\n      tag_108\n      jump\t// in\n    tag_286:\n        /* \"#utility.yul\":15398:15399   */\n      0x00\n        /* \"#utility.yul\":15412:15620   */\n    tag_287:\n        /* \"#utility.yul\":15426:15433   */\n      dup3\n        /* \"#utility.yul\":15423:15424   */\n      dup2\n        /* \"#utility.yul\":15420:15434   */\n      lt\n        /* \"#utility.yul\":15412:15620   */\n      iszero\n      tag_289\n      jumpi\n        /* \"#utility.yul\":15505:15514   */\n      dup5\n        /* \"#utility.yul\":15500:15503   */\n      dup10\n        /* \"#utility.yul\":15496:15515   */\n      add\n        /* \"#utility.yul\":15490:15516   */\n      mload\n        /* \"#utility.yul\":15482:15488   */\n      dup3\n        /* \"#utility.yul\":15475:15517   */\n      sstore\n        /* \"#utility.yul\":15556:15557   */\n      0x01\n        /* \"#utility.yul\":15548:15554   */\n      dup3\n        /* \"#utility.yul\":15544:15558   */\n      add\n        /* \"#utility.yul\":15534:15558   */\n      swap2\n      pop\n        /* \"#utility.yul\":15603:15605   */\n      0x20\n        /* \"#utility.yul\":15592:15601   */\n      dup6\n        /* \"#utility.yul\":15588:15606   */\n      add\n        /* \"#utility.yul\":15575:15606   */\n      swap5\n      pop\n        /* \"#utility.yul\":15449:15453   */\n      0x20\n        /* \"#utility.yul\":15446:15447   */\n      dup2\n        /* \"#utility.yul\":15442:15454   */\n      add\n        /* \"#utility.yul\":15437:15454   */\n      swap1\n      pop\n        /* \"#utility.yul\":15412:15620   */\n      jump(tag_287)\n    tag_289:\n        /* \"#utility.yul\":15648:15654   */\n      dup7\n        /* \"#utility.yul\":15639:15646   */\n      dup4\n        /* \"#utility.yul\":15636:15655   */\n      lt\n        /* \"#utility.yul\":15633:15812   */\n      iszero\n      tag_290\n      jumpi\n        /* \"#utility.yul\":15706:15715   */\n      dup5\n        /* \"#utility.yul\":15701:15704   */\n      dup10\n        /* \"#utility.yul\":15697:15716   */\n      add\n        /* \"#utility.yul\":15691:15717   */\n      mload\n        /* \"#utility.yul\":15749:15797   */\n      tag_291\n        /* \"#utility.yul\":15791:15795   */\n      0x1f\n        /* \"#utility.yul\":15783:15789   */\n      dup10\n        /* \"#utility.yul\":15779:15796   */\n      and\n        /* \"#utility.yul\":15768:15777   */\n      dup3\n        /* \"#utility.yul\":15749:15797   */\n      tag_121\n      jump\t// in\n    tag_291:\n        /* \"#utility.yul\":15741:15747   */\n      dup4\n        /* \"#utility.yul\":15734:15798   */\n      sstore\n        /* \"#utility.yul\":15656:15812   */\n      pop\n        /* \"#utility.yul\":15633:15812   */\n    tag_290:\n        /* \"#utility.yul\":15858:15859   */\n      0x01\n        /* \"#utility.yul\":15854:15855   */\n      0x02\n        /* \"#utility.yul\":15846:15852   */\n      dup9\n        /* \"#utility.yul\":15842:15856   */\n      mul\n        /* \"#utility.yul\":15838:15860   */\n      add\n        /* \"#utility.yul\":15832:15836   */\n      dup9\n        /* \"#utility.yul\":15825:15861   */\n      sstore\n        /* \"#utility.yul\":15260:15871   */\n      pop\n      pop\n      pop\n        /* \"#utility.yul\":15223:16110   */\n    tag_282:\n      pop\n        /* \"#utility.yul\":14813:16116   */\n      pop\n      pop\n      pop\n        /* \"#utility.yul\":14721:16116   */\n      pop\n      pop\n      jump\t// out\n        /* \"#utility.yul\":16122:16316   */\n    tag_68:\n        /* \"#utility.yul\":16162:16166   */\n      0x00\n        /* \"#utility.yul\":16182:16202   */\n      tag_293\n        /* \"#utility.yul\":16200:16201   */\n      dup3\n        /* \"#utility.yul\":16182:16202   */\n      tag_74\n      jump\t// in\n    tag_293:\n        /* \"#utility.yul\":16177:16202   */\n      swap2\n      pop\n        /* \"#utility.yul\":16216:16236   */\n      tag_294\n        /* \"#utility.yul\":16234:16235   */\n      dup4\n        /* \"#utility.yul\":16216:16236   */\n      tag_74\n      jump\t// in\n    tag_294:\n        /* \"#utility.yul\":16211:16236   */\n      swap3\n      pop\n        /* \"#utility.yul\":16260:16261   */\n      dup3\n        /* \"#utility.yul\":16257:16258   */\n      dup3\n        /* \"#utility.yul\":16253:16262   */\n      sub\n        /* \"#utility.yul\":16245:16262   */\n      swap1\n      pop\n        /* \"#utility.yul\":16284:16285   */\n      dup2\n        /* \"#utility.yul\":16278:16282   */\n      dup2\n        /* \"#utility.yul\":16275:16286   */\n      gt\n        /* \"#utility.yul\":16272:16309   */\n      iszero\n      tag_295\n      jumpi\n        /* \"#utility.yul\":16289:16307   */\n      tag_296\n      tag_102\n      jump\t// in\n    tag_296:\n        /* \"#utility.yul\":16272:16309   */\n    tag_295:\n        /* \"#utility.yul\":16122:16316   */\n      swap3\n      swap2\n      pop\n      pop\n      jump\t// out\n        /* \"#utility.yul\":16322:16635   */\n    tag_70:\n        /* \"#utility.yul\":16435:16439   */\n      0x00\n        /* \"#utility.yul\":16473:16475   */\n      0x20\n        /* \"#utility.yul\":16462:16471   */\n      dup3\n        /* \"#utility.yul\":16458:16476   */\n      add\n        /* \"#utility.yul\":16450:16476   */\n      swap1\n      pop\n        /* \"#utility.yul\":16522:16531   */\n      dup2\n        /* \"#utility.yul\":16516:16520   */\n      dup2\n        /* \"#utility.yul\":16512:16532   */\n      sub\n        /* \"#utility.yul\":16508:16509   */\n      0x00\n        /* \"#utility.yul\":16497:16506   */\n      dup4\n        /* \"#utility.yul\":16493:16510   */\n      add\n        /* \"#utility.yul\":16486:16533   */\n      mstore\n        /* \"#utility.yul\":16550:16628   */\n      tag_298\n        /* \"#utility.yul\":16623:16627   */\n      dup2\n        /* \"#utility.yul\":16614:16620   */\n      dup5\n        /* \"#utility.yul\":16550:16628   */\n      tag_81\n      jump\t// in\n    tag_298:\n        /* \"#utility.yul\":16542:16628   */\n      swap1\n      pop\n        /* \"#utility.yul\":16322:16635   */\n      swap3\n      swap2\n      pop\n      pop\n      jump\t// out\n\n    auxdata: 0xa2646970667358221220498ca9c201b34e7d11136291e5ab50ac19771110d2a4b00c43820691a7cf114d64736f6c634300081a0033\n}\n",
				"bytecode": {
					"linkReferences": {},
					"object": "6080604052348015600e575f80fd5b50610e5f8061001c5f395ff3fe608060405234801561000f575f80fd5b5060043610610055575f3560e01c80630121b93f14610059578063013cf08b146100755780630d61b519146100a757806349c2a1a6146100c3578063a3ec138d146100df575b5f80fd5b610073600480360381019061006e91906105a8565b610110565b005b61008f600480360381019061008a91906105a8565b61029e565b60405161009e9392919061066c565b60405180910390f35b6100c160048036038101906100bc91906105a8565b610364565b005b6100dd60048036038101906100d891906107d4565b61046a565b005b6100f960048036038101906100f49190610875565b610538565b6040516101079291906108a0565b60405180910390f35b5f60015f3373ffffffffffffffffffffffffffffffffffffffff1673ffffffffffffffffffffffffffffffffffffffff1681526020019081526020015f209050805f015f9054906101000a900460ff16156101a0576040517f08c379a000000000000000000000000000000000000000000000000000000000815260040161019790610911565b60405180910390fd5b5f8054905082106101e6576040517f08c379a00000000000000000000000000000000000000000000000000000000081526004016101dd90610979565b60405180910390fd5b6001815f015f6101000a81548160ff0219169083151502179055506001816001018190555080600101545f838154811061022357610222610997565b5b905f5260205f2090600302016001015f82825461024091906109f1565b925050819055503373ffffffffffffffffffffffffffffffffffffffff16827f1abe610cf2bf87e57dcc1181fcf5ac0934e843d8344ab9eed6e86c799f62585e83600101546040516102929190610a24565b60405180910390a35050565b5f81815481106102ac575f80fd5b905f5260205f2090600302015f91509050805f0180546102cb90610a6a565b80601f01602080910402602001604051908101604052809291908181526020018280546102f790610a6a565b80156103425780601f1061031957610100808354040283529160200191610342565b820191905f5260205f20905b81548152906001019060200180831161032557829003601f168201915b505050505090806001015490806002015f9054906101000a900460ff16905083565b5f80828154811061037857610377610997565b5b905f5260205f2090600302019050806002015f9054906101000a900460ff16156103d7576040517f08c379a00000000000000000000000000000000000000000000000000000000081526004016103ce90610ae4565b60405180910390fd5b5f81600101541161041d576040517f08c379a000000000000000000000000000000000000000000000000000000000815260040161041490610b4c565b60405180910390fd5b6001816002015f6101000a81548160ff021916908315150217905550817f712ae1383f79ac853f8d882153778e0260ef8f03b504e2866e0593e04d2b291f60405160405180910390a25050565b5f60405180606001604052808381526020015f81526020015f1515815250908060018154018082558091505060019003905f5260205f2090600302015f909190919091505f820151815f0190816104c19190610d07565b50602082015181600101556040820151816002015f6101000a81548160ff021916908315150217905550505060015f805490506104fe9190610dd6565b7f9c770c289ab5bf7e57cb1d23c8ceae993aea46eb64847072fd3d78ca60d3e4328260405161052d9190610e09565b60405180910390a250565b6001602052805f5260405f205f91509050805f015f9054906101000a900460ff16908060010154905082565b5f604051905090565b5f80fd5b5f80fd5b5f819050919050565b61058781610575565b8114610591575f80fd5b50565b5f813590506105a28161057e565b92915050565b5f602082840312156105bd576105bc61056d565b5b5f6105ca84828501610594565b91505092915050565b5f81519050919050565b5f82825260208201905092915050565b8281835e5f83830152505050565b5f601f19601f8301169050919050565b5f610615826105d3565b61061f81856105dd565b935061062f8185602086016105ed565b610638816105fb565b840191505092915050565b61064c81610575565b82525050565b5f8115159050919050565b61066681610652565b82525050565b5f6060820190508181035f830152610684818661060b565b90506106936020830185610643565b6106a0604083018461065d565b949350505050565b5f80fd5b5f80fd5b7f4e487b71000000000000000000000000000000000000000000000000000000005f52604160045260245ffd5b6106e6826105fb565b810181811067ffffffffffffffff82111715610705576107046106b0565b5b80604052505050565b5f610717610564565b905061072382826106dd565b919050565b5f67ffffffffffffffff821115610742576107416106b0565b5b61074b826105fb565b9050602081019050919050565b828183375f83830152505050565b5f61077861077384610728565b61070e565b905082815260208101848484011115610794576107936106ac565b5b61079f848285610758565b509392505050565b5f82601f8301126107bb576107ba6106a8565b5b81356107cb848260208601610766565b91505092915050565b5f602082840312156107e9576107e861056d565b5b5f82013567ffffffffffffffff81111561080657610805610571565b5b610812848285016107a7565b91505092915050565b5f73ffffffffffffffffffffffffffffffffffffffff82169050919050565b5f6108448261081b565b9050919050565b6108548161083a565b811461085e575f80fd5b50565b5f8135905061086f8161084b565b92915050565b5f6020828403121561088a5761088961056d565b5b5f61089784828501610861565b91505092915050565b5f6040820190506108b35f83018561065d565b6108c06020830184610643565b9392505050565b7f416c726561647920766f746564000000000000000000000000000000000000005f82015250565b5f6108fb600d836105dd565b9150610906826108c7565b602082019050919050565b5f6020820190508181035f830152610928816108ef565b9050919050565b7f496e76616c69642070726f706f73616c000000000000000000000000000000005f82015250565b5f6109636010836105dd565b915061096e8261092f565b602082019050919050565b5f6020820190508181035f83015261099081610957565b9050919050565b7f4e487b71000000000000000000000000000000000000000000000000000000005f52603260045260245ffd5b7f4e487b71000000000000000000000000000000000000000000000000000000005f52601160045260245ffd5b5f6109fb82610575565b9150610a0683610575565b9250828201905080821115610a1e57610a1d6109c4565b5b92915050565b5f602082019050610a375f830184610643565b92915050565b7f4e487b71000000000000000000000000000000000000000000000000000000005f52602260045260245ffd5b5f6002820490506001821680610a8157607f821691505b602082108103610a9457610a93610a3d565b5b50919050565b7f416c7265616479206578656375746564000000000000000000000000000000005f82015250565b5f610ace6010836105dd565b9150610ad982610a9a565b602082019050919050565b5f6020820190508181035f830152610afb81610ac2565b9050919050565b7f4e6f7420656e6f75676820766f746573000000000000000000000000000000005f82015250565b5f610b366010836105dd565b9150610b4182610b02565b602082019050919050565b5f6020820190508181035f830152610b6381610b2a565b9050919050565b5f819050815f5260205f209050919050565b5f6020601f8301049050919050565b5f82821b905092915050565b5f60088302610bc67fffffffffffffffffffffffffffffffffffffffffffffffffffffffffffffffff82610b8b565b610bd08683610b8b565b95508019841693508086168417925050509392505050565b5f819050919050565b5f610c0b610c06610c0184610575565b610be8565b610575565b9050919050565b5f819050919050565b610c2483610bf1565b610c38610c3082610c12565b848454610b97565b825550505050565b5f90565b610c4c610c40565b610c57818484610c1b565b505050565b5b81811015610c7a57610c6f5f82610c44565b600181019050610c5d565b5050565b601f821115610cbf57610c9081610b6a565b610c9984610b7c565b81016020851015610ca8578190505b610cbc610cb485610b7c565b830182610c5c565b50505b505050565b5f82821c905092915050565b5f610cdf5f1984600802610cc4565b1980831691505092915050565b5f610cf78383610cd0565b9150826002028217905092915050565b610d10826105d3565b67ffffffffffffffff811115610d2957610d286106b0565b5b610d338254610a6a565b610d3e828285610c7e565b5f60209050601f831160018114610d6f575f8415610d5d578287015190505b610d678582610cec565b865550610dce565b601f198416610d7d86610b6a565b5f5b82811015610da457848901518255600182019150602085019450602081019050610d7f565b86831015610dc15784890151610dbd601f891682610cd0565b8355505b6001600288020188555050505b505050505050565b5f610de082610575565b9150610deb83610575565b9250828203905081811115610e0357610e026109c4565b5b92915050565b5f6020820190508181035f830152610e21818461060b565b90509291505056fea2646970667358221220498ca9c201b34e7d11136291e5ab50ac19771110d2a4b00c43820691a7cf114d64736f6c634300081a0033",
					"opcodes": "PUSH1 0x80 PUSH1 0x40 MSTORE CALLVALUE DUP1 ISZERO PUSH1 0xE JUMPI PUSH0 DUP1 REVERT JUMPDEST POP PUSH2 0xE5F DUP1 PUSH2 0x1C PUSH0 CODECOPY PUSH0 RETURN INVALID PUSH1 0x80 PUSH1 0x40 MSTORE CALLVALUE DUP1 ISZERO PUSH2 0xF JUMPI PUSH0 DUP1 REVERT JUMPDEST POP PUSH1 0x4 CALLDATASIZE LT PUSH2 0x55 JUMPI PUSH0 CALLDATALOAD PUSH1 0xE0 SHR DUP1 PUSH4 0x121B93F EQ PUSH2 0x59 JUMPI DUP1 PUSH4 0x13CF08B EQ PUSH2 0x75 JUMPI DUP1 PUSH4 0xD61B519 EQ PUSH2 0xA7 JUMPI DUP1 PUSH4 0x49C2A1A6 EQ PUSH2 0xC3 JUMPI DUP1 PUSH4 0xA3EC138D EQ PUSH2 0xDF JUMPI JUMPDEST PUSH0 DUP1 REVERT JUMPDEST PUSH2 0x73 PUSH1 0x4 DUP1 CALLDATASIZE SUB DUP2 ADD SWAP1 PUSH2 0x6E SWAP2 SWAP1 PUSH2 0x5A8 JUMP JUMPDEST PUSH2 0x110 JUMP JUMPDEST STOP JUMPDEST PUSH2 0x8F PUSH1 0x4 DUP1 CALLDATASIZE SUB DUP2 ADD SWAP1 PUSH2 0x8A SWAP2 SWAP1 PUSH2 0x5A8 JUMP JUMPDEST PUSH2 0x29E JUMP JUMPDEST PUSH1 0x40 MLOAD PUSH2 0x9E SWAP4 SWAP3 SWAP2 SWAP1 PUSH2 0x66C JUMP JUMPDEST PUSH1 0x40 MLOAD DUP1 SWAP2 SUB SWAP1 RETURN JUMPDEST PUSH2 0xC1 PUSH1 0x4 DUP1 CALLDATASIZE SUB DUP2 ADD SWAP1 PUSH2 0xBC SWAP2 SWAP1 PUSH2 0x5A8 JUMP JUMPDEST PUSH2 0x364 JUMP JUMPDEST STOP JUMPDEST PUSH2 0xDD PUSH1 0x4 DUP1 CALLDATASIZE SUB DUP2 ADD SWAP1 PUSH2 0xD8 SWAP2 SWAP1 PUSH2 0x7D4 JUMP JUMPDEST PUSH2 0x46A JUMP JUMPDEST STOP JUMPDEST PUSH2 0xF9 PUSH1 0x4 DUP1 CALLDATASIZE SUB DUP2 ADD SWAP1 PUSH2 0xF4 SWAP2 SWAP1 PUSH2 0x875 JUMP JUMPDEST PUSH2 0x538 JUMP JUMPDEST PUSH1 0x40 MLOAD PUSH2 0x107 SWAP3 SWAP2 SWAP1 PUSH2 0x8A0 JUMP JUMPDEST PUSH1 0x40 MLOAD DUP1 SWAP2 SUB SWAP1 RETURN JUMPDEST PUSH0 PUSH1 0x1 PUSH0 CALLER PUSH20 0xFFFFFFFFFFFFFFFFFFFFFFFFFFFFFFFFFFFFFFFF AND PUSH20 0xFFFFFFFFFFFFFFFFFFFFFFFFFFFFFFFFFFFFFFFF AND DUP2 MSTORE PUSH1 0x20 ADD SWAP1 DUP2 MSTORE PUSH1 0x20 ADD PUSH0 KECCAK256 SWAP1 POP DUP1 PUSH0 ADD PUSH0 SWAP1 SLOAD SWAP1 PUSH2 0x100 EXP SWAP1 DIV PUSH1 0xFF AND ISZERO PUSH2 0x1A0 JUMPI PUSH1 0x40 MLOAD PUSH32 0x8C379A000000000000000000000000000000000000000000000000000000000 DUP2 MSTORE PUSH1 0x4 ADD PUSH2 0x197 SWAP1 PUSH2 0x911 JUMP JUMPDEST PUSH1 0x40 MLOAD DUP1 SWAP2 SUB SWAP1 REVERT JUMPDEST PUSH0 DUP1 SLOAD SWAP1 POP DUP3 LT PUSH2 0x1E6 JUMPI PUSH1 0x40 MLOAD PUSH32 0x8C379A000000000000000000000000000000000000000000000000000000000 DUP2 MSTORE PUSH1 0x4 ADD PUSH2 0x1DD SWAP1 PUSH2 0x979 JUMP JUMPDEST PUSH1 0x40 MLOAD DUP1 SWAP2 SUB SWAP1 REVERT JUMPDEST PUSH1 0x1 DUP2 PUSH0 ADD PUSH0 PUSH2 0x100 EXP DUP2 SLOAD DUP2 PUSH1 0xFF MUL NOT AND SWAP1 DUP4 ISZERO ISZERO MUL OR SWAP1 SSTORE POP PUSH1 0x1 DUP2 PUSH1 0x1 ADD DUP2 SWAP1 SSTORE POP DUP1 PUSH1 0x1 ADD SLOAD PUSH0 DUP4 DUP2 SLOAD DUP2 LT PUSH2 0x223 JUMPI PUSH2 0x222 PUSH2 0x997 JUMP JUMPDEST JUMPDEST SWAP1 PUSH0 MSTORE PUSH1 0x20 PUSH0 KECCAK256 SWAP1 PUSH1 0x3 MUL ADD PUSH1 0x1 ADD PUSH0 DUP3 DUP3 SLOAD PUSH2 0x240 SWAP2 SWAP1 PUSH2 0x9F1 JUMP JUMPDEST SWAP3 POP POP DUP2 SWAP1 SSTORE POP CALLER PUSH20 0xFFFFFFFFFFFFFFFFFFFFFFFFFFFFFFFFFFFFFFFF AND DUP3 PUSH32 0x1ABE610CF2BF87E57DCC1181FCF5AC0934E843D8344AB9EED6E86C799F62585E DUP4 PUSH1 0x1 ADD SLOAD PUSH1 0x40 MLOAD PUSH2 0x292 SWAP2 SWAP1 PUSH2 0xA24 JUMP JUMPDEST PUSH1 0x40 MLOAD DUP1 SWAP2 SUB SWAP1 LOG3 POP POP JUMP JUMPDEST PUSH0 DUP2 DUP2 SLOAD DUP2 LT PUSH2 0x2AC JUMPI PUSH0 DUP1 REVERT JUMPDEST SWAP1 PUSH0 MSTORE PUSH1 0x20 PUSH0 KECCAK256 SWAP1 PUSH1 0x3 MUL ADD PUSH0 SWAP2 POP SWAP1 POP DUP1 PUSH0 ADD DUP1 SLOAD PUSH2 0x2CB SWAP1 PUSH2 0xA6A JUMP JUMPDEST DUP1 PUSH1 0x1F ADD PUSH1 0x20 DUP1 SWAP2 DIV MUL PUSH1 0x20 ADD PUSH1 0x40 MLOAD SWAP1 DUP2 ADD PUSH1 0x40 MSTORE DUP1 SWAP3 SWAP2 SWAP1 DUP2 DUP2 MSTORE PUSH1 0x20 ADD DUP3 DUP1 SLOAD PUSH2 0x2F7 SWAP1 PUSH2 0xA6A JUMP JUMPDEST DUP1 ISZERO PUSH2 0x342 JUMPI DUP1 PUSH1 0x1F LT PUSH2 0x319 JUMPI PUSH2 0x100 DUP1 DUP4 SLOAD DIV MUL DUP4 MSTORE SWAP2 PUSH1 0x20 ADD SWAP2 PUSH2 0x342 JUMP JUMPDEST DUP3 ADD SWAP2 SWAP1 PUSH0 MSTORE PUSH1 0x20 PUSH0 KECCAK256 SWAP1 JUMPDEST DUP2 SLOAD DUP2 MSTORE SWAP1 PUSH1 0x1 ADD SWAP1 PUSH1 0x20 ADD DUP1 DUP4 GT PUSH2 0x325 JUMPI DUP3 SWAP1 SUB PUSH1 0x1F AND DUP3 ADD SWAP2 JUMPDEST POP POP POP POP POP SWAP1 DUP1 PUSH1 0x1 ADD SLOAD SWAP1 DUP1 PUSH1 0x2 ADD PUSH0 SWAP1 SLOAD SWAP1 PUSH2 0x100 EXP SWAP1 DIV PUSH1 0xFF AND SWAP1 POP DUP4 JUMP JUMPDEST PUSH0 DUP1 DUP3 DUP2 SLOAD DUP2 LT PUSH2 0x378 JUMPI PUSH2 0x377 PUSH2 0x997 JUMP JUMPDEST JUMPDEST SWAP1 PUSH0 MSTORE PUSH1 0x20 PUSH0 KECCAK256 SWAP1 PUSH1 0x3 MUL ADD SWAP1 POP DUP1 PUSH1 0x2 ADD PUSH0 SWAP1 SLOAD SWAP1 PUSH2 0x100 EXP SWAP1 DIV PUSH1 0xFF AND ISZERO PUSH2 0x3D7 JUMPI PUSH1 0x40 MLOAD PUSH32 0x8C379A000000000000000000000000000000000000000000000000000000000 DUP2 MSTORE PUSH1 0x4 ADD PUSH2 0x3CE SWAP1 PUSH2 0xAE4 JUMP JUMPDEST PUSH1 0x40 MLOAD DUP1 SWAP2 SUB SWAP1 REVERT JUMPDEST PUSH0 DUP2 PUSH1 0x1 ADD SLOAD GT PUSH2 0x41D JUMPI PUSH1 0x40 MLOAD PUSH32 0x8C379A000000000000000000000000000000000000000000000000000000000 DUP2 MSTORE PUSH1 0x4 ADD PUSH2 0x414 SWAP1 PUSH2 0xB4C JUMP JUMPDEST PUSH1 0x40 MLOAD DUP1 SWAP2 SUB SWAP1 REVERT JUMPDEST PUSH1 0x1 DUP2 PUSH1 0x2 ADD PUSH0 PUSH2 0x100 EXP DUP2 SLOAD DUP2 PUSH1 0xFF MUL NOT AND SWAP1 DUP4 ISZERO ISZERO MUL OR SWAP1 SSTORE POP DUP2 PUSH32 0x712AE1383F79AC853F8D882153778E0260EF8F03B504E2866E0593E04D2B291F PUSH1 0x40 MLOAD PUSH1 0x40 MLOAD DUP1 SWAP2 SUB SWAP1 LOG2 POP POP JUMP JUMPDEST PUSH0 PUSH1 0x40 MLOAD DUP1 PUSH1 0x60 ADD PUSH1 0x40 MSTORE DUP1 DUP4 DUP2 MSTORE PUSH1 0x20 ADD PUSH0 DUP2 MSTORE PUSH1 0x20 ADD PUSH0 ISZERO ISZERO DUP2 MSTORE POP SWAP1 DUP1 PUSH1 0x1 DUP2 SLOAD ADD DUP1 DUP3 SSTORE DUP1 SWAP2 POP POP PUSH1 0x1 SWAP1 SUB SWAP1 PUSH0 MSTORE PUSH1 0x20 PUSH0 KECCAK256 SWAP1 PUSH1 0x3 MUL ADD PUSH0 SWAP1 SWAP2 SWAP1 SWAP2 SWAP1 SWAP2 POP PUSH0 DUP3 ADD MLOAD DUP2 PUSH0 ADD SWAP1 DUP2 PUSH2 0x4C1 SWAP2 SWAP1 PUSH2 0xD07 JUMP JUMPDEST POP PUSH1 0x20 DUP3 ADD MLOAD DUP2 PUSH1 0x1 ADD SSTORE PUSH1 0x40 DUP3 ADD MLOAD DUP2 PUSH1 0x2 ADD PUSH0 PUSH2 0x100 EXP DUP2 SLOAD DUP2 PUSH1 0xFF MUL NOT AND SWAP1 DUP4 ISZERO ISZERO MUL OR SWAP1 SSTORE POP POP POP PUSH1 0x1 PUSH0 DUP1 SLOAD SWAP1 POP PUSH2 0x4FE SWAP2 SWAP1 PUSH2 0xDD6 JUMP JUMPDEST PUSH32 0x9C770C289AB5BF7E57CB1D23C8CEAE993AEA46EB64847072FD3D78CA60D3E432 DUP3 PUSH1 0x40 MLOAD PUSH2 0x52D SWAP2 SWAP1 PUSH2 0xE09 JUMP JUMPDEST PUSH1 0x40 MLOAD DUP1 SWAP2 SUB SWAP1 LOG2 POP JUMP JUMPDEST PUSH1 0x1 PUSH1 0x20 MSTORE DUP1 PUSH0 MSTORE PUSH1 0x40 PUSH0 KECCAK256 PUSH0 SWAP2 POP SWAP1 POP DUP1 PUSH0 ADD PUSH0 SWAP1 SLOAD SWAP1 PUSH2 0x100 EXP SWAP1 DIV PUSH1 0xFF AND SWAP1 DUP1 PUSH1 0x1 ADD SLOAD SWAP1 POP DUP3 JUMP JUMPDEST PUSH0 PUSH1 0x40 MLOAD SWAP1 POP SWAP1 JUMP JUMPDEST PUSH0 DUP1 REVERT JUMPDEST PUSH0 DUP1 REVERT JUMPDEST PUSH0 DUP2 SWAP1 POP SWAP2 SWAP1 POP JUMP JUMPDEST PUSH2 0x587 DUP2 PUSH2 0x575 JUMP JUMPDEST DUP2 EQ PUSH2 0x591 JUMPI PUSH0 DUP1 REVERT JUMPDEST POP JUMP JUMPDEST PUSH0 DUP2 CALLDATALOAD SWAP1 POP PUSH2 0x5A2 DUP2 PUSH2 0x57E JUMP JUMPDEST SWAP3 SWAP2 POP POP JUMP JUMPDEST PUSH0 PUSH1 0x20 DUP3 DUP5 SUB SLT ISZERO PUSH2 0x5BD JUMPI PUSH2 0x5BC PUSH2 0x56D JUMP JUMPDEST JUMPDEST PUSH0 PUSH2 0x5CA DUP5 DUP3 DUP6 ADD PUSH2 0x594 JUMP JUMPDEST SWAP2 POP POP SWAP3 SWAP2 POP POP JUMP JUMPDEST PUSH0 DUP2 MLOAD SWAP1 POP SWAP2 SWAP1 POP JUMP JUMPDEST PUSH0 DUP3 DUP3 MSTORE PUSH1 0x20 DUP3 ADD SWAP1 POP SWAP3 SWAP2 POP POP JUMP JUMPDEST DUP3 DUP2 DUP4 MCOPY PUSH0 DUP4 DUP4 ADD MSTORE POP POP POP JUMP JUMPDEST PUSH0 PUSH1 0x1F NOT PUSH1 0x1F DUP4 ADD AND SWAP1 POP SWAP2 SWAP1 POP JUMP JUMPDEST PUSH0 PUSH2 0x615 DUP3 PUSH2 0x5D3 JUMP JUMPDEST PUSH2 0x61F DUP2 DUP6 PUSH2 0x5DD JUMP JUMPDEST SWAP4 POP PUSH2 0x62F DUP2 DUP6 PUSH1 0x20 DUP7 ADD PUSH2 0x5ED JUMP JUMPDEST PUSH2 0x638 DUP2 PUSH2 0x5FB JUMP JUMPDEST DUP5 ADD SWAP2 POP POP SWAP3 SWAP2 POP POP JUMP JUMPDEST PUSH2 0x64C DUP2 PUSH2 0x575 JUMP JUMPDEST DUP3 MSTORE POP POP JUMP JUMPDEST PUSH0 DUP2 ISZERO ISZERO SWAP1 POP SWAP2 SWAP1 POP JUMP JUMPDEST PUSH2 0x666 DUP2 PUSH2 0x652 JUMP JUMPDEST DUP3 MSTORE POP POP JUMP JUMPDEST PUSH0 PUSH1 0x60 DUP3 ADD SWAP1 POP DUP2 DUP2 SUB PUSH0 DUP4 ADD MSTORE PUSH2 0x684 DUP2 DUP7 PUSH2 0x60B JUMP JUMPDEST SWAP1 POP PUSH2 0x693 PUSH1 0x20 DUP4 ADD DUP6 PUSH2 0x643 JUMP JUMPDEST PUSH2 0x6A0 PUSH1 0x40 DUP4 ADD DUP5 PUSH2 0x65D JUMP JUMPDEST SWAP5 SWAP4 POP POP POP POP JUMP JUMPDEST PUSH0 DUP1 REVERT JUMPDEST PUSH0 DUP1 REVERT JUMPDEST PUSH32 0x4E487B7100000000000000000000000000000000000000000000000000000000 PUSH0 MSTORE PUSH1 0x41 PUSH1 0x4 MSTORE PUSH1 0x24 PUSH0 REVERT JUMPDEST PUSH2 0x6E6 DUP3 PUSH2 0x5FB JUMP JUMPDEST DUP2 ADD DUP2 DUP2 LT PUSH8 0xFFFFFFFFFFFFFFFF DUP3 GT OR ISZERO PUSH2 0x705 JUMPI PUSH2 0x704 PUSH2 0x6B0 JUMP JUMPDEST JUMPDEST DUP1 PUSH1 0x40 MSTORE POP POP POP JUMP JUMPDEST PUSH0 PUSH2 0x717 PUSH2 0x564 JUMP JUMPDEST SWAP1 POP PUSH2 0x723 DUP3 DUP3 PUSH2 0x6DD JUMP JUMPDEST SWAP2 SWAP1 POP JUMP JUMPDEST PUSH0 PUSH8 0xFFFFFFFFFFFFFFFF DUP3 GT ISZERO PUSH2 0x742 JUMPI PUSH2 0x741 PUSH2 0x6B0 JUMP JUMPDEST JUMPDEST PUSH2 0x74B DUP3 PUSH2 0x5FB JUMP JUMPDEST SWAP1 POP PUSH1 0x20 DUP2 ADD SWAP1 POP SWAP2 SWAP1 POP JUMP JUMPDEST DUP3 DUP2 DUP4 CALLDATACOPY PUSH0 DUP4 DUP4 ADD MSTORE POP POP POP JUMP JUMPDEST PUSH0 PUSH2 0x778 PUSH2 0x773 DUP5 PUSH2 0x728 JUMP JUMPDEST PUSH2 0x70E JUMP JUMPDEST SWAP1 POP DUP3 DUP2 MSTORE PUSH1 0x20 DUP2 ADD DUP5 DUP5 DUP5 ADD GT ISZERO PUSH2 0x794 JUMPI PUSH2 0x793 PUSH2 0x6AC JUMP JUMPDEST JUMPDEST PUSH2 0x79F DUP5 DUP3 DUP6 PUSH2 0x758 JUMP JUMPDEST POP SWAP4 SWAP3 POP POP POP JUMP JUMPDEST PUSH0 DUP3 PUSH1 0x1F DUP4 ADD SLT PUSH2 0x7BB JUMPI PUSH2 0x7BA PUSH2 0x6A8 JUMP JUMPDEST JUMPDEST DUP2 CALLDATALOAD PUSH2 0x7CB DUP5 DUP3 PUSH1 0x20 DUP7 ADD PUSH2 0x766 JUMP JUMPDEST SWAP2 POP POP SWAP3 SWAP2 POP POP JUMP JUMPDEST PUSH0 PUSH1 0x20 DUP3 DUP5 SUB SLT ISZERO PUSH2 0x7E9 JUMPI PUSH2 0x7E8 PUSH2 0x56D JUMP JUMPDEST JUMPDEST PUSH0 DUP3 ADD CALLDATALOAD PUSH8 0xFFFFFFFFFFFFFFFF DUP2 GT ISZERO PUSH2 0x806 JUMPI PUSH2 0x805 PUSH2 0x571 JUMP JUMPDEST JUMPDEST PUSH2 0x812 DUP5 DUP3 DUP6 ADD PUSH2 0x7A7 JUMP JUMPDEST SWAP2 POP POP SWAP3 SWAP2 POP POP JUMP JUMPDEST PUSH0 PUSH20 0xFFFFFFFFFFFFFFFFFFFFFFFFFFFFFFFFFFFFFFFF DUP3 AND SWAP1 POP SWAP2 SWAP1 POP JUMP JUMPDEST PUSH0 PUSH2 0x844 DUP3 PUSH2 0x81B JUMP JUMPDEST SWAP1 POP SWAP2 SWAP1 POP JUMP JUMPDEST PUSH2 0x854 DUP2 PUSH2 0x83A JUMP JUMPDEST DUP2 EQ PUSH2 0x85E JUMPI PUSH0 DUP1 REVERT JUMPDEST POP JUMP JUMPDEST PUSH0 DUP2 CALLDATALOAD SWAP1 POP PUSH2 0x86F DUP2 PUSH2 0x84B JUMP JUMPDEST SWAP3 SWAP2 POP POP JUMP JUMPDEST PUSH0 PUSH1 0x20 DUP3 DUP5 SUB SLT ISZERO PUSH2 0x88A JUMPI PUSH2 0x889 PUSH2 0x56D JUMP JUMPDEST JUMPDEST PUSH0 PUSH2 0x897 DUP5 DUP3 DUP6 ADD PUSH2 0x861 JUMP JUMPDEST SWAP2 POP POP SWAP3 SWAP2 POP POP JUMP JUMPDEST PUSH0 PUSH1 0x40 DUP3 ADD SWAP1 POP PUSH2 0x8B3 PUSH0 DUP4 ADD DUP6 PUSH2 0x65D JUMP JUMPDEST PUSH2 0x8C0 PUSH1 0x20 DUP4 ADD DUP5 PUSH2 0x643 JUMP JUMPDEST SWAP4 SWAP3 POP POP POP JUMP JUMPDEST PUSH32 0x416C726561647920766F74656400000000000000000000000000000000000000 PUSH0 DUP3 ADD MSTORE POP JUMP JUMPDEST PUSH0 PUSH2 0x8FB PUSH1 0xD DUP4 PUSH2 0x5DD JUMP JUMPDEST SWAP2 POP PUSH2 0x906 DUP3 PUSH2 0x8C7 JUMP JUMPDEST PUSH1 0x20 DUP3 ADD SWAP1 POP SWAP2 SWAP1 POP JUMP JUMPDEST PUSH0 PUSH1 0x20 DUP3 ADD SWAP1 POP DUP2 DUP2 SUB PUSH0 DUP4 ADD MSTORE PUSH2 0x928 DUP2 PUSH2 0x8EF JUMP JUMPDEST SWAP1 POP SWAP2 SWAP1 POP JUMP JUMPDEST PUSH32 0x496E76616C69642070726F706F73616C00000000000000000000000000000000 PUSH0 DUP3 ADD MSTORE POP JUMP JUMPDEST PUSH0 PUSH2 0x963 PUSH1 0x10 DUP4 PUSH2 0x5DD JUMP JUMPDEST SWAP2 POP PUSH2 0x96E DUP3 PUSH2 0x92F JUMP JUMPDEST PUSH1 0x20 DUP3 ADD SWAP1 POP SWAP2 SWAP1 POP JUMP JUMPDEST PUSH0 PUSH1 0x20 DUP3 ADD SWAP1 POP DUP2 DUP2 SUB PUSH0 DUP4 ADD MSTORE PUSH2 0x990 DUP2 PUSH2 0x957 JUMP JUMPDEST SWAP1 POP SWAP2 SWAP1 POP JUMP JUMPDEST PUSH32 0x4E487B7100000000000000000000000000000000000000000000000000000000 PUSH0 MSTORE PUSH1 0x32 PUSH1 0x4 MSTORE PUSH1 0x24 PUSH0 REVERT JUMPDEST PUSH32 0x4E487B7100000000000000000000000000000000000000000000000000000000 PUSH0 MSTORE PUSH1 0x11 PUSH1 0x4 MSTORE PUSH1 0x24 PUSH0 REVERT JUMPDEST PUSH0 PUSH2 0x9FB DUP3 PUSH2 0x575 JUMP JUMPDEST SWAP2 POP PUSH2 0xA06 DUP4 PUSH2 0x575 JUMP JUMPDEST SWAP3 POP DUP3 DUP3 ADD SWAP1 POP DUP1 DUP3 GT ISZERO PUSH2 0xA1E JUMPI PUSH2 0xA1D PUSH2 0x9C4 JUMP JUMPDEST JUMPDEST SWAP3 SWAP2 POP POP JUMP JUMPDEST PUSH0 PUSH1 0x20 DUP3 ADD SWAP1 POP PUSH2 0xA37 PUSH0 DUP4 ADD DUP5 PUSH2 0x643 JUMP JUMPDEST SWAP3 SWAP2 POP POP JUMP JUMPDEST PUSH32 0x4E487B7100000000000000000000000000000000000000000000000000000000 PUSH0 MSTORE PUSH1 0x22 PUSH1 0x4 MSTORE PUSH1 0x24 PUSH0 REVERT JUMPDEST PUSH0 PUSH1 0x2 DUP3 DIV SWAP1 POP PUSH1 0x1 DUP3 AND DUP1 PUSH2 0xA81 JUMPI PUSH1 0x7F DUP3 AND SWAP2 POP JUMPDEST PUSH1 0x20 DUP3 LT DUP2 SUB PUSH2 0xA94 JUMPI PUSH2 0xA93 PUSH2 0xA3D JUMP JUMPDEST JUMPDEST POP SWAP2 SWAP1 POP JUMP JUMPDEST PUSH32 0x416C726561647920657865637574656400000000000000000000000000000000 PUSH0 DUP3 ADD MSTORE POP JUMP JUMPDEST PUSH0 PUSH2 0xACE PUSH1 0x10 DUP4 PUSH2 0x5DD JUMP JUMPDEST SWAP2 POP PUSH2 0xAD9 DUP3 PUSH2 0xA9A JUMP JUMPDEST PUSH1 0x20 DUP3 ADD SWAP1 POP SWAP2 SWAP1 POP JUMP JUMPDEST PUSH0 PUSH1 0x20 DUP3 ADD SWAP1 POP DUP2 DUP2 SUB PUSH0 DUP4 ADD MSTORE PUSH2 0xAFB DUP2 PUSH2 0xAC2 JUMP JUMPDEST SWAP1 POP SWAP2 SWAP1 POP JUMP JUMPDEST PUSH32 0x4E6F7420656E6F75676820766F74657300000000000000000000000000000000 PUSH0 DUP3 ADD MSTORE POP JUMP JUMPDEST PUSH0 PUSH2 0xB36 PUSH1 0x10 DUP4 PUSH2 0x5DD JUMP JUMPDEST SWAP2 POP PUSH2 0xB41 DUP3 PUSH2 0xB02 JUMP JUMPDEST PUSH1 0x20 DUP3 ADD SWAP1 POP SWAP2 SWAP1 POP JUMP JUMPDEST PUSH0 PUSH1 0x20 DUP3 ADD SWAP1 POP DUP2 DUP2 SUB PUSH0 DUP4 ADD MSTORE PUSH2 0xB63 DUP2 PUSH2 0xB2A JUMP JUMPDEST SWAP1 POP SWAP2 SWAP1 POP JUMP JUMPDEST PUSH0 DUP2 SWAP1 POP DUP2 PUSH0 MSTORE PUSH1 0x20 PUSH0 KECCAK256 SWAP1 POP SWAP2 SWAP1 POP JUMP JUMPDEST PUSH0 PUSH1 0x20 PUSH1 0x1F DUP4 ADD DIV SWAP1 POP SWAP2 SWAP1 POP JUMP JUMPDEST PUSH0 DUP3 DUP3 SHL SWAP1 POP SWAP3 SWAP2 POP POP JUMP JUMPDEST PUSH0 PUSH1 0x8 DUP4 MUL PUSH2 0xBC6 PUSH32 0xFFFFFFFFFFFFFFFFFFFFFFFFFFFFFFFFFFFFFFFFFFFFFFFFFFFFFFFFFFFFFFFF DUP3 PUSH2 0xB8B JUMP JUMPDEST PUSH2 0xBD0 DUP7 DUP4 PUSH2 0xB8B JUMP JUMPDEST SWAP6 POP DUP1 NOT DUP5 AND SWAP4 POP DUP1 DUP7 AND DUP5 OR SWAP3 POP POP POP SWAP4 SWAP3 POP POP POP JUMP JUMPDEST PUSH0 DUP2 SWAP1 POP SWAP2 SWAP1 POP JUMP JUMPDEST PUSH0 PUSH2 0xC0B PUSH2 0xC06 PUSH2 0xC01 DUP5 PUSH2 0x575 JUMP JUMPDEST PUSH2 0xBE8 JUMP JUMPDEST PUSH2 0x575 JUMP JUMPDEST SWAP1 POP SWAP2 SWAP1 POP JUMP JUMPDEST PUSH0 DUP2 SWAP1 POP SWAP2 SWAP1 POP JUMP JUMPDEST PUSH2 0xC24 DUP4 PUSH2 0xBF1 JUMP JUMPDEST PUSH2 0xC38 PUSH2 0xC30 DUP3 PUSH2 0xC12 JUMP JUMPDEST DUP5 DUP5 SLOAD PUSH2 0xB97 JUMP JUMPDEST DUP3 SSTORE POP POP POP POP JUMP JUMPDEST PUSH0 SWAP1 JUMP JUMPDEST PUSH2 0xC4C PUSH2 0xC40 JUMP JUMPDEST PUSH2 0xC57 DUP2 DUP5 DUP5 PUSH2 0xC1B JUMP JUMPDEST POP POP POP JUMP JUMPDEST JUMPDEST DUP2 DUP2 LT ISZERO PUSH2 0xC7A JUMPI PUSH2 0xC6F PUSH0 DUP3 PUSH2 0xC44 JUMP JUMPDEST PUSH1 0x1 DUP2 ADD SWAP1 POP PUSH2 0xC5D JUMP JUMPDEST POP POP JUMP JUMPDEST PUSH1 0x1F DUP3 GT ISZERO PUSH2 0xCBF JUMPI PUSH2 0xC90 DUP2 PUSH2 0xB6A JUMP JUMPDEST PUSH2 0xC99 DUP5 PUSH2 0xB7C JUMP JUMPDEST DUP2 ADD PUSH1 0x20 DUP6 LT ISZERO PUSH2 0xCA8 JUMPI DUP2 SWAP1 POP JUMPDEST PUSH2 0xCBC PUSH2 0xCB4 DUP6 PUSH2 0xB7C JUMP JUMPDEST DUP4 ADD DUP3 PUSH2 0xC5C JUMP JUMPDEST POP POP JUMPDEST POP POP POP JUMP JUMPDEST PUSH0 DUP3 DUP3 SHR SWAP1 POP SWAP3 SWAP2 POP POP JUMP JUMPDEST PUSH0 PUSH2 0xCDF PUSH0 NOT DUP5 PUSH1 0x8 MUL PUSH2 0xCC4 JUMP JUMPDEST NOT DUP1 DUP4 AND SWAP2 POP POP SWAP3 SWAP2 POP POP JUMP JUMPDEST PUSH0 PUSH2 0xCF7 DUP4 DUP4 PUSH2 0xCD0 JUMP JUMPDEST SWAP2 POP DUP3 PUSH1 0x2 MUL DUP3 OR SWAP1 POP SWAP3 SWAP2 POP POP JUMP JUMPDEST PUSH2 0xD10 DUP3 PUSH2 0x5D3 JUMP JUMPDEST PUSH8 0xFFFFFFFFFFFFFFFF DUP2 GT ISZERO PUSH2 0xD29 JUMPI PUSH2 0xD28 PUSH2 0x6B0 JUMP JUMPDEST JUMPDEST PUSH2 0xD33 DUP3 SLOAD PUSH2 0xA6A JUMP JUMPDEST PUSH2 0xD3E DUP3 DUP3 DUP6 PUSH2 0xC7E JUMP JUMPDEST PUSH0 PUSH1 0x20 SWAP1 POP PUSH1 0x1F DUP4 GT PUSH1 0x1 DUP2 EQ PUSH2 0xD6F JUMPI PUSH0 DUP5 ISZERO PUSH2 0xD5D JUMPI DUP3 DUP8 ADD MLOAD SWAP1 POP JUMPDEST PUSH2 0xD67 DUP6 DUP3 PUSH2 0xCEC JUMP JUMPDEST DUP7 SSTORE POP PUSH2 0xDCE JUMP JUMPDEST PUSH1 0x1F NOT DUP5 AND PUSH2 0xD7D DUP7 PUSH2 0xB6A JUMP JUMPDEST PUSH0 JUMPDEST DUP3 DUP2 LT ISZERO PUSH2 0xDA4 JUMPI DUP5 DUP10 ADD MLOAD DUP3 SSTORE PUSH1 0x1 DUP3 ADD SWAP2 POP PUSH1 0x20 DUP6 ADD SWAP5 POP PUSH1 0x20 DUP2 ADD SWAP1 POP PUSH2 0xD7F JUMP JUMPDEST DUP7 DUP4 LT ISZERO PUSH2 0xDC1 JUMPI DUP5 DUP10 ADD MLOAD PUSH2 0xDBD PUSH1 0x1F DUP10 AND DUP3 PUSH2 0xCD0 JUMP JUMPDEST DUP4 SSTORE POP JUMPDEST PUSH1 0x1 PUSH1 0x2 DUP9 MUL ADD DUP9 SSTORE POP POP POP JUMPDEST POP POP POP POP POP POP JUMP JUMPDEST PUSH0 PUSH2 0xDE0 DUP3 PUSH2 0x575 JUMP JUMPDEST SWAP2 POP PUSH2 0xDEB DUP4 PUSH2 0x575 JUMP JUMPDEST SWAP3 POP DUP3 DUP3 SUB SWAP1 POP DUP2 DUP2 GT ISZERO PUSH2 0xE03 JUMPI PUSH2 0xE02 PUSH2 0x9C4 JUMP JUMPDEST JUMPDEST SWAP3 SWAP2 POP POP JUMP JUMPDEST PUSH0 PUSH1 0x20 DUP3 ADD SWAP1 POP DUP2 DUP2 SUB PUSH0 DUP4 ADD MSTORE PUSH2 0xE21 DUP2 DUP5 PUSH2 0x60B JUMP JUMPDEST SWAP1 POP SWAP3 SWAP2 POP POP JUMP INVALID LOG2 PUSH5 0x6970667358 0x22 SLT KECCAK256 BLOBHASH DUP13 0xA9 0xC2 ADD 0xB3 0x4E PUSH30 0x11136291E5AB50AC19771110D2A4B00C43820691A7CF114D64736F6C6343 STOP ADDMOD BYTE STOP CALLER "
				},
				"gasEstimates": {
					"creation": {
						"codeDepositCost": "735800",
						"executionCost": "764",
						"totalCost": "736564"
					},
					"external": {
						"createProposal(string)": "infinite",
						"executeProposal(uint256)": "32340",
						"proposals(uint256)": "infinite",
						"vote(uint256)": "infinite",
						"voters(address)": "5133"
					}
				},
				"methodIdentifiers": {
					"createProposal(string)": "49c2a1a6",
					"executeProposal(uint256)": "0d61b519",
					"proposals(uint256)": "013cf08b",
					"vote(uint256)": "0121b93f",
					"voters(address)": "a3ec138d"
				}
			},
			"storageLayout": {
				"storage": [
					{
						"astId": 17,
						"contract": "contracts/Governance.sol:Governance",
						"label": "proposals",
						"offset": 0,
						"slot": "0",
						"type": "t_array(t_struct(Proposal)8_storage)dyn_storage"
					},
					{
						"astId": 22,
						"contract": "contracts/Governance.sol:Governance",
						"label": "voters",
						"offset": 0,
						"slot": "1",
						"type": "t_mapping(t_address,t_struct(Voter)13_storage)"
					}
				],
				"types": {
					"t_address": {
						"encoding": "inplace",
						"label": "address",
						"numberOfBytes": "20"
					},
					"t_array(t_struct(Proposal)8_storage)dyn_storage": {
						"base": "t_struct(Proposal)8_storage",
						"encoding": "dynamic_array",
						"label": "struct Governance.Proposal[]",
						"numberOfBytes": "32"
					},
					"t_bool": {
						"encoding": "inplace",
						"label": "bool",
						"numberOfBytes": "1"
					},
					"t_mapping(t_address,t_struct(Voter)13_storage)": {
						"encoding": "mapping",
						"key": "t_address",
						"label": "mapping(address => struct Governance.Voter)",
						"numberOfBytes": "32",
						"value": "t_struct(Voter)13_storage"
					},
					"t_string_storage": {
						"encoding": "bytes",
						"label": "string",
						"numberOfBytes": "32"
					},
					"t_struct(Proposal)8_storage": {
						"encoding": "inplace",
						"label": "struct Governance.Proposal",
						"members": [
							{
								"astId": 3,
								"contract": "contracts/Governance.sol:Governance",
								"label": "description",
								"offset": 0,
								"slot": "0",
								"type": "t_string_storage"
							},
							{
								"astId": 5,
								"contract": "contracts/Governance.sol:Governance",
								"label": "voteCount",
								"offset": 0,
								"slot": "1",
								"type": "t_uint256"
							},
							{
								"astId": 7,
								"contract": "contracts/Governance.sol:Governance",
								"label": "executed",
								"offset": 0,
								"slot": "2",
								"type": "t_bool"
							}
						],
						"numberOfBytes": "96"
					},
					"t_struct(Voter)13_storage": {
						"encoding": "inplace",
						"label": "struct Governance.Voter",
						"members": [
							{
								"astId": 10,
								"contract": "contracts/Governance.sol:Governance",
								"label": "voted",
								"offset": 0,
								"slot": "0",
								"type": "t_bool"
							},
							{
								"astId": 12,
								"contract": "contracts/Governance.sol:Governance",
								"label": "weight",
								"offset": 0,
								"slot": "1",
								"type": "t_uint256"
							}
						],
						"numberOfBytes": "64"
					},
					"t_uint256": {
						"encoding": "inplace",
						"label": "uint256",
						"numberOfBytes": "32"
					}
				}
			},
			"userdoc": {
				"kind": "user",
				"methods": {},
				"version": 1
			}
		}
	}
}