{
	"data": {
		"bytecode": {
			"linkReferences": {},
			"object": "6080604052348015600e575f80fd5b5061031c8061001c5f395ff3fe608060405234801561000f575f80fd5b506004361061003f575f3560e01c80633701bfca146100435780637bf727aa146100745780638c53822614610090575b5f80fd5b61005d600480360381019061005891906101f1565b6100c1565b60405161006b929190610245565b60405180910390f35b61008e60048036038101906100899190610296565b6100ff565b005b6100aa60048036038101906100a591906101f1565b61018f565b6040516100b8929190610245565b60405180910390f35b5f805f808481526020019081526020015f205f015f9054906101000a900460ff165f808581526020019081526020015f206001015491509150915091565b60405180604001604052808315158152602001828152505f808581526020019081526020015f205f820151815f015f6101000a81548160ff02191690831515021790555060208201518160010155905050827f5431a97efb0c7bd097b4b2ac5fca4204239e7d0df71a5cd678d76ad226554ee78383604051610182929190610245565b60405180910390a2505050565b5f602052805f5260405f205f91509050805f015f9054906101000a900460ff16908060010154905082565b5f80fd5b5f819050919050565b6101d0816101be565b81146101da575f80fd5b50565b5f813590506101eb816101c7565b92915050565b5f60208284031215610206576102056101ba565b5b5f610213848285016101dd565b91505092915050565b5f8115159050919050565b6102308161021c565b82525050565b61023f816101be565b82525050565b5f6040820190506102585f830185610227565b6102656020830184610236565b9392505050565b6102758161021c565b811461027f575f80fd5b50565b5f813590506102908161026c565b92915050565b5f805f606084860312156102ad576102ac6101ba565b5b5f6102ba868287016101dd565b93505060206102cb86828701610282565b92505060406102dc868287016101dd565b915050925092509256fea2646970667358221220c594993491b602f562134a222985799ae0cc065cc211132656b4bf04dee9447964736f6c634300081a0033",
			"opcodes": "PUSH1 0x80 PUSH1 0x40 MSTORE CALLVALUE DUP1 ISZERO PUSH1 0xE JUMPI PUSH0 DUP1 REVERT JUMPDEST POP PUSH2 0x31C DUP1 PUSH2 0x1C PUSH0 CODECOPY PUSH0 RETURN INVALID PUSH1 0x80 PUSH1 0x40 MSTORE CALLVALUE DUP1 ISZERO PUSH2 0xF JUMPI PUSH0 DUP1 REVERT JUMPDEST POP PUSH1 0x4 CALLDATASIZE LT PUSH2 0x3F JUMPI PUSH0 CALLDATALOAD PUSH1 0xE0 SHR DUP1 PUSH4 0x3701BFCA EQ PUSH2 0x43 JUMPI DUP1 PUSH4 0x7BF727AA EQ PUSH2 0x74 JUMPI DUP1 PUSH4 0x8C538226 EQ PUSH2 0x90 JUMPI JUMPDEST PUSH0 DUP1 REVERT JUMPDEST PUSH2 0x5D PUSH1 0x4 DUP1 CALLDATASIZE SUB DUP2 ADD SWAP1 PUSH2 0x58 SWAP2 SWAP1 PUSH2 0x1F1 JUMP JUMPDEST PUSH2 0xC1 JUMP JUMPDEST PUSH1 0x40 MLOAD PUSH2 0x6B SWAP3 SWAP2 SWAP1 PUSH2 0x245 JUMP JUMPDEST PUSH1 0x40 MLOAD DUP1 SWAP2 SUB SWAP1 RETURN JUMPDEST PUSH2 0x8E PUSH1 0x4 DUP1 CALLDATASIZE SUB DUP2 ADD SWAP1 PUSH2 0x89 SWAP2 SWAP1 PUSH2 0x296 JUMP JUMPDEST PUSH2 0xFF JUMP JUMPDEST STOP JUMPDEST PUSH2 0xAA PUSH1 0x4 DUP1 CALLDATASIZE SUB DUP2 ADD SWAP1 PUSH2 0xA5 SWAP2 SWAP1 PUSH2 0x1F1 JUMP JUMPDEST PUSH2 0x18F JUMP JUMPDEST PUSH1 0x40 MLOAD PUSH2 0xB8 SWAP3 SWAP2 SWAP1 PUSH2 0x245 JUMP JUMPDEST PUSH1 0x40 MLOAD DUP1 SWAP2 SUB SWAP1 RETURN JUMPDEST PUSH0 DUP1 PUSH0 DUP1 DUP5 DUP2 MSTORE PUSH1 0x20 ADD SWAP1 DUP2 MSTORE PUSH1 0x20 ADD PUSH0 KECCAK256 PUSH0 ADD PUSH0 SWAP1 SLOAD SWAP1 PUSH2 0x100 EXP SWAP1 DIV PUSH1 0xFF AND PUSH0 DUP1 DUP6 DUP2 MSTORE PUSH1 0x20 ADD SWAP1 DUP2 MSTORE PUSH1 0x20 ADD PUSH0 KECCAK256 PUSH1 0x1 ADD SLOAD SWAP2 POP SWAP2 POP SWAP2 POP SWAP2 JUMP JUMPDEST PUSH1 0x40 MLOAD DUP1 PUSH1 0x40 ADD PUSH1 0x40 MSTORE DUP1 DUP4 ISZERO ISZERO DUP2 MSTORE PUSH1 0x20 ADD DUP3 DUP2 MSTORE POP PUSH0 DUP1 DUP6 DUP2 MSTORE PUSH1 0x20 ADD SWAP1 DUP2 MSTORE PUSH1 0x20 ADD PUSH0 KECCAK256 PUSH0 DUP3 ADD MLOAD DUP2 PUSH0 ADD PUSH0 PUSH2 0x100 EXP DUP2 SLOAD DUP2 PUSH1 0xFF MUL NOT AND SWAP1 DUP4 ISZERO ISZERO MUL OR SWAP1 SSTORE POP PUSH1 0x20 DUP3 ADD MLOAD DUP2 PUSH1 0x1 ADD SSTORE SWAP1 POP POP DUP3 PUSH32 0x5431A97EFB0C7BD097B4B2AC5FCA4204239E7D0DF71A5CD678D76AD226554EE7 DUP4 DUP4 PUSH1 0x40 MLOAD PUSH2 0x182 SWAP3 SWAP2 SWAP1 PUSH2 0x245 JUMP JUMPDEST PUSH1 0x40 MLOAD DUP1 SWAP2 SUB SWAP1 LOG2 POP POP POP JUMP JUMPDEST PUSH0 PUSH1 0x20 MSTORE DUP1 PUSH0 MSTORE PUSH1 0x40 PUSH0 KECCAK256 PUSH0 SWAP2 POP SWAP1 POP DUP1 PUSH0 ADD PUSH0 SWAP1 SLOAD SWAP1 PUSH2 0x100 EXP SWAP1 DIV PUSH1 0xFF AND SWAP1 DUP1 PUSH1 0x1 ADD SLOAD SWAP1 POP DUP3 JUMP JUMPDEST PUSH0 DUP1 REVERT JUMPDEST PUSH0 DUP2 SWAP1 POP SWAP2 SWAP1 POP JUMP JUMPDEST PUSH2 0x1D0 DUP2 PUSH2 0x1BE JUMP JUMPDEST DUP2 EQ PUSH2 0x1DA JUMPI PUSH0 DUP1 REVERT JUMPDEST POP JUMP JUMPDEST PUSH0 DUP2 CALLDATALOAD SWAP1 POP PUSH2 0x1EB DUP2 PUSH2 0x1C7 JUMP JUMPDEST SWAP3 SWAP2 POP POP JUMP JUMPDEST PUSH0 PUSH1 0x20 DUP3 DUP5 SUB SLT ISZERO PUSH2 0x206 JUMPI PUSH2 0x205 PUSH2 0x1BA JUMP JUMPDEST JUMPDEST PUSH0 PUSH2 0x213 DUP5 DUP3 DUP6 ADD PUSH2 0x1DD JUMP JUMPDEST SWAP2 POP POP SWAP3 SWAP2 POP POP JUMP JUMPDEST PUSH0 DUP2 ISZERO ISZERO SWAP1 POP SWAP2 SWAP1 POP JUMP JUMPDEST PUSH2 0x230 DUP2 PUSH2 0x21C JUMP JUMPDEST DUP3 MSTORE POP POP JUMP JUMPDEST PUSH2 0x23F DUP2 PUSH2 0x1BE JUMP JUMPDEST DUP3 MSTORE POP POP JUMP JUMPDEST PUSH0 PUSH1 0x40 DUP3 ADD SWAP1 POP PUSH2 0x258 PUSH0 DUP4 ADD DUP6 PUSH2 0x227 JUMP JUMPDEST PUSH2 0x265 PUSH1 0x20 DUP4 ADD DUP5 PUSH2 0x236 JUMP JUMPDEST SWAP4 SWAP3 POP POP POP JUMP JUMPDEST PUSH2 0x275 DUP2 PUSH2 0x21C JUMP JUMPDEST DUP2 EQ PUSH2 0x27F JUMPI PUSH0 DUP1 REVERT JUMPDEST POP JUMP JUMPDEST PUSH0 DUP2 CALLDATALOAD SWAP1 POP PUSH2 0x290 DUP2 PUSH2 0x26C JUMP JUMPDEST SWAP3 SWAP2 POP POP JUMP JUMPDEST PUSH0 DUP1 PUSH0 PUSH1 0x60 DUP5 DUP7 SUB SLT ISZERO PUSH2 0x2AD JUMPI PUSH2 0x2AC PUSH2 0x1BA JUMP JUMPDEST JUMPDEST PUSH0 PUSH2 0x2BA DUP7 DUP3 DUP8 ADD PUSH2 0x1DD JUMP JUMPDEST SWAP4 POP POP PUSH1 0x20 PUSH2 0x2CB DUP7 DUP3 DUP8 ADD PUSH2 0x282 JUMP JUMPDEST SWAP3 POP POP PUSH1 0x40 PUSH2 0x2DC DUP7 DUP3 DUP8 ADD PUSH2 0x1DD JUMP JUMPDEST SWAP2 POP POP SWAP3 POP SWAP3 POP SWAP3 JUMP INVALID LOG2 PUSH5 0x6970667358 0x22 SLT KECCAK256 0xC5 SWAP5 SWAP10 CALLVALUE SWAP2 0xB6 MUL CREATE2 PUSH3 0x134A22 0x29 DUP6 PUSH26 0x9AE0CC065CC211132656B4BF04DEE9447964736F6C634300081A STOP CALLER "
		},
		"gasEstimates": {
			"creation": {
				"codeDepositCost": "159200",
				"executionCost": "200",
				"totalCost": "159400"
			},
			"external": {
				"checkWarrantyStatus(uint256)": "infinite",
				"updateWarranty(uint256,bool,uint256)": "infinite",
				"warranties(uint256)": "infinite"
			}
		},
		"methodIdentifiers": {
			"checkWarrantyStatus(uint256)": "3701bfca",
			"updateWarranty(uint256,bool,uint256)": "7bf727aa",
			"warranties(uint256)": "8c538226"
		}
	},
	"abi": [
		{
			"anonymous": false,
			"inputs": [
				{
					"indexed": true,
					"internalType": "uint256",
					"name": "assetId",
					"type": "uint256"
				},
				{
					"indexed": false,
					"internalType": "bool",
					"name": "isUnderWarranty",
					"type": "bool"
				},
				{
					"indexed": false,
					"internalType": "uint256",
					"name": "expiryDate",
					"type": "uint256"
				}
			],
			"name": "WarrantyUpdated",
			"type": "event"
		},
		{
			"inputs": [
				{
					"internalType": "uint256",
					"name": "assetId",
					"type": "uint256"
				}
			],
			"name": "checkWarrantyStatus",
			"outputs": [
				{
					"internalType": "bool",
					"name": "",
					"type": "bool"
				},
				{
					"internalType": "uint256",
					"name": "",
					"type": "uint256"
				}
			],
			"stateMutability": "view",
			"type": "function"
		},
		{
			"inputs": [
				{
					"internalType": "uint256",
					"name": "assetId",
					"type": "uint256"
				},
				{
					"internalType": "bool",
					"name": "isUnderWarranty",
					"type": "bool"
				},
				{
					"internalType": "uint256",
					"name": "newExpiryDate",
					"type": "uint256"
				}
			],
			"name": "updateWarranty",
			"outputs": [],
			"stateMutability": "nonpayable",
			"type": "function"
		},
		{
			"inputs": [
				{
					"internalType": "uint256",
					"name": "",
					"type": "uint256"
				}
			],
			"name": "warranties",
			"outputs": [
				{
					"internalType": "bool",
					"name": "isUnderWarranty",
					"type": "bool"
				},
				{
					"internalType": "uint256",
					"name": "expiryDate",
					"type": "uint256"
				}
			],
			"stateMutability": "view",
			"type": "function"
		}
	]
}